:020000040000FA
:1000000080480020411B0000817000002D1B000073
:100010002D1B00002D1B00002D1B00000000000008
:100020000000000000000000000000009D1C000017
:100030002D1B000000000000491C00002D1B0000CB
:10004000451E0000451E0000451E0000451E000024
:10005000451E0000451E0000451E0000451E000014
:10006000451E0000451E0000451E0000451E000004
:10007000451E0000451E0000451E0000451E0000F4
:10008000451E0000451E0000451E0000451E0000E4
:10009000451E0000451E0000451E0000451E0000D4
:1000A000451E0000451E0000451E0000451E0000C4
:1000B000451E0000451E0000451E0000451E0000B4
:1000C000451E0000451E0000451E0000451E0000A4
:1000D000451E0000451E0000451E0000451E000094
:1000E000451E0000451E0000451E0000451E000084
:1000F000451E0000451E0000451E0000451E000074
:1001000000000000000000000000000000000000EF
:1001100000000000000000000000000000000000DF
:1001200000000000000000000000000000000000CF
:1001300000000000000000000000000000000000BF
:1001400000000000000000000000000000000000AF
:10015000000000000000000000000000000000009F
:10016000000000000000000000000000000000008F
:10017000000000000000000000000000000000007F
:10018000000000000000000000000000000000006F
:10019000000000000000000000000000000000005F
:1001A000000000000000000000000000000000004F
:1001B000000000000000000000000000000000003F
:1001C000000000000000000000000000000000002F
:1001D000000000000000000000000000000000001F
:1001E000000000000000000000000000000000000F
:1001F00000000000000000000000000000000000FF
:10020000DEE61E284CBBCE8F023400003C0000000E
:10021000688D0000010000000000000000000000E8
:10022000FFFF02910000000000000000000000003D
:1002300000000000000000000000000053B94AB9AF
:10024000002908BF00281CBF4FF0FF314FF0FF30DE
:1002500000F00CB8ADF1080C6DE904CE00F008F820
:10026000DDF804E0DDE9022304B07047704700BF09
:100270002DE9F04786468C460846089E154674468A
:100280001946002B40F0C2808542B2FA82F245D96D
:100290004AB1C2F1200300FA02FC2EFA03F39540A2
:1002A00043EA0C0C94404FEA154EA8B2BCFBFEF892
:1002B000230C0EFB18CC08FB00F943EA0C439945CC
:1002C00028D9EB1808F1FF3704D2994502D9A8F1D3
:1002D00002072B44A3EB0903A4B2B3FBFEFC0EFB05
:1002E0001C330CFB00F044EA0344A04214D92C193F
:1002F0000CF1FF3304D2A04202D9ACF102032C442A
:10030000241A43EA07401EB1D440002334607360CE
:10031000BDE8F0874746DDE76346F1E792BB431B44
:1003200001214FEA154EAFB2B3FBFEFC200C0EFBD1
:100330001C330CFB07F840EA0343984562D9EB18DD
:100340000CF1FF3004D2984502D9ACF102002B44E5
:10035000A3EB0803A4B2B3FBFEFC0EFB1C330CFBA7
:1003600007F744EA0344A7424ED92C190CF1FF3396
:1003700004D2A74202D9ACF102032C44E41B43EAA5
:100380000040C0E7C2F1200320FA03F195409040FD
:100390002EFA03F303434FEA154EAFB2B1FBFEFC56
:1003A0000EFB1C10190C0CFB07F841EA00418845B4
:1003B00004FA02F422D969180CF1FF3004D28845FE
:1003C00002D9ACF102002944A1EB08019BB2B1FBB8
:1003D000FEFC0EFB1C110CFB07F743EA01439F4296
:1003E0000ED9EB180CF1FF3104D29F4202D9ACF1C7
:1003F00002012B44DB1B41EA004192E76046E3E740
:100400006146F7E76046A3E76346B7E7834206D94C
:1004100016B9002108467BE7C6E900E0F9E7B3FA20
:1004200083F78FB9834201D3724508D8BEEB02042B
:1004300060EB030301209C461EB9002168E73846A3
:10044000FAE7C6E9004CF8E7C7F1200CBB4022FAF6
:100450000CF41C432EFA0CF120FA0CF3B8400143C3
:100460004FEA14490EFA07F5B3FBF9F81FFA84FEB8
:1004700009FB18300B0C08FB0EFA43EA00439A45BF
:1004800002FA07F240D9E31808F1FF3004D29A4586
:1004900002D9A8F102002344A3EB0A0389B2B3FBFB
:1004A000F9F809FB183308FB0EFE41EA03418E45BB
:1004B0002CD9611808F1FF3304D28E4502D9A8F176
:1004C0000203214443EA0040A0FB0298A1EB0E0185
:1004D0004145CE46434602D306D14D4504D2B9EB41
:1004E000020E68EB04030138002EA6D0B5EB0E0215
:1004F00061EB030101FA0CFC22FA07F34CEA030357
:10050000F940C6E9003198E74046C5E74346D9E7D8
:100510007FB51E4B1E4AC3F80026C3F80426C3F855
:100520000826C3F80C26C3F81026C3F81426C3F80F
:100530001826C3F81C2605F00EF901A800F0F2FBFE
:10054000144B1B68834200D0FEE769469DF8080003
:1005500005F0F9F8009B039C1C44019B1D8903F0E6
:100560007DF8661900F0B8FF00F08CFF01F012FB77
:10057000635983F30888002383F31488BFF36F8FD4
:10058000BFF36F8F73689847FEE700BF000001401C
:100590003546526E9803002021B1012906D06FF034
:1005A00015007047044B53F830007047024B03EBC3
:1005B000C0035868704700BF888500002DE9F04FE0
:1005C000D9B0DDE963899B46754B039038A8659FD8
:1005D0001D680E46144600F029FFB8F1000F07D041
:1005E000B9F1000F04DD4A46414638A806F039FB50
:1005F00033897289D6F80CA013449A444FF000084E
:10060000C2453DD838A90CA806F051FB27B12022DD
:100610000CA9384606F082FD0023009322464FF6CF
:10062000FF73314606A805F097F8074628BB0398E4
:100630000B9E214605F0ACF986421ED8DFF864B166
:10064000DFF864914FF0FF360DF1120304AA05A9FB
:1006500006A805F0CFF800280FDB40F09A80059936
:1006600006A805F013F910BBBDF812004F4A4FF66B
:10067000FF7132F8023B8B4217D1494B1D688BE06A
:10068000629BAAEB0809994528BF99464B465A46F2
:100690004146204606F05FFC0028EED14A46594606
:1006A00038A806F0DEFAC844AAE79842E1D1BDF8BE
:1006B0001230102B17D0222B4DD0012BC4D1BDF8F6
:1006C0001030202BD9D8059938AA204606F043FCD3
:1006D00006460028D1D19DF810A0BAF1200F19D9F3
:1006E0004FF0FF36B0E7BDF81070202FC5D1059947
:1006F0003B4638AA204606F02EFC0028BDD13A46DB
:1007000038A90CA805F0FCF8DBF800308342B4D11E
:10071000012799E7D9F80030DFF894800393039B11
:100720009E42DDDA1CA800F081FED8F8042058F8BB
:10073000081B12681CA806F094FA1CA914A806F05D
:10074000B6FA524638A914A806F0D8FC00283FF49F
:100750007BAF0136E3E7731C3FF476AFD9F8003086
:10076000B342BDDDBDF81030802B86D8059938AA7C
:10077000204606F0F0FB00287FF47FAFF6B2BDF80C
:100780001030009638AA20210CA800F013F8054676
:10079000A6E7002F3FF471AF284659B0BDE8F08FAF
:1007A000040000209803002090850000248A0000A7
:1007B000948500002DE9F04798B016461D469DF837
:1007C0008020394BDFF8E48053F83210039103EBBB
:1007D000C20307465B68D8F80090186804AA014471
:1007E000302303A805F0F5FB002849D1DDE90343D8
:1007F0001C4405AA08AB214603A805F012FC0028FA
:100800003ED1069A072A3BD12949079806F076FC83
:10081000002835D1099A082A32D126490A9806F0CB
:100820006DFC68BB04AA214603A805F0E6FB38BBB3
:10083000DDE903A30AEB0302944221D1412B1FD12E
:100840003544302305AA294604A8049605F0C1FBC7
:10085000A0B9DDE9043213449D420FD32A4604A90E
:1008600008A805F021F848B92A4604A910A805F0FF
:100870001BF818B99AF80030042B05D0D8F800906E
:10088000484618B0BDE8F08700F0E4FC08AB0090E3
:10089000202239460AF1010006F080F80128EDD146
:1008A000054BD3F80090EBE794850000040000208E
:1008B0005B8A0000528A0000980300200B78072B07
:1008C0000FD00A4A400052F820108B420BD0013062
:1008D00052F82000834214BF4FF0FF304FF4C07035
:1008E0007047032070474FF4C07070479C8500002C
:1008F000F0B587B0836D0093582303FB01000E4FC2
:10090000036A01936E46002556F8044BA168102334
:1009100002AA1039204606F01EFB58B910223946AB
:1009200002A806F0EBFB00B115B1204607B0F0BD00
:100930000125E9E70024F8E7428A0000F0B52C27FA
:1009400007FB010785B03D6A044628460E4606F0BF
:100950004BFB7B1EFA1C13F8011F81420DD1934201
:10096000F9D11EB12946204605F026F91B4B18681F
:1009700005B0F0BD1A4B186823E02C237343E2182E
:100980001169C806EDD4E058164B9842F2D1D068F0
:1009900013891B18EED25289D218EBD2AB689A4257
:1009A000E8D240F60C630B40E4D1CDE90233019369
:1009B0004FF4807300932A460B4B39462046FFF7CD
:1009C000FDFD0A4B1B688342D2D0002ECED0AA6810
:1009D0000021284606F0E9FAC8E700BF0000002021
:1009E000040000203DB8F3968C15002098030020E9
:1009F00073B50D46044600212846CDE9001105F0E7
:100A000096F8E8B12368164EB34203D101AA2046F6
:100A100004F0F5FFE36AB34204D16A46012120469F
:100A200004F0EDFFDDE90032934288BF0193019BA2
:100A3000AB60019A2946204600F0EAF902B070BD89
:100A400001462046FFF754FF05F10801064604F071
:100A50006FFFAB680193304606F07CFAE9E700BF10
:100A60003DB8F3962DE9F84FDFF870B01C4C1D4DE2
:100A7000884691469A4600260B9B9E4201D3002051
:100A80000FE00B9B154A9F1BB7F5806F28BF4FF4F3
:100A900080673B4606EB0A01404606F05CFA10B15F
:100AA0000120BDE8F88F0A993B465A46711848461E
:100AB00006F066FA0028F3D1C4F800563E44C4F8A4
:100AC0000456C4F80856C4F80C56C4F81056C4F8B6
:100AD0001456C4F81856C4F81C56CDE79C030020E1
:100AE000000001403546526EF0B58A4B436203F573
:100AF00080620E4603F50063002187B0044602655C
:100B0000C3650846FFF748FD04F12001C0B200F0BC
:100B100049FE78B90121FFF73FFD04F14C01C0B255
:100B200000F040FE30B904F15801072000F03AFE11
:100B300008B1FEE7FEE7204604F0BFFF002849D1D8
:100B400000221146204604F0A2FF002859D1204679
:100B500005F041F9002854D002A804F0DFFF014657
:100B6000204605F074F800284BD102A804F0DFFFFE
:100B700080F0010102AAC9B2204604F088FF0246B3
:100B800000283ED102A804F0D2FF0546E8BB02A926
:100B90002046FFF72DFF9DF80F3084F86430033BAB
:100BA000012B06D8284600F0E3F810B1FF2384F8A3
:100BB00064309DF80F30023B022B06D8002000F075
:100BC000C1F810B1FF2384F8643094F86430FF2B2F
:100BD00012D1FEE70123984284F86430B0D194F832
:100BE00064308DF80F30042B37D8012B3BD84DD013
:100BF000FF2384F8643049E000221146204604F0C7
:100C000046FF012384F86430E9E79DF80F70012F57
:100C100017D1104602F0FAFD831E022B05460DD8AF
:100C200039462046FFF78AFE3B4B1B68984205D0A9
:100C30003A4B1D68A84214BF0525012584F864506D
:100C4000CDE701212046FFF779FE334B1B68984220
:100C50000CBF9DF80F300523D4E7052BC8D1002029
:100C600000F086F810E002A92046FFF7C1FE94F8D4
:100C70006430DA1E012A0ED8002000F079F800282E
:100C8000B6D1002000F05EF80028B1D194F86430AD
:100C9000FF2B03D1FEE7022BF8D1F2E70022012B54
:100CA0001F4D019216D01146204604F0F0FE88B187
:100CB0002D681022002102A806F03BFAA06D06F074
:100CC00049F9E06C06F046F9206A06F043F9284637
:100CD00007B0F0BD00212046FFF730FE0E4F3B6805
:100CE0008342E5D12A689A42E2D00C4A12689A42BD
:100CF000DED0019B01330193019B012B00D0FEE765
:100D0000206A04F026FD3071236A5B6834603D6818
:100D1000B360CEE79C07002098030020000000206D
:100D20000400002038B5064D04466C2200212846F8
:100D300006F0FFF921462846FFF7D6FE38BD00BF72
:100D40009C13002013B5094B01A913F8300000F0E3
:100D500029FD48B9019806F0B3FF0446019806F052
:100D6000F9F8204602B010BD0124FAE7A48500007E
:100D70001FB50F4B01A913F8300000F013FDA8B9FF
:100D8000019802A902F0ECFC044668B99DF80B300A
:100D9000032B03D1019806F061FF0446019806F089
:100DA000D9F8204604B010BD0124F7E70124F8E784
:100DB000A48500007FB5044602A9006A02F0D0FCB9
:100DC000A06D124C694602F0CBFC002526469DF82A
:100DD0000810207806F0CFFE88B19DF800106078EA
:100DE00006F0C9FE58B1A378042B03D09DF80A2061
:100DF0009A4204D106EB8506F07804B070BD013547
:100E0000042D04F10404E2D10020F6E7638A000017
:100E10002DE9F04F0C468DB01146054604F05AFFFF
:100E200000238046B8F1000F029302DA0DB0BDE84E
:100E3000F08FAB6D99686B6A03EBC8025668B142DC
:100E4000C0F013810433B8F1010880F006812368F3
:100E5000029A013B934200F21C8107A9042000F092
:100E6000A1FC08A9022000F09DFC09A9072000F0C0
:100E700099FC6B6AA86ED3F800B008F1010253F830
:100E800032A004F03FFD002102460390284604F002
:100E90006CFD6A6A049052F830301268AAEB0B09B4
:100EA00009EB06019B1A994240F2E180079B0998E1
:100EB0009F68039B5F44A7EB0A07FF1A04F027FD16
:100EC000874228BF07462368012B40F0D280BB1B16
:100ED00018BF0123A3712379012B40F0CC8009981E
:100EE0000021826804F066FE2368012B16D109995F
:100EF0002246284604F08CFEA3797BB90799059316
:100F0000284604F059FE07992246284604F080FE40
:100F10000998059B8268194604F04CFE0023DDE920
:100F20000812009301974B462846FFF79BFD214688
:100F3000284604F009FE0223237118B15E4A1368A3
:100F4000013313602368012B09D1089905932846C2
:100F500004F032FEA279059B002A40F09D803246C3
:100F60001AB10898494604F025FEDDE907124B4600
:100F7000CDE900972846FFF775FD2146284604F085
:100F8000E3FD0323237118B14B4A13680133136047
:100F9000A3796BB10799284604F00EFE6B6A049A98
:100FA0001E6853F83230ABEB0606A6EB0A061E4469
:100FB00026B107983246494604F0FCFD0023CDE9EE
:100FC0000097079A09992846FFF74CFDA37963B368
:100FD000099804F09CFCAA6E099952004F440346FC
:100FE00001920097079A2846FFF73CFD18B1324A54
:100FF00013680133136009980AA902F0B1FB9DF848
:101000002B30012B02D1079806F028FE9DF82910FD
:10101000012903D00798002206F041FEA168079835
:1010200004F094FC079802F07BFB0023A679A371DF
:101030002146284604F088FD2368013323600123FC
:10104000237118B11C4A136801331360C6B10998A3
:101050000021826804F0AEFD12E053F838203244DB
:101060009142FFF4F4AE1646EDE60026EFE6374671
:1010700029E700232EE7022B3FF464AF032B87D030
:10108000079805F067FF089805F064FF099805F0D8
:1010900061FF029B0133C5E6039A1946284604F016
:1010A00064FC2B6D1A6853F83030ABEB0202A2EBF4
:1010B0000A021A4454E700BF081400200A4619B176
:1010C000024B00211B681847704700BF0800002032
:1010D000F0B5082289B005F0E0F8CB6A03930B6BFA
:1010E00004934B6B05938B6B0693CB6B0793134663
:1010F0006A460C460646002711461046CDE90177A0
:10110000009704F0D8FF31460546304604F0D3FF7F
:10111000216B0391616B0491A16B0591E16B054417
:10112000CDE906171046114604F0C5FF31460544C7
:10113000304604F0C0FF0544206A0090606A0190C8
:10114000A06A0290A06B0690E06B07903046CDE954
:101150000477039704F0AFFF0544606A0090A06A2B
:10116000D4F838C00190E06A0290CDF810C0606BEE
:10117000D4F83CC00390CDE905C0206A0790304602
:1011800004F099FF0544E06A0090206B0190606BC9
:101190000290206A0690A06A07903046CDE9047755
:1011A000039705F0ADF8236B0093636B0193A36B7A
:1011B0000293E36B0393636A0693E36A07932D1A22
:1011C0000823304605F09CF8636B0093A36B0193F2
:1011D000E36B0293236A0393636A0493A36ACDE9E2
:1011E0000537236B07932D1A0823304605F088F83E
:1011F000A36B0093E36BCDE90137636A0393A36AA2
:101200000493E36A0593636B07932D1A0823304612
:1012100005F076F82D1A10D40D4C35B90822314658
:10122000204605F046F801280FD008232246314613
:10123000304605F065F82D1AEFE7054A08233146D8
:10124000304604F038FF2D18F8D409B0F0BD00BFC7
:10125000B085000000487047AC8500002DE9F04FD4
:101260009DB0036802934368039383680493C36843
:101270000593036906934369079383690893C369D8
:101280000993DDE9062CDDE904BEDDE90246984656
:10129000DFF890A1089B00930027CD595AF8049BD2
:1012A0000CAB2DBADD514FEAF223A94483EAB21305
:1012B000009D83EA72634B4425EA020502EA0C09A9
:1012C00085EA09052B44434486EA0B054FEA743846
:1012D00088EAB408254006EA0B0985EA090588EA88
:1012E000B4580437A844402F03EB0E054344DE46B0
:1012F000DDF8008040F087804B490A914FF0100ADA
:1013000051460AF1010A0DF1700E0AF00F070EEBBB
:10131000870701F00F0957F8407C01974FEAB7485B
:1013200088EAF71801F10E0707F00F070EEB8707A1
:10133000093157F8407C4FEAF74E8EEA774ECDF8E8
:101340002CE001F00F010DF1700E0EEB81010EEBA0
:10135000890951F8401C59F840EC7144DDF804E06B
:1013600088EADE08DDF82CE041448EEA972E7144CD
:1013700005EA02084FEAF52E2CEA050787EA080776
:101380008EEAB51EDDF8288049F8401C8EEA756E9D
:10139000774458F804EFCDF8288077440F4400993B
:1013A000CDF800C039444FEA733E84EA06078EEA5E
:1013B000B30E1F4004EA06088EEAB35E87EA080708
:1013C0007744BAF1400F01EB0B0E0F44B34622D124
:1013D00002993944016003991944049B41602344F4
:1013E0008360059B3344C360069B73440361079B82
:1013F0002B444361089B13448361099B6344C3618D
:101400001DB0BDE8F08FCDF800C0B3469446264627
:101410002A461C4641E7944626462A461C467546FF
:101420003B466DE75C8600009886000010B50446D8
:10143000C8B17022002105F098FC0B4B0B4A0C49F7
:101440000C48C4E900230C4BC4E902130B4BC4E95C
:1014500004030B4BA36103F17453A3F52303A3F619
:101460009243E361012010BD85AE67BB67E6096A60
:1014700072F36E3C7F520E513AF54FA58C68059B76
:10148000ABD9831FBFF36F8F72B6124B4FF0FF3291
:10149000C3F88020C3F88420C3F88820C3F88C20C8
:1014A000C3F89020C3F89420C3F89820C3F89C2078
:1014B000C3F88021C3F88421C3F88821C3F88C21A4
:1014C000C3F89021C3F89421C3F89821C3F89C2154
:1014D000704700BF00E100E0F8B5254B254D4FF007
:1014E000FF3401275F60C3F84843C3F8084303F59E
:1014F000C04300265F60C3F84843C3F8084303F5C0
:10150000983302205F60C3F84843C3F80843C5F826
:10151000084300F0E3FB6F60C5F84C61D5F84C312F
:10152000C5F81061D5F81031C5F84461D5F84431DB
:10153000C5F8006505F518352820C5F8084300F002
:10154000CDFB6F60C5F84C61D5F84C31C5F8106122
:10155000D5F81031C5F84461D5F84431064BC5F8CB
:101560000065C3F808454FF08043C3F80843F8BD51
:1015700000B000400020004000F001402DE9F0479D
:10158000058B04462807904611D4022905F007056B
:1015900040F0CC80204605F005FC78B10138218B65
:1015A000042811D8DFE800F0C2106D8595000129EC
:1015B0000CBF45F0100545F02005258388F3118800
:1015C000BFF36F8FBDE8F08701F0070AAA4500F06E
:1015D000A5800027B9463E46A368002B00F0BC80DA
:1015E00041F00801218388F31188BFF36F8FA16850
:1015F000002900F0BA800D68002900F0B680D1F80B
:101600000480334652462046C047002D76D02B68D2
:1016100029461D46F0E701F007035A1F012A1BD88F
:10162000002221F00701062B276889B2C4E90022B5
:1016300009D13B4603E0628B013262831B68002BB9
:10164000F9D141F002012183204605F0ABFB0028CF
:101650007AD041F0200176E0042B0AD121F0070175
:1016600089B22183204605F09DFB10B141F0200195
:101670002183218B01F0070AAA454FD00027B946E4
:10168000AAE7236921F0070141F00601062DD3F8EE
:10169000009021832DD1B9F1000F3FD041F0080116
:1016A000218388F31188BFF36F8F3A492046C847DA
:1016B00029E021F00701236941F0040189B2042DDA
:1016C000D3F804902183E6D000273E464FF0040A69
:1016D00082E721F00701236941F0050189B2052D58
:1016E000D3F808902183D6D000273E464FF0050A54
:1016F00072E700273E464FF0060A6DE72B4687E764
:10170000B9F1000FD1D1EFF31188202383F31288B0
:10171000BFF36F8F238B23F008032383258BEA0607
:101720002ED525F01003238305F007056669218B6C
:10173000002EBFF670AF00232768C4E9003321F004
:10174000070141F001012183218B01F0070AAA451D
:101750004FF000097FF440AF002F9CD041F008010A
:10176000218388F31188BFF36F8F002FC8D03D68A5
:10177000394633465246204605F040FB2F46F4E7F3
:10178000AB067FF51BAF25F02003238305F007058B
:1017900000E700BF296E0000014B03600020704786
:1017A0006087000070B5104B1C680D46B4B10F4B3C
:1017B000196800238B4202DB6FF0010070BD2246E6
:1017C00012F8106B864202D001331446F2E7E0684B
:1017D00006F029FC28B12C600020EFE76FF00C0028
:1017E000ECE76FF01200E9E70C00002060870000D2
:1017F00010B588B0436802938368C068CDE90332AE
:101800000A680023CDE906230C4601AA0449059382
:1018100005F027FD079808B9059B236008B010BDA7
:10182000F76F000008B54FF01022D2F8100210F444
:101830007F4018D00C4B0121C3F80415BFF34F8F24
:10184000BFF36F8F6FF47F41C2F81012D3F80024FA
:10185000002AFBD00020C3F80405BFF34F8FBFF36D
:101860006F8F05F08EFA08BD00E0014030BFFFF732
:10187000FDBF00BF074A936893F90E10002907DBEC
:10188000526993421FBF044A536843F08053536028
:10189000704700BF5C15002000ED00E070B5264BDE
:1018A00015469A6A12F0100F9A6A14BF1124102478
:1018B00012F0080F9A6A18BF1224920706460AD53A
:1018C000586B9A6A140634D519B19A6A22F08002CC
:1018D0009A62132401E06FF01500174B9A6A12F018
:1018E000010F9A6A18BF142412F0200F9A6A18BFC9
:1018F0001524D20602D49B6A9B070AD50E4B5B685F
:10190000190506D5314600F05BFA10B180F309885D
:101910000224094B9A6A920642BF5A6A22F4005284
:101920005A629A6A42F0FF029A6200232B702046A4
:1019300070BD6FF01500CCE700ED00E0134B9A6A24
:1019400012F0007F9A6A14BF1E201D2012F0807FC3
:101950009A6A18BF1F2012F4002F9A6A18BF21201C
:1019600012F4802F9A6A18BF222012F4003F9A6A5C
:1019700018BF232012F4803F9A6A6FEA02426FEA8E
:1019800012429A6218BF2420704700BF00ED00E0A9
:1019900010B5184B0246986A9C6A10F4805F14BF19
:1019A0001720162014F4006F9C6A18BF1820A40595
:1019B00008D5986A000404D51AB19A6A22F4004244
:1019C0009A6219200B4B9A6A12F4806F9A6A18BFB8
:1019D0001A20D2050CD49B6A13F4005F18BF1C2098
:1019E000044A936A43F47F43936200230B7010BD53
:1019F0001B20F5E700ED00E070B5454B5B688AB051
:101A00000546C3F30803002686F31188BFF36F8FE2
:101A100002F07F40B0F17F4F11D102F00C00082896
:101A20000DD010074CBF0D4601260022033B8DF858
:101A30000720032B05D8DFE803F01E5D615A354609
:101A4000F3E700249DF807309BB92022294602A81D
:101A500005F064FB099B002E54D0C3F3080222B9A1
:101A60006FEA53236FEA4323099302A9204605F046
:101A7000FDFA0AB070BD264BDA6A9107E1D4DA6A42
:101A8000002ADEDBDA6A5200DBD55A69A96942F422
:101A900080725A61BFF34F8FBFF36F8F5A6931F86D
:101AA000021C22F480725A61BFF34F8FBFF36F8F15
:101AB0004DF6027291420AD09A6AD2B24AB10DF141
:101AC000070201212846FFF7E9FE0446BAE72C6821
:101AD000B8E79A6A12F47F4F05D00DF10701012093
:101AE000FFF756FFF1E79B6AB3F5803FA9D3FFF7F5
:101AF00025FFEAE70DF107020021E3E70DF10701F9
:101B00000020EDE723F4FF7323F00103ACE700BFEF
:101B100000ED00E0044B5A6942F010025A615A6924
:101B200022F008025A61704700ED00E0EFF30880F0
:101B3000EFF3098101B57246FFF75EFF01BD00BFFB
:101B4000002080F31488BFF36F8F0F4880F308885C
:101B500001F0B6FE00200D490860BFF34F8F00F082
:101B60002BF8202080F3118809484FF404614018B5
:101B700080F30988EFF314800221084380F314886E
:101B8000BFF36F8F00F0E4F88048002094ED00E090
:101B9000C01600200749D1F890200023C2F3072285
:101BA0001846934200DB7047C1F89830C1F8A00096
:101BB0000133F6E700ED00E008B572B6002383F3C9
:101BC0001388FFF7E7FF144B4FF0FF32C3F8802074
:101BD000C3F88420C3F88820C3F88C20C3F8902071
:101BE000C3F89420C3F89820C3F89C20C3F8802140
:101BF000C3F88421C3F88821C3F88C21C3F890214D
:101C0000C3F89421C3F89821C3F89C2162B6BFF3AE
:101C10004F8FBFF36F8F08BD00E100E0084B9B685A
:101C200083420BD1EFF3058343B1064B5A6842F070
:101C300080525A605A6A22F400425A6203F03EBB54
:101C40005C15002000ED00E012498A684FF030007A
:101C50001044EFF3098C80E8F01F202080F31288F5
:101C6000BFF36F8F0C4F4FF000664A698A603E6089
:101C7000506F0023536780F3118804B5104600F0BD
:101C8000FFF8BDE8044002F1300090E8F01F8CF34B
:101C9000098870475C15002004ED00E01EF0040F79
:101CA0000CBFEFF30880EFF30980816911F8021C83
:101CB0000229FFD001B5724605F0DEF901BD00BF73
:101CC00040B2002807DB044A4109012300F01F004D
:101CD000834042F82130704700E100E040B2002824
:101CE0000CDB4309064900F01F002033012282402B
:101CF00041F82320BFF34F8FBFF36F8F704700BFB2
:101D000000E100E0054B420900F01F0053F82220DB
:101D1000012303FA00F01040704700BF00E100E02B
:101D200040B20028A8BF00F1604001F10101B8BF36
:101D3000064B4FEA4111ACBF00F5614000F00F00C7
:101D4000C9B2B4BF195480F80013704714ED00E015
:101D50000B4A08B50B4B22F07F029A60BFF34F8FFE
:101D6000BFF36F8FD3F8882022F47002C3F8882065
:101D700002F006FF03F0B0FB00F058F802F044FF59
:101D80000000000000ED00E042F8203C009B42F81B
:101D90001C3C0A49019B42F8183C029B42F8143C47
:101DA00021F001014FF0807342F8043C42F8081C16
:101DB0000023203A02654367704700BF6F6D000043
:101DC000094A0346906870B113F1160F406E05D0B2
:101DD000A0F140029A4205D8834203D2814228BF33
:101DE00000207047002070475C15002008B5094BA3
:101DF0000E461546986000F043F82C4686F3098895
:101E00000020054B98472046002100220023034C68
:101E1000204700BF5C150020977000006F6D000028
:101E2000014B10221A61704700ED00E004480023C6
:101E30002021C2180133302B82F80013F9D17047EA
:101E400000E100E008B5EFF30583064A103B02EB22
:101E5000C30152F8330049688847BDE80840FFF7DE
:101E600009BD00BF58830000024B034A034801210B
:101E700000F076B80000022000000020F487000087
:101E8000426E054B403A1A60044A4021C3E90112F0
:101E90001846012100F06EB80C14002000000B154C
:101EA000084AC2F898000B6823F01F03034343F06D
:101EB0001003C2F89C308B6843F00103C2F8A030D5
:101EC000704700BF00ED00E02DE9F043DFF86080CF
:101ED00085B00E461F4604464FF00009B14523DA8F
:101EE0006068D8B13FB1411E08421BD11F2819D9E3
:101EF0002368194216D12368019305F0EFF8A3680F
:101F000003430393D8F89050C5F30725D0B2013DA1
:101F1000A84207D801A9FFF7C3FF421C09F1010934
:101F20000C34DBE76FF01502104605B0BDE8F08316
:101F300000ED00E0044B0522C3F89420BFF34F8F5F
:101F4000BFF36F8F704700BF00ED00E0BFF35F8FFE
:101F5000024B0022C3F89420704700BF00ED00E060
:101F600010B5034C01232278FFF7AEFF207010BD9F
:101F70008C16002008B50B4A00231278FFF7A4FF47
:101F800010F1160F07D0084A0021D2F89030C3F3A1
:101F90000723984200DB08BDC2F89800C2F8A010E1
:101FA0000130F2E78C16002000ED00E02DE9F0434F
:101FB000534B544CD3F890302568C3F307239D420C
:101FC00085B000F29A80FFF7C1FF00200C26854201
:101FD0001AD14D4C4D4F25706846FFF7DDFBDFF8F9
:101FE0002081DFF82C9106460025AE4213D12378DC
:101FF00043490020D1F89020C2F30722934276DBB8
:10200000FFF798FF002042E0616806FB0011FFF730
:1020100047FF0130DBE7009800EB05114FEA051C94
:10202000CB683B40B3F5000F48D00AD8B3F5001F8A
:1020300030D0B3F5800F36D0B3F5801F10D0013506
:10204000D3E7B3F1807F42D0B3F1007FF7D150F8EE
:102050000C3088684A6805F041F840F4802009E0B7
:1020600050F80C3088684A6805F038F840F088501D
:1020700040F43020CDE901230390D8F89030207847
:10208000C3F30723013B98422AD96FF0150005B02E
:10209000BDE8F08350F80C3088684A6805F01EF8F7
:1020A00040EA0900E6E750F80C3088684A6805F015
:1020B00015F840F0007040F40030DBE750F80C30C9
:1020C00088684A6805F00AF840F08270D2E750F854
:1020D0000C3088684A6805F001F840F08870C9E75C
:1020E00001A9FFF7DDFE237801332370A7E7C1F8CC
:1020F0009830C1F8A00001337CE74FF0FF30C6E70D
:1021000000ED00E0008800008C1600200000F0FFC9
:1021100000000811044A0123C2F840354FF0804204
:102120000020C2F87835704700E0014020B1034B31
:10213000800143F001031847704700BF808500000D
:10214000BFF34F8F0549064BCA6802F4E0621343A0
:10215000CB60BFF34F8F00BFFDE700BF00ED00E095
:102160000400FA05084B70B5C31A0D4607499B10C9
:10217000044659430648402204F0EDFF2B46014631
:102180002046BDE8704018472C140020B76DDBB620
:10219000B882000073B50C4C0C4A4023041B00931A
:1021A0000D460B460A49A41061430646094804F04F
:1021B000FEFF011E05DA30462B4602B0BDE8704036
:1021C000184702B070BD00BF2C1400201972000027
:1021D000B76DDBB6B882000010B5EFF31184202391
:1021E00083F31288BFF36F8F074A136823F002014D
:1021F000DB07116002D4012005F0C5FD84F31188CE
:10220000BFF36F8F10BD00BF7C140020002270B59B
:10221000012104461046FFF783FD0F4801F03AFC08
:102220000E4B984215D101F045FC26690C49304609
:1022300004F007FE00280BDB0125356424690849FA
:1022400004F11C0004F0FDFD002801DBE564002022
:1022500070BD6FF00400FBE75D2300000000AD0BD4
:10226000208800001FB500220123CDE90223094A7E
:10227000CDF800D06B46CDF804D004F0C6FF00289E
:1022800005DB4FF480420023684602F05FFD05B095
:102290005DF804FB3772000030B4104B0C2202FBD7
:1022A000003301460020D3E90E529863EFF311800A
:1022B000202484F31288BFF36F8F1C6C04F0C004D9
:1022C00044F002041C6480F31188BFF36F8F1DB1CA
:1022D0002B46034830BC184730BC70472C140020F4
:1022E000B882000010B4EFF31182202383F3128828
:1022F000BFF36F8F1748016841F002040460C807FC
:1023000007D482F31188BFF36F8F012010BC01F056
:10231000E3BB4FF08041D1F80C04D1F80C14C9078D
:10232000EFD5EFF3118083F31288BFF36F8F0A4963
:102330000B6C03F0C00343F002030B6480F31188BD
:10234000BFF36F8F82F31188BFF36F8F002010BC33
:10235000FFF7A2BF7C1400202C14002010B101282C
:1023600004D07047034B1B6C5B0701D1FFF794BF90
:10237000704700BF2C1400202DE9F0413849BFF30D
:102380005B8F0746012251E8003F41E8002000280A
:10239000F9D1BFF35B8F33B9324933484B60CB601F
:1023A0008A6004F061FD7B1E012B2BD8012F07D121
:1023B0004FF08043D3F81C3403F00303012B21D0EA
:1023C00005F07BFE0546F8B9284B1B78E3B14FF0CA
:1023D00080430222C3F808230646DFF894804FF0BA
:1023E0008044D4F81824D4F81834D20315D503F057
:1023F0000303012B01D0012F0FD155B386F31188B0
:10240000BFF36F8FBDE8F081EFF31186202383F3D4
:102410001288BFF36F8F0125DFE7ADB1304604F0BE
:102420004EFED4F81835002BDBD1D4F80421002A55
:10243000D7D0C4F80431D4F804310123C4F81835D6
:10244000C8F88031A360CCE70021212005F0A5FE6B
:10245000E7E74FF080430222C3F80423D2E700BF2E
:10246000281400201814002048140020BD16002055
:1024700000E100E0C3780F2B14D9C96B0B480B0E99
:1024800013708B0200EA911003F47C0309060343E6
:1024900001F0FE4110680B43054901400B431360F6
:1024A000002070476FF08500704700BF00FF0300F9
:1024B000FF000080024B0B6001231360704700BFD8
:1024C00080140020004870473C88000010B50122AD
:1024D00011460648064C05F0E4FD05F0F4FC2060CA
:1024E00005F0EDFC6060002010BD00BF88140020E6
:1024F0008014002070B50C46154605F0E0FC294616
:102500000646204604F0E2FE08B3B4FBF6F306FBF1
:102510001343E3B9B5FBF6F306FB1353BBB9AE4265
:1025200001D9002070BD4FF0FF324FF0FF33094852
:1025300002F00CFC05F0C3FC0646204601F052FFF9
:10254000AD1B3444F9D1034802F0CCFBE9E76FF04E
:102550001500E7E788140020F8B50E463046194606
:1025600017461C4604F0B2FE08B346EA040515F00F
:1025700003051CD1A4B10F484FF0FF324FF0FF33D9
:1025800002F0E4FB24F00304A54206EB050009D1A8
:10259000094AD2F80034DB07FBD5064802F0A2FB5B
:1025A0000020F8BD795901F03DFF0435ECE76FF0EC
:1025B0001500F6E78814002000E00140004870474D
:1025C000688800002DE9F04F8FB0044602AF006923
:1025D0004FF0FF32012105F064FD6668306805F0B8
:1025E00022FD78B1F06810B105F01DFD50B12069F1
:1025F00004F09FFE204605F070F8002809DA2069F3
:1026000004F095FE6FF0120528463437BD46BDE84C
:10261000F08F204604F013FF051E40F38B80E9077E
:1026200000F18280206904F082FE07F1100120464B
:1026300004F016FF80460028E4D1337E63B320699E
:1026400004F077FE204604F0FAFE051E1FDD337EFF
:1026500025EA03053D764346CDE900888022062120
:10266000204604F06CFE03460028C8D107F118028A
:102670000121009201918022204604F060FE002892
:10268000BDD100220023204604F023FF0546206927
:1026900004F04DFE002DB5D11823FA180021204674
:1026A000EA4604F097FE0028ACD1944BBA699A42EE
:1026B000A8D1BB7F012B9CBF0133DBB207F1200205
:1026C00094BFDB001023D318FB601546FB68AB42B8
:1026D00037D12369186AD546194603F10806002246
:1026E0004D7D25B18D7D0AB1954200D22A46023139
:1026F0008E42F5D1002A85D04FF0FF359540ED434D
:1027000015F480557FF47EAF4FF48052000B9A622F
:102710005862206904F00DFE636893F820309A0730
:1027200000F1B6802069C4E000220023204604F0B6
:10273000D0FE0546206904F0FAFD002DBFF675AF06
:1027400060E7EA792B7843EA0223B3F57F4F40F044
:102750009D80EB786979C7F808D0142B28BF142323
:102760009B00242B1A4638BF2422073202F4FF6252
:10277000ADEB020DAA792879090241EA02410DF177
:10278000080801434246204604F024FE002864D194
:10279000D8F80460D4F810B0002E0BF115095EDAF9
:1027A00026F000460122A6F12000C6F1200102FA1F
:1027B00000F022FA01F1084302FA06F6F6080021B9
:1027C00046EA40760822484604F0B3FC01214A4616
:1027D0004046796004F032FD79680131C9B20529BB
:1027E00009F10209F3D1EA780A2A88BFD8F828202B
:1027F000CBF8206083BFC2F30312012303FA02F275
:102800004FF48072ABF81E20D8F8003013F4C02FBC
:102810003AD007F1140241462846FFF72BFE064640
:1028200090BB97F8148008F1FF33DBB2FD2B2BD857
:1028300018F0030F11D0206904F07BFD18F0020F8F
:102840000FD10023CDE900338022B721204604F0C8
:1028500076FD88B1206904F06AFDD546D2E60136DE
:10286000ACE7CDE90066334680220621204604F01D
:1028700066FD0028E5D0EDE72269137D43F00103F2
:102880001375206904F053FDD7F808D008351DE70B
:10289000CDE900552B468022B921204604F04FFD9A
:1028A000054610BB6368256993F820309B070FD459
:1028B000284604F03CFD206904F03BFD204604F06E
:1028C0000CFF0546206904F032FD05EAE5759BE63C
:1028D00005F0BAFC4FF47A72A0FB020302FB01314F
:1028E000C00B40EA414028611CE7206904F01FFD4D
:1028F000002DE0DA15F1860FDDD085E65346445011
:10290000F0B54068057B01F01F0444EA45140569F1
:1029100087B0002D64D0B2F5001F00F1100506D17C
:102920002146284605F0C0FA002007B0F0BD01AEF0
:102930000027B2F5800F0197776039D1B3F1007F9E
:1029400014BF052304238DF804300023CDE904636C
:102950000393836823FA01F111F001011AD1B2F156
:10296000A07F17D104F01F03620903F5E0732AD09A
:10297000012A3BD11F4A52F82330DB070AD40DF15C
:10298000030632462146284601F086FB1A4B984240
:102990001CD0029603AA2146284601F03FFA174BA5
:1029A000984220D101222146284601F0D9FBBBE7FD
:1029B000B3F1C06F05D0B3F1007F14BF0123022330
:1029C000C1E70323BFE74FF0A042D4E731462846D2
:1029D00001F0C0FB094B9842DBD06FF00B00A4E77D
:1029E0006FF08500A1E76FF015009EE751F82330E6
:1029F000FFDE00BF000300500400AD0B0000AD0B74
:102A000038B545682B69B3B11035284601F092FB03
:102A1000044680B90146284601F058FB084B98420D
:102A20000BD108492246284601F030FB22460521F9
:102A30000620FFF775F9002038BD6FF00400FBE7B2
:102A40000000AD0B492A0000420970B5034602D0D0
:102A5000012A17D070BD0D4E326951680029F9D096
:102A600003F01F0301250C689D400029F2D08A68FD
:102A70002A4002D04B68304698472CB12368214643
:102A80001C46F2E7024EE7E72346F8E7E082000043
:102A9000CC8200002DE9F043466840F20635D006AE
:102AA000337B87B002EA050554BFC2F34010032010
:102AB00001F01F07B5F5837F144647EA43178DF8E9
:102AC000030045D00FD8062D18D007D8B5B1022D78
:102AD00040D06FF0150007B0BDE8F083B5F5807FFA
:102AE000F7D101250AE040F20222954234D0B5F533
:102AF000407F33D0B5F5007FEBD1022501232203BF
:102B000003FA01F12CD57368C3F80815326982BB4A
:102B100007F01F037F0929D0012F77D13E4A02EB2E
:102B2000830284F48033D2F80017C3F30043C4F364
:102B3000404444EA430421F4E16144EA800421F082
:102B4000070144EA05230B43C2F800370020C2E71F
:102B50000725D3E70425D1E70525CFE70325CDE7F2
:102B6000630344BF7368C3F80C15CFE74FF0A0426E
:102B7000D5E710360DF102023946304601F08CFAE5
:102B800014F4403F80460CD13946304605F08AF9AE
:102B9000224B9845DAD19DF80210304601F0D4FA64
:102BA000D4E701AB4FF0000903AA39463046CDE91E
:102BB0000439CDE90199CDF80C9001F02FF9174BAC
:102BC000984286D114F4003315D09DF803308DF867
:102BD0000E3084F48034C4F300444B4603AA3946D3
:102BE00030468DF80C508DF80D4001F0D1F90B4BAB
:102BF0009842CDD06DE7CDE9043303AA0DF103036C
:102C000039463046039301F009F9F0E703F5E07324
:102C100052F82330FFDE00BF000300500000AD0B70
:102C2000036803F01F025B09026004D0012B034814
:102C300018BF002070474FF0A040704700030050BD
:102C40002DE9F04FDFF82881DFF8289185B0924612
:102C5000834600EB810140F2FF17594503D1002064
:102C600005B0BDE8F08FDBF800305804C3F3C32291
:102C7000C3F3080476D41B0E18F80260BC4208BFE8
:102C80004FF0FF340C2B70D8DFE803F0070E141759
:102C90001A2A176F6F6F6F305D00CAF80C45631CFE
:102CA00054D10BF1040BD8E7CAF81445651CF8D0D1
:102CB000002555E0CAF80845F1E7CAF81045F5E7E0
:102CC000601CCAF80845ECD0002503A80394FFF760
:102CD000A7FF039B012202FA03F3C0F80C350EE0B4
:102CE000621CCAF80C45DCD00125EEE7CAF808459D
:102CF000002EDBD1631CD4D000252A460626DBF843
:102D00000030019303F40040002818BF002203A8FC
:102D1000009218BF01250394FFF782FF039C019BDB
:102D2000009A00EB8400C3F3412CD0F80047330233
:102D300043EA8C03134304EA0904234343EA4503AB
:102D4000C0F80037ADE7CAF80C45D1E703A80394F3
:102D5000FFF766FF039B012505FA03F3C0F808356A
:102D60002A46CCE76FF015007AE76FF0850077E729
:102D70002E8B0000F0F8FCFF2DE9FF410569D0F82B
:102D800004802B6D0646A86C002835D1002B53D04B
:102D9000B8F838406A6CEF6C9C4228BF1C46EB6C5C
:102DA00053B1296D41B107F06041B1F1005F03D02B
:102DB000082C6F6E28BF082400926A6CAC651AB1AB
:102DC000AA6C002A18BF2246CDE901271BB12B6D42
:102DD000002B18BF2346002269464046039301F0AA
:102DE00071FD184B984229D06FF00401304604B0B1
:102DF000BDE8F04104F00CBE696CEF6CB8F83840E7
:102E00000A46ABB1834228BF03469C4228BF1C46FA
:102E10000029C4D001F06043B3F1005FBFD0082C9B
:102E200028BF08242246286E04F078F92A6EB6E7F7
:102E3000844228BF0446EBE71946D7E704B0BDE853
:102E4000F08100BF0000AD0B2DE9F04F8FB0884638
:102E50000193436802938B8804699904074691465D
:102E60002DD44FF0FF324FF0FF3304F1100001F08A
:102E70006DFFC4F80480D7F804B0D7F810A0DBF8D1
:102E8000083003939AF85D3023B1DAF800309845A2
:102E900000F0B280B8F804E01EF4006F16D06FF0B6
:102EA000850523689B8813F4005304D1636004F103
:102EB000100001F017FF28460FB0BDE8F08FA3699E
:102EC000002BCED163689845CBD1D4E71EF0090F13
:102ED00002D06FF01505E4E7CEF34513082BF8D1C7
:102EE000D8F800C0964B9C45F3D90BF10C060FCED9
:102EF00004AD0FC50FCE0FC5039B634528BF6346C6
:102F00009C4696E803008F4B9C4585E8030017D24A
:102F10008D4B9C4514D28D4B9C4511D28C4B9C45BE
:102F200049D88C4B9C4548D88B4B9C4547D88B4BFC
:102F30009C4546D88A498B4B8B4A8C4588BF1346A3
:102F40001EF0020F09930EF004033CD0002B14BFB7
:102F5000032302238DF82830CEF300138DF8293097
:102F6000DBF80030D3F808251EF0020F4FEA5213A9
:102F7000CEF3400102F01F022CD143B3012B40F0ED
:102F8000D8807A4901239340C1F80C359AF85D3016
:102F90002BB1584601F04AFC00238AF85D303B46CD
:102FA000734A04A9584601F00DFC724B98421ED09A
:102FB0006FF0040575E7704BC2E7704BC0E7704BCC
:102FC000BEE7704BBCE7003B18BF0123C2E74FF0E0
:102FD000A041D7E743B1012B40F0AE806349012304
:102FE0009340C1F80835D1E74FF0A041F7E701233E
:102FF0008AF85D30CAF80080012384F85C30029BB7
:10300000196C4A1C03D003F1440004F06BFDB9F1C4
:10301000000F68D1C4F834900023A36304F1480280
:1030200004F1380104F1340004F01DFC019B6064DC
:10303000002B60D1E3630023236404F1500204F108
:10304000400104F13C0004F00EFC00252A46E06437
:1030500001212046256304F03DFC3846FFF78CFE35
:10306000A06B2A462B4683424DD10023256C19467E
:10307000A9424FD19342264638BF13464FF4FA5225
:1030800002FB03F556F8203B4FF000081B68B5FB28
:10309000F3F54FF4004CC835414640F2E7304FF4A9
:1030A0007A720023E5FB0C01FDF7C8F802460B46D7
:1030B000304601F04BFE024618B9256B15F1740F2E
:1030C0002FD10298C4F8588001F0B0FB84F85D80DD
:1030D0006FF07301384604F09BFC304601F05CFE53
:1030E0006FF07305DDE6D9F800306363002B93D0F1
:1030F000D9F8043091E7019B1B68E363002B9AD059
:10310000019B5B6898E7616B01EBC3010133496880
:103110000A44A8E7E06B00EBC100013140680344BA
:10312000A6E7002D3FF4BDAE0146386904F0D2FB9E
:10313000B7E6C1F80C15FFDE0023C3F80835FAE73F
:1031400047E801000048E8010024F40000127A007A
:10315000FF083D007F841E003F420F001FA10700B3
:103160008FD0030048E8010090D003000003005016
:10317000337A00000000AD0B00093D0080841E0082
:1031800040420F0020A1070000F01F0240090DD0AF
:1031900001280ED10A4B03EB82030A4AD3F8000739
:1031A000024042EA8102C3F8002770474FF0A04373
:1031B000F1E702F5E072002353F82230FFDE00BF92
:1031C00000030050F0F8FCFFF0B587B001238DF844
:1031D000023002238DF804306B4403930F4601AB99
:1031E0000DF103010024049305460291059400F0BB
:1031F000B1FF0C4B984206460FD103AA3946284628
:1032000000F00CFEB0420BD09DF80310284600F0F1
:103210009BFF6FF0040007B0F0BD6FF01200FAE7FB
:103220002046F8E70000AD0B70B5012383400E4A3D
:10323000BFF35B8FDC4352E8001F01EA040542E85C
:103240000056002EF7D1BFF35B8F4FF480328240DF
:103250000648C0F80823BFF35F8FBFF36F8F0B42A0
:1032600014BF0120002070BDE014002000100140B8
:1032700070B40E49D1E90034D01AC31844F10004E7
:1032800022F07F46C1E90034A6F50013B3F5400FE4
:1032900009D2074B1B681A0A1B069C19054B42F101
:1032A0000005C3E9004570BC02F0D6B9E801002072
:1032B000E4140020F001002011B3BFF35B8F012361
:1032C000104A834052E800CF4CEA030C42E800C1A8
:1032D0000029F7D1BFF35B8F0B4A4FF48033834053
:1032E000C2F80433094BBFF35B8F1B68BFF35B8FDE
:1032F000C340DB0742BF064B4FF40032C3F8002146
:10330000704700BFE014002000100140DC140020D2
:1033100000E100E00D4B1868010A0006BFF35F8F63
:103320000B4BD3F80435181841F10001B3F5801F99
:103330000AD2084BD3E90023904271EB030303D276
:1033400010F1807041F10001704700BFE4140020CB
:1033500000100140F00100202DE9F04F85B0164625
:103360001F469DF840A00446FFF75EFF0190FFF75F
:10337000D1FFB04271EB070354D23E4B301A67EBDA
:103380000101984271F100014FD23B4B03EB041352
:10339000D3E902239F4208BF96425ED037494FF4DB
:1033A000803804F1500508FA04F8AD00C1F84883EC
:1033B0002046ADB204F0BEFB26F07F4B05F1804500
:1033C00004F5A87305F58835DC464FF00309029330
:1033D000029A2CF07F4341F82230C1F84483D1F89F
:1033E0000435274A6FF00200C01A604420F07F4085
:1033F000904232D9286868B1D1F804350393A3EB21
:103400000B0020F07F40B0F5000F26D9204604F0D5
:1034100091FB039BBAF1000F07D109EB030C09F1F3
:103420000109D5E7BAF1000F09D06FF01505204664
:103430000199FFF741FF284605B0BDE8F08F012351
:10344000104ABFF35B8FA34052E8000F184342E8D5
:1034500000010029F8D1BFF35B8F07490E982301C3
:1034600001EB0412C8500F9B5360C2E902670025AC
:10347000DDE700BF01008000D801002000100140FE
:10348000FDFF7F00DC1400207FB51C4C1C4BC4F8F2
:103490000833C4F848331B4B00254FF0FF304FF082
:1034A000FF31C4F80855C3E902014FF48033C4F872
:1034B0000433154B02264FF400320121C4F8046393
:1034C0001120C3F880212A46FEF72AFC1120FEF7BE
:1034D000F7FB0E4A0123A360236013600C4B0D4AD7
:1034E0000093CDE9015500232846FFF735FF30460C
:1034F000FEF742FF284604B070BD00BF0010014037
:1035000003000F00D801002000E100E0E0140020DB
:1035100071320000FFFF7F002DE9F7432F4CD4F8F4
:10352000043399070BD5D4F8043143B12C4A002356
:10353000C4F80431D4F80431136801331360D4F8AB
:103540000433DA0329D5BFF35B8F264B53E8002FF2
:1035500022F0010143E800100028F7D1BFF35B8F90
:10356000D30702D4D4F84031BBB10025C4F8405190
:10357000D4F84031FFF7CEFEEFF31182202383F31E
:103580001288BFF36F8F184BD3E90267B042B9417D
:1035900006D282F31188BFF36F8F03B0BDE8F083CA
:1035A0004FF0FF384FF0FF39C3E90289D3E900102B
:1035B0001D604FF48033C4F84833C4F84051D4F848
:1035C000403182F31188BFF36F8F0029E5D000905E
:1035D00032463B4628468847DFE700BF00100140DF
:1035E000E4140020DC140020D801002030B5431C76
:1035F000124C85B005D08442A8BF0446012CB8BF48
:103600000124FFF787FE0E4B0C4DD3E90013401A3F
:10361000B0F5000F10D22218AA4228BF2A4652182D
:103620004FF0000007490091CDE9010043F100038C
:10363000FFF792FE05B030BD2A46F0E7FFFF7F009E
:10364000E80100207132000008B5FFF763FE024B6D
:103650001B68C01A08BD00BFE801002010B5084C67
:10366000012363601120FEF739FB064BC4F80833D1
:10367000C4F84833044B4FF40032C3F8802110BD26
:103680000010014003000F0000E100E02DE9F043CD
:103690002148224F85B004F05DFA1F4BD3F83880E3
:1036A0000446002601ADB04503D8002005B0BDE8B2
:1036B000F08397E80700636AD3F8009085E8070075
:1036C0000C222946484603F019FD98B9B9F1000FBC
:1036D00010D0636A21691B681A6991420AD19A69FC
:1036E000A169914206D8E169914203D962695B6997
:1036F0009A4309D0236A5BB1002383F31188BFF397
:103700006F8F0423184602DFE36801361C44CAE7C2
:10371000626A1360F8E700BF0002000060850000E5
:1037200030B5816885B0103921F00704054603F0F3
:103730005BFC10220146684603F0FBFC074910229F
:10374000684603F0EBFC10236A462146284603F046
:1037500017FC003818BF012005B030BD428A0000B8
:1037600030B50D46816887B0102302AA103904468F
:1037700003F0F1FB002802DA012007B030BD10226F
:1037800002A9204604F005FA00283AD11E49102269
:1037900002A803F0B3FC00280CBF012302232B7006
:1037A000204604F0E2F9012301460DF1070220460C
:1037B00003F0D1FB0028DFDB9DF8073003F00F0298
:1037C0001B096A702B7101220DF10701204604F0DC
:1037D000E0F910B96B78042B03D901236B70002337
:1037E0002B71A268183A22F00702083AA91C204659
:1037F00004F0E2F90028BFD1E91C204604F035FAB4
:10380000BBE70323CBE700BF428A00007FB5264D0C
:103810004400694655F8240004F02DFA002835D1FB
:10382000013402A955F8240004F025FA01282BD10F
:1038300003238DF808308DF80B309DF800509DF86B
:1038400008601A4A00241078294604F094F918B345
:103850005078314604F08FF9F0B19378042B03D0FF
:103860009DF80310994217D1D378042B03D09DF80B
:103870000B10994210D11379042B09D15079831E72
:10388000022B03D804B070BD0028D6D0FF20F9E782
:103890009DF802109942F1D00134032C02F1060286
:1038A000D1D10120EEE700BF048A00005D8B00004B
:1038B000024AD2F80034002BFBD0704700E00140F0
:1038C00010B54FF08053D3F830210D2A55D14FF069
:1038D00080410022C1F80C21C1F81021C1F838251F
:1038E000464AD3F80404C2F82005D3F80804C2F805
:1038F0002405D3F80C04C2F82805D3F81004C2F844
:103900002C05D3F81404C2F83005D3F81804C2F813
:103910003405D3F81C04C2F84005D3F82004C2F8DB
:103920004405D3F82404C2F84805D3F82804C2F8A3
:103930004C05D3F82C04C2F85005D3F83004C2F873
:103940005405D3F83404C2F86005D3F83804C2F83B
:103950006405D3F83C04C2F86805D3F84004C2F803
:103960006C05D3F84434C2F87035D1F80034DB0765
:1039700009D56FF00103C1F800344FF08053D3F83C
:1039800030310D2B0CD14FF08053D3F834313BB193
:103990004FF01023D3F808224FF08043C3F8582586
:1039A0004FF01023D3F80022002A03DBD3F80432AF
:1039B000002B22DA124901234FF01020C1F8043500
:1039C0001224FFF775FFC0F80042FFF771FFC0F83F
:1039D0000442FFF76DFF0023C1F80435FFF768FFCD
:1039E000BFF34F8F0749084BCA6802F4E0621343E4
:1039F000CB60BFF34F8F00BFFDE710BD00C000409C
:103A000000E0014000ED00E00400FA0530B5046874
:103A1000CCB1BFF35B8FB4FA84F3C3F11F03DBB205
:103A200001229A4024EA020250E8005FA54204D134
:103A300040E8002CBCF1000FF6D1BFF35B8FE6D15C
:103A400002480B7030BD0248FCE700BF0000AD0B20
:103A50000200AD0B10B50368CB40DB0714D4012383
:103A60008B400268BFF35B8F43EA020150E8004FCE
:103A7000944204D140E8001CBCF1000FF6D1BFF322
:103A80005B8FEED1014810BD0148FCE70000AD0B93
:103A90000400AD0B044B1A7922B9012218601A7187
:103AA0000248704702487047E81400200000AD0B40
:103AB0000C00AD0B08B5074B1B682BB10020FEF7BF
:103AC00021F908B9FEF7FCF84FF080430022C3F853
:103AD000182508BDE814002010B510B1012843D006
:103AE00010BD4FF08043D3F81814D3F81824C8033E
:103AF00021D502F00303012B04D013B1002004F000
:103B0000EAF800234FF080420220C2F8183508225C
:103B10004FF4827303F180430021196002F1804267
:103B20001C6801241460154A12680AB34FF08043E0
:103B3000C3F80403D4E7D3F81424D107E1D5D3F8AC
:103B40001C249207DAD40D4A12681AB10222C3F873
:103B50000423C5E7D3F80421002AFBD00022C3F8D0
:103B60000421D3F80431BBE700224FF48073D1E77E
:103B70001A68002AFCD019601B68B1E7E81400201D
:103B8000F8B54FF08043184FD3F8044301250026C1
:103B900004B9F8BDB4FA84F0C0F11F00830003F546
:103BA00080739BB203F1804305FA00F2196892B268
:103BB00024EA02040029EBD01E601B684FF080430A
:103BC000022AC3F808230BD1D3F81814D3F8181419
:103BD000890705D1C3F81855C3F804239D60D7E7BA
:103BE0003B68C0B29847D3E7E8140020036803F0AD
:103BF0001F025B09026004D0012B034818BF00209C
:103C000070474FF0A040704700030050034A43093B
:103C100000F01F00D35C1844C0B270476F8B0000E7
:103C200070B50546FFF7F2FF0C4C08300E4634F82D
:103C30001030DA0508D5C3F3432304EBC30228464A
:103C400054F8333052689847A3682BB1E268314684
:103C50002846BDE87040184770BD00BF48010020ED
:103C600008B5FFF7D3FF034B083033F81000400BC3
:103C700008BD00BF4801002008B5FFF7C7FF034B90
:103C8000083033F81000C0F3400008BD48010020A0
:103C900008B5FFF7BBFF034B083033F81000C0F343
:103CA000401008BD48010020034611F0010010B586
:103CB000CCB20DD1A207C4F3400012D5094AD2F804
:103CC00020055860C2F82005003818BF012008E020
:103CD0004FF0A041D1F820251A60C1F82025002A14
:103CE000E8D010BD0003005010B5FFF78FFF124A57
:103CF000083032F81030D9051CD5C3F3432123F422
:103D0000F85322F8103002F10E04002034F8023F7C
:103D100013F4807F03D0C3F3432399420AD00130C8
:103D20002A28F3D1002342F831300448BDE810407E
:103D3000FFF790BE10BD00BF48010020B401002075
:103D4000F0B5054600200446012607468C420BD1FB
:103D5000114BD3F87C2132B10022C3F87C21D3F877
:103D60007C3140F00040F0BDE3B29B0003F580726F
:103D70009B0806FA03F31D420BD002F1804202F5C4
:103D8000C042D2F800C0BCF1000F02D01760126828
:103D900018430134DAE700BF00600040F7B506467B
:103DA0000846FFF733FF194F00F108050C4637F8B6
:103DB0001530DB0727D5304604F050F82046FFF7D2
:103DC00067FF40B12046FFF74BFF316800F5A27056
:103DD000002341F820302046FFF786FF002301A88A
:103DE00027F815300194FFF701FF019B00EB8300DA
:103DF000074BD0F80027134043F00203C0F8003708
:103E0000044803B0F0BD0448FBE700BF48010020B0
:103E1000F0F8FCFF0000AD0B0400AD0B2DE9FF41F5
:103E2000164680460846FFF7F1FE0D463168044607
:103E300009B32846FFF720FF18B12846FFF728FFEF
:103E400010BB0023CDE900338DF80E308DF80F3014
:103E50000DF10F020B4628460DF10E0103F095FF00
:103E6000474A04F1080132F8113023F0020343F00D
:103E7000010322F81130736863B328461F7859682C
:103E8000FFF7FAFE10B1D1B13E4826E03C4A04F1FA
:103E9000080032F8103023F02003DB04DB0C22F89A
:103EA000103061B1032FEFD87168496891F800C0F4
:103EB000D8F80010A7B90CF5A27C41F82C70304A54
:103EC00004F1080132F8113023F01C0343EA8703A0
:103ED00022F81130B3684BBB2B4804B0BDE8F08129
:103EE00001EB8C0143EA4C33D1F810E52EF0030EC0
:103EF000C1F810E5D8F8001001EB8C0E43F0200358
:103F0000DEF8101522F8103021F44F3121F4407101
:103F1000CEF810152902DEF8108501F47C5141EA33
:103F2000074141EA0801CEF81015C8E7D3E9006758
:103F30002846FFF7D9FE002ECED0114DD5E900233B
:103F4000964203D19F4201D1002209E00F480DF1B2
:103F50000F01FFF75BFD0C4B9842BED19DF80F207F
:103F600045F8326005EBC20308345F6035F8143061
:103F700043EA422343F4807325F81430ACE700BFD2
:103F8000480100200400AD0B0000AD0BB40100207F
:103F90002DE9F0430C4685B08046204611461E466A
:103FA000FFF734FE054629B32046FFF765FE18B932
:103FB0002046FFF76DFE18BB314F05F1080937F8B1
:103FC000193013F01C0F02D04B78012B18D00123AD
:103FD0008DF80F300023CDE900134A1C8B1C2046BE
:103FE0000DF10F0103F0D1FE37F8193043F0030350
:103FF00027F81930002E41D02046FFF73DFE18B9B2
:10400000204805B0BDE8F08396F800C0D8F800302D
:104010001B4F0CF5A272002143F8221005F1080293
:1040200037F8121021F02001C904C90C27F812102A
:1040300075781DB3D8F80000B67800EB8C002D041D
:10404000D0F8103523F4991323F4F853C0F8103541
:10405000230203F47C5305F440353605D0F810E50F
:104060002B4306F4801641EA4C31334341F02001E2
:1040700043EA0E0327F81210C0F810350248C0E7D3
:10408000480100200400AD0B0000AD0B014BC3E95B
:10409000021270474801002010B508461446FFF789
:1040A000F7FD50B10846FFF7B1FD054B083033F876
:1040B000103004485B0B237010BD0348FCE700BFC1
:1040C000480100200000AD0B0400AD0B70B5164D8B
:1040D00095F8744006462CBB2146542205F1100089
:1040E00003F027F830686E6E21468E420ED1002311
:1040F000C0F87C31D0F87C3140F30730FDF7E0FDAB
:1041000001230A4885F87430EB6670BDCBB29B0082
:1041100003F580727C2B08BF845001F1010108BFB8
:104120008358E2E70248F0E7480100200000AD0BA9
:104130000C00AD0B034B93F87400003818BF01203E
:10414000704700BF480100200148FFF783BC00BF53
:10415000B00100200148FFF759BC00BFB0010020AA
:1041600073B503681646D3F80423002AA8BF4FF09E
:1041700000420546A8BFC3F8042308460C46FFF7D3
:1041800087FD00B30846FFF777FD0146D8B9204602
:10419000FFF766FD04B2A40004F5807203462868A8
:1041A0008150296882582144D1F8102542F001023B
:1041B000C1F810252EB12968012202FA03F3C1F8D3
:1041C000043302B070BD2046FFF720FD0F4B0830CE
:1041D00033F81030C3F38203042B12D0052B12D016
:1041E00001A80194FFF702FD019AD0F81035D340E1
:1041F00003F00103991C204602B0BDE8704003F0B3
:104200000DBE0321F7E70221F5E700BF48010020BA
:104210002DE9F04F694BDFF8A881D3F80403D8F8F3
:104220006410C0B289B040F00040FFF789FD051E60
:104230002FDAC24600235AF8701F06A8CDE90633CC
:10424000FFF732FD5F4B01930DF118094FF0000BA2
:10425000019A12F8013B0192DA0803F007031AF8F9
:10426000022022FA03F3DA071CD409F10409BBF196
:10427000000F14D0D8F864104FF00040FFF760FD35
:10428000D8F8701006A8FFF70FFD0028DAD125F046
:1042900000450124002D79D109B0BDE8F08F4FF021
:1042A000010BD5E7484B5B440293D9F80010002975
:1042B000DBD0029B91FAA1F11C78B1FA81F141EABD
:1042C00044142046FFF7A2FC0830059438F810701B
:1042D000C808BB0819F80020039301F00701012367
:1042E00003FA01F122EA010209F8002005A8FFF70C
:1042F0007DFC059A039B02F5E072C7F3820650F835
:1043000022205B073746C2F3014224D520463946B6
:10431000D6B2FFF785FC05A80594FFF767FC059B5F
:1043200003F5E07350F82330C3F301439E4207D1F5
:104330000021204603F072FD3146204603F06EFD59
:1043400005A80594FFF752FC059B012202FA03F32E
:10435000C0F82035A9E7022A0CD10321204603F03A
:104360005DFD06F00503012BEAD139462046FFF733
:1043700057FCE5E702212046039203F04FFD032E90
:10438000F3D0039A032ADBD1022EEDE795FAA5F3C9
:10439000B3FA83F304FA03F29B0003F1804303F5BD
:1043A000C04325EA0205D3F81005D3F81015C0F371
:1043B0000520C1F30141FFF733FC6BE700600040CB
:1043C000480100207F8B00007F8B0000044AD2F858
:1043D0000034DB07FBD50160BFF35F8F704700BF80
:1043E00000E001404FF080531A69B0FBF2F302FB8A
:1043F000130373B9084B0222C3F80425C3F8080558
:10440000D3F80024D207FBD500220448C3F80425C2
:1044100070470348704700BF00E001400000AD0B4B
:104420000A00AD0B10B5054C0123C4F80435FFF7A5
:10443000CDFF0023C4F8043510BD00BF00E00140EB
:10444000036803F01F025B09026004D0012B0348DC
:1044500018BF002070474FF0A04070470003005085
:1044600073B51646421C1C460546069B18D001290A
:1044700002D1BBB103F07EFD01A80195FFF7E0FF7B
:10448000019B00EB83002402D0F80027074B44EA8D
:1044900086040C4313401C4344EA4101C0F8001752
:1044A00002B070BD03F073FDE6E700BFF0F8FCFF5B
:1044B0004B69194A934223D00DD8184A93421FD012
:1044C00007D8174A93421BD0164A934218D0164871
:1044D0007047164AF9E7164A934208D004D8154A9D
:1044E00093420DD0144AF0E7144A9342EFD1027977
:1044F000134801239340134A032B98BF104670477B
:1045000091F8213013B1CB680133F0D1CB6901337D
:10451000EDD10B48704700BF80841E0020A107002A
:1045200048E8010090D003000400AD0B40420F00AA
:104530000024F40000093D0000127A000048E80160
:104540000000AD0B0300AD0B2DE9F04F90F8048097
:10455000012303FA08F2032A85B006460C4640F20E
:10456000C28091F82170002F00F0BE8091F82220C7
:1045700003921F4665697E4B9D4200F0CE8000F29B
:10458000BE807C4B9D4200F0CB8000F2B0807A4B25
:104590009D4200F0C880794B9D420CBF4FF0806572
:1045A0004FF08045DFF8D8B194F82300242202FBB5
:1045B00008B3997F60F3000199773379217C02FB7E
:1045C00003B39A7F61F341029A7794F82390B9F18B
:1045D000000F34D162696B4B9A420CBF4FF0030A53
:1045E0004FF0000A237E012B94BF00230123009388
:1045F000206853464A460121FFF732FFCDF800906C
:10460000606853464A460121FFF72AFFCDF8009023
:10461000A27EA06853464946FFF722FF237C83F021
:1046200001030093E06853464A460121FFF718FF53
:1046300001210091E06953464A46FFF711FF242308
:10464000002F79D003FB08B34FF0FF321A6294F8C1
:1046500012C0217E627ED4F80CE0277C307994F879
:10466000248001238340032B88BF94F82000336803
:1046700098BF0220B8F1000F13D1D4E90098D4F804
:1046800008A0E469C3F80895C3F80C85C3F810A521
:10469000C3F86C45039CC3F814E5C3F86875C3F808
:1046A0006445003A18BF01220229C3F8C0C5C3F807
:1046B000245554D0032955D0012901D142F00202DA
:1046C000C3F85425C3F860053379242253435BF8BB
:1046D0000330002B49D0306840F3073005B0BDE807
:1046E000F04FFDF7EDBA00270223039342E7264B74
:1046F0009D420CBF4FF080554FF0804552E7234B51
:104700009D4213D01F4B9D4213D0214B9D420CBFA5
:104710004FF000454FF0804544E74FF0005541E72A
:104720004FF000653EE74FF000753BE74FF0206526
:1047300038E74FF0A05535E703FB08B8E268C8F842
:104740002020227C98F81E3062F3410388F81E3046
:1047500094F812C0217E627E4FF0FF3E7EE742F069
:104760000402ADE742F00602AAE705B0BDE8F08F0B
:1047700080841E0020A1070048E8010090D00300BB
:10478000F01400200048E80140420F000024F4002B
:1047900000127A00431C07B50ED0019001A8FFF764
:1047A0004FFE019B00EB8300054BD0F80027134020
:1047B00043F00203C0F8003703B05DF804FB00BF0C
:1047C000F0F8FCFF2DE9F04790F80490144C2425F4
:1047D00005FB09F504EB050A1F469AF81C3006464E
:1047E0009046D3B961B96251CAF80470242303FB1F
:1047F0000944002363770B4801232377BDE8F08742
:10480000FFF756FE074B9842F8D1304644F8058032
:10481000CAF80470FFF798FEE8E70348EEE700BF28
:10482000F01400200000AD0B0C00AD0B2DE9F041A1
:10483000044606790068214D40F30730FDF74EFA33
:1048400024237343EB5853B123681D4AC3F808234C
:1048500006EBC601206805EB810103F0A5FB2421CE
:10486000236801FB0651D3F80805D3F80C75D3F87B
:1048700010858B7FDB0719D4FFF78CFF4046FFF7CD
:1048800089FF3846FFF786FF086AFFF783FF227922
:1048900001239340032B09D92368D3F86C05D3F87F
:1048A0001415FFF777FF0846FFF774FF242303FB77
:1048B000065500232B77BDE8F08100BFF0140020DF
:1048C000520108002DE9F0430779554D24237B431D
:1048D0009046EA180E46517F85B08146002940F087
:1048E0009C80EB5823B118F0140F04BF01235377B9
:1048F00096E80F00242404FB075404F10C0C8CE808
:104900000F00206A421C04D0A37F9B071AD503F036
:1049100031FB3368D9F8004023B103F06043B3F1B1
:10492000005F06D1B36883B103F06043B3F1005F69
:104930000BD0242303FB075300223A485A7705B0D3
:10494000BDE8F08303F023FBE3E718F0010318BF91
:104950000123C4F8503518F0020318BF0123C4F82E
:10496000403596E80F00EC468CE80F00039BC4F836
:104970004405C4F84815C4F83425C4F83835002374
:10498000C4F81831D4F818310723C4F800352423AB
:104990007B4318F0080F05EB03021DD1E8580121F5
:1049A000216158B9D4F81831002BFBD06246402160
:1049B000204603F0A1FA24237B43EA18EB5813BBEB
:1049C000106A461C13D107EBC70705EB8701204689
:1049D00003F0EAFA1448B2E7EB58A3B9106A411C95
:1049E000F8D0937F9A070BD503F0D1FAF2E7937FC3
:1049F0009B0702D503F0CBFAE5E703F0BBFAE2E749
:104A000003F0B8FAE6E718F0040F4FF0400314BFC4
:104A1000C4F80833C4F80433DCE704488FE700BF68
:104A2000F01400200A00AD0B0000AD0B0B00AD0B25
:104A300002494FF0402003F0CDBA00BFF01400202F
:104A40000149024803F0C6BA1415002000300240A4
:104A50000149024803F0BEBA3815002000F00240B8
:104A600038B5EFF31185202383F31288BFF36F8FDE
:104A7000064B9C6803F0EAFA85F31188BFF36F8F49
:104A80002046BDE83840FDF7C9B800BF5C150020DE
:104A900038B5094B53F82040013053F82050A54257
:104AA00000D838BD636823B1204603F0D2FA083439
:104AB000F5E723689847FAE70C8A000070B52B4B9E
:104AC0002B4C2C4D012286B003201A70FFF7E0FF1B
:104AD00003F0BCFB03F0D9FA0420FFF7D9FF264608
:104AE000AE4204F1300410D300F0E8FA204C224E1C
:104AF000AC4226D300F0F6FAFBF70AFD1F4A137BFF
:104B000023F00103137306B070BD54F80C3C0593F9
:104B100054F8103C049354F8143C039354F8183C94
:104B2000029354F81C3C019354F8203C009354E940
:104B30000A2354E90C0100F05FF954F8303C5E653B
:104B4000CDE7D4E90A23B3F1FF3F08BFB2F1FF3F3D
:104B500005D052EA0301206803D100F083FB303412
:104B6000C6E73146183000F001FDF8E7BD16002019
:104B7000D8840000D88400009381000078020020CF
:104B800008B50348034A0021121A03F07AFA08BD57
:104B9000D8010020C016002070B5002386B0012285
:104BA000CDE90423134E144D01930F22CDE90232B7
:104BB0001249142303FB005506EBC01604464FF4BC
:104BC000C07000FB04110E4B00954FF4A0723046EC
:104BD00000F012F9737B0B4AEE6023F00403737349
:104BE0004FF4046304FB033313442C746B6006B06E
:104BF00070BD00BFF80100205C150020001F0020E0
:104C00008D800000C0160020BFB50020FFF740FFD8
:104C10002C4B83F308882C4D2C4E6B692C4F43F49E
:104C200000736B610024E02385F82230EC772C764A
:104C30006C76AC7685F820406B6A43F4E0236B62B7
:104C400085F82340FCF766FFFDF7EAF84FF0FF33E5
:104C5000AB62EB62FDF7AAF9FDF706F91D4BB360F5
:104C600040F201129A81C3E919441C6703F0DAF992
:104C70000120FFF70DFF0220174DFFF709FF00F09D
:104C800065FA164B75610593012315490094CDE92A
:104C900003434FF420523B46CDE90144284600F03F
:104CA000ABF86A7B064622F0040228466A7303F0DA
:104CB00044FA2046FFF770FF3A4631462846FDF792
:104CC00095F800BF001F002000ED00E05C150020FB
:104CD000BD4A0000F802002078020020818B00000D
:104CE0008020002070B5EFF31186202383F3128813
:104CF000BFF36F8F0468A0421AD0CCB1D4E9003260
:104D000013605A60637B002523F002036373C4E9D8
:104D10000055A56004F1180003F071FA2046A5675C
:104D200003F00BFA31460848BDE8704000F0A0B926
:104D3000D0E902329A4218BF0133836086F31188AA
:104D4000BFF36F8F70BD00BFBE16002013B5EFF329
:104D50001181202484F31288BFF36F8F846844B1DB
:104D6000013C846081F31188BFF36F8F002002B093
:104D700010BD52EA030406D181F31188BFF36F8F8F
:104D80006FF00F00F3E7CDE900230246014800F081
:104D900043F9ECE7BE1600202DE9F0410546EFF39C
:104DA0001188202383F31288BFF36F8F00266FF0E2
:104DB0000A072C68A54214D09CB1D4E900321360D4
:104DC0005A60637BA66023F00203C4E90066637344
:104DD00004F1180003F013FAA767204603F0ADF9B9
:104DE000E7E70023AB6041460248BDE8F04100F030
:104DF0003FB900BFBE160020F0B5073285B022F0E3
:104E0000070204467F320E9D0D9E2573583022F016
:104E10003F02C4E91600042500203F2AA673C4E916
:104E20000600A0606573E07301F14007A2F140063F
:104E300005D880F31188BFF36F8F284602DFC4E9DD
:104E400019768D1800260C9AE66602920B9A01924A
:104E50000A9A009220462A46FCF796FF044B6665A4
:104E60009B6803B11B6F2367284605B0F0BD00BFE8
:104E70005C150020094A93686FF00A019967084998
:104E800058674B6843F080534B60002383F31188CD
:104E9000BFF36F8F9368986F704700BF5C15002059
:104EA00000ED00E070B590F90D20437B002A39DB5E
:104EB000D90637D18269002A34D11D4C63F07F03B3
:104EC0002246437352F8183F93422CD1E169C0E95E
:104ED00000210860E06111E09942F8D01B68002BC6
:104EE000F5D090F90E5093F90E60B542F4D0AE4271
:104EF000F2DD5968C0E9003108605860A569954243
:104F000000D005B9E568A3685A7BD20604D1DA89D6
:104F10007F2A01D9AA6942B1AB4202D0284600F0EB
:104F200083FA656170BDE169D9E76361FAE700BFA3
:104F30005C15002038B590F90D20437B002A01460E
:104F400004DA03F07F03437303F0BDF80D4D2A46E6
:104F5000AB6852F8184F944200D004B9EC688B4209
:104F600007D05A7BD20604D1DA897F2A01D9A269F7
:104F70002AB1A34202D0204600F056FA23466B61C4
:104F800038BD00BF5C15002070B590F90D20437B43
:104F9000002A014604DA03F07F03437303F093F819
:104FA0004B7B1C4C63F07F0322464B7352F8183F37
:104FB000E069934207D1C1E900200160E16111E09D
:104FC0009842F8D01B68002BF5D091F90E5093F958
:104FD0000E60B542F4D0AE42F2DD5868C1E900304F
:104FE00001605960A569A368954200D005B9E568DC
:104FF0008B4207D05A7BD20604D1DA897F2A01D9A5
:10500000AA692AB1AB4202D0284600F00DFA2B461D
:10501000636170BD5C150020F8B5124B0C4611465B
:10502000114A98681060DDE90676EFF311822022BC
:1050300082F31288BFF36F8F9D68284603F055F8FE
:10504000B6F1FF3F08BFB7F1FF3F06D007493A4628
:10505000334605F1180000F089FA2046BDE8F84013
:10506000FFF708BF5C1500207C150020938100002D
:1050700049B9EFF3058030B9054B5A699B689A42EC
:1050800001D0FFF7F7BE81F31188BFF36F8F704730
:105090005C150020034648B9EFF3058232B9064A91
:1050A00051699268914201D0FFF7E4BE83F3118801
:1050B000BFF36F8F704700BF5C150020EFF31181C5
:1050C000202383F31288BFF36F8F054B9A68D37B3D
:1050D000013BD37381F31188BFF36F8F704700BF1B
:1050E0005C15002070B5EFF31186202383F312883E
:1050F000BFF36F8F144DAB68DA7B0132DA732A4647
:1051000052F8184F944200D004B9EC685A7BD2068A
:1051100004D1DA897F2A01D9A2692AB1A34202D037
:10512000204600F081F923466B6186F31188BFF3B6
:105130006F8FEFF31180202383F31288BFF36F8FFB
:10514000BDE87040FFF7A6BF5C150020024B03F1DD
:105150001802C3E9062270475C15002070B5EFF312
:105160001186202383F31288BFF36F8F1B4CA16835
:10517000E0690B68814214BF1A46002249680B603F
:105180005960A368E1692AB9154AC3E900210B6097
:10519000E3610CE093F90E0092F90E50A84218D08A
:1051A000854216DD5168C3E900210B605360A56993
:1051B0000B4B9D4200D005B9E568A3689D4202D023
:1051C000284600F031F965613046BDE87040FFF7D0
:1051D00051BE8A42D8D01268D5E700BF5C150020C6
:1051E0007415002050EA01032DE9F04105460E46F2
:1051F00004D1FFF7B3FF0020BDE8F081831C71F1FB
:10520000FF3324DB03F01CF84419EFF3118820234B
:1052100083F31288BFF36F8F0F4F104BB86818607D
:10522000FFF788FEB8680E492A463346183000F06A
:105230009DF9BA68537B43F0040353734046FFF76C
:1052400019FE02F0FDFF201A20EAE070D4E76FF0AB
:105250000104241AD9E700BF5C1500207C1500204A
:105260009381000038B50446183002F0C8FFEFF310
:105270001185202383F31288BFF36F8F637B5A0756
:1052800004D485F31188BFF36F8F38BD23F0040376
:1052900063732046FFF706FEEFF30583002BF0D182
:1052A00029460248BDE83840FFF7E2BEBE1600209E
:1052B000014B9868704700BF5C1500202DE9F8434A
:1052C0000446EFF31187202383F31288BFF36F8F17
:1052D000067B16F001060DD087F31188BFF36F8FA0
:1052E000002383F31188BFF36F8F0423184602DF76
:1052F000BDE8F883437B1A0704D587F31188BFF311
:105300006F8FF5E7D90943F0080250D14273A368C3
:1053100013B1204602F0DFFE04F1180002F06FFF27
:10532000A56D04F15808A84511D04FF0000975B1DA
:10533000284602F0D0FE05F1180002F060FFC5F823
:1053400078902846FFF7AEFDA56DA845EFD11C4D1E
:10535000AB689C4204D1EFF30586003E18BF0126DE
:10536000D5F81880174A904502D0B8F1000F01D146
:10537000D5F80C80434502D0404600F055F8C5F8FA
:10538000148046B1104BAB6040F201129A810022AA
:10539000C3E919221A67AB689C42AED1EFF30583CB
:1053A000002BAAD13846BDE8F843FFF763BD03F0F0
:1053B0007F0343F00803437302F085FEA7E700BFB5
:1053C0005C15002074150020F8020020044BC01A60
:1053D000044BC0105843044B01221A54704700BFBD
:1053E00078030020ABAAAAAABE160020C3897F2B8F
:1053F00012D80A4B1B6863B1094B90F90E201B6849
:105400009A4209DB437BDB0606D1064BC31A18BF61
:10541000012303F0010070470023FAE78415002000
:1054200080150020F801002070B50E4B0E4C1E7C3C
:1054300006EB460304EBC3040546204602F0DFFEFC
:105440000A4B002228469A55FFF7D0FF48B1084B77
:1054500008491A68013A2046D317BDE8704000F0A9
:1054600085B870BD5C15002078030020BE160020B2
:1054700084150020CD53000038B5EFF311852023AB
:1054800083F31288BFF36F8F104B114A9C6810682A
:10549000A04206D1FFF7C8FF85F31188BFF36F8FD5
:1054A00038BD00211B7C11600A4AD35C002BF3D06D
:1054B0002046FFF79BFF0028EED0637BDB0602D17E
:1054C0002046FFF761FD2046E4E700BF5C150020A1
:1054D0007C150020BE1600200748084A084908B578
:1054E000121A02F0D0FD0748074A0849BDE80840F3
:1054F000121A02F0C8BD00BF00000020D801002031
:105500008C8B000000000020000000208C8B00002D
:10551000024B1868984208BF00207047C001002065
:10552000034B1B680BB9FEF78FB80020704700BF14
:105530008815002030B570B10B4B5B6898420AD0DB
:10554000036843B1D3E90421D0E90445121941EBC2
:105550000501C3E90421D0E9003213605A60002339
:10556000C0E9003330BD00BFC0010020B3F1FF3FF0
:1055700008BFB2F1FF3FF8B504461D4616465AD0A3
:105580008160EFF31187202383F31288BFF36F8FBD
:10559000013275F1FF3321DA2C49D1E900206FF097
:1055A00001039B1A4FF0FF3262EB00009E1B60EB81
:1055B0000500012E70F1000301DA01260020C4E984
:1055C0000460FFF7A5FF224E84467068BCF1000F0F
:1055D0000DD1C4E90060046074601CE0FFF7A0FF17
:1055E000013645F10005361845EBE070E7E7DCE9E8
:1055F0000425D4E90431934271EB050E1CDAD21A6A
:10560000DCF8043065EB0105CCE90425C4E900C3EE
:105610001C60CCF80440FFF77BFF844207D10D4BA0
:105620001C6824B902F0D2FD2146FDF7DFFF87F3A5
:105630001188BFF36F8FF8BD9B1A61EB050184459C
:10564000C4E90431C5D0DCF800C0BFE790030020F6
:10565000C0010020881500202DE9F047EFF31185E7
:10566000202383F31288BFF36F8FDFF8A090DFF859
:10567000A080C9F80000FFF74BFF00260027D9F8EB
:105680000030D8E900ECD91750B1D0E90442A34268
:1056900071EB020A1ADAE41A62EB0102C0E9044271
:1056A00013EB0E034CEB01010024C8E90031C9F8EB
:1056B000004002F08BFD2146FDF798FF85F311882D
:1056C000BFF36F8FBDE8F047FFF7D6BE14EB0E02B5
:1056D0004CEBE473C0E90467C8E90023FFF72AFF35
:1056E00085F31188BFF36F8F83689847EFF31185B7
:1056F000202383F31288BFF36F8FD9F800301B1B70
:10570000C9F80030FFF704FFB9E700BF8815002093
:105710009003002010B5EFF31184202383F3128847
:10572000BFF36F8FFFF7FCFE054A0346D2E9000185
:10573000181841EBE37184F31188BFF36F8F10BD2C
:1057400090030020704708B9086070476FF015009B
:1057500070470020704770472DE9F7430E46174603
:105760009946044628B94FF0FF38404603B0BDE8DB
:10577000F0830029F7D0002AF5D0CB680D891D44AD
:1057800004230DEB03022946384601F0E4FB804672
:105790000028E8D1BDF80410738946F6081291423A
:1057A00025D1BDF806109942DDD104230DEB03028B
:1057B0002944384601F0CFFB0028D4D1BDF804209D
:1057C00046F607139A42CED1C4E900679DF8283007
:1057D000A4F80890A3727389BDF806202B44E360F7
:1057E000738913442B44043563612561BDE7002BA5
:1057F000E4D0B8E72DE9F3410E4617461D460446AE
:1058000020B94FF0FF3002B0BDE8F0810368002BF3
:10581000F7D04368002BF4D04FF6FF78D4E9042387
:105820009A4216D223685B8923B1E368934204BF8E
:10583000043323610423216960680DEB030201F046
:105840008AFB0028DDD1A37A2BB1D4E903329A4236
:1058500001D30120D7E72389BDF80610434501F1A4
:10586000040203D0BDF804C09C450BD115B1BDF8AE
:1058700004302B8023690433336039802369134457
:105880002361C0E7236913442361C7E748B1036874
:105890003BB143682BB1C068884294BF002001200F
:1058A00070474FF0FF30704773B50C4606461146FF
:1058B000022301AA204600F08CFB0546E8B9019AB4
:1058C0001F2A0ED92368A2F1200119442022304654
:1058D00001F024FC2368019A13442360284602B097
:1058E00070BD0146C2F12002304601F022FC019A4F
:1058F0002168C2F120003044EAE76FF00205EDE7CD
:1059000001F0FCBB4FF4C07358433030704710B502
:10591000044601F062FB2378072B16BF4FF4C073D7
:1059200000EB4000584300F13003A068C01A10BDDE
:1059300070B50D46044602F018F92A46A0F1080198
:1059400004232046BDE8704001F005BB13B50446B2
:10595000019102F00AF90423A0F108010DEB030202
:10596000204602F045F902B010BD10B52C2303FB10
:105970000101886A4B6A013803EBC00104334968AE
:10598000914200D310BD013853F830402144F7E76D
:105990002DE9F843846E8D684FF4C07262438046EF
:1059A00030320021FFF7E1FFD8F8241001EBC003EB
:1059B000A5EB02095F680B68FF1A51F8303001212E
:1059C00040461F44FFF7D1FFD8F8501001EBC00349
:1059D0000E685B6851F830109B1B0B44521BBB4296
:1059E00004EB440000F1300034BFD219D2188242D7
:1059F00034BF801A0020A9EB0000BDE8F883F7B59A
:105A0000044600200D461746FAF7C6FD6946C0B2A7
:105A1000FBF7C8FE30B10125009801F09BFA28463B
:105A200003B0F0BD2C2303FB05440098E3682689EE
:105A30001E4404230DEB0302314601F08CFA0546A7
:105A40000028E8D1BDF804206489009846F60813C0
:105A50009A4219D1BDF806309C4201D00325DBE7FC
:105A600004230DEB0302A11901F075FA0028D2D12D
:105A7000BDF8042046F607139A42EFD1BDF8061090
:105A8000214431443960C7E7002CF1D0E6E770B516
:105A900013460E46154600210246044600F0ECF976
:105AA00050B92B4604F12C020121204600F0E4F904
:105AB00010B1002E08BF002070BD73B50446426AC5
:105AC000802501A90420019501F0B7FAB0B9019B26
:105AD000226DA36201A90220019501F0AEFA18B16E
