:020000040000FA
:1000000080440020D51400003B550000A9140000D6
:10001000A9140000A9140000A914000000000000A9
:10002000000000000000000000000000CD110000F2
:10003000A914000000000000A9140000A914000089
:1000400021120000211200002112000021120000E4
:1000500021120000211200002112000021120000D4
:1000600021120000211200002112000021120000C4
:1000700021120000211200002112000021120000B4
:1000800021120000211200002112000021120000A4
:100090002112000021120000211200002112000094
:1000A0002112000021120000211200002112000084
:1000B0002112000021120000211200002112000074
:1000C0002112000021120000211200002112000064
:1000D0002112000021120000211200002112000054
:1000E0002112000021120000211200002112000044
:1000F0002112000021120000211200002112000034
:100100007FB51E4B1E4AC3F80026C3F80426C3F869
:100110000826C3F80C26C3F81026C3F81426C3F823
:100120001826C3F81C2604F0BDFC01A800F0FEFB55
:10013000144B1B68834200D0FEE769469DF8080017
:1001400004F08FFC009B039C1C44019B1D8902F062
:1001500059F8661900F002FE00F0D6FD01F0F6F93C
:10016000635983F30888002383F31488BFF36F8FE8
:10017000BFF36F8F73689847FEE700BF0000014030
:100180003546526EA001002021B1012906D06FF042
:1001900015007047044B53F830007047024B03EBD7
:1001A000C0035868704700BFA85E00002DE9F04FFB
:1001B0007E4FDDB0DDE9688914461D46DDF8A8B143
:1001C0003E6800F06BFD7A4B0122C3F800253CA885
:1001D00003F086FBB8F1000F07D0B9F1000F04DD82
:1001E0004A4641463CA805F020F823896289D4F8A4
:1001F0000CA013449A444FF00008C24551D80FA9EF
:100200003CA803F0DFFB6A4B0022C3F80025C3F8CB
:100210000025BBF1000F04D020220FA9584605F09D
:10022000A3F9002300932A464FF6FF73214609A83D
:1002300004F039FC0390002844D128460E9C04F0B9
:1002400027FD84423ED8DFF870B1DFF864914FF0AB
:10025000FF340DF11E0307AA08A909A804F071FCD8
:1002600000282FDB40F09B80BDF81EA0BAF1100FD4
:1002700031D1BDF81C80B8F1200F23D10899434635
:100280003CAA284605F0DAF8E0B942463CA90FA896
:1002900004F0CFFC474B1B68834213D10123039327
:1002A000D7E7679B669AAAEB0809994528BF994644
:1002B0004B464146284605F0C1F828B13C4B002288
:1002C000C3F800253E686DE066994A463CA804F0F4
:1002D000ACFFC84491E7BAF1010F3FD1BDF81C3023
:1002E000202BEFD808993CAA284605F0A7F8044629
:1002F0000028E7D19DF81C300493202B0AD8DBF8A6
:100300000030DFF8B8800593059B9C4205DB002395
:10031000C9F800354FF0FF349BE700F0BFFCC9F887
:1003200000A51FA803F0DCFAD8F8042058F8081B31
:1003300012681FA804F079FF17A91FA803F042FB59
:100340000022C9F80025049A3CA917A805F0FCF87A
:1003500010B9C9F800057CE70134D5E7BAF1220FDE
:100360007FF477AF631C3FF474AFDBF80030A34237
:10037000D0DDBDF81C30802BA4D808993CAA2846B3
:1003800005F05CF800289DD1E4B2BDF81C30009463
:100390003CAA20210FA800F013F80646BAE7039BF9
:1003A000002B8FD030465DB0BDE8F08F04000020F8
:1003B00000A00250A0010020B05E0000B45E00006A
:1003C0002DE9F04796B016461D469DF87820374B2C
:1003D000DFF8E88053F83210019103EBC2030746BF
:1003E0005B68D8F80090186802AA0144302301A87D
:1003F00004F0A9FE002851D1DDE901431C4403AA01
:1004000006AB214601A804F0C6FE002846D1049A96
:10041000072A43D12649059805F096F800283DD1D2
:10042000079A082A3AD12349089805F08DF8A8BB05
:1004300002AA214601A804F09AFE78BBDDE901A3D7
:100440000AEB0302944229D1412B27D135443023B2
:1004500003AA294602A8029604F075FEE0B9DDE978
:10046000023213449D4217D32A4602A906A804F07B
:10047000B4FB88B92A4602A90EA804F0AEFB58B90D
:100480009AF80030042B07D1202306AA0AF10101B3
:10049000384600F01BFC28B1D8F80090484616B04A
:1004A000BDE8F087044BD3F80090F7E7B45E000096
:1004B000CD610000C4610000A00100200400002004
:1004C000094A0B78400052F820108B4209D00130C5
:1004D00052F82000834214BF4FF0FF304FF4C07039
:1004E00070474FF4C0707047BC5E00001FB50F4BE3
:1004F00013F830000C4600F071FD50B92068816897
:1005000010236A46103904F099FF28B1206804F0DE
:1005100094FF4FF0FF3006E005491022684605F0D1
:1005200013F80028F2D104B010BD00BFBC5E00007B
:10053000B46100002DE9F041324B88B0064600203E
:100540000D461C68FFF720FE06A9C0B200F046FD6C
:10055000002853D12946FFF717FE2C2407A9C0B263
:1005600004FB056400F03AFD00282ED02C276F43D1
:1005700006EB0708069BD8F8101011F0100133D1D4
:100580004FF480720192204A0092CDE90311224675
:1005900002910846FFF70AFE04461C4BF2590698E2
:1005A0009A420CD1D8F80C20B8F808309B1806D223
:1005B0008268934203D2164B1B68A3421BD0C5B17D
:1005C0008268002104F064FF13E0079804F07DFFC7
:1005D0000746079804F031FF631EE21C13F8011F61
:1005E000B942C3D19342F9D11DB10699304604F006
:1005F00020FC084B1C68069804F01FFF204608B03A
:10060000BDE8F08104000020680F00203DB8F3969B
:10061000A0010020000000207FB50D460446002107
:100620002846CDE9021104F0C3FBE8B12368154E5A
:10063000B34203D103AA204604F04FFBE36AB3425E
:1006400004D102AA0121204604F047FBDDE9023271
:10065000934288BF0393039BAB60039A29462046CD
:1006600000F03AFA04B070BD01A9FFF73FFF01980E
:1006700005F1080104F0EFFAAB680198039304F068
:10068000DCFEEAE73DB8F3962DE9F84FDFF878B0E5
:100690001B4C1C4D884691469A4600260B9B9E4259
:1006A00001D300200FE00B9B174A9F1BB7F5806F0B
:1006B00028BF4FF480673B4606EB0A01404604F032
:1006C000BDFE10B10120BDE8F88F0A993B465A469D
:1006D0007118484604F0C7FE0028F3D1C4F800564C
:1006E0003E44C4F80456C4F80856C4F80C56C4F87E
:1006F0001056C4F81456C4F81856C4F81C56CDE762
:10070000000001403546526EA4090020F0B5824B2E
:1007100043620E46814B0365002187B004460846BC
:10072000FFF732FD04F12001C0B200F057FC0121B7
:100730000020FFF729FD04F14C01C0B200F04EFC8F
:10074000204604F00BFB002849D100221146204628
:1007500004F0ADFA002859D1204604F064FC0028CA
:1007600054D002A804F01BFB0146204604F0B5FB60
:1007700000284BD102A804F01BFB80F0010102AA63
:10078000C9B2204604F093FA024600283ED102A8DE
:1007900004F00EFB0546E8BB02A92046FFF73CFF2C
:1007A0009DF80F3084F85830033B012B06D82846BB
:1007B00000F0E2F810B1FF2384F858309DF80F30B4
:1007C000023B022B06D8002000F0C0F810B1FF2336
:1007D00084F8583094F85830FF2B12D1FEE70123EB
:1007E000984284F85830B0D194F858308DF80F30D2
:1007F000042B37D8012B3BD84DD0FF2384F8583039
:1008000049E002AA0021204604F051FA012384F8AD
:100810005830E9E79DF80F70012F17D1104601F00D
:100820007FFD831E022B05460DD839462046FFF773
:1008300081FE3B4B1B68984205D03A4B1D68A8428D
:1008400014BF0525012584F85850CDE70121204625
:10085000FFF770FE324B1B6898420CBF9DF80F30BB
:100860000523D4E7052BC8D1002000F085F810E05F
:1008700002A92046FFF7D0FE94F85830DA1E012A6C
:100880000ED8002000F078F80028B6D1002000F043
:100890005DF80028B1D194F85830FF2B03D1FEE762
:1008A000022BF8D1F2E70021012B1F4D019113D04B
:1008B00002AA204604F0FBF970B12D681022002135
:1008C00002A804F05CFEE06C04F0B7FD206A04F0BE
:1008D000B4FD284607B0F0BD00212046FFF72AFEF0
:1008E0000F4F3B688342E8D12A689A42E5D00D4A0F
:1008F00012689A42E1D0019B01330193019B012BC5
:1009000000D0FEE7206A04F0B2F83071236A5B6819
:1009100034603D68B360D1E7A4050020A401002045
:10092000A0010020000000200400002038B5064D82
:10093000044660220021284604F021FE2146284674
:10094000FFF7E4FE38BD00BFA40D002013B5094B2E
:1009500001A913F8300000F041FB48B9019805F0F7
:100960004CF80446019804F068FD204602B010BD22
:100970000124FAE7C45E00001FB50F4B01A913F86C
:10098000300000F02BFBA8B9019802A901F072FC1D
:10099000044668B99DF80B30032B03D1019804F08D
:1009A000FAFF0446019804F048FD204604B010BD4B
:1009B0000124F7E70124F8E7C45E00002DE9F341C4
:1009C00006460C4617461D460BB9002628E0184679
:1009D00004F0EEF90028F8D16946FFF787FD00988A
:1009E00038B90124009804F028FD204602B0BDE883
:1009F000F08101A904F02FF90028F2D1009804F049
:100A00001CFD3046019904F0A4FA736A5E686B79A4
:100A1000012B21D1002CD8D12B68834298BF00260E
:100A200021460020FFF7B0FB6946C0B200F0D6FABD
:100A30000028D6D1009820233A46314604F0FEFC27
:100A400004460028CDD1002DCCD03C680D4BE41AD3
:100A500018BF4FF0FF34C5E7022BB6D12B68012B2E
:100A600005D98342B1D8B4FA84F46409ADE7ACD1B6
:100A7000002CD5D0012CA8D12C79023C18BF012420
:100A8000A3E700BF3DB8F39673B54B681446114A0F
:100A900003F0FF23934206460D4618D10B68012B45
:100AA00015D16946204601F0E5FB9DF80030032B87
:100AB0000DD12146304604F0BCF9204604F06BFF0E
:100AC000A968204604F0D5F8204601F0B3FB02B037
:100AD00070BD00BF000100042DE9F04F0C4689B045
:100AE0001146054604F035FA6B6A039020465E68AD
:100AF00004F05EF990B1E86D04F09DF8AB6A002255
:100B0000013B3244904201D9013BFAE7039A9342F8
:100B100004D80123E37109B0BDE8F08F06A90220D3
:100B200000F05CFA07A9052000F058FA079A214660
:100B30002846FFF7A9FF6379012B4BD1039FDFF80C
:100B400058B141E022680399C2F101030B44BB4252
:100B500039D36B6A196853F8370003EBC703012ACE
:100B600053F8083CA0EB0109A3EB010A11D1079B44
:100B70000493E368022B08D04146284604F059F953
:100B800022464146284604F089F90499284604F093
:100B900050F932464946404604F049F95346424628
:100BA0004146CDE900962846FFF76EFD21462846CE
:100BB00004F00BF923680133236020B1DBF8003027
:100BC0000133CBF80030013FDDF81880002FB9D198
:100BD00001232360022363710127039BDDF8189032
:100BE0009F4206D9484604F028FC079804F025FCEB
:100BF00091E72368BB424DD86A6ADDF81CA052F821
:100C00003710D2F800B00491FB00083BD1582A6D90
:100C1000D0581368A0EB03082379012B38D1A1EB3E
:100C20000B0132464846059104F001F905990091FF
:100C300043464A46514601962846FFF725FD214680
:100C4000284604F0C2F80223237118B1124A13682F
:100C50000133136032464146504604F0E8F8049BE5
:100C60005246A3EB0B034946CDE900862846FFF721
:100C70000BFD2146284604F0A8F8236801332360C1
:100C80000123237130B1044A13680133136001E07A
:100C9000022BDFD00137A0E7040E002070B5094D0C
:100CA0002B780BB1002070BD074C0126C4F80065FD
:100CB00002F0B8FE18B92E70C4F80005F2E74FF044
:100CC000FF30F0E76810002000A002502DE9F0414D
:100CD000DFF83080ACB01F4606460C461546FFF7DD
:100CE000DDFF0123C8F800352A4633460097214628
:100CF00003A804F06CFF0023C8F800352CB0BDE851
:100D0000F08100BF00A00250BFF36F8F72B6124B8C
:100D10004FF0FF32C3F88020C3F88420C3F8882046
:100D2000C3F88C20C3F89020C3F89420C3F898200F
:100D3000C3F89C20C3F88021C3F88421C3F888211C
:100D4000C3F88C21C3F89021C3F89421C3F89821EB
:100D5000C3F89C21704700BF00E100E0164A4FF045
:100D6000FF3301215160C2F84833C2F8083302F55D
:100D7000C0425160C2F84833C2F8083302F59832D5
:100D80005160C2F84833C2F80833A2F50832002196
:100D9000C2F80015C2F8083302F51832C2F800157F
:100DA000C2F80833A2F51042C2F808354FF080426D
:100DB000C2F80833704700BF00B000402DE9F0478B
:100DC000058B04462807904611D4022905F0070533
:100DD00040F0CD80204604F043FA78B10138218BF1
:100DE000042811D8DFE800F0C3106D8595000129B3
:100DF0000CBF45F0100545F02005258388F31188C8
:100E0000BFF36F8FBDE8F08701F0070AAA4500F035
:100E1000A6800027B9463E46A368002B00F0BD809F
:100E200041F00801218388F31188BFF36F8FA16817
:100E3000002900F0BB800D68002900F0B780D1F8D0
:100E40000480334652462046C047002D76D02B689A
:100E500029461D46F0E701F007035A1F012A1BD857
:100E6000002221F00701062B276889B2C4E900227D
:100E700009D13B4603E0628B013262831B68002B81
:100E8000F9D141F002012183204604F0E9F900285C
:100E90007BD041F0200177E0042B0AD121F007013B
:100EA00089B22183204604F0DBF910B141F0200122
:100EB0002183218B01F0070AAA4550D00027B946AB
:100EC000AAE7236921F0070141F00601062DD3F8B6
:100ED000009021832DD1B9F1000F40D041F00801DD
:100EE000218388F31188BFF36F8F3A492046C847A2
:100EF00029E021F00701236941F0040189B2042DA2
:100F0000D3F804902183E6D000273E464FF0040A30
:100F100082E721F00701236941F0050189B2052D1F
:100F2000D3F808902183D6D000273E464FF0050A1B
:100F300072E700273E464FF0060A6DE72B4687E72B
:100F4000B9F1000FD1D14FF02003EFF3118883F3F3
:100F50001288BFF36F8F238B23F008032383258B25
:100F6000EA062ED525F01003238305F007056669F0
:100F7000218B002EBFF66FAF00232768C4E9003332
:100F800021F0070141F001012183218B01F0070AC3
:100F9000AA454FF000097FF43FAF002F9BD041F0EE
:100FA0000801218388F31188BFF36F8F002FC7D00A
:100FB0003D68394633465246204604F07DF92F46B7
:100FC000F4E7AB067FF51AAF25F02003238305F085
:100FD0000705FFE6E552000001F00EBA70B5114BAF
:100FE0001C680D46DCB1104B196800238B4202DBF4
:100FF0006FF0010070BD224612F8106B864202D0DD
:1010000001331446F2E7E06810B96FF01200F1E71F
:1010100004F0B7FD0028F8D02C600020EAE76FF05C
:101020000C00E7E708000020D05E000070B588B033
:1010300005460C46C0B269461646FFF7CFFF0028AA
:101040001BDB0098C8B1436802938368226801954E
:10105000CDE903360023CDE906230593C56804F0E6
:10106000ECF96DB12846084901AA04F07FFB079806
:1010700008B9059B236008B070BD6FF01500FAE752
:101080006FF01200F7E700BFD9540000014802F0EA
:101090006FB900BF545F0000014910220A60704719
:1010A00010ED00E072B6404080F31188BFF36F8FFF
:1010B000BFF34F8F30BF62B6BFF36F8F704700BF73
:1010C00072B6494081F31188BFF34F8F20BF80F380
:1010D000118862B6704700BF40B2002807DB044A9F
:1010E0004109012300F01F00834042F8213070477E
:1010F00000E100E040B200280CDB4309064900F0A3
:101100001F0020330122824041F82320BFF34F8F7C
:10111000BFF36F8F704700BF00E100E0054B42094D
:1011200000F01F0053F82220012303FA00F01040C2
:10113000704700BF00E100E040B20028A8BF00F106
:10114000604001F10101B8BF064B4FEA4111ACBF4D
:1011500000F5614000F00F00C9B2B4BF195480F827
:101160000013704714ED00E030BFFFF7FDBF00BF74
:10117000144A08B5144B22F07F029A60BFF34F8FD8
:10118000BFF36F8FD3F8882022F47002C3F8882051
:10119000D3F8882042F4A002C3F888204FF04042E0
:1011A000C3F83422BFF34F8FBFF36F8F0023E1EEFC
:1011B000103A01F083FF01F0C9FF00F07FF901F060
:1011C00089FF00BF0000000000ED00E01EF0040FEA
:1011D0000CBFEFF30880EFF30980816911F8021C5E
:1011E0000229FFD001B504F0A0F901BD044608466C
:1011F00011461A460023E1EE103A084B202583F3EE
:10120000098863B64FF0000383F31188BFF36F8F33
:10121000A04785F31188BFF36F8FFEE7804400205D
:1012200001B5EFF30580A0F110004FEAC0000449BA
:10123000014409C99847BDE8014002490847000038
:10124000C05C000049120000704700BF134B9A6A4F
:1012500012F0007F9A6A14BF1E201D2012F0807FBA
:101260009A6A18BF1F2012F4002F9A6A18BF212013
:1012700012F4802F9A6A18BF222012F4003F9A6A53
:1012800018BF232012F4803F9A6A6FEA02426FEA85
:1012900012429A6218BF2420704700BF00ED00E0A0
:1012A00010B5184B0246986A9C6A10F4805F14BF10
:1012B0001720162014F4006F9C6A18BF1820A4058C
:1012C00008D5986A000404D51AB19A6A22F400423B
:1012D0009A6219200B4B9A6A12F4806F9A6A18BFAF
:1012E0001A20D2050CD49B6A13F4005F18BF1C208F
:1012F000044A936A43F47F43936200230B7010BD4A
:101300001B20F5E700ED00E010B51C4B0246986A83
:101310009C6A10F0100F14BF1120102014F0080F59
:101320009C6A18BF1220A40709D5586B986A00065A
:1013300004D51AB19A6A22F080029A6213200F4BE8
:101340009A6A12F0010F9A6A18BF142012F0200F47
:101350009A6A18BF1520D40658BF9B6A074B9A6A31
:10136000920642BF5A6A22F400525A629A6A42F0C6
:10137000FF029A6200230B7010BD00BF00ED00E079
:1013800070B5444B5B688AB00646C3F3080300257A
:1013900085F31188BFF36F8F02F07F40B0F17F4F6C
:1013A00011D102F00C0008280DD010074CBF0E46DA
:1013B00001250022033B8DF80720032B05D8DFE829
:1013C00003F01E5C60592E46F3E700249DF80730B9
:1013D0009BB92022314602A804F0C6F8099B002DD3
:1013E00053D0C3F3080222B96FEA53236FEA4323B1
:1013F000099302A9204604F096F80AB070BD254B67
:10140000DA6A9107E1D4DA6A002ADEDBDA6A52008E
:10141000DBD55A69B16942F480725A61BFF34F8FCC
:10142000BFF36F8F5A6931F8021C22F480725A613F
:10143000BFF34F8FBFF36F8F4DF60272914209D009
:101440009A6AD2B242B10DF107010120FFF75CFFA9
:101450000446BBE73468B9E79A6A12F47F4F05D0B7
:101460000DF107010120FFF71BFFF1E79B6AB3F5C0
:10147000803FAAD3FFF7EAFEEAE70DF1070100205B
:10148000E4E70DF107010020EDE723F4FF7323F0FB
:101490000103ADE700ED00E0024A536943F0100399
:1014A0005361704700ED00E0EFF30880EFF309812E
:1014B00001B57246FFF764FF01BD00BF0448002379
:1014C0002021C2180133302B82F80013F9D1704764
:1014D00000E100E0002080F31488BFF36F8FFFF776
:1014E0007BFD00200D490860BFF34F8F0C4880F34F
:1014F000088800F03DF8202080F3118809484FF457
:101500000061401880F30988EFF31480022108433A
:1015100080F31488BFF36F8FFFF72AFE94ED00E08D
:101520008044002080140020BFF34F8F0549064BF4
:10153000CA6802F4E0621343CB60BFF34F8F00BF71
:10154000FDE700BF00ED00E00400FA050749D1F80F
:1015500090200023C2F307221846934200DB704715
:10156000C1F89830C1F8A0000133F6E700ED00E0C3
:1015700008B572B6002383F31388FFF7E7FF144B17
:101580004FF0FF32C3F88020C3F88420C3F88820CE
:10159000C3F88C20C3F89020C3F89420C3F8982097
:1015A000C3F89C20C3F88021C3F88421C3F88821A4
:1015B000C3F88C21C3F89021C3F89421C3F8982173
:1015C000C3F89C2162B6BFF34F8FBFF36F8F08BD86
:1015D00000E100E0024B034A0348012100F060B83B
:1015E00000000420000000205C5F0000F0B5204EE9
:1015F00000258D4239DA446874B353B104F1FF3CDD
:1016000014EA0C0F2FD11F2C2DD907681CEA070FE5
:1016100029D1202C0768D0F808C05FFA82FE1ED9B5
:10162000B4F1004F1DD8013CB4FA84F4C4F11F0496
:101630006400BEF1070F4CEA040C14D827F01F0415
:10164000144344F01004C6F89820C6F89C404CF0AF
:101650000104C6F8A040013201350C30C9E7082466
:10166000E7E73E24E5E76FF015021046F0BD00BF46
:1016700000ED00E0044B0522C3F89420BFF34F8F28
:10168000BFF36F8F704700BF00ED00E0BFF35F8FC7
:10169000024B0022C3F89420704700BF00ED00E029
:1016A00010B5034C01232278FFF7A0FF207010BD76
:1016B0006910002014490868082810B521D8FFF7E0
:1016C000E5FF124C49680022904201F10C0105D15E
:1016D0000F4B1870FFF7CEFF002010BDC4F8982004
:1016E00051F80C3C23F01F03134343F01003C4F8DC
:1016F0009C3051F8043C43F00103C4F8A03001329F
:10170000E2E74FF0FF30E8E7685F000000ED00E03F
:1017100069100020044A0123C2F840354FF080428E
:101720000020C2F87835704700E0014020B1034B3B
:10173000800143F001031847704700BFA05E00001E
:10174000084B70B5C31A0D4607499B100446594310
:101750000648402203F038FF2B4601462046BDE8EC
:10176000704018471C0E0020B76DDBB6705C00009F
:1017700073B50C4C0C4A4023041B00930D460B46DA
:101780000A49A41061430646094803F04AFF011EB6
:1017900005DA30462B4602B0BDE87040184702B06B
:1017A00070BD00BF1C0E002095560000B76DDBB663
:1017B000705C000010B54FF02003EFF3118483F349
:1017C0001288BFF36F8F074A136823F00201DB070B
:1017D000116002D4012004F060F984F31188BFF392
:1017E0006F8F10BD6C0E0020002270B501210446E1
:1017F0001046FFF7A1FC0F4800F090FF0E4B9842F7
:1018000015D104F005F926690C49304603F079FD3D
:1018100000280BDB012535642469084904F11C000C
:1018200003F06FFD002801DBE564002070BD6FF060
:101830000400FBE7751800000000AD0B885F000096
:1018400070B501460C2309484B43C418D4E90E5621
:10185000403300221844A26303F0A3FE2DB13246A8
:101860002B460348BDE87040184770BD1C0E002091
:10187000705C000010B1012804D07047034B1B6C52
:101880005B0701D1FFF7DCBF704700BF1C0E0020D3
:1018900008B54FF02003EFF3118183F31288BFF3F3
:1018A0006F8F124A136843F002001060DA0708D401
:1018B00081F31188BFF36F8F0120BDE8084004F069
:1018C000B4B84FF08043D3F80C24D3F80C34DB07C2
:1018D000EED5074803F065FE81F31188BFF36F8FE3
:1018E0000020BDE80840FFF7ABBF00BF6C0E002032
:1018F0005C0E0020F8B52549BFF35B8F0646012238
:1019000051E8003F41E800200028F9D1BFF35B8F88
:1019100033B91F491F484B60CB608A6003F004FD58
:10192000731E012B1DD804F04BF90446D0B91A4B95
:101930001B78BBB14FF080430222C3F80823054651
:101940004FF08047D7F81824D7F81834D20313D5AE
:101950009B0701D0012E0FD194B185F31188BFF3FD
:101960006F8FF8BD4FF02003EFF3118583F31288DA
:10197000BFF36F8F0124E3E72846FFF7A1FBE1E700
:101980004FF080430222C3F80423EAE7180E002038
:10199000080E0020380E00207B140020024B0B6044
:1019A00001231360704700BF700E0020004870478D
:1019B000D45F000010B504F0D4F8034C206004F0AC
:1019C000CCF86060002010BD700E00204FF0804207
:1019D000D2F81015D2F8103501F01E0123F01F03C4
:1019E0000B4343F00103C2F81035024B00221A707A
:1019F000704700BF6A1000204FF08053D3F8303199
:101A0000082B20D14FF08042D2F81015CB071AD501
:101A1000D2F8103501F01E0123F01F030B43C2F86A
:101A20001035D2F808315BB1D2F8103523F01F031E
:101A30000B4343F00103C2F810356FF08B00704781
:101A4000024B01221A700020704700BF6A1000206C
:101A50002DE9F0410D46164604F07FF83146074661
:101A6000284603F027FE28B3B5FBF7F307FB135313
:101A700003BBB6FBF7F407FB1464DCB9B74213D819
:101A800004F06BF8DFF834800746FFF7B5FF044633
:101A900068B9284601F074FA98F800300BB1FFF7E6
:101AA00095FFF61B3D44F0D12046BDE8F0816FF074
:101AB0008B04F9E76FF01504F6E700BF6A10002009
:101AC0002DE9F8430E463046194617461C4603F0EA
:101AD000F1FD30B346EA040515F0030521D11CB32E
:101AE000DFF84C906319032BA6EB050807D80F4AC3
:101AF000D2F80034DB07FBD50020BDE8F883FFF700
:101B00007BFF58B97B1B4046196801F059FA99F8D8
:101B100000300BB1FFF75AFF043DE3E76FF08B0095
:101B2000EBE76FF01500E8E72046E6E700E001404C
:101B30006A10002030B54068057B01F01F04B2F543
:101B4000001F85B044EA451405D1204601F0D2F8C3
:101B5000002005B030BD0025B2F5800FCDE902555B
:101B600014D1B3F1007F0CBF042305238DF8083096
:101B70000023194602AA204600F0D8FE234B9842C3
:101B80003DD10121204601F067F8E1E7B3F1C06FD4
:101B900027D0B3F1007F14BF012302238DF8083052
:101BA000836823FA01F111F00101E1D1B2F1A07FC4
:101BB000DED104F01F03620903F5E07313D0012A9C
:101BC00020D1134A52F82330DB07D1D40DF1070599
:101BD0002946204600F0EAFF0E4B984206D00395B6
:101BE000C6E70323DAE74FF0A042EBE7284601F00F
:101BF0002DF8064B9842F2D06FF00B00A9E76FF07A
:101C00001500A6E751F82330FFDE00BF0000AD0B42
:101C1000000300500400AD0B10B501F007F80446B6
:101C200068B900F0DBFF084B98420AD1074821460B
:101C300000F0B6FF224605210620FFF77DFA0020BE
:101C400010BD6FF00400FBE70000AD0B511C00005D
:101C5000420970B5034602D0012A17D070BD0D4E5F
:101C6000326951680029F9D003F01F0301250C687F
:101C70009D400029F2D08A682A4002D04B68304645
:101C800098472CB1236821461C46F2E7024EE7E74D
:101C90002346F8E7985C0000845C00002DE9FF41D2
:101CA00047683B7B01F01F0545EA43150E46284671
:101CB0000DF10701144600F079FF14F4403F80460F
:101CC0000DD1284601F03CF83D4B984503D19DF8D5
:101CD000070000F0B5FF002004B0BDE8F08100234C
:101CE000194602AA2846CDE9023300F01FFE344B04
:101CF000984214D1804503D19DF8070000F0A0FF61
:101D0000A3034ED540F206332340B3F5837F1AD0A8
:101D10000DD8062B18D005D8B3B1022B33D06FF0F5
:101D20001500D9E7B3F5807FF9D101230CE040F22B
:101D30000222934229D0B3F5407F28D0B3F5007F2B
:101D4000EDD1022300E007238DF8083084F48033BE
:101D5000C3F30043E0068DF8093054BFC4F34013C9
:101D6000032321038DF80A3013D57A680123B34089
:101D7000C2F80835002202A9284600F097FE104B51
:101D80009842A8D0CBE70423DEE70523DCE7032352
:101D9000DAE7620341BF01237A68B340C2F80C3529
:101DA000E8E7E3064FF0000354BFC4F340140324F4
:101DB0001A4602A928468DF8084000F0B7FDDEE774
:101DC0000000AD0B70B5012383400E4ABFF35B8F5B
:101DD000DC4352E8001F01EA040542E80056002EE9
:101DE000F7D1BFF35B8F4FF4803282400648C0F8D2
:101DF0000823BFF35F8FBFF36F8F0B4214BF012027
:101E0000002070BD940E00200010014070B40E49F7
:101E1000D1E90034D01AC31844F1000422F07F46FF
:101E2000C1E90034A6F50013B3F5400F09D2074B02
:101E30001B681A0A1B069C19054B42F10005C3E9F1
:101E4000004570BC01F0E2B908010020980E0020A6
:101E50001001002011B3BFF35B8F0123104A8340B0
:101E600052E800CF4CEA030C42E800C10029F7D148
:101E7000BFF35B8F0B4A4FF480338340C2F80433C7
:101E8000094BBFF35B8F1B68BFF35B8FC340DB075E
:101E900042BF064B4FF40032C3F80021704700BF29
:101EA000940E002000100140900E002000E100E0A0
:101EB0000D4B1868010A0006BFF35F8F0B4BD3F878
:101EC0000435181841F10001B3F5801F0AD2084B00
:101ED000D3E90023904271EB030303D210F1807029
:101EE00041F10001704700BF980E00200010014032
:101EF000100100202DE9F04F85B016461F469DF8D1
:101F000040A00446FFF75EFF0190FFF7D1FFB0420B
:101F100071EB070354D23E4B301A67EB0101984234
:101F200071F100014FD23B4B03EB0413D3E90223C1
:101F30009F4208BF96425ED037494FF4803804F183
:101F4000500508FA04F8AD00C1F848832046ADB248
:101F500003F08DFC26F07F4B05F1804504F5A87356
:101F600005F58835DC464FF003090293029A2CF000
:101F70007F4341F82230C1F84483D1F80435274A21
:101F80006FF00200C01A604420F07F40904232D9C6
:101F9000286868B1D1F804350393A3EB0B0020F057
:101FA0007F40B0F5000F26D9204603F060FC039B6C
:101FB000BAF1000F07D109EB030C09F10109D5E7CC
:101FC000BAF1000F09D06FF0150520460199FFF70F
:101FD00041FF284605B0BDE8F08F0123104ABFF34A
:101FE0005B8FA34052E8000F184342E8000100292C
:101FF000F8D1BFF35B8F07490E98230101EB041260
:10200000C8500F9B5360C2E902670025DDE700BF9F
:1020100001008000F800002000100140FDFF7F005B
:10202000900E00207FB51C4C1C4BC4F80833C4F83C
:1020300048331B4B00254FF0FF304FF0FF31C4F801
:102040000855C3E902014FF48033C4F80433154B3B
:1020500002264FF400320121C4F804631120C3F8B2
:1020600080212A46FFF768F81120FFF735F80E4A5D
:102070000123A360236013600C4B0D4A0093CDE94C
:10208000015500232846FFF735FF3046FFF732FCA5
:10209000284604B070BD00BF0010014003000F00CF
:1020A000F800002000E100E0940E00200D1E00006A
:1020B000FFFF7F002DE9F7432F4CD4F80433990735
:1020C0000BD5D4F8043143B12C4A0023C4F80431B1
:1020D000D4F80431136801331360D4F80433DA03FD
:1020E0002AD5BFF35B8F264B53E8002F22F0010166
:1020F00043E800100028F7D1BFF35B8FD30702D469
:10210000D4F84031C3B10025C4F84051D4F840316F
:10211000FFF7CEFE4FF02003EFF3118283F3128816
:10212000BFF36F8F174BD3E90267B042B94106D2B4
:1021300082F31188BFF36F8F03B0BDE8F0834FF0D7
:10214000FF384FF0FF39C3E90289D3E900101D6061
:102150004FF48033C4F84833C4F84051D4F84031C8
:1021600082F31188BFF36F8F0029E5D000903246CB
:102170003B4628468847DFE700100140980E0020C4
:10218000900E0020F80000201FB5431C23D001282A
:1021900023DD134A134B9042D4BF04461C46FFF77D
:1021A00087FE114B0F49D3E90023801AB0F5000FC9
:1021B00028BF002404448C4228BF0C46A2180B49B7
:1021C00000914FF00000CDE9010043F10003FFF75B
:1021D00091FE04B010BD034CE1E70124DFE700BF2E
:1021E000FEFF7F00FFFF7F00080100200D1E0000A2
:1021F00008B5FFF75DFE024B1B68C01A08BD00BFA3
:102200000801002010B5084C012363601120FEF77F
:1022100071FF064BC4F80833C4F84833044B4FF43D
:102220000032C3F8802110BD0010014003000F00F0
:1022300000E100E030B5816885B0103921F0070475
:10224000054603F042F910220146684603F097F96B
:1022500007491022684603F087F910236A46214691
:10226000284603F000F9003818BF012005B030BD42
:10227000B461000030B50D46816887B0102302AA12
:102280001039044603F0DAF8002802DA012007B01A
:1022900030BD102202A9204603F018FB00283AD1D5
:1022A0001E49102202A803F04FF900280CBF012399
:1022B00002232B70204603F0F5FA012301460DF1AD
:1022C0000702204603F0BAF80028DFDB9DF807304C
:1022D00003F00F021B096A702B7101220DF1070137
:1022E000204603F0F3FA10B96B78042B03D90123CD
:1022F0006B7000232B71A268183A22F00702083A8B
:10230000A91C204603F0F5FA0028BFD1E91C20469D
:1023100003F048FBBBE70323CBE700BFB461000039
:102320007FB5264D4400694655F8240003F040FB74
:10233000002835D1013402A955F8240003F038FBF8
:1023400001282BD103238DF808308DF80B309DF830
:1023500000509DF808601A4A00241078294603F0BE
:10236000A7FA18B35078314603F0A2FAF0B1937887
:10237000042B03D09DF80310994217D1D378042B76
:1023800003D09DF80B10994210D11379042B09D179
:102390005079831E022B03D804B070BD0028D6D01C
:1023A000FF20F9E79DF802109942F1D00134032C87
:1023B00002F10602D1D10120EEE700BF206000004B
:1023C000C16200004FF08053D3F83021082A06D1B3
:1023D000D3F83431052B02D8024AD05C7047002074
:1023E000704700BFD9620000024AD2F80034002BC7
:1023F000FBD0704700E0014010B54FF08053D3F898
:102400003021082A4ED14FF080420021C2F80C1131
:10241000C2F81011C2F8381502F54042D3F804147E
:10242000C2F82015D3F80814C2F82415D3F80C14F8
:10243000C2F82815D3F81014C2F82C15D3F81414C8
:10244000C2F83015D3F81814C2F83415D3F81C1498
:10245000C2F84015D3F82014C2F84415D3F8241458
:10246000C2F84815D3F82814C2F84C15D3F82C1428
:10247000C2F85015D3F83014C2F85415D3F83414F8
:10248000C2F86015D3F83814C2F86415D3F83C14B8
:10249000C2F86815D3F84014C2F86C15D3F8443468
:1024A000C2F87035FFF78EFF18B1414B414AC3F8AF
:1024B0008C26FFF787FF18B13F4BFB22C3F8182586
:1024C000FFF780FF70B14FF080414FF08053D1F89B
:1024D000E42ED3F8583222F00F0203F00F03134317
:1024E000C1F8E43EFFF76EFF20B1344B4FF40072A9
:1024F000C3F840264FF08053D3F83031082B09D170
:102500004FF08043D3F80024D20744BF6FF001029C
:10251000C3F800242A4AD2F8883043F47003C2F882
:102520008830BFF34F8FBFF36F8F4FF08053D3F8D6
:102530003021082A0ED1D3F83431052B02D8214A94
:10254000D35C3BB14FF01023D3F808224FF0804307
:10255000C3F858254FF01023D3F80022002A03DBDC
:10256000D3F80432002B22DA174901234FF0102050
:10257000C1F804351224FFF737FFC0F80042FFF717
:1025800033FFC0F80442FFF72FFF0023C1F80435E2
:10259000FFF72AFFBFF34F8F09490C4BCA6802F4BB
:1025A000E0621343CB60BFF34F8F00BFFDE710BD68
:1025B000005000404881030000F0004000900240BD
:1025C00000ED00E0D362000000E001400400FA05E5
:1025D00030B50468CCB1BFF35B8FB4FA84F3C3F1B8
:1025E0001F03DBB201229A4024EA020250E8005F96
:1025F000A54204D140E8002CBCF1000FF6D1BFF396
:102600005B8FE6D102480B7030BD0248FCE700BF8B
:102610000000AD0B0200AD0B10B50368CB40DB072B
:1026200014D401238B400268BFF35B8F43EA02019D
:1026300050E8004F944204D140E8001CBCF1000F68
:10264000F6D1BFF35B8FEED1014810BD0148FCE726
:102650000000AD0B0400AD0BF7B5044618B101281E
:1026600023D003B0F0BD4FF080430222C3F808230B
:10267000C3F80401D3F804210122DA6006460123DD
:102680008DF8073042F210754FF08047D4B1012C1D
:10269000E7D1D7F80C3403F48033AEBB83B3012009
:1026A00003F0B4F9013DF4D12AE04FF08043002259
:1026B000C3F80803C3F80021D3F8002158600DF1D6
:1026C0000706DCE7D7F8183403F480333EB9002B53
:1026D000C7D0012003F09AF9013DF3D1C1E7D7F843
:1026E000182402F003023260002BBAD09DF80700D4
:1026F000012803D103F08AF9013DC7D1012CB0D1E3
:10270000054B00225A71ACE7D7F80C2402F0010205
:102710003270002BEAD1F3E79C0E0020054B1A79AA
:102720002AB99A71012218609A80034870470348B9
:10273000704700BF9C0E00200000AD0B0C00AD0BDD
:1027400010B54FF08043D3F800216AB10022C3F8DE
:102750000021D3F800210122C3F80823184B58792F
:1027600010B95A711B6898474FF08043D3F8042181
:102770005AB10022C3F80421D3F804210222C3F87D
:1027800008230F4B01201B6898474FF08043D3F874
:102790000C21A2B1D3F80423120710D50022C3F8EC
:1027A000342CC3F80C21D3F80C110821C3F80813FA
:1027B000034B9A71BDE810401B680420184710BDF8
:1027C0009C0E0020036803F01F025B09026004D026
:1027D000012B034818BF002070474FF0A0407047FE
:1027E00000030050034A430900F01F00D35C184463
:1027F000C0B27047EA62000008B5FFF7F3FF034B71
:10280000083033F81000C0F3401008BD0C00002061
:1028100008B5FFF7E7FF034B083033F81000C0F3AB
:10282000400008BD0C00002008B5FFF7DBFF034B9C
:10283000083033F81000400B08BD00BF0C0000202A
:1028400070B50546FFF7CEFF0C4C08300E4634F845
:102850001030DA0508D5C3F3432304EBC30228463E
:1028600054F8333052689847A3682BB1E268314678
:102870002846BDE87040184770BD00BF0C0000201E
:1028800010B5FFF7AFFF124A083032F81030D90503
:102890001CD5C3F3432123F4F85322F8103002F17E
:1028A0000E04002034F8023F13F4807F03D0C3F3FA
:1028B000432399420AD001303028F3D1002342F853
:1028C00031300448BDE81040FFF7A6BE10BD00BF80
:1028D0000C00002080000020F0B50146104A114C89
:1028E00000200125064602F14043A3F5C2439B08A0
:1028F00005FA03F3194204D0176817B11660176878
:1029000018430432A242EED1074BD3F87C2132B1F6
:102910000022C3F87C21D3F87C3140F00040F0BDA8
:102920000061004020610040006000402DE9F0435C
:1029300085B0054690461E46FFF754FF044609B38E
:102940002846FFF765FF18B12846FFF755FF38BB4B
:102950000023CDE900338DF80E308DF80F300DF1E6
:102960000F020B4628460DF10E0103F098F84A4A73
:1029700004F1080132F8113023F0020343F001039F
:1029800022F81130B8F1000F31D0284698F80070C5
:10299000D8F80490FFF73CFF20B1B9F1000F1BD02D
:1029A0003E4826E03C4B04F1080C33F81C1021F0A3
:1029B0002001C904C90C23F81C10B9F1000F0BD079
:1029C000032FEDD8D8F8042092F800E0A7B9344BD3
:1029D0000EF5A27E43F82E702F4A04F1080132F85A
:1029E000113023F01C0343EA870322F811304EBB59
:1029F0002C4805B0BDE8F0834FEA8E0202F1804218
:102A000002F5C04241EA4E31D2F8100520F0030031
:102A1000C2F81005D2F8100520F44F3020F44070B1
:102A2000C2F81005D2F81085280200F47C5040EA64
:102A3000080040EA074041F0200123F81C10C2F8CA
:102A40001005C9E7D6E900762846FFF719FF002FE1
:102A5000CED0114DD5E90023974201D19E4218D026
:102A600011480DF10F01FFF7B3FD0E4B9842C0D195
:102A70009DF80F2045F8327005EBC20308345E6004
:102A800035F8143043EA422343F4807325F81430B8
:102A9000AEE70022EEE700BF0C0000200400AD0B03
:102AA000006000400000AD0B800000202DE9FF41D8
:102AB00004461646FFF796FE054631B32046FFF75B
:102AC000A7FE20B92046FFF797FE002860D1314FBE
:102AD00005F1080837F8183013F01C0F02D04B78B6
:102AE000012B55D001238DF80F300023CDE90013C1
:102AF0004A1C8B1C20460DF10F0102F0D0FF37F865
:102B0000183043F0030327F818301EB9224804B0E8
:102B1000BDE8F0812046FFF77BFEC8B31D4F96F855
:102B200000C005F10800614637F81050890025F013
:102B3000200501F18041ED0401F5C041ED0C27F8BD
:102B400010500023C1F810357278002ADED0D1F879
:102B50001035B67823F4991323F4F853C1F81035DF
:102B600012042302D1F810E502F4403203F47C533E
:102B70001343320543EA0E0302F4801245EA4C3552
:102B8000134345F0200527F81050C1F81035BDE774
:102B90000248BCE70C0000200000AD0B0400AD0BA8
:102BA000014BC3E9020170470C00002010B5044638
:102BB000FFF722FE50B12046FFF714FE044B083009
:102BC00033F8103003485B0B0B7010BD0248FCE774
:102BD0000C0000200000AD0B0400AD0B70B50F4CD5
:102BE00094F87860BEB90E4D6022314604F11000B1
:102BF00002F0C5FCC5F87C610620D5F87C31FEF7F3
:102C00006BFA4FF00043C5F804330648012384F8FB
:102C10007830636770BD0448FCE700BF0C000020FB
:102C2000006000400000AD0B0500AD0B034B93F8B6
:102C30007800003818BF0120704700BF0C0000204A
:102C400001460148FFF7E8BC7C000020014601482E
:102C5000FFF7BEBC7C00002037B50446FFF7CCFD73
:102C600008B32046FFF7D4FD0546E0B92046FFF73C
:102C7000DBFD03B29B0003F1804202F5C24203F187
:102C8000804303F5C04315601268D3F8102542F065
:102C90000102C3F8102521B1144A01238340C2F870
:102CA000043303B030BD2046FFF79CFD104B0830C5
:102CB00033F81030C3F38203042B12D0052B12D04B
:102CC00001A80194FFF77EFD019BD0F81015D940B3
:102CD00001F001010231204603B0BDE8304002F0AE
:102CE00027BF0321F7E70221F5E700BF006000409E
:102CF0000C00002010B50446FFF77EFDC0B1204651
:102D0000FFF786FDA0B92046FFF78EFD0B4A012391
:102D10008340C2F8083303B29B0003F1804303F5FC
:102D2000C043D3F8102522F00302C3F8102510BDCC
:102D300020460021BDE8104002F0FABE00600040CD
:102D400073B50446FFF74EFD184E00F1080536F83E
:102D50001530DB0727D52046FFF7CCFF2046FFF7CD
:102D60004BFD40B12046FFF75FFD114B00F5A2700F
:102D7000002243F820202046FFF782FD002301A80F
:102D800026F815300194FFF71DFD019B00EB830031
:102D9000084BD0F80027134043F00203C0F8003777
:102DA000054802B070BD0548FBE700BF0C000020DD
:102DB00000600040F0F8FCFF0000AD0B0400AD0B1C
:102DC0002DE9F04F644BD3F80403C0B285B040F056
:102DD0000040FFF781FD051E80F2A1804FF0A04367
:102DE000D3F820250292C3F82025D3F82028039297
:102DF000C3F820280DF108084FF00009574B09EBE4
:102E0000030B4FE093FAA3FA9BF80040BAFA8AFA50
:102E10004AEA44142046FFF7E5FC514B0194083080
:102E20004FEADA0233F810700AF0070301209840E5
:102E300018F8023023EA000308F8023001A8FFF76F
:102E4000C1FC019B03F5E073B90850F82330C7F3C8
:102E50008206C3F3014A4B0737462FD52046314639
:102E6000FFF7EEFC01A80194FFF7ACFC019B03F512
:102E7000E0735FFA8AFA50F82330C3F301439A45AE
:102E800007D10021204602F053FE5146204602F0B1
:102E90004FFE01A80194FFF795FC019A012393408E
:102EA000C0F82035D8F80030002BABD108F1040869
:102EB000B9F1000F1DD14FF001099FE7BAF1020FE0
:102EC0000CD10321204602F033FE06F00503012B4E
:102ED000DFD139462046FFF7B3FCDAE7022120466E
:102EE00002F026FE032EF4D0BAF1030FD1D1022E48
:102EF000EEE74FF00040FFF7EFFC4FF0A04219491A
:102F0000D2F820350293C2F82035D1F8202503925B
:102F10001343C1F820257FF46DAF25F0004501244F
:102F200015B905B0BDE8F08F95FAA5F3B3FA83F3B0
:102F300004FA03F29B0003F1804303F5C04325EA42
:102F40000205D3F81005D3F81015C0F30520C1F31E
:102F50000141FFF775FCE3E700600040FA62000002
:102F60000C00002000030050044AD2F80034DB07B4
:102F7000FBD50160BFF35F8F704700BF00E00140E9
:102F80004FF080531A69B0FBF2F302FB130373B9DD
:102F9000084B0222C3F80425C3F80805D3F800241F
:102FA000D207FBD500220448C3F804257047034824
:102FB000704700BF00E001400000AD0B0A00AD0B00
:102FC00010B5054C0123C4F80435FFF7CDFF0023ED
:102FD000C4F8043510BD00BF00E0014010B5144C2A
:102FE000A8220021204602F0CAFA03232361114AD5
:102FF0006361114BA261E3614FF48063236200239C
:10300000A3626362E36222660C4A62661022A266D1
:103010002367E3666367BFF35F8F094A12F8011DF8
:10302000E1540133102BF9D1BFF35F8F10BD00BF06
:10303000A40E0020116300007B1000206B10002004
:103040002A630000104B70B553F82040013053F84C
:103050002060A64200D870BDD4E9003595B153B1C7
:103060002846984738B10028B8BF4042EB68FF288F
:10307000A8BFFF201870EA68537843F0010353702B
:103080000834E6E79847FBE72860000008B5094BDD
:10309000012203201A70FFF7D5FF02F097FD0420EC
:1030A000FFF7D0FFFDF72CF8034A137B23F0010351
:1030B000137308BD7B1400201801002008B50348D5
:1030C000034A0021121A02F077FD08BDF800002023
:1030D0007C14002008B50020FFF7B4FF184B83F3E1
:1030E0000888184C636943F4007363610025E0238A
:1030F00084F82230E57725766576A57684F8205029
:10310000636A43F4E023636284F82350FEF7C4F952
:10311000FDF7C2FF4FF0FF33A362E362FEF7CAFA86
:10312000FEF758FA02F02CFD0120FFF78BFF02207A
:10313000FFF788FF04482B462A462946FEF756F833
:10314000801C002000ED00E08D30000008B506482E
:10315000064A0749121A02F031FDBDE80840054A47
:103160000549064802F02ABD00000020F8000020B2
:103170003063000000000000306300000000002009
:10318000034B1B680BB9FFF733B80020704700BF33
:103190004C0F002010B50E4B1C689C4204D1FFF769
:1031A000EFFF6FF0004010BDFFF7EAFF002CF8D0F2
:1031B000D4E904321B1A62EBE072B3F1004F72F1F2
:1031C0000001EEDA002AACBF18460020EBE700BF92
:1031D0008800002030B570B10B4B5B6898420AD074
:1031E000036843B1D3E90421D0E90445121941EB46
:1031F0000501C3E90421D0E9003213605A600023BD
:10320000C0E9003330BD00BF880000202DE9F84F31
:103210004FF02003EFF3118783F31288BFF36F8F12
:10322000DFF8B4902A4E2B4C3060D9F800004FF0F4
:10323000000A484508BF00204FF0000BD4E9001EEB
:1032400033683D4688B3D0E904874FEAE37C4345C1
:103250007CEB070206DAB8EB030267EB0C07C0E968
:10326000042722E018EB01014EEBE873C0E904AB40
:10327000C4E90013FFF7AEFF85F31188BFF36F8F2A
:10328000836898474FF02003EFF3118583F312888A
:10329000BFF36F8F3368D9F80000A3EB08034845EC
:1032A0002F463360CAD1D4E9001E59184EEBE373A0
:1032B000C4E9001300243460FFF76CFF2146FEF7D9
:1032C00063FF85F31188BFF36F8FBDE8F88F00BFF0
:1032D0004C0F0020980100208800002010B50A4CF7
:1032E00023681BB101232360002010BD00F052F8B9
:1032F0000028F7D00138062803D8044B53F82000E3
:1033000010BD034810BD00BF500F002040600000FA
:10331000FE8FFFFFBFF34F8F0549064BCA6802F4CB
:10332000E0621343CB60BFF34F8F00BFFDE700BFE8
:1033300000ED00E00400FA0510B40A4B0A490B4CFA
:103340004FF0FE32C3F800244968C3F80424C3F8E0
:103350000824C3F80C240023C4F800355DF8044B9E
:10336000084700BF00B002509000002000A00250AB
:10337000D0E90012014BC3E9001270479000002011
:1033800038B131B1014400220346013088421A703D
:10339000FAD1704738B500F02FF820B1032400F0BF
:1033A00063F8204638BD00F031F898B900F0ACF869
:1033B00098B90F4DD5F828391B0EF02B08D1D5F848
:1033C000242A0C4B9A420AD0072400F017F8E6E7AB
:1033D0000624FAE70424204638BD0024F5E701203E
:1033E00000F092F804460028F7D1C5F80C0AD8E797
:1033F00000B002500000E02000207047002070471D
:10340000014BC3F8040A704700B0025010B51148D0
:1034100000F048F800B110BD0F4800F043F8002854
:10342000F9D10E4C204600F03DF80028F3D10C4BAA
:103430000C481C6000F036F801460028EBD100F083
:103440002DF8044608B1204610BD00F03FF8204694
:10345000FAE700BFA8000020A4000020A000002080
:10346000980000209C00002008B5084800F024F8CF
:10347000074800F021F8074800F01EF8064800F061
:103480001BF8BDE8084000F00BB800BFA800002002
:10349000A4000020A00000209C0000200020704715
:1034A000704700BF08B5034B02681B681068984757
:1034B000002008BDC000002008B5034B02685B680F
:1034C00010689847002008BDC000002070B5094C66
:1034D000094D2069AB68984718B1084B08485B68EC
:1034E0009847084AEB68206900211160BDE87040E8
:1034F000184700BFAC000020C00000209000002052
:103500005C600000540F0020F8B51A4D1A4E0446B6
:10351000B26828699047E8B9184F3B684CB1A3B12D
:10352000012B19D0013B3B602869F36898470020C4
:10353000F8BD43B9124A0121C2F800151149D1F86A
:103540001029002AFBD101333B60F36828699847B2
:103550000020F8BD0C48F8BD0A4AD2F81039002BFB
:10356000FBD1074A6FF07E40C2F80035FFF748FFF5
:103570003B68D7E7AC000020C0000020540F0020BB
:1035800000A0025000B00250E98FFFFF10B50446C2
:1035900050B1636813F0685F05D0064A934202D0C9
:1035A00000232360626010BD034B04485B689847AA
:1035B000EFE700BF2C5F5CA9900000207C6000005A
:1035C000C8B143680D4A934213D013F0685F0ED020
:1035D000012350E8002F194640E8001C9CF0000F22
:1035E000F7D1012AF5D0BFF35F8F00207047044860
:1035F0007047044870476FF4E04070472C5F5CA947
:10360000E98FFFFFEA8FFFFF80B14368094A9342C9
:103610000AD013F0685F05D0BFF35F8F002303600B
:103620001846704704487047044870476FF4E040FC
:10363000704700BF2C5F5CA9E98FFFFFEA8FFFFF97
:1036400010B5044620B1044B63600022226010BD17
:103650000248FFF771FEF6E73A00003AA460000066
:1036600030B10268034B04489A4208BF00207047FB
:1036700002487047DD55AABB8208F0007108F000CF
:1036800038B50D460446B0B1A0220021043002F046
:10369000B7FA95B10822294604F1640002F0B6FA9F
:1036A000082205F1200104F1840002F0AFFA044B76
:1036B0002360002038BD0348FCE70348FAE700BF59
:1036C000DD55AABB7108F0008308F0002DE9F7432F
:1036D00005460E4699461146FFF7C2FF04460028EC
:1036E00040F08480002E00F08580002900F0848066
:1036F000B9F1200F40F0828005F14404082205F161
:103700000408204602F082FA05F124070822314617
:10371000404602F07BFA06F120010822384602F00A
:1037200075FA02A94FF4807041F8049D02F062FA24
:10373000002865D1334A4FF48073136001219360F0
:103740000823314A00F02EFB0121084605232F4AA9
:1037500000F028FB0823424601211C2000F022FB38
:1037600008233A460121032000F01CFB22460823CF
:103770000121022000F016FB0823254A01211A200E
:1037800000F010FB0523234A01211B2000F00AFB57
:103790000823214A0121142000F004FB08231F4ABA
:1037A0000121152000F0FEFA082305F16402012131
:1037B000162000F0F7FA082305F1840201211720F2
:1037C00000F0F0FA0823164A01210B2000F0EAFA73
:1037D00000F044FB0446019800F0D2FA114B002C93
:1037E00018BF1C46A421284602F00CFA204603B05C
:1037F000BDE8F0830C4CF9E70C4CF7E70C4CF5E70F
:10380000084CEFE790B002500861000080610000B2
:10381000C86000006C6100002C6100004C61000079
:10382000E86000008408F0007608F0008008F000EE
:103830008108F0000C4BC2691A60826943F8042CBD
:10384000426943F8082C026943F80C2CC26843F81B
:10385000102C826843F8142C426843F8182C026834
:1038600043F81C2C704700BF5CB602500C4B1B6821
:10387000C3610C4B1B6883610B4B1B6843610B4B93
:103880001B6803610A4B1B68C3600A4B1B6883609B
:10389000094B1B684360094B1B680360704700BFFE
:1038A0005CB6025058B6025054B6025050B60250A0
:1038B0004CB6025048B6025044B6025040B60250D0
:1038C00030B10268034B04489A4208BF0020704799
:1038D00002487047DD55AABB0202F0000002F0006A
:1038E00038B5044668B1051D7021284602F08AF9F2
:1038F00028462022044902F081F9044B236000206D
:1039000038BD0348FCE700BF94610000DD55AABB49
:103910000002F0002DE9F043284B04460E46154600
:103920000FCB85B06F4687E80F002DB94FF0000927
:10393000484605B0BDE8F0832046FFF7C1FF814649
:103940000028F5D1231D0193636AA3BB236F8BB1BC
:10395000C3F14008A84528BFA84604F1300031460D
:103960001844424602F04AF9236F43444644236711
:10397000A5EB0805226F402A06D104F13001384634
:1039800000F0AEFB0023236705F03F0835F03F054C
:1039900005D031462A46384600F0A2FB2E44B8F145
:1039A000000FC3D04246314604F1300002F026F940
:1039B000C4F87080BCE7DFF80890B9E7905E0000BB
:1039C0000C02F0002DE9FF41144B04460E460FCBCC
:1039D0006F4687E80F002046FFF772FF8046B0B9B8
:1039E000CEB1636A251D01953BB901236362226F45
:1039F00004F13001384600F073FB2B46043E2434BA
:103A000053F8042B12BAA34246F8042FF8D14046CB
:103A100004B0BDE8F081DFF80880F8E7905E0000B0
:103A20000502F000084B1B681B0EF02B08D1074B5A
:103A30001A68074B9A4205D1064B00201860704760
:103A4000052070470620704728B9025024BA02505A
:103A50000000E0200CBA0250002230B549001346A5
:103A6000023840F6FC7502F1A05404F52C44A40081
:103A7000904202F10102CABF236025605B181E2A32
:103A8000F1D1044A13600B445360034B034A1A609C
:103A900030BD00BF78B0025084B0025020F80F0053
:103AA00030B51E4B85B01A46196800910099CC07B5
:103AB000FAD500F1A05000F52C4080000168136891
:103AC0000193019BD807FAD5154B164C1868164D73
:103AD0001F30202390FBF3F00138002810DA002378
:103AE0000130400153B1A0F120014FF000421342D8
:103AF00004D1013888424FEA5202F8D105B030BDF6
:103B000013680393039BDB07FAD5431823602B68E4
:103B10000293029B002BE3D10138DEE7B4B00250E0
:103B2000ACB00250E4B00250DCB00250F0B51D68F9
:103B300085B001F01F040DB91F2C25D1154D2E465F
:103B40002F680197019FFF07FAD500F1A05000F5FB
:103B50002C408000006835680395039DED07FAD579
:103B60000D4D00EB611028600C48006802901F2C7E
:103B700018BFC94302980FBF106001F01F0100FA7F
:103B800001F111600021196010684300C00F13603B
:103B900005B0F0BDB4B00250E4B00250DCB0025049
:103BA0000C4B18603F3020F03F00890140305860D6
:103BB0009960D9601961596199611C33064819608F
:103BC00082B002680192019AD207FAD5196002B058
:103BD000704700BF90B00250B4B0025038B5A0F1A9
:103BE0002003B3F5426F05462CD88F2826D800F164
:103BF000470300F16604DB064FEA541400D0013499
:103C000064013F34A409013411B1A1421AD30C4616
:103C1000E3004FF48050B0FBF3F0202828BF2020B1
:103C200002B11060084B01221A602146FFF714FF11
:103C300028462146FFF7B4FF002038BD00F11F04DD
:103C40006409DDE70148F8E71CB802502221F000C2
:103C5000F0B5454B89B01D461C680194019CE407F2
:103C6000FAD5424BDFF80CE1DFF80CC113449B009E
:103C700000241A680B181E2B88BFC0F11E011F32CA
:103C80000B1852095343B3F5806F82BF4FF4806124
:103C9000B1FBF2F1091A00F1A05000F52C402746C3
:103CA000A14233DC2B680493049BDB07FAD5304B2D
:103CB0001B68296805910599CF07FAD52D4C2E4927
:103CC000236000231E46934203F1010040D120F0FF
:103CD00001022948194600268A423CD829680691E3
:103CE0000699CE07FAD525490968286807900798EC
:103CF000C007FAD52160204800210C468B422DD107
:103D00001D4900209A422CD809B0F0BD2B680293BF
:103D1000029BDB07FAD503199B001B682E680396EC
:103D2000039EF607FAD5CEF800300023934203F144
:103D3000010306D1164623F00103B34204D801342F
:103D4000AEE7CCF80070F1E7CCF800700136F4E78C
:103D50000E600346B7E706600131BDE7046001313C
:103D6000CCE708600133CDE7B4B0025024AC0014B6
:103D70007CB00250D4B00250D8B0025078B002509B
:103D800008B540B1202801464FF0070228BF202186
:103D90000020FFF75DFF024B00221A6008BD00BF44
:103DA0001CB80250F0B5294D85B02C462E680096FF
:103DB000009EF607FAD500F1A05000F52C408000D7
:103DC0000568206801900198C707FAD52048214F5F
:103DD000056002EB8306B24229D15A1C1D4E22F027
:103DE000010200279A4227D823680293029BDE072C
:103DF000FAD5194B0B449B001B681F335B099A4291
:103E000013D2216803910399C907FAD515440021FB
:103E10009B1A104A056008468B4210D85A1C0D495F
:103E200022F0010200209A420CD805B0F0BD52F8F1
:103E300004CBC7F800C0CEE737600133D2E710608B
:103E40000131E9E708600133EDE700BFB4B002508B
:103E5000D4B00250D8B0025024AC00142DE9F04187
:103E6000814B1D6898682033A0B01E461A680192E5
:103E7000019AD707FAD57D4B7D4A1A6032680292C3
:103E8000029AD407FAD57B4A1A607B4A1446116815
:103E900003910399C907FAD5784A1168C1F3402103
:103EA00037680497049FFF07FAD5754F1F6027688E
:103EB0000597059FFF07FAD51768002900F0CF8006
:103EC000B90540F1CC80316806910699CF07FAD543
:103ED0006C491960216807910799C907FAD51168DB
:103EE000C1F3402137680897089FFF07FAD5664F4E
:103EF0001F6027680997099FFF07FAD512680029F4
:103F000000F0AF80910540F1AC8032680A920A9AC5
:103F1000D207FAD5564A1A6032680B920B9AD70725
:103F2000FAD55A4A1A6031680C910C99CC07FAD527
:103F30005749196031680D910D99C907FAD555494E
:103F4000196031680E910E99CF07FAD55249196060
:103F500031680F910F99CC07FAD550491960504B31
:103F60001E46196810911099C907FAD53F4C4D4B60
:103F7000236033681193119BDB07FAD54A4B23600A
:103F800033681293129BDF07FAD5484B23603A4BF4
:103F90009846196813911399C907FAD5324F3860BA
:103FA00033681493149BDB07FAD5226033681593AA
:103FB000159BD807FAD53E4B236033681693169BA2
:103FC000D907FAD53B4B236033681793179BDA0761
:103FD000FAD5394B236033681893189BDB07FAD561
:103FE000364B236033681993199BD807FAD5344BA5
:103FF000236033681A931A9BD907FAD5314B236093
:1040000033681B931B9BDA07FAD52F4B236000F014
:104010001DFC08BBD8F800301C931C9BDB07F9D5AE
:104020003D6033681D931D9BD907FAD5274B23604C
:1040300033681E931E9BDA07FAD5254B2360D8F808
:1040400000301F931F9BDB07F9D50C4B1B6813F443
:10405000805F204B08BF184620B0BDE8F0811E48A5
:10406000FAE71E48F8E700BF90B0025080B0025057
:1040700000100251C01F7229B4B0025088B0025023
:10408000C0CF0129C01F0E29C03F002940010249AD
:10409000003184A800001649400108A18044088826
:1040A000B0B00250C044708880077A41C0077E419A
:1040B00000006A498006164940006E49000200214E
:1040C00000822021408220218082242140A161A100
:1040D00000C861510308F1000108F1000208F10075
:1040E0002DE9F74F314B44688046924699461A684D
:1040F000002AFCD12E4B9B461A68002AFCD14FF0B7
:10410000FF30019100F094FC802000F097FC294DD5
:10411000294A2A4F2A4E012307202B60A2F59E72BE
:10412000C2F83C011360636A3B60A36A3360D8F84D
:10413000003042F8043CD8F80830204698470199EE
:10414000D9F80030002BFBD1BAF1000F20D11D4B64
:1041500004221A60D9F80030002BFBD1DBF800A054
:10416000BAF1000FFAD1D8F80C30204698473B68D6
:1041700063623368A362144BC3F800A0C3F844A180
:10418000D9F80030002BFBD12B6003B0BDE8F08FD5
:10419000236A012B04BF0C4A13600C4B40201960AA
:1041A000C3F804A000F050FCD4E700BF10B90250DF
:1041B00020BC025018B8025000B90250CCB70250CF
:1041C000D0B70250C8B7025084B6025028BC025083
:1041D00010B5544B98B019461A680192019AD2074B
:1041E000FAD5514B514A1A600A680292029AD407D2
:1041F000FAD54F4A1A600A680392039AD007FAD593
:104200004C4818600A680492049AD207FAD54A4AC0
:104210001A600A680592059AD407FAD5474A1A60C7
:104220000A680692069AD207FAD5454A1A600A68C1
:104230000792079AD407FAD5424A1A600A68089288
:10424000089AD207FAD5404A1A600A680992099A70
:10425000D407FAD53D4A1A600A680A920A9AD20728
:10426000FAD53B4A1A600A680B920B9AD407FAD522
:10427000384A1A600A680C920C9AD207FAD5364A64
:104280001A600A680D920D9AD407FAD5334A1A605B
:104290000A680E920E9AD207FAD5314A1A600A6855
:1042A0000F920F9AD407FAD52E4A1A600A68109214
:1042B000109AD207FAD52C4A1A601A4B19461C6874
:1042C0001194119CE407FAD5174B186008681290F6
:1042D0001298C407FAD51A600A681392139AD00785
:1042E000FAD5124A1A600A681492149AD207FAD5BB
:1042F0001E4A1A600A681592159AD407FAD51C4A04
:104300001A600A681692169AD007FAD5194A1A60E6
:104310000A681792179AD207FAD5174A1A6018B086
:1043200010BD00BFB0B0025080B0025000936521B4
:1043300000043190409665900083612100C33021D4
:1043400000C364900081619000461021008111211A
:104350000041442100C320290C4610C800863121A9
:1043600000C3602140C12829409665210013319087
:1043700040962529594614C84004324910B5494B86
:1043800094B019461A680092009AD207FAD5464BA3
:10439000464A1A600A680192019AD407FAD5444A3B
:1043A0001A600A680292029AD007FAD5414818604A
:1043B0000A680392039AD207FAD53F4A1A600A683C
:1043C0000492049AD407FAD53C4A1A600A68059206
:1043D000059AD207FAD53A4A1A600A680692069AEE
:1043E000D407FAD5374A1A600A680792079AD207A3
:1043F000FAD5354A1A600A680892089AD407FAD59D
:10440000324A1A600A680992099AD207FAD5304AE4
:104410001A600A680A920A9AD407FAD52D4A1A60D5
:104420000A680B920B9AD207FAD52B4A1A600A68CF
:104430000C920C9AD407FAD5284A1A600A680D9291
:104440000D9AD207FAD5264A1A600A680E920E9A79
:10445000D407FAD5234A1A600A680F920F9AD20736
:10446000FAD5214A1A600F4B19461C681094109C0B
:10447000E407FAD50C4B1860086811901198C4072E
:10448000FAD51A600A681292129AD007FAD5174A1A
:104490001A600A681392139AD207FAD5144A1A605E
:1044A00014B010BDB0B0025080B0025080906521B1
:1044B0000004099040966590808061218020082149
:1044C00080206490008161900046102100811121BC
:1044D0000041442180202029024610C8008609217D
:1044E0008020602140212829409665214096252979
:1044F000594614C810B5504B96B01C461A68019224
:10450000019AD207FAD54D4B4D4A1A6022680292A1
:10451000029AD207FAD54B4A1A604B4A42EA8040C7
:1045200022680392039AD207FAD51860226804928F
:10453000049AD007FAD5454A1A60A2F5800242EAE9
:10454000814122680592059AD207FAD5196022683E
:104550000692069AD007FAD53D4A1A602268079259
:10456000079AD107FAD53B4A1A6022680892089A3E
:10457000D207FAD5384A1A6022680992099AD007F8
:10458000FAD5364A1A6022680A920A9AD107FAD5F1
:10459000334A1A6022680B920B9AD207FAD5314A35
:1045A0001A6022680C920C9AD007FAD52E4A1A602B
:1045B00022680D920D9AD107FAD52C4A1A6022680A
:1045C0000E920E9AD207FAD5294A1A6022680F92E3
:1045D0000F9AD007FAD5274A1A60216810911099CE
:1045E000C907FAD51A60144B1A4619681191119926
:1045F000C807FAD5114B2049196011681291129918
:10460000C907FAD51D491960116813911399CC0790
:10461000FAD50B491960116814911499C807FAD595
:1046200017491960116815911599C907FAD5154AE6
:104630001A6016B010BD00BFB0B0025080B002507A
:104640004004419000862929D81001C840144190A7
:1046500040142129401465210034409000310C9011
:10466000C0400C90C030202940960D9000416090D1
:10467000031645C80086112100416021594644C8EF
:104680004014459040142D9070B5264888B00546DA
:1046900004680094009CE607FAD52348234C046084
:1046A000234C44EA83432C680194019CE407FAD527
:1046B0000360930143EA824242F0104444F4C04450
:1046C0002B680293029BDE07FAD504602B680393E4
:1046D000039BDB07FAD5174B03608B0143EA81414B
:1046E00041F0104343F4C0432E680496049EF6073D
:1046F000FAD503602B680593059BDE07FAD50460A5
:1047000041F058412B680693069BDC07FAD50160FF
:1047100042F058422B680793079BDB07FAD50260EB
:1047200008B070BDB0B0025080B00250C021022964
:104730008071009880611890354B8EB019461A68C8
:104740000092009AD207FAD5324B334A1A600A68AF
:104750000192019AD007FAD5304A1A600A6802928B
:10476000029AD207FAD52E4A1A600A680392039A6F
:10477000D007FAD52B4A1A600A680492049AD20725
:10478000FAD5294A1A600A680592059AD007FAD51F
:10479000264A1A600A680692069AD207FAD5244A6F
:1047A0001A600A680792079AD007FAD5214A1A6058
:1047B0000A680892089AD207FAD51F4A1A600A684E
:1047C0000992099AD007FAD51C4A1A600A680A9217
:1047D0000A9AD207FAD51A4A1A6008680B900B9801
:1047E000C007FAD51A600A680C920C9AD007FAD55D
:1047F000144A1A600A680D920D9AD207FAD5124A25
:104800001A600E210D230F2200200EB0FFF73CBFCF
:10481000B0B0025080B0025080430129406339217A
:10482000807001298020542100D13490C040349000
:10483000C0302029C0530D9000413890832308C810
:1048400080E3102100413821CF4308C82DE9F04111
:10485000012392B0CDE90333624B1D461A680592DD
:10486000059AD207FAD5604C604B2360604B19461D
:104870001A680692069AD707FAD55E4B1A68D604CC
:1048800000F1A8802A680792079AD007FAD55A4AF9
:1048900022600A680892089AD207FAD51E68C6F301
:1048A0000036002E40F098801220FFF7F9F80746F6
:1048B0001320FFF7F5F887428CBF12201320FFF773
:1048C000EFF8471EFFF738FF03AB01AA3946122065
:1048D000FFF72CF904AB804602AA39461320FFF7F4
:1048E00025F900EB4800022832D003283ED00128E9
:1048F00074D12B680993099BDB07FAD53F4B2360E2
:104900002B680A930A9BD807FAD53D4B23602B6886
:104910000F930F9BD907FAD53A4B23602B6810935E
:10492000109BDA07FAD5384B23602B681193119B43
:10493000DB07FAD5354B2360013F25D5102319221B
:1049400018210020FFF7A0FE304612B0BDE8F0812C
:104950002B680B930B9BD907FAD52D4B23602B6843
:104960000C930C9BDA07FAD52A4BCFE72B680D93F3
:104970000D9BDB07FAD5284B23602B680E930E9B0B
:10498000D807FAD5254BC1E703AB01AA3946122057
:10499000FFF7CCF804AB044602AA39461320FFF710
:1049A000C5F810EB440402D1FFF712FCC4E7FFF78F
:1049B000E5FC022C08D0032C09D0012C10D11721C2
:1049C0001620FFF797FDB7E715211420F9E70F210F
:1049D0000E20F6E7124EB7E7124EB5E7124EB3E7D8
:1049E000124EB1E7B0B0025080B0025000084A51F8
:1049F000B4B0025088B0025000084E5100065A4927
:104A000040065E49000442410014424940042E49D8
:104A1000000652494006564900063A4940063E49BA
:104A20000608F1000708F1000408F1000508F1008C
:104A3000014B1860704700BF08BA0250014B186064
:104A4000704700BF04BA0250034A13681842FCD0F2
:104A5000024A10601846704700BA025008BA025065
:104A6000704708B9086070476FF015007047002064
:104A7000704730B583688B4285B0044615460ED921
:104A80006368C068194401AA00F06CFE28B9626826
:104A9000019B9B1A2B60029B6B6005B030BD6FF0D1
:104AA0002100FAE770472DE9F7430E46174699466D
:104AB000044628B94FF0FF38404603B0BDE8F08304
:104AC0000029F7D0002AF5D0CB680D891D440423B6
:104AD0000DEB03022946384600F0B0FC8046002862
:104AE000E8D1BDF80410738946F60812914225D129
:104AF000BDF806109942DDD104230DEB03022944D1
:104B0000384600F09BFC0028D4D1BDF8042046F6BE
:104B100007139A42CED1C4E900679DF82830A4F863
:104B20000890A3727389BDF806202B44E360738953
:104B300013442B44043563612561BDE7002BE4D0A9
:104B4000B8E72DE9F3410E4617461D46044620B945
:104B50004FF0FF3002B0BDE8F0810368002BF7D0C2
:104B60004368002BF4D04FF6FF78D4E904239A422F
:104B700016D223685B8923B1E368934204BF0433F0
:104B800023610423216960680DEB030200F056FCE9
:104B90000028DDD1A37A2BB1D4E903329A4201D3A4
:104BA0000120D7E72389BDF80610434501F104022F
:104BB00003D0BDF804C09C450BD115B1BDF804303D
:104BC0002B802369043333603980236913442361C4
:104BD000C0E7236913442361C7E773B50C46064653
:104BE0001146022301AA204600F0ADFA0546E8B9B5
:104BF000019A1F2A0ED92368A2F12001194420220C
:104C0000304600F0B1FC2368019A13442360284623
:104C100002B070BD0146C2F12002304600F0AFFC88
:104C2000019A2168C2F120003044EAE76FF00205E2
:104C3000EDE700F089BC4FF4C07358433030704743
:104C400010B5044600F03AFCA3684FF4C072303B44
:104C500002FB103010BD70B50D46044600F022FE78
:104C60002A46A0F1080104232046BDE8704000F068
:104C7000E5BB13B50446019100F014FE0423A0F136
:104C800008010DEB0302204600F04FFE02B010BDFC
:104C900013B50446FFF7D4FF6A4601462046FFF7E6
:104CA000E8FE10B9009802B010BD0020FBE770B517
:104CB00013460E461546002102460446FBF77EFECB
:104CC00050B92B4604F12C0201212046FBF776FE59
:104CD00010B1002E08BF002070BD73B5044600203F
:104CE0000D461646FBF750FA6946C0B2FCF776F956
:104CF00030BB2C2303FB05440098E36825891D4441
:104D000004230DEB0302294600F098FBC0B9BDF85F
:104D100004206489009846F608139A4215D1BDF81C
:104D200006309C420CD104230DEB0302611900F004
:104D300085FB28B9BDF8042046F607139A4207D030
:104D4000009800F07AFB02B070BD002CF2D0F7E7BB
:104D5000BDF80610214429443160F1E737B5044617
:104D6000426A802501A902200195FCF75FF958B934
:104D7000019B226DA36201A905200195FCF756F95C
:104D8000054628B1092500E00125284603B030BDBD
:104D9000019B206A636500F091FBE065F5E7012364
:104DA000036003F1012343600023C0E9023370472D
:104DB0004379012B07D10368012B04D10079431EED
:104DC000584258417047002070477FB506460D464F
:104DD000022001A9FCF702F938BB0198FFF730FF68
:104DE000F16D0446284600F00BF90444019800F0E8
:104DF00065FB0646019800F068FB082201460DEBB2
:104E0000020000F0BCFB2B798DF808302146019898
:104E1000334602AA00F027FB041E019818BF0124A4
:104E200000F00BFB204604B070BD0124FAE700F04F
:104E30002FBB2DE9F8430E46002107460846FBF735
:104E4000A3F9012104460020FBF79EF93378A34221
:104E500020D0834220D101252C2303FB0575F86D5A
:104E6000AC6AFFF7E8FE013C804600276B6A03EB63
:104E7000C40253F83410D2F804901B684A46C91A89
:104E800030464F44FFF7D3FFB84504F1FF34EDD867
:104E9000BDE8F8830025DFE70120F9E737B51546BF
:104EA0000C460520694600F083FDE979012903D00D
:104EB0000022204600F090FD9DF80330012B02D126
:104EC000204600F068FDA9682046FFF7D2FE204684
:104ED000FDF7B0F9002003B030BD73B50D460646AE
:104EE00000F0C9F80446E86050B302282DD101A9AA
:104EF000FCF774F858BB01982A46314600F033F8A5
:104F00000446D0B9019800F0CDFC012301460DF113
:104F10000302019800F092FA0446A0B90198012218
:104F20000DF1030100F0D2FC10B101238DF8033024
:104F30009DF8033003F00F03EB71019800F07DFA48
:104F4000204602B070BD0124F7E70724F8E70124EA
:104F5000F6E7436A00205A68034613448B4200F187
:104F60000100FAD370472DE9F34707460C46014686
:104F700000201646FBF7A4FA051E3DDB3846E46D1B
:104F8000FFF75EFE5FFA84F96B1E09FB03084FF022
:104F9000FF3465B9631C06D07F2C22DC013440F25B
:104FA00001133460B380284602B0BDE8F0870123C6
:104FB0000DF107024146384600F040FA002805F19D
:104FC000FF3A1BDB01220DF10701384600F07EFCA1
:104FD00018B9B4F1FF3F08BF2C46A8EB09085546A5
:104FE000D7E70223803C7371631004F0010401339E
:104FF000013433603471D6E70725D4E70125D2E7C1
:1050000010B543790279012B14BFCB01002302F1C3
:10501000FF3201FB0233026814BF4C000C46013A18
:1050200004FB023010BD30B5826A446D944202D058
:10503000631C93421BD1802A19D800231946A3422E
:1050400009D1934215D2426A02EBC3035868431A4E
:105050005842584130BD416A056D01EBC30105EB73
:10506000C30549686D688D4201D10133E7E700202F
:10507000F0E70120EEE71FB50220694600F098FC3A
:1050800002A9052000F094FC9DF800309DF808006E
:10509000012B0AD19DF80230032B06D1013818BF2D
:1050A0000120400005B05DF804FB0020FAE770B570
:1050B0000368CD1A002D02DC6FF05F0070BD93F91C
:1050C00000601C78002E0ADB5C1C04601B781360F7
:1050D0000368C91A13688B42EED80020EEE704F08B
:1050E0007F04013C032C2BD8DFE804F0020A1421D2
:1050F000012DE1D05B781360036802330360E7E7BA
:10510000022DD9DDB3F801305BBA9BB2136003689E
:105110000333F3E7032DCFDD9C785D78DB78240241
:1051200044EA05442343136003680433E6E7042D8F
:10513000C2DDD3F801301BBA136003680533DDE725
:105140006FF06300BAE770B404680E1B002E07DD31
:1051500026789E4208D10134046070BCFFF7A7BFD7
:105160006FF05F0070BC70476FF06100FAE738B510
:1051700003230446FFF7E7FF18B9136813B96FF06C
:10518000670038BD013B136023681A78002AF6D106
:1051900001332360F5E72DE9F34190461F4601AA4C
:1051A000302305460E46FFF7CEFF0446F0B92B68C4
:1051B000F61A002E34DD42461B7842F8043B019B70
:1051C0002E681E44314606232846FFF7BCFF0446DE
:1051D00060B92B68D8F80420C8F808309918B14293
:1051E000296007D10C213846FEF7CAF8204602B0E4
:1051F000BDE8F0819B5C3A46314642F8043B2B689F
:1052000001332B602846FFF752FF60B92B687A689C
:10521000BB601344B3422B6018BF6FF06504E5E731
:105220006FF05F04E2E70446E0E7F8B5B1F1005F34
:1052300000AF0546144610D2D31D23F007036E4677
:10524000ADEB030D684600F08FF96946224628460B
:10525000FEF760FBB546BD46F8BDFEF75BFBFAE71F
:10526000038B13F0070305D10368002B0CBF00204C
:1052700003207047022B05D1408BB0FA80F0400923
:1052800080007047012B05D10368002B0CBF002064
:10529000052070470020704710B50C4600B111B9C9
:1052A0006FF0150010BD081D00F096F80028F9D128
:1052B000A368032BF6D9F3E72DE9F0410D46074625
:1052C0001946281D90461E4600F097F8044638B14E
:1052D0003346424629463846A446BDE8F041604779
:1052E000BDE8F08110B44FF02004EFF3118284F395
:1052F0001288BFF36F8F41615DF8044B0121FBF70A
:105300005DBD38B50C46054658B151B10B6843B187
:105310004B6833B11C22002100F031F92C610020D0
:1053200038BD6FF01500FBE770B505460E46FFF778
:10533000B3FF041E15DB4FF02003EFF3118283F35C
:105340001288BFF36F8F6B8B2C8B4FF6FF718B42E4
:1053500004F0070407D182F31188BFF36F8F6FF059
:105360000A04204670BD022C0CD101336B8382F3FA
:105370001188BFF36F8F0023224631462846FFF77E
:105380009BFFEEE7062C14D8DFE804F00413131398
:10539000041A0400002333606B683BB9C5E900665A
:1053A000ACB902212846FBF709FDDAE71E606E6002
:1053B000F6E782F31188BFF36F8F6FF00404D0E734
:1053C00082F31188BFF36F8F6FF08504C9E782F312
:1053D0001188BFF36F8FC4E7034658B1426802F0EB
:1053E0000302012A03D0032A04D1026812B100206B
:1053F000986070476FF0150070474268816002F056
:105400000302032A4FF0000203460CBF0068104657
:105410005A60704708B504464FF02002EFF311833D
:1054200082F31288BFF36F8FFCF7ECFE2046FCF787
:105430007BF8FBF737FEFCE770477047002930B474
:10544000044618460BDBA5680844A84207D8E06864
:105450006468214484682468A44630BC60476FF0C7
:10546000150030BC7047002930B4044618460BDBE9
:10547000A5680844A84207D8E068646821448468A5
:105480006468A44630BC60476FF0150030BC7047BC
:105490000029034610B410460BDB9C680844A04268
:1054A00007D8D8685B68194483685DF8044B9B682B
:1054B00018476FF015005DF8044B704708B5C068D9
:1054C0008368DB689847006808BD08B5C0688368D2
:1054D000DB689847007908BD70B54C680368A34243
:1054E00001D2012070BD8A682244934201D300207A
:1054F000F8E7D1E903254E69B54203D36FF00B03FA
:105500008B61F4E71B1B42F835304368086902EBF6
:10551000C00253600B6901330B61E2E708B500205C
:10552000FFF778FF704700F037BB0146006800F0D6
:1055300033BB00210120FFF7F6BF08B5FBF714FECF
:10554000BDE80840FBF780BE10B55AB10139841898
:1055500010F8012B11F8013FA04201D09A42F7D078
:10556000D01A10BD1046FCE710B5431E0A44914204
:1055700000D110BD11F8014B03F8014FF7E7C9B294
:1055800002440346934200D1704703F8011BF9E738
:105590000369C9B20C2201FB0233186C00F007004A
:1055A00070474FF02003EFF3118283F31288BFF3AB
:1055B0006F8F036803F0C00343F00203036082F3BC
:1055C0001188BFF36F8F704770B5C9B203694FF090
:1055D0002004EFF3118584F31288BFF36F8F0C263C
:1055E00006FB0134246C14F0C00408D0A24206D09B
:1055F00085F31188BFF36F8F4FF0FF3070BD06FB4E
:10560000013301221A6485F31188BFF36F8F436859
:1056100003EBC1035B6898470020EFE78022FFF7A8
:10562000D3BFF8B5069F0469C9B24FF02005EFF368
:10563000118685F31288BFF36F8F0C2505FB01449B
:10564000256C05F0070CBCF1010F0CD1276486F323
:105650001188BFF36F8FC4E90E23436853F83130CC
:1056600098470020F8BD05F0C005AF4286F31188C9
:10567000BFF36F8F0CBF6FF077004FF0FF30F1E793
:1056800013B580240094FFF7CCFF02B010BD6FF07B
:105690008500704710B40069CBB21C2403FB0400E2
:1056A00000215DF8044B1047002000F0BEB9002037
:1056B00000F0F3B938B505460C4600F048FA002D65
:1056C00007DBA84205D9401B84428CBF0020012083
:1056D00038BD0020FCE770B50D4628461946164631
:1056E0001C46FFF7E7FF38B124B122462946304671
:1056F000FFF73AFF002070BD6FF01500FBE72DE9C2
:10570000F3411C469046002382682360A36013691E
:105710000D4601AA69469847019B5A1E019223B97A
:105720006FF0150002B0BDE8F0810098A2684768EC
:105730002168676085B9A8EB02030668B34228BFF9
:1057400033461A4403FB07112160A26002689A42A3
:1057500006D808300090DFE76B1AB3FBF7F3ECE7ED
:105760000020DFE713460022FFF7C9BF2DE9F0470D
:10577000836886B01B698846914601A902AA9847AA
:105780000024A2462546029BAB4202D806B0BDE8E3
:10579000F087019F07EBC50700267B6804933A68F2
:1057A000B2420AEB060302D801359A46EBE70394AE
:1057B0000593494603A8C0470028E7D0049B01365B
:1057C0001C44ECE743685B68D3F810350B6000209D
:1057D000704743685B6802EA010021EA0201C3F8EE
:1057E0000805C3F80C150020704743685B6800206B
:1057F000C3F80815704743685B680020C3F80C15B0
:10580000704743685A68D2F8043521EA03000B4018
:10581000C2F80805C2F80C350020704710B50369BE
:105820005868F8B1884219D19C6808685860A1424C
:1058300000D19860002008602AB15A680A609A680E
:10584000596002B99960002010E0814206D10868D1
:10585000206098688142EDD19C60EBE704460068C7
:105860000028F2D1002AE8D16FF0150010BD00F138
:1058700050039B009BB203F1804303F58833002261
:105880001A601B68704708B50020FBF74DFEFDF756
:1058900025BD08B5FBF7FAFBFFF744FEBDE808405D
:1058A000FDF71CBD8068183820F0070010387047DD
:1058B000042809D0052803D1481E18BF01207047CD
:1058C000431A5842584170470120704738B5154671
:1058D0000C4661B15AB1FFF7F8FD2544214611F895
:1058E000013B834203D1A942F9D1012038BD0020F8
:1058F000FCE738B50C460123114622460546FFF762
:105900009DFD00280FDB012221462846FFF7DEFF20
:1059100038B92378012B14BF022301232370002000
:1059200038BD0323FAE70120FAE72DE9F7431D46C6
:1059300006460F469046FFF7C1FD6C1E04444042E8
:105940000440082C1AD83046FFF7BFFD2A4681468E
:1059500041466846FFF708FE621B49460DEB05000D
:10596000FFF70DFE23466A4639463046FFF77BFDBA
:10597000003818BF012003B0BDE8F0834FF0FF30BE
:10598000F9E707B501238DF8042001AAFFF7CDFF41
:1059900003B05DF804FB81681839012221F007018A
:1059A000FFF7EFBF8268183A22F00702FFF7A1BFA6
:1059B00013B50C46C0B201A9FBF710FB50B9214644
:1059C0000198FCF757FC04460198FFF736FD204686
:1059D00002B010BD0124FAE713B541EA02110446F2
:1059E0008DF80710FFF75EFF012301460DF1070256
:1059F0002046FFF79AFF02B010BD8168183921F0E8
:105A0000070101220839FFF7BCBF004700F0B4B816
:105A100008B50020FBF782FB08B9FBF75DFB4FF0F0
:105A200080430022C3F8182508BD08B510B101282D
:105A300028D008BD4FF08043D3F81814D3F81824A9
:105A4000C90313D5900702D00020FCF705FE4FF0E4
:105A500080430022C3F81825C3F80421D3F8042199
:105A60000222C3F8042301229A60E2E7D3F8142447
:105A7000D107ECD5D3F81C249207E5D10222C3F854
:105A80000423D6E74FF080430022C3F80021D3F867
:105A90000021C3F804031860CBE7FCF7DDBDF7B5C0
:105AA000019001A8DDE9084716461D46FCF78AFE6D
:105AB000019BB6F1000C18BF4FF0010C00EB830006
:105AC0000B1E18BF0123002D43EA4C0314BF4FF0F7
:105AD0000C0C4FF0000C002C43EA0C0314BF4FF4E5
