:020000040000FA
:100000000069002055330000759000004133000066
:100010004133000041330000413300004133000010
:100020000000000000000000000000009934000003
:100030004133000000000000513400004133000053
:100040001536000015360000153600001536000084
:100050001536000015360000153600001536000074
:100060001536000015360000153600001536000064
:100070001536000015360000153600001536000054
:10047000153600001536000015360000000000009B
:10048000000000000000000000000000000000006C
:10049000000000000000000000000000000000005C
:1004A000000000000000000000000000000000004C
:1004B000000000000000000000000000000000003C
:1004C000000000000000000000000000000000002C
:1004D000000000000000000000000000000000001C
:1004E000000000000000000000000000000000000C
:1004F00000000000000000000000000000000000FC
:1005000000000000000000000000000000000000EB
:1005100000000000000000000000000000000000DB
:1005200000000000000000000000000000000000CB
:1005300000000000000000000000000000000000BB
:1005400000000000000000000000000000000000AB
:10055000000000000000000000000000000000009B
:10056000000000000000000000000000000000008B
:10057000000000000000000000000000000000007B
:10058000000000000000000000000000000000006B
:10059000000000000000000000000000000000005B
:1005A000000000000000000000000000000000004B
:1005B000000000000000000000000000000000003B
:1005C000000000000000000000000000000000002B
:1005D000000000000000000000000000000000001B
:1005E000000000000000000000000000000000000B
:1005F00000000000000000000000000000000000FB
:10060000DEE61E284CBBCE8F023600003C00000008
:100610003CC00000010000000000000000000000DD
:10062000FFFF029100000000000000000000000039
:1006300000000000000000000000000053B94AB9AB
:10064000002908BF00281CBF4FF0FF314FF0FF30DA
:1006500000F00CB8ADF1080C6DE904CE00F008F81C
:10066000DDF804E0DDE9022304B07047704700BF05
:100670002DE9F04786468C460846089E1546744686
:100680001946002B40F0C1808542B2FA82F245D96A
:100690004AB1C2F1200300FA02FC954094402EFAC0
:1006A00003F343EA0C0C4FEA154EA8B2230CBCFB33
:1006B000FEF80EFB18CC08FB00F943EA0C43994501
:1006C00028D9EB1808F1FF3704D2994502D9A8F1CF
:1006D00002072B44A3EB0903A4B2B3FBFEFC0EFB01
:1006E0001C330CFB00F044EA0344A04214D92C193B
:1006F0000CF1FF3304D2A04202D9ACF102032C4426
:10070000241A43EA07401EB1D440002334607360CA
:10071000BDE8F0874746DDE76346F1E792BB431B40
:1007200001214FEA154EAFB2200CB3FBFEFC0EFBCD
:100730001C330CFB07F840EA0343984561D9EB18DA
:100740000CF1FF3004D2984502D9ACF102002B44E1
:10075000A3EB0803A4B2B3FBFEFC0EFB1C330CFBA3
:1007600007F744EA0344A7424DD92C190CF1FF3393
:1007700004D2A74202D9ACF102032C44E41B43EAA1
:100780000040C0E7C2F120039540944020FA03F1F5
:100790002EFA03F34FEA154E9040AFB20343B1FB7C
:1007A000FEFC0EFB1C10190C0CFB07F841EA004183
:1007B000884522D969180CF1FF3004D2884502D946
:1007C000ACF102002944A1EB08019BB2B1FBFEFC95
:1007D0000EFB1C110CFB07F743EA01439F420ED9A5
:1007E000EB180CF1FF3104D29F4202D9ACF10201A7
:1007F0002B44DB1B41EA004193E76046E3E7614697
:10080000F7E76046A4E76346B8E7834206D916B91E
:10081000002108467CE7C6E900E0F9E7B3FA83F770
:100820008FB9834201D3724508D8BEEB020460EB56
:10083000030301209C461EB9002169E73846FAE708
:10084000C6E9004CF8E7C7F1200CBB400EFA07F5EB
:1008500022FA0CF42EFA0CF1BA401C4320FA0CF3E5
:10086000B8404FEA144901431FFA84FEB3FBF9F87C
:1008700009FB18300B0C08FB0EFA43EA00439A45BB
:1008800040D9E31808F1FF3004D29A4502D9A8F103
:1008900002002344A3EB0A0389B2B3FBF9F809FB76
:1008A000183308FB0EFE41EA03418E452CD961182E
:1008B00008F1FF3304D28E4502D9A8F10203214486
:1008C00043EA0040A1EB0E01A0FB02984145CE4651
:1008D000434602D306D14D4504D20138B9EB020E8E
:1008E00068EB0403002EA7D0B5EB0E0261EB030109
:1008F00001FA0CFC22FA07F3F9404CEA0303C6E9BB
:10090000003199E74046C5E74346D9E77FB5354B07
:10091000354AC2F80036C2F80436C2F80836C2F8C2
:100920000C36C2F81036C2F81436C2F81836C2F8BF
:100930001C3602F58052C2F80036C2F80436C2F8FE
:100940000836C2F80C36C2F81036C2F81436C2F8AF
:100950001836C2F81C3600F04FF806F0B6FE00F06C
:1009600069F868B1214BD3F800360BB1DB0707D526
:10097000012000F057F801F053FF1D4802F018FB6A
:1009800001A800F073FC1B4B1B68834208D00120B8
:1009900000F048F801F044FF154802F009FBFEE7BB
:1009A00069469DF8080006F06FFE009B039C1C44FE
:1009B000019B1D8901F004F8661900F0E5FF08F0BD
:1009C00001FC03F0CFF802F0F5FC635983F30888CB
:1009D000002383F31488BFF36F8FBFF36F8F7368A7
:1009E0009847FEE73546526E0080105000E01050E8
:1009F000D8B600009803002008B508480AF011F89E
:100A000058B14FF40031064806F029FEBDE8084011
:100A100000220821014806F012BE08BDECAC00001F
:100A2000E8B6000002460821014806F008BE00BFF3
:100A3000ECAC00002DE9F041214809F0F2FF00285C
:100A40003CD04FF480311F4806F009FE0A211C48B3
:100A500006F0E1FD044670B3002140F21B600AF08D
:100A60009AF80AF0F2F84FF47A75A0FB050447F6FD
:100A70001222002305FB0141FFF7E0FD2F46064649
:100A8000DFF83C800A21404606F0C5FD04460AF026
:100A9000DCF8A0FB070C47F61222002305FB01C17E
:100AA000FFF7CCFD801B312805D824B10021202080
:100AB0000AF071F8E6E7201E18BF0120BDE8F081BA
:100AC000ECAC0000E0B6000021B1012906D06FF0C7
:100AD00015007047044B53F830007047024B03EB8E
:100AE000C0035868704700BFF0B600002DE9F04F12
:100AF0009B46D9B0764B039038A8DDE963890E4652
:100B00001446659F1D6800F013FFB8F1000F07D071
:100B1000B9F1000F04DD4A46414638A807F09EFFB0
:100B20004FF0000833897289D6F80CA013449A4418
:100B3000C2453DD838A90CA807F0B6FF27B120223E
:100B400038460CA908F014FB0023224600933146D6
:100B50004FF6FF7306A806F0B9FD074628BB2146ED
:100B600003980B9E06F0B5FE86421ED84FF0FF3666
:100B7000DFF860B1DFF860910DF1120304AA05A956
:100B800006A806F0F1FD00280FDB40F09A800599D9
:100B900006A806F035FE10BB4FF6FF71BDF8120037
:100BA0004E4A32F8023B8B4217D1494B1D688BE00D
:100BB000629BAAEB0809994528BF99465A464B46BD
:100BC0004146204608F042F90028EED14A465946EF
:100BD00038A807F043FFC844AAE79842E1D1BDF81E
:100BE0001230102B17D0222B4DD0012BC4D1BDF8C1
:100BF0001030202BD9D82046059938AA08F026F9BC
:100C000006460028D1D19DF810A0BAF1200F19D9BD
:100C10004FF0FF36B0E7BDF81070202FC5D13B462E
:100C20002046059938AA08F011F90028BDD13A46A6
:100C300038A90CA806F01EFEDBF800308342B4D1C0
:100C4000012799E7D9F80030DFF894800393039BDC
:100C50009E42DDDA1CA800F06BFED8F804201CA828
:100C6000126858F8081B07F0F9FE1CA914A807F031
:100C70001BFF524638A914A808F053FA00283FF485
:100C80007BAF0136E3E7731C3FF476AFD9F8003051
:100C9000B342BDDDBDF81030802B86D820460599C3
:100CA00038AA08F0D3F800287FF47FAFF6B22021ED
:100CB000BDF81030009638AA0CA800F013F80546CD
:100CC000A6E7002F3FF471AF284659B0BDE8F08F7A
:100CD0000400002098030020F8B600006CBB000060
:100CE000FCB600002DE9F04798B016461D469DF869
:100CF0008020394B074653F8321003EBC2035B6880
:100D000003911868DFF8D4800144302304AA03A8B3
:100D1000D8F8009007F05BF8002849D1DDE90343DB
:100D20001C44214608AB05AA03A807F078F8002860
:100D30003ED1069A072A3BD12949079808F0F1F9D4
:100D4000002835D1099A082A32D126490A9808F094
:100D5000E8F968BB214604AA03A807F04CF838BBA1
:100D6000DDE903A30AEB0302944221D1412B1FD1F9
:100D700035443023294605AA04A8049607F027F82D
:100D8000A0B9DDE9043213449D420FD32A4604A9D9
:100D900008A806F043FD48B92A4604A910A806F0A1
:100DA0003DFD18B99AF80030042B05D0D8F8009012
:100DB000484618B0BDE8F08700F0CCFC2022009037
:100DC000394608AB0AF1010007F0E5FC0128EDD136
:100DD000054BD3F80090EBE7FCB6000004000020C0
:100DE000A3BB00009ABB000098030020094A400002
:100DF0000B7852F820108B4209D0013052F82000B5
:100E0000834214BF4FF0FF304FF4C06070474FF47F
:100E1000C060704704B700001FB5582303FB0100F2
:100E2000046A1023A1686A462046103908F00EF8BB
:100E300038B910226846044908F073F9204604B016
:100E400010BD0024FAE700BF8ABB00002DE9FF4176
:100E50002C2707FB01073D6A0446284690460E46AC
:100E600008F03DF87B1EFA1C13F8011F81421CD1CB
:100E70009A42F9D15EB12946204606F004FE98F860
:100E80000730042B08D12046216A06F0FCFD1F4BD9
:100E9000186804B0BDE8F081002004F055F904287A
:100EA000F5D1F0E71A4B186823E02C237343E118BF
:100EB0000869C206DED4E258164B9A42F2D1CA68DB
:100EC0000B899B18EED24A89D218EBD2AB689A42B2
:100ED000E8D240F60C630340E4D1CDE9023301933C
:100EE0004FF480732A460093394620460A4BFFF799
:100EF000FDFD0A4B1B688342CBD0002EC7D00021DA
:100F00002846AA6807F0CCFFC1E700BF0000002018
:100F1000040000203DB8F396022E00209803002024
:100F200073B50D46002104462846CDE9001106F0B0
:100F300069FDE8B12368164EB34203D1204601AAE9
:100F400006F0D7FCE36AB34204D16A460121204689
:100F500006F0CFFCDDE90032934288BF0193019B8C
:100F6000AB6029462046019A00F046FA02B070BDF7
:100F700001462046FFF750FF064605F1080106F03E
:100F80008BFCAB683046019307F05FFFE9E700BFD9
:100F90003DB8F3962DE9F84F884691469A460026CB
:100FA000DFF88CB0234C244D0B9B9E4201D30020D4
:100FB0000FE00B9B40469F1BB7F5806F28BF4FF497
:100FC00080671B4A3B4606EB0A0107F03FFF10B162
:100FD0000120BDE8F88F0A993B465A4648467118E9
:100FE00007F049FF0028F3D1144B3E44C3F80046F4
:100FF000C3F80446C3F80846C3F80C46C3F81046C5
:10100000C3F81446C3F81846C3F81C46C5F8004692
:10101000C5F80446C5F80846C5F80C46C5F810469C
:10102000C5F81446C5F81846C5F81C46BCE700BF0D
:101030009C0300203546526E0090105000801050E6
:10104000F0B50E460021854B0446436203F58053FC
:1010500087B003650846FFF737FD04F12001C0B2F1
:1010600001F0FAFA002858D10121FFF72DFD04F113
:101070004C01C0B201F0F0FA00284ED1204606F033
:1010800096FC00284AD100222046114606F079FC41
:1010900000285AD1204606F0FBFD002855D002A8B2
:1010A00006F0A7FC0146204606F038FD00284CD18A
:1010B00002A806F0A7FC80F0010102AA2046C9B2EE
:1010C00006F05FFC024600283FD102A806F09AFC19
:1010D0000546F0BB204602A9FFF722FF9DF80F301E
:1010E00084F85830033B012B06D8284600F0E4F87A
:1010F00010B1FF2384F858309DF80F30023B022BCB
:1011000006D8002000F0C2F810B1FF2384F8583050
:1011100094F85830FF2B13D1FEE7FEE701239842E5
:1011200084F85830AFD194F85830042B8DF80F3034
:1011300039D8012B3DD84FD0FF2384F858304BE0ED
:1011400000222046114606F01CFC012384F858308A
:10115000E9E79DF80F70012F18D1104603F0F4FF56
:10116000831E022B05460ED83946204602AAFFF7F9
:101170006DFE3B4B1B68984205D03A4B1D68A84258
:1011800014BF0525012584F85850CCE701212046DD
:1011900002AAFFF75BFE324B1B68984214BF05237F
:1011A0009DF80F30D2E7052BC6D1002000F084F85F
:1011B00010E0204602A9FFF7B3FE94F85830DA1E7B
:1011C000012A0ED8002000F077F80028B4D10020C2
:1011D00000F05CF80028AFD194F85830FF2B03D111
:1011E000FEE7022BF8D1F2E70022012B1E4D0192FF
:1011F00013D01146204606F0C4FB70B12D681022B2
:10120000002102A807F0BFFFE06C07F01EFE206A75
:1012100007F01BFE284607B0F0BD0022204611460D
:10122000FFF714FE0E4F3B688342E7D12A689A42CB
:10123000E4D00C4A12689A42E0D0019B013301933A
:10124000019B012B00D0FEE7206A06F023FA3071E3
:10125000236A5B6834603D68B360D0E79C07002078
:1012600098030020000000200400002038B5064D3F
:10127000044660220021284607F085FF21462846C3
:10128000FFF7DEFE38BD00BF9C27002013B5094BD9
:1012900001A913F8300001F0DFF948B9019808F00E
:1012A000EAFE0446019807F0D0FD204602B010BDCA
:1012B0000124FAE70CB700001FB50F4B01A913F882
:1012C000300001F0C9F9A8B9019802A903F0E6FEBF
:1012D000044668B99DF80B30032B03D1019808F040
:1012E00098FE0446019807F0B0FD204604B010BDFA
:1012F0000124F7E70124F8E70CB700002DE9F341DA
:1013000006460C4617461D460BB9002121E018463B
:1013100006F078FB01460028F7D13046FFF77CFD48
:1013200018B9012002B0BDE8F08101A906F0B4FAB5
:101330000028F6D10199304606F03EFC736A5968E0
:101340006B79012B18D1002CDFD12B68834298BF19
:1013500000212C2303FB04663A462023306A07F061
:1013600075FD0028DDD1002DDCD038680D4BC01A8A
:1013700018BF4FF0FF30D5E7022BC6D12B68012BE9
:1013800005D98342C1D8B4FA84F46409BDE7BCD15D
:10139000002CDED0012CB8D12C79023C18BF0124DE
:1013A000B3E700BF3DB8F39673B54B681446114AD6
:1013B00003F0FF23934206460D4618D10B68012B1C
:1013C00015D16946204603F069FE9DF80030032BD5
:1013D0000DD12146304606F056FB204608F019FE96
:1013E0002046A96806F066FA204603F037FE02B0F0
:1013F00070BD00BF000100042DE9F04F054689B023
:101400000C46114606F0D8FB6B6A039020465E68D6
:1014100006F0F8FA90B1E86D06F02EFA0022AB6AF9
:10142000013B3244904201D9013BFAE7039A9342CF
:1014300004D80123E37109B0BDE8F08F06A90420A8
:1014400001F00AF907A9022001F006F92146284611
:10145000079AFFF7A9FF6379012B4BD1039FDFF8B0
:1014600058B141E022680399C2F101030B44BB4229
:1014700039D36B6A012A196853F8370003EBC703A5
:1014800053F8083CA0EB0109A3EB010A11D1079B1B
:101490000493E368022B08D04146284606F0F3FA8D
:1014A00022464146284606F01AFB2846049906F0D3
:1014B000EAFA32464946404606F0E3FA53464246C7
:1014C00041462846CDE90096FFF764FD21462846AF
:1014D00006F0A5FA23680133236020B1DBF8003061
:1014E0000133CBF80030013FDDF81880002FB9D16F
:1014F00001232360022301276371039BDDF8189009
:101500009F4206D9484607F0A0FC079807F09DFCCB
:1015100091E72368BB424DD86A6AFB0052F8371046
:10152000083BD2F800B00491D1582A6DDDF81CA018
:10153000D0581368A0EB03082379012B38D1A1EB15
:101540000B0132464846059106F09BFA0599434641
:101550004A460091284651460196FFF71BFD214659
:10156000284606F05CFA0223237118B1124A136868
:101570000133136032464146504606F082FA049B1E
:101580005246A3EB0B0349462846CDE90086FFF7F8
:1015900001FD2146284606F042FA23680133236004
:1015A0000123237130B1044A13680133136001E051
:1015B000022BDFD00137A0E7FC2700200A4619B133
:1015C000024B00211B681847704700BF080000202D
:1015D0000822F0B589B006F05EFDCB6A00270393C0
:1015E0000B6B0C4604934B6B064605938B6BCDE956
:1015F00001770693CB6B0097079313466A46114613
:10160000104606F056FC31460546304606F051FCC1
:10161000216B05440391616B10460491A16B059108
:10162000E16BCDE90617114606F043FC314605444F
:10163000304606F03EFC0544206ACDE90477009070
:10164000606A03970190A06A0290A06B0690E06B1D
:101650000790304606F02DFC0544606AD4F838C087
:101660000090A06ACDF810C00190E06AD4F83CC0A8
:101670000290606BCDE905C00390206A0790304668
:1016800006F017FC0544E06ACDE904770090206B72
:1016900003970190606B0290206A0690A06A079001
:1016A000304606F02BFD236B2D1A0093636B3046FA
:1016B0000193A36B0293E36B0393636A0693E36A5C
:1016C0000793082306F01AFD636B2D1A0093A36B92
:1016D00030460193E36B0293236A0393636A049396
:1016E000A36ACDE90537236B0793082306F006FDAF
:1016F000A36B2D1A0093E36B3046CDE90137636A83
:101700000393A36A0493E36A0593636B0793082327
:1017100006F0F4FC2D1A10D40D4C35B908223146D0
:10172000204606F0C4FC01280FD00823224631468B
:10173000304606F0E3FC2D1AEFE7054A0823314650
:10174000304606F0B6FB2D18F8D409B0F0BD00BF46
:1017500018B700000048704714B700002DE9F04F9B
:10176000002703689DB002934368DFF8BCA1039390
:101770008368DDE902460493C36805930369DDE9E4
:1017800004BE0693436907938369DDE9062C089339
:10179000C36998460993089B0093CD590CAB2DBAA9
:1017A0005AF8049BDD514FEAF223A94483EAB213AD
:1017B000009D83EA72634B4425EA020502EA0C09A4
:1017C00085EA09052B44434486EA0B054FEA743841
:1017D00088EAB408254006EA0B0985EA090588EA83
:1017E000B4580437A844402F03EB0E054344DE46AB
:1017F000DDF8008040F088804FF0100A4B490A91D4
:1018000051460AF1010A0DF1700E0AF00F070EEBB6
:10181000870757F8407C01F00F094FEAB748019756
:1018200088EAF71801F10E0707F00F070EEB87079C
:1018300057F8407C09314FEAF74E8EEA774ECDF8E3
:101840002CE001F00F010DF1700E0EEB81010EEB9B
:10185000890959F840EC51F8401CBAF1400F714425
:10186000DDF804E088EADE08DDF82CE041448EEA89
:10187000972E714405EA02084FEAF52E2CEA050777
:1018800087EA08078EEAB51EDDF828808EEA756EB5
:10189000774458F804EF49F8401C77440F44009906
:1018A0004FEA733E394484EA0607CDF828808EEA71
:1018B000B30E07EA030704EA06088EEAB35E87EA76
:1018C000080777440F4401EB0B0ECDF800C0B34678
:1018D00022D102993944016003991944049B416063
:1018E00023448360059B3344C360069B73440361B8
:1018F000079B2B444361089B13448361099B63440A
:10190000C3611DB0BDE8F08FB346CDF800C02646D8
:1019100094461C462A4640E7944626462A461C46DC
:1019200075463B466CE700BFC4B7000000B8000036
:1019300010B50446C8B17022002107F012F90B4B14
:101940000B4A0C49C4E900230B4B0C48C4E90213B1
:101950000B4BC4E9040301200A4BA36103F1745348
:10196000A3F52303A3F69243E36110BD85AE67BBE5
:1019700067E6096A72F36E3C3AF54FA57F520E5145
:101980008C68059BABD9831FBFF36F8F72B60023A2
:101990004FF0FF30094A03F120010133102B42F8C8
:1019A0002100F8D100234FF0FF30044A03F1600119
:1019B0000133102B42F82100F8D1704700E100E01C
:1019C000F8B54FF0FF3600250127184CC620C4F8A3
:1019D000086301F081FDE762C4F85051D4F850313A
:1019E000C4F84C51D4F84C31C4F82451D4F8243103
:1019F000C4F8005504F578344FF48270C4F80863D5
:101A000001F06AFDE762C4F85051D4F85031C4F8CF
:101A10004C51D4F84C31C4F82451D4F82431044B3F
:101A2000C4F80055C3F80863F8BD00BF00600C504F
:101A300000E01050014B1B68184700BF0C0000204D
:101A400007B50B46002102460091034800F006F856
:101A500003B05DF804FB00BF351A00002DE9F04F1C
:101A6000824617461C46002595B00391387808B980
:101A700028465FE3252809D00399D0470028C0F203
:101A800059837B1C01350493049FEFE71822002142
:101A90000EA807F078FB7B78252B7DD00023984695
:101AA0009E469C461E46781C014610F8012B2B2AA8
:101AB00000F0A18000F29880202A00F09F80232A65
:101AC00000F09F802BB19DF8403043F040038DF82B
:101AD0004030B8F1000F05D09DF8403043F02003AE
:101AE0008DF84030BEF1000F05D09DF8403043F036
:101AF00010038DF84030BCF1000F05D09DF8403048
:101B000043F008038DF840302EB19DF8403043F08B
:101B100004038DF840309DF8403003F04400442821
:101B200003D16FF386138DF840309DF840302A2A98
:101B300043F080038DF840307FD19DF841204B1C4D
:101B400042F001028DF841201A782E2A0CBF0121A3
:101B500000219DF8412061F341028DF8412078D1A8
:101B60005A782A2A6ED000224FF00A0C0133194607
:101B700011F8010BA0F13006092E40F295809DF876
:101B800040101292C1F3400040EAD2700A4660F35E
:101B900041028DF840205CE08DF84330BB1C04937B
:101BA0009DF84130DA0740F12E8154F8048BB8F1EA
:101BB000000F07DA9DF84020C8F1000842F0040247
:101BC0008DF840205E0740F1278154F804BBBBF13B
:101BD000000F80F226819DF841306FF341038DF8AC
:101BE00041304FF0FF3B1CE12D2A0DD0302A7FF40D
:101BF00069AF012358E74FF0010C55E74FF0010E94
:101C000052E74FF001084FE701264DE703460EFB70
:101C10000262303A184610F8016BA6F1300CBCF1A4
:101C2000090FF3D999428FD09DF840101192D20F2D
:101C300062F341018DF8401086E70B4600224FF019
:101C40000A0EE7E79DF84120023342F004028DF8C6
:101C500041201A786C2A47D02BD8682A31D06A2ABA
:101C60004BD04C2A51D01A4612F8013B782B0492E3
:101C70008DF843309DF8412000F2BE806D2B51D885
:101C8000692B00F2B980572B67D8412B03D0453B15
:101C9000022B00F2B18004229DF8423062F302036D
:101CA0008DF84230012373E00CFB02020B46303A00
:101CB0005DE7742A25D07A2AD5D106219DF84120E6
:101CC0000CE05A78682A9DF8412006D1012161F381
:101CD000C6028DF841200233C5E7022161F3C60236
:101CE0008DF841200133BEE75A786C2A9DF84120D7
:101CF00001D10421EBE70321F0E705219DF8412004
:101D0000ECE707219DF84120E8E7BDF8402022F4E8
:101D1000F04222F0020242F4804242F00202ADF8A8
:101D20004020DFE76E3BD9B201238B4040F2824175
:101D30000B4237D113F0240F51D1D8075CD50321C2
:101D40009DF8423061F302038DF8423002F07803CF
:101D5000A3F140014B424B411AE00120A3F158018D
:101D6000C9B200FA01F111F4624F94D140F60106B4
:101D700031421DD111F4043F3ED09DF8423060F352
:101D8000020302F07802402A8DF8423034D000235A
:101D90009DF84020C2F340010B4363F341028DF8EC
:101DA0004020FDE602219DF8423061F30203E8E79E
:101DB00002209DF8421002F0780260F30201402AEE
:101DC0008DF8421002BF9DF8401041F001018DF8DE
:101DD0004010632BDBD1131E18BF0123D8E703216A
:101DE0009DF8423012F0780F61F302038DF8423013
:101DF00014BF01230023CBE79DF8403043F00103DB
:101E00008DF84030C3E79DF94020002AACBF4FF069
:101E1000FF38DDF84480D5E698077FF5E2AEDDF8BF
:101E200048B00023CDE911339DF842309DF84110B0
:101E300003F00703012BC1F3C30132D1CB1E042BE6
:101E400004D8DFE803F0204545202000236801295D
:101E50004FEAE372CDE90E321BD19DF93830DA1723
:101E6000CDE90E3204349DF8403013F003064FD014
:101E70003A465046049B039906F0F8FE0028C0F24B
:101E80005981054400E654F8043BDA17CDE90E32D7
:101E9000E9E70229E6D11AB243F3C033CDE90E23B4
:101EA000E0E7022B24D1CB1E042B04D8DFE803F09B
:101EB00018101018180001294FF0000254F8043BC4
:101EC00014D00229CDE90E32CDD19BB20E93CAE7D0
:101ED000073424F00704F4E80223CDE90E23C2E717
:101EE00054F8043B0E9300230F93BCE7DBB2CDE71D
:101EF000042B08D1073424F00704D4E90023083464
:101F0000CDE90E23AFE7032BADD154F8043BDDE759
:101F10009DF8430078283FF6B7AD62281DD82528E4
:101F20004ED058287FF4B0ADDDE90E010DF1360337
:101F3000009310AA08AB06F051FEBBF1000F074654
:101F400080F2C180002F3FF49FAD0DF13609A9EB5F
:101F50000700002E49D0013047E0633815283FF6CE
:101F600093AD01A252F820F08B2000009D200000CC
:101F7000891A0000891A0000891A0000891A0000D5
:101F80009D200000891A0000891A0000891A0000AB
:101F9000891A0000E7200000C12000004B2000004B
:101FA000891A0000891A0000CF1F0000891A00005A
:101FB000C1200000891A0000891A0000C120000019
:101FC0000399D0470028C0F2B58001355CE5BBF12C
:101FD000000F0E9F35DB5946384607F0EAF807EB4D
:101FE0000009002F3FF450AD00269DF8423013F059
:101FF0001002059200F0918002305B06DDF844B0DB
:1020000048BF129B584448BFC018B8F1000F40F3B6
:102010009E809DF84020A8EB0008C2F38003500783
:10202000069300F19480510640F187803EB130461E
:102030000399D04700287DDB069B01351E463022E0
:102040007CE0384607F066F8C9E70E9800285ED0B5
:102050000DF1360908AB0021CDF8009010AA06F06A
:10206000BDFDBDF84230BBF1000F03F0EF0343F4B8
:10207000F04343F010030746ADF8423022DA00285F
:102080003FF402ADA9EB0000AEE70E9B0026012055
:102090008DF8203008AF0DF12109A6E719075ABFC6
:1020A000C3F300135E012B26DDE90E23002BBFF6E0
:1020B0003BAF524263EB43032D26CDE90E2333E7BA
:1020C000002631E700269DF840200DF13603DB1B8A
:1020D0006FF386129B458DF840207FF633AFABEB54
:1020E000030311932EE70E9B07293FF6CDACDFE8E3
:1020F00001F00C04060C08080C0C1D70C4E41D80D3
:10210000C2E4EA17C3E90052BEE41D60BCE42F4FED
:10211000064607F10509052067E71A0748BF0130A1
:102120006BE71046079306920399D047DDE9062333
:10213000002804DA15B0BDE8F08F20224346194686
:10214000002903F1FF33ECDC454498466D1A2EB1AB
:1021500030460399D0470028ECDB01359DF842302A
:10216000DA0601D41B0705D530200399D047002893
:10217000E0DB0135059B33B103999DF84300D0475F
:102180000028D7DB0135AB4405E030200399D04768
:102190000028CFDB0135ABEB0503002BF5DC4B460C
:1021A0003A465046039906F061FD0028C2DB05441B
:1021B000A844A8EB0503002B7FF766AC2020039909
:1021C000D0470028B6DB0135F3E700BF06BC0000AE
:1021D00008B5EFF31183202383F31288BFF36F8FC9
:1021E00001F0A6FC024806F0E2FC06F055FFFCE711
:1021F0000CBC00002DE9F043079D15B915600020C7
:1022000012E00324B5FBF4F404EB4407BD4218BF0D
:102210000134B4F1804F09D2A40001348C4200D8BB
:1022200038B96FF00B001460BDE8F0834FF0FF3455
:10223000F7E704460021DFF8B4E0B94203F1030CEC
:1022400004F104062BD3A942274623D201F1010C45
:10225000AC451F7828BF002324494FEAA70E38BF9A
:102260005B7811F80EE0AC4584F800E001EB131E3A
:102270002EBF3D239B0003F03C034FEA071738BFF6
:10228000CB5C07F030071EF80770A3703D23677022
:102290003746E3700023381A10603B70AFE71CF834
:1022A000034C1CF8023C4FEAA4091EF809902401D3
:1022B0001CF8018C04F0300406F8049C0EEB131992
:1022C00019F804409B0006F8034C03F03C030EEBA6
:1022D0009814E35C08F03F0806F8023C1EF808304A
:1022E000344606F8013C03316346A6E7B5BC00005E
:1022F0002DE9F04300273C463D46DDF81CE0DFF8C1
:10230000288175451FD3E4BB00201460BDE8F0832D
:102310000136764533D013F806C0BCF1200FF7D054
:10232000AEEB0609B9F1010FA6EB05050DD0BCF126
:102330000D0F0AD103EB060999F80190B9F10A0FC4
:102340006ED1751CDDE72E46E3E7BCF10A0FF8D02D
:102350002DB9BCF13D0F05D10137022F0DD96FF01A
:102360001500D3E71CF0800FF9D118F80C507F2D21
:10237000F5D03F2D01D8002FF1D10134E1E73546EA
:10238000C1E74FF0060C04F00706E4080CFB06F664
:102390000CFB04F40736E41B04EBD60470B18C424A
:1023A0000CD80027014603263C46DFF87CE0DFF826
:1023B0007C801D449D4205D10C1AA5E76FF00B00EF
:1023C0001460A3E713F8019BA9F10A0C5FFA8CFCD7
:1023D000BCF1160F04D848FA0CFC1CF0010FE9D030
:1023E0001EF809C00134BCF1400F08BF013E0CF0DB
:1023F0003F0C042C4CEA8717DCD17EB13C0C012E3B
:102400000C7002D101310024D4E7022E4FEA1724C8
:102410004C7016BF8F7002310331F4E73446C9E7C0
:10242000002DA2D09BE700BF35BC0000F6FFBFFF28
:102430002DE9F047058B04462807904611D4022960
:1024400005F0070540F0CC80204606F026FC78B168
:102450000138218B042811D8DFE800F0C2106D8507
:10246000950001290CBF45F0100545F02005258396
:1024700088F31188BFF36F8FBDE8F08701F0070A7A
:10248000AA4500F0A5800027B9463E46A368002B68
:1024900000F0BC8041F00801218388F31188BFF36C
:1024A0006F8FA168002900F0BA800D68002900F044
:1024B000B680334652462046D1F80480C047002DEE
:1024C00076D02B6829461D46F0E701F007035A1F16
:1024D000012A1BD8002221F00701062B276889B2A8
:1024E000C4E9002209D13B4603E0628B01326283DA
:1024F0001B68002BF9D141F002012046218306F030
:10250000CCFB00287AD041F0200176E0042B0AD1E0
:1025100021F0070189B22046218306F0BEFB10B1ED
:1025200041F020012183218B01F0070AAA454FD0F9
:102530000027B946AAE7236921F0070141F0060107
:10254000062DD3F8009021832DD1B9F1000F3FD093
:1025500041F00801218388F31188BFF36F8F204673
:102560003949C84729E021F00701236941F00401F6
:1025700089B2042DD3F804902183E6D000274FF0D0
:10258000040A3E4682E721F00701236941F0050174
:1025900089B2052DD3F808902183D6D000274FF0BB
:1025A000050A3E4672E700274FF0060A3E466DE7F1
:1025B0002B4687E7B9F1000FD1D1EFF31188202323
:1025C00083F31288BFF36F8F238B23F008032383D9
:1025D000258BEA062ED525F01003238305F0070589
:1025E0006669218B002EBFF670AF00232768C4E90F
:1025F000003321F0070141F001012183218B4FF0CD
:10260000000901F0070AAA457FF440AF002F9CD0D3
:1026100041F00801218388F31188BFF36F8F002FE9
:10262000C8D03D68394633465246204606F061FB25
:102630002F46F4E7AB067FF51BAF25F0200323837D
:1026400005F0070500E700BF1F8D0000014B036088
:1026500000207047C8B8000070B5104B0D461C68CC
:10266000B4B10F4B196800238B4202DB6FF00100FD
:1026700070BD224612F8106B864202D01446013318
:10268000F2E7E06808F0CDF928B100202C60EFE710
:102690006FF00C00ECE76FF01200E9E7100000208B
:1026A000C8B8000010B5436888B0029383680C4630
:1026B000CDE9033200230A68C068CDE90623054945
:1026C00001AA059306F04FFE079808B9059B236001
:1026D00008B010BDED8E0000F7B5224E306883685B
:1026E000DB6B03B1984730688368DB6A002B31D11C
:1026F0001D4C1E4D306883681B69002B2DD00122B4
:102700000DF107019847012827D1236843B92B68A9
:102710001BB369681A688B422A6008BF6A6023602D
:10272000134A9DF8070011887F2904D823684F1C9D
:102730000B44178018720A28DCD100202368118806
:10274000186059600B494D684DB9C1E900331080DC
:102750002060CEE798470028CAD103B0F0BD2B60B7
:102760004B60F4E7582C002000280020102800209F
:10277000002E00200828002010B5044B04461868DD
:102780008368E1B25B689847204610BD582C002052
:10279000F8B5054616460846EFF31187202383F364
:1027A0001288BFF36F8F1B490B684BB11A4C6268DC
:1027B0009A4205D000221A60626862B9C4E9003307
:1027C000164A136853B987F31188BFF36F8F184601
:1027D0000B603360F8BD13606360F1E7D2F804C0AA
:1027E0001C686345146008BF546087F31188BFF309
:1027F0006F8F5C680B60A042D8BF00F1FF3403F11B
:1028000008012246284606F0B3FC0023601C2B5525
:102810000123DEE7042800201028002008280020DB
:10282000002313B51C462049204AC1E90033C2E900
:1028300000331F4A4868146020BBC1E900220133FD
:10284000082B02F18802F5D11A4C1B48206008F0D1
:10285000E8F828B32068836823B11B6C13B1002209
:102860001649984720688368DB6A0BB1984760B1C6
:10287000206883681B69002BFAD001220DF1070143
:102880009847F4E702604A60D9E700220C4B2068C1
:102890001A8083681B6A03B19847002002B010BDFC
:1028A0004FF0FF30FAE700BF102800200828002072
:1028B00018280020582C002000AD0000D926000068
:1028C000002E002041F204432DE9F043DBB0ADF8C7
:1028D0000C3040F606130025ADF81030DFF80891F3
:1028E000424BD9F800101B68414E4D70A3EB06080F
:1028F0000B7828465A1C62F302030B7098FA98F37F
:102900004B808B8808225BBA8B8006F03AF93146FF
:102910004246ADF8140006F034F902271FFA88F495
:1029200040BA04F10A035BBA0222ADF814000DF1BB
:10293000160107A8ADF8163006F01AFC0822D9F8DF
:1029400000100DF11E00ADF8167006F011FCBDF878
:10295000160007AB083080B231464246ADF816008B
:10296000184406F005FCBDF816303A461C44A0B2E7
:102970002C4607ABADF8160005A9184406F0F8FB85
:10298000BDF81630BD213B449BB2ADF81630009324
:1029900006AA07AB2AA8FFF72DFC069B154E164F7B
:1029A000ADF81630BDF81630A34202DC5BB0BDE8CE
:1029B000F083336802215B68A4B904A89847BDF886
:1029C000165033682D1B7C2DA8BF7C252AAA101910
:1029D00029465B6898473368012138465B682C4478
:1029E0009847DFE703A8E9E7BC2C0020742C0020FF
:1029F000022F0020C02C00200EBE000038B5054676
:102A00000A4C0A21204607F0F3FF0222204608491B
:102A100007F0E1FF2946204607F0C6FF20460A21BD
:102A200007F0EEFFBDE83840FFF74CBF742C0020E4
:102A3000F5BC00002DE9F0474FF0FF34D4B00B4651
:102A4000059406940794012100240AAD0246C5E9C5
:102A5000004430A80091CDE9014404210894099470
:102A600007F0D6FC4022214620A806F08CFB8A4BBA
:102A700003211C93052304221D93884B0DF1180993
:102A8000CDE91E39864B87482193874B05AFCDE9A9
:102A90002335864B07AE2693854BCDE92B01CDE937
:102AA0002836CDE92D37279109AB1CA930A82292F1
:102AB00006F084FA20B303240A217E4807F098FF29
:102AC0007D4902227B4807F086FF2146794807F0BE
:102AD0006BFF4CB973490322764807F07CFF774BB4
:102AE0007448196807F06AFF0A21724807F088FFE6
:102AF000FFF7E8FE089806F0A8F954B0BDE8F087A3
:102B00003B68D5E900845A1CD5D0B8F1000FD2D06B
:102B10006B4A33B9D9F80010B1F1FF3F18BF0B462B
:102B2000136000211068FDF7CFFF08A9C0B2FFF7BE
:102B300093FD0028BFD13B68604D002B47D1089F13
:102B40002B603846D7F8089004F09BFE5D4A01469A
:102B5000384604F0A1FD002840F09C8033684B45C6
:102B6000A9D8594A1060594A13602A68564E22441F
:102B700031680898013A06F002FA002830609ADBC2
:102B8000089806F0A5F9B4FBF0F303FB1046DFF854
:102B90003C912B68A71B1C44D9F8003008989C4234
:102BA00038BF002606F094F9012806D9089806F0E7
:102BB0008FF9013818EA000F4AD13B46424629688E
:102BC000089806F058F900287FF475AF2FE02A68BE
:102BD000934201D000246FE73C4A23441268934299
:102BE000C3D968E7BA45089828BFBA4606F077F90E
:102BF000402201460CA806F0C6FA524641460CA8EF
:102C000006F0B6FA5346296808980CAA06F033F97C
:102C1000044600287FF450AF2B68D04453442B6007
:102C2000A7EB0A07089806F053F9B842DAD996B923
:102C30002B68D9F8002033443B4493422B60C9D120
:102C4000204B08981A68114606F099F9C40F33E72B
:102C50004FF0400AE6E7089806F041F910220146D5
:102C60000CA806F090FA324608EB07010CA806F013
:102C70007FFADDF82080296840467C1806F028F9A4
:102C8000214603460CAA404606F0F5F800287FF4DA
:102C900012AFCDE701240FE7F8BC0000FFA600004B
:102CA000FEBC000007BD000009A7000003BD000036
:102CB00005A70000742C0020F5BC00006C2C00203F
:102CC000702C0020642C0020602C00205C2C002044
:102CD000F0B50C68164F85B002380D46C4F580611A
:102CE0000090144B381903AA0131FFF701FB044689
:102CF000D0B92B68039A1344022B2B6011D93E885C
:102D0000023B76BAB6B29E420BD13246B91C05F0F0
:102D100038FF30B9022E04D92B689A1E2A60FC5461
:102D20000124204605B0F0BD4FF0FF34F9E700BFA5
:102D3000832F002086330020002307B50221009353
:102D4000034A8023034807F05DFE03B05DF804FBEF
:102D5000022F0020742C00202DE9F043072904469F
:102D6000B3B06AD9037813F0050F66D14388A1F197
:102D700008055BBA9BB2AB425FD3824B00F10806F9
:102D8000186083885BBA8380FFF7D6FFA08801288C
:102D900040F09980E37943B1012B00F08D80082049
:102DA00033B0BDE8F043FFF729BE247814F00704E0
:102DB000F5D10146744807F01BFE0622734972489C
:102DC00007F009FE0521704807F00EFE704E714FA6
:102DD000DFF8C48121460020D6F80090FDF774FE8C
:102DE00004A9C0B2FFF738FC0546D8B92023014634
:102DF00006AA049806F02AF8069BBB420BD1402392
:102E000028460093CDE90255049A01950EAB06A918
:102E1000FDF76CFE8146D8F8003004984B4511D080
:102E200006F013F864B10521574807F0E5FD0121CC
:102E3000554807F0E5FDFFF745FD33B0BDE8F083E9
:102E40000124C7E706F001F814214F4807F0D0FD30
:102E5000042252494C4807F0BEFD21464A4807F07B
:102E6000ADFD07224E49484807F0B5FDBDF82E30AC
:102E7000402101939DF82D304A4A00930EA89DF8F9
:102E80002C3000F0CFFD0C9B4BB1421E3E2A06D8E1
:102E90000EADC0F14001444A284400F0C3FD0EA825
:102EA00006F038F90EA90246374807F094FD1421C0
:102EB000354807F0A5FDB5E72946304633B0BDE8F3
:102EC000F043FFF7B7BD00287FF469AFE379012B2A
:102ED0003FF466AF052B4BD0002B7FF460AFCDE9FC
:102EE0000433CDE9013301230EA8009332462B466B
:102EF000042107F08DFA0EA807F00CFC002835D04D
:102F000006A90EA807F003FC80B3079C012C21D171
:102F1000069B1B78642B1DD104A90EA807F0F7FBB4
:102F200020B30EA807F01FFC00B30A21164807F0D3
:102F30005FFD1E492246144807F04DFD124804A9C2
:102F400007F046FD58B90224FFF7F6FE2046FFF7CA
:102F500055FD72E700210EA807F01CFCCEE70A2100
:102F6000094807F04DFD0028EDD064E70324EBE7A6
:102F7000FFF744FD41F68560002107F00CFE0120BB
:102F8000FFF726F9BC2C0020742C00200BBD00009C
:102F9000040000203DB8F3969803002012BD000005
:102FA00017BD00001FBD00002BBD00002FBD00009D
:102FB00001232DE9F34700258046DFF8C890324E03
:102FC00089F80030314B324C324F0095186099F837
:102FD000003013B902B0BDE8F087DFF8BCA0C6F836
:102FE0000046C5F58061C6F80446C6F80846C6F82E
:102FF0000C46C6F81046C6F81446C6F81846C6F879
:103000001C46C7F80046C7F80446C7F80846C7F884
:103010000C46C7F81046C7F81446C7F81846C7F854
:103020001C46D8F8003001AA01310AEB0500984788
:103030000028019B01DC002BC9D005442BB940F2CC
:1030400001439D42C3D10025C1E79AF80030062B09
:103050000AD19AF80130092B0CD10023009369465C
:10306000A81EFFF735FE05E0042B03D19AF80130C6
:10307000142BF4D00128E6D1009908480239FFF753
:103080006BFEE0E7822F002000801050C02C002053
:103090003546526E0090105084330020852F00205A
:1030A00030BFFFF7FDBF00BF074A936893F90E10CA
:1030B000002907DB526993421FBF044A536843F05B
:1030C00080535360704700BFD02D002000ED00E01A
:1030D000154B9A6A12F0007F9A6A14BF1E201D20B9
:1030E00012F0807F9A6A18BF1F2012F4801F9A6A1C
:1030F00018BF202012F4002F9A6A18BF212012F462
:10310000802F9A6A18BF222012F4003F9A6A18BFD3
:10311000232012F4803F9A6A18BF24206FEA0242EB
:103120006FEA12429A62704700ED00E010B5194B49
:103130000246986A9C6A10F4805F14BF172016201C
:1031400014F4006F9C6A18BF1820A40509D5986B69
:10315000986A000404D51AB19A6A22F400429A626D
:1031600019200C4B9A6A12F4806F9A6A18BF1A20C1
:10317000D2050CD49B6A13F4005F18BF1C20054ACB
:10318000936A43F47F43936200230B7010BD1B20AE
:10319000F5E700BF00ED00E010B51C4B0246986A51
:1031A0009C6A10F0100F14BF1120102014F0080FAB
:1031B0009C6A18BF1220A40709D5586B986A0006AC
:1031C00004D51AB19A6A22F080029A6213200F4B3A
:1031D0009A6A12F0010F9A6A18BF142012F0200F99
:1031E0009A6A18BF1520D40658BF9B6A074B9A6A83
:1031F000920642BF5A6A22F400525A629A6A42F018
:10320000FF029A6200230B7010BD00BF00ED00E0CA
:1032100070B5444B06465B6800258AB0C3F30803CB
:1032200085F31188BFF36F8F02F07F40B0F17F4FBD
:1032300011D102F00C0008280DD010074CBF0E462B
:1032400001250022033B8DF80720032B05D8DFE87A
:1032500003F01E5C60592E46F3E700249DF807300A
:103260009BB92022314602A805F082FF099B002D60
:1032700053D0C3F3080222B96FEA53236FEA432302
:103280000993204602A905F0EBFE0AB070BD254B5C
:10329000DA6A9107E1D4DA6A002ADEDBDA6A5200E0
:1032A000DBD55A69B16942F480725A61BFF34F8F1E
:1032B000BFF36F8F5A6931F8021C22F480725A6191
:1032C000BFF34F8FBFF36F8F4DF60272914209D05B
:1032D0009A6AD2B242B101200DF10701FFF75CFFFB
:1032E0000446BBE73468B9E79A6A12F47F4F05D009
:1032F00001200DF10701FFF719FFF1E79B6AB3F514
:10330000803FAAD3FFF7E4FEEAE700200DF10701B2
:10331000E4E700200DF10701EDE723F4FF7323F04C
:103320000103ADE700ED00E0044B5A6942F01002E2
:103330005A615A6922F008025A61704700ED00E0B4
:10334000EFF30880EFF3098101B57246FFF760FFE4
:1033500001BD00BF002080F31488BFF36F8F0020F1
:1033600080F30A8880F30B880F4880F3088801F007
:1033700067FF00200D490860BFF34F8F00F02CF865
:10338000202080F311880A484FF40061401880F330
:103390000988EFF314800221084380F31488BFF3F7
:1033A0006F8F00F0D1F800000069002094ED00E07C
:1033B000C0370020002318460649D1F89020C2F3F8
:1033C0000722934200DB7047C1F89830C1F8A00093
:1033D0000133F6E700ED00E010B572B6002484F387
:1033E0001388FFF7E7FF23464FF0FF300C4A03F145
:1033F00020010133102B42F82100F8D100234FF0B7
:10340000FF30074A03F160010133102B42F821001D
:10341000F8D162B6BFF34F8FBFF36F8F10BD00BFFF
:1034200000E100E0084B9B6883420BD1EFF305837A
:1034300043B1064B5A6842F080525A605A6A22F4ED
:1034400000425A6203F0A2BED02D002000ED00E041
:103450000F498A684FF030001044EFF3098C80E880
:10346000F01F202080F31288BFF36F8F094F4FF0B9
:1034700000664A698A603E60506F0023536780F39C
:10348000118802F1300090E8F01F8CF30988704732
:10349000D02D002004ED00E01EF0040F0CBFEFF370
:1034A0000880EFF30980816911F8021C0229FFD01E
:1034B00001B5724605F0DAFD01BD00BF00B200287B
:1034C00007DB01234109034A00F01F00834042F853
:1034D0002130704700E100E000B200280CDB01223F
:1034E0000649430900F01F008240203341F82320A1
:1034F000BFF34F8FBFF36F8F704700BF00E100E055
:10350000054B420953F82220012300F01F0003FA63
:1035100000F01040704700BF00E100E000B200285A
:1035200001F10101ACBF00F16040064B4FEA4111CF
:10353000C9B2ABBF00F5614000F00F0080F8001386
:103540001954704714ED00E00B4A08B50B4B22F0FC
:103550007F029A60BFF34F8FBFF36F8FD3F888203D
:1035600022F47002C3F8882003F08AFA03F01CFFEB
:1035700000F040F803F0C4FA0000000000ED00E0A5
:1035800042F8203C009B0B4942F81C3C019B21F077
:10359000010142F8183C029B42F8081C42F8143C16
:1035A0004FF0807342F8043C0023203A02654367E1
:1035B000704700BFC98B0000084B00B50E4615468A
:1035C00098602C4686F309880020054B98472046D2
:1035D000002100220023034C204700BFD02D0020F3
:1035E0008B900000C98B00001022014B1A617047BC
:1035F00000ED00E00023202040F20F1210B5044C33
:10360000E1180133934281F80003F9D110BD00BFE6
:1036100000E100E008B5EFF30583064A103B02EB3A
:10362000C30152F8330049688847BDE80840FFF7F6
:103630003BBD00BF50AD00001FB5094C094A2346F1
:103640000121094800F0FAF800230393074B0121F8
:10365000E41A01A80193029400F0FAF804B010BD36
:1036600000000420000000205CB90000F0010020F0
:1036700010B50C7A0B6804F01F0223F01F031A43E5
:10368000CB68640923F01F03054943EA440343F070
:103690000103C1F89800C1F89C20C1F8A03010BD0A
:1036A00000ED00E010B5074BD3F89030C3F30723CB
:1036B000013B984202D8FFF7DBFF10BD6FF0150009
:1036C000FBE700BF00ED00E02DE9F04F0F46144688
:1036D00006464FF000084D4D85B0B84580F2928007
:1036E000D6F80490B9F1000F36D0B9F11F0F40F2AF
:1036F000878019F01F0F40F08380D6F800A01AF0E1
:103700001F0F7DD1504605F0E3FC834609EB0A000C
:10371000013805F0DDFC834572D11BF1160F6FD027
:103720005C456DDDC5F898B0D5F89C10C5F898B02B
:10373000D5F8A03021F01F0143F01F0AD6E900326E
:103740001A44994202F1FF391ED1CA4508D13146C7
:103750005FFA8BF005F0C5FC08F101080C36BCE7F8
:103760003146C5F898B0D5F89C3022F01F0203F01E
:103770001F031343C5F89C30E0B205F0B2FC10F112
:10378000160F3DD0441CE7E7C5F898B0D5F8A02047
:10379000013B23F01F0302F01F021343CA453146C9
:1037A000E0B2C5F8A030E8D005F09BFC10F1160F90
:1037B00026D0C5F898B0D5F89C209DF808300AF1BD
:1037C000FF3A62F304038DF80830D5F8A0309DF875
:1037D00008205B0863F347128DF80820D6E9003211
:1037E0001344009323F01F035344A3EB0903013058
:1037F00023F01F036946C0B20393FFF753FFBEE7F0
:103800006FF01504204605B0BDE8F08F00ED00E034
:103810000522044BC3F89420BFF34F8FBFF36F8F83
:10382000704700BF00ED00E0BFF35F8F0022024B46
:10383000C3F89420704700BF00ED00E010B5034CC2
:103840002278FFF741FF207010BD00BF85370020B0
:103850002DE9F74F294D8A4606464FF00008AB4642
:10386000274FD0451BDAD6F80490B9F1000F3FD0AE
:1038700031680846019105F02BFC0199044609EBDB
:103880000100013805F024FC84424FF014021D4B66
:1038900008D002FB08F36FF015024BF8032003B0C9
:1038A000BDE8F08F14F1160F2C60F8D01978A14202
:1038B000F5DD02FB08B0C7F89840C7F89840D7F884
:1038C0009C4000F10801007B64F304000871D7F804
:1038D000A0000C79400860F347140C71D7F89C10D5
:1038E00021F01F016960D7F8A01021F01F012961A4
:1038F00008F1010814350C36B3E700BFC42C0020D2
:1039000000ED00E085370020F0B54149414CD1F889
:1039100090302568C3F307239D4287B075D80020F7
:10392000FFF782FF3C4BC1F8C030854216D13B4CBB
:1039300001A82570FEF78AFE00250646384FAE42E4
:1039400013D1002023783249D1F89020C2F3072206
:10395000934254DBFFF75CFF00202FE0616801EB2E
:103960000011FFF785FE0130DFE70199280101EB27
:103970000513DA683A40B2F5001F21D0B2F5800F86
:103980002BD0B2F5801F38D15A689B680958013B8B
:1039900022F01F0003440120844623F01F0340EA65
:1039A0004C10CDE902218DF8100002A92078059372
:1039B000FFF778FE00281DDA6FF0150007B0F0BDA4
:1039C0005A689B680958013B22F01F0003444FF0DE
:1039D000020C012023F01F03E1E75A689B68095895
:1039E000013B22F01F0003444FF0000C022023F0A3
:1039F0001F03D4E723780133237001359FE7C1F813
:103A00009830C1F8A00001339EE74FF0FF30D5E7B2
:103A100000ED00E068B90000AAFF440085370020EF
:103A20000000F0FF0CB410B586B009B90DF10B0021
:103A30000024CDE9040109AB089A009404A90548C3
:103A40000393FEF70BF8049B1C7006B0BDE8104012
:103A500002B070479991000008B5284A284B1A60B7
:103A600000F078F841F6F8732648D0F82416C1F330
:103A7000080203EA5133132182F48072883201FB79
:103A80000233214A590ADB0548BF0131C2F8041943
:103A9000D0F820364FF47A60C3F30801C3F309432A
:103AA000434342F21C5081F4807101F2172100FB64
:103AB00001334FF47A701B0AB3FBF0F100FB1133B2
:103AC000B3F5FA7F28BF01310E4BC2F81C17D3F8AB
:103AD00040131C290CD1D3F84433012B08D13423D3
:103AE000C2F82436D2F83C3623F40023C2F83C3620
:103AF0000122054B0020C3F8002608BD0020A107C5
:103B0000A800002000C0FF000000125048B1054B83
:103B1000054A1B68B3FBF2F35843044B43F001031F
:103B200018477047A800002040420F00C0B60000B0
:103B3000BFF34F8F0549064BCA6802F4E062134396
:103B4000CB60BFF34F8F00BFFDE700BF00ED00E08B
:103B50000400FA050122024BC3F80424704700BF99
:103B6000002008E00022024BC3F80424704700BF85
:103B7000002008E0084B70B5C31A0D4607499B109A
:103B8000044659434022064805F028FB2B460146CF
:103B90002046BDE870401847EC2C0020B76DDBB61E
:103BA000B0AC0000402373B50B4C0093041B0B46D4
:103BB0000D460A49A41061430646094A094805F022
:103BC00039FB011E05DA30462B4602B0BDE87040D5
:103BD000184702B070BD00BFEC2C0020B76DDBB6FB
:103BE0009F920000B0AC000010B5EFF311842023C9
:103BF00083F31288BFF36F8F074A136823F0020123
:103C0000DB07116002D4012006F040FA84F311882A
:103C1000BFF36F8F10BD00BF3C2D002070B5002298
:103C20000121044640F20510FFF778FC0F4801F02F
:103C30002BFC0F4B984215D101F036FC26690D493B
:103C4000304605F079F800280BDB0125356424693E
:103C5000084904F11C0005F06FF8002801DB002082
:103C6000E56470BD6FF00400FBE700BFC392000085
:103C70000000AD0B90B900001FB500220123CDE973
:103C800002236B46084ACDF800D0CDF804D005F0E9
:103C9000FFFA002805DB43F609520023684602F0CC
:103CA000CBFF05B05DF804FBBD9200000C22104B69
:103CB000014602FB0033002030B4D3E90E52986372
:103CC000EFF31180202484F31288BFF36F8F1C6CF4
:103CD00004F0C00444F002041C6480F31188BFF3B4
:103CE0006F8F1DB12B4630BC0248184730BC70475F
:103CF000EC2C0020B0AC000010B4EFF311822023B4
:103D000083F31288BFF36F8F1648016841F00204F5
:103D10000460C80707D482F31188BFF36F8F0120B6
:103D200010BC01F0D7BB1049D1F80C14C903F2D56F
:103D3000EFF3118083F31288BFF36F8F0B490B6C85
:103D400003F0C00343F002030B6480F31188BFF358
:103D50006F8F82F31188BFF36F8F002010BCFFF7C5
:103D6000A5BF00BF3C2D002000E01050EC2C00202F
:103D70002DE9F041012207463449D1E8EF3FC1E87F
:103D8000E02F0028F9D133B9314932484B60CB607C
:103D90008A6004F0E4FF7B1E012B28D8012F06D196
:103DA0002D4BD3F8503403F00303012B1FD006F042
:103DB00082FE0546E8B9294B1B78D3B1042206469A
:103DC000254BC3F80823244CDFF89480D4F84C2406
:103DD000D4F84C34D20315D503F00303012B01D0E2
:103DE000012F0FD165B386F31188BFF36F8FBDE844
:103DF000F081EFF31186202383F31288BFF36F8FD6
:103E00000125E0E7BDB1304605F053F9D4F8403460
:103E100013F0FF03DAD1D4F80821002AD6D0C4F871
:103E20000831D4F8083120220123C4F84034C8F8FE
:103E3000A0212361CAE70021202006F0ACFEE5E7BF
:103E40000422054BC3F80423D1E700BFE82C00206F
:103E5000D82C0020082D002000E01050B83700209A
:103E600000E100E0C3780F2B14D9C96B0B480B0E8F
:103E700013708B0200EA911003F47C0309060343DC
:103E800001F0FE4110680B43054901400B4300203F
:103E9000136070476FF08500704700BF00FF03009C
:103EA000FF0000800023024A0020C1E90023704780
:103EB00000D0170000487047ACB90000024B0B60FF
:103EC00001231360704700BFB4B9000008B5012298
:103ED0000448114606F0E3FD034B044A0020C3F8F2
:103EE0000C2508BD402D002000B00450800000804B
:103EF000F8B51E4B054698420E46144633D8C0F519
:103F0000BE1303F580539A422DD82AB34FF0FF32E7
:103F10004FF0FF33164802F08FFE40F20113154FA9
:103F20002246C7F80035CEB13146284605F020F9C3
:103F3000BFF35F8FD7F81834DA0705D4230703D00F
:103F40000123BB60BFF35F8F4FF48072094BC3F84E
:103F50000025074802F03CFE0020F8BDFF2128465E
:103F600005F011F9E4E76FF01500F6E7FFCF170051
:103F7000402D002000B0045010461A46084B10B5E2
:103F8000994209D8C1F5BE1404F58054A24203D861
:103F900005F0EEF8002010BD6FF01500FBE700BF44
:103FA000FFCF170000487047F0B900002DE9F04F2F
:103FB00091B0044602AF00694FF0FF32012106F0D4
:103FC0006EFD636893F8332050060BD46668306842
:103FD00006F027FD90B96FF0120528463C37BD4624
:103FE000BDE8F08F586A06F01CFD0028F3D0606829
:103FF000243005F011FA0028E8D0ECE7F06878B931
:1040000096F83330D90610D4206905F021FA2046FD
:1040100005F0E3FB002823DA206905F017FADAE758
:1040200006F0FFFC0028EBD1D5E7B06906F11805D2
:1040300006F0F7FC0028CED0284605F0EDF9014641
:104040000028C8D1284605F0C7F905460028DBD06E
:10405000002D80F2F88115F1860F00F0F481BCE7A5
:10406000204605F084FA051E40F3CC80EA0700F1F3
:10407000C380206905F0EAF9206905F0E9F9032316
:10408000019307F11803009300239F211A4620464D
:1040900005F0E4F98046206905F0D8F9B8F1000F81
:1040A00099D196F820307BB3206905F0D1F92046EC
:1040B00005F05DFA051E21DD96F82030802225EA04
:1040C000030587F82050434606212046CDE90088A5
:1040D00005F0C4F9034600289ED1012107F1200212
:1040E000009220468022019105F0B8F9002893D172
:1040F00000220023204605F04BFA0546206905F012
:10410000A5F9002D7FF467AF2069C7F814D005F03A
:104110009FF9182307F1200A0193052200235A2151
:104120002046CDF800A005F099F90546206905F074
:104130008DF9002D7FF44FAFB84B3A6A9A427FF465
:104140004AAF97F8263007F12802012B88BF1023C9
:1041500015469EBF0133DBB2DB00D3183B613B69E0
:10416000AB4256D1226900211346D7F814D0106A09
:1041700002F1080C5D7D25B19D7D09B18D4200D213
:10418000294602339C45F5D100293FF424AF4FF076
:10419000FF338B40DB4313F480557FF41CAF4FF4A7
:1041A0008053000B9362506296F833301B0740F146
:1041B000FA80636893F83320160740F1F4803A7E62
:1041C000C22A40F0F0807A7E282A40F0EC802069F4
:1041D00093F8326005F03CF94FF6A87263683A84B0
:1041E00093F83330180700F1CF803B8C002E40F05D
:1041F000E48023F40075E2E000220023204605F06D
:10420000C7F90546206905F021F9002DBFF634AF46
:10421000E1E6EA792B7843EA0223B3F57F4F40F0D9
:10422000B180EA7895F80590142A28BF14224FEA45
:10423000820B5B46242B38BF2423073303F4FF6330
:10424000C7F80CD0ADEB030DAB794FEA092949EA69
:1042500003492B79206949EA03090DF1080805F0A3
:10426000F7F85A2105224FEA09232046CDE9008BB1
:1042700005F0F4F8B860206905F0E8F8B96800299D
:1042800066D1D8F80420D4F810B0002A0BF1150933
:1042900061DA012022F00042A2F12001C2F1200CDB
:1042A00000FA01F120FA0CFC41EA0C0100FA02F2DA
:1042B000D20842EA4173484600210822BB6004F05C
:1042C00062FF01214A464046796005F004F87968AA
:1042D00009F102090131C9B20529F3D1EA78BB68B5
:1042E0000A2A89BFD8F828204FF48072C2F303113C
:1042F000012288BF8A40ABF81E20CBF82030D8F8C6
:10430000003013F4C02F3BD04146284607F11C0271
:10431000FFF7A8FD804698BB97F81C9009F1FF3382
:10432000DBB2FD2B2CD819F0030F11D0206905F05A
:104330008FF819F0020F10D100238022B7212046F8
:10434000CDE9003305F08AF890B1206905F07EF8D8
:10435000D7F814D03FE60132AAE74346802206216F
:104360002046CDE9008805F079F80028E4D0ECE794
:104370002269137D43F001031375206905F066F887
:10438000D7F80CD00835EAE602232A46CDE900A387
:1043900015212B46204605F061F80028BFF625AF11
:1043A000206905F053F8206905F052F8636893F826
:1043B00033309A0734D4206943E043F400759D42BA
:1043C000EED0636893F833301907E9D5204605F03D
:1043D000CEF8061EE4DB00238022CDE9003306215F
:1043E000204605F03BF803460028D9D12A0A87F871
:1043F0002220032287F8206087F821500121CDE98F
:1044000000A22046802205F029F80028C8D1002209
:104410000023204605F0BCF8C2E700BF53464450D5
:1044200000238022B9212046CDE9003305F016F89B
:10443000054620BB6368266993F833309B070FD489
:10444000304605F003F8206905F002F8204605F033
:10445000C4F90546206904F0F9FF05EAE575BCE5F5
:1044600006F0F3FB4FF47A75A0FB050C47F6122219
:10447000002305FB01C1FCF7E1F830619BE72069EF
:1044800004F0E4FFE4E500BF38B545682B69E3B10B
:104490001035284601F09CFC0446B0B90146284678
:1044A00001F058FC0B4B984211D1224628460A498C
:1044B00001F024FC22460121DB20FFF72FF82246E1
:1044C000012140F20D10FFF729F8002038BD6FF0F0
:1044D0000400FBE70000AD0B614600002DE9F0434E
:1044E00040F206354668D00648BF0320337B02EA17
:1044F000050558BFC2F3401087B001F01F07B5F59E
:10450000837F144647EA43178DF8030046D00FD83F
:10451000062D45D007D8B5B1022D14D06FF0150087
:1045200007B0BDE8F083B5F5807FF7D101250AE03B
:1045300040F20222954235D0B5F5407F34D0B5F532
:10454000007FEBD104250123220303FA01F12DD5CD
:1045500073685960326972BB5F2F07F01F034FEA1F
:10456000571175D83C4A52F8212084F4803102EB6F
:104570008302D2F88030C1F30041C4F3404423F4F5
:10458000706344EA410423F00F031C4344EA8004AF
:1045900044EA0524C2F880400020C1E70925D2E79B
:1045A0000825D0E70625CEE70525CCE7630344BF01
:1045B00073689960CEE71036394630460DF1020235
:1045C00001F0AAFB14F4403F80460CD13946304636
:1045D00005F033FE214B9845DED130469DF80210A0
:1045E00001F004FCD8E74FF0000901AB3946304632
:1045F00003AACDE90439CDE90199CDF80C9001F079
:10460000F3F9164B984289D114F4003315D09DF874
:10461000033084F48034C4F300448DF80E303946FE
:104620004B46304603AA8DF80C508DF80D4001F032
:10463000D1FA0A4B9842CDD070E7CDE90433394620
:104640000DF10303304603AA039301F0CDF9F0E71F
:10465000203352F82330FFDEF8B900000000AD0B24
:104660004209022A034670B503D0012A18D0CAB104
:1046700070BD0E4E326951680029F9D0012503F052
:104680001F030C689D400029F2D08A682A4002D09E
:1046900030464B6898473CB1236821461C46F2E7F8
:1046A000034EE7E7034EE5E72346F6E7ECAC0000F0
:1046B000D8AC0000C4AC0000F0B5406801F01F04A5
:1046C000057B87B044EA45140569002D63D0B2F537
:1046D000001F00F1100506D12146284605F0AFFD68
:1046E000002007B0F0BD0027B2F5800F01AE0197A2
:1046F00077603BD1B3F1007F14BF052304238DF80D
:1047000004300023CDE904630393836823FA01F1A5
:1047100011F001011CD1B2F1A07F19D104F01F03E7
:104720005F2C4FEA541003F120033AD81E4A52F886
:10473000202052F82330DB070AD40DF1030632465D
:104740002146284601F0E8FA184B984219D0029603
:104750002146284603AA01F047F9154B98421DD17E
:1047600001222146284601F059FBB9E7B3F1C06F99
:1047700005D0B3F1007F14BF01230223BFE7032359
:10478000BDE73146284601F03DFB094B9842DED09B
:104790006FF00B00A5E76FF08500A2E76FF0150042
:1047A0009FE751F82330FFDEF8B900000400AD0B9D
:1047B0000000AD0B036803F01F025F2B02604FEA9D
:1047C00053129ABF024B53F822000020704700BFDB
:1047D0004CBA00002DE9F04F1546064640F2FF188E
:1047E000DFF83C91DFF83CA185B000EB8101B142DC
:1047F00003D1002005B0BDE8F08F3368C3F3C322B6
:10480000082AC3F3080400F284801B0E444508BF45
:104810004FF0FF3419F80270192B7DD8DFE803F050
:104820000D1C47604A50607C7C7C7C7C7C7C7C7C62
:104830007C7C7C7C7C7C636D7073C5F80446621C58
:104840003CD04FF0010B03A80394FFF7B3FF039B89
:104850000BFA03F3436005E0C5F80C46601C2DD04D
:104860004FF0000B5A463368039403F400400028CD
:1048700018BF002203A818BF4FF0010B019300924C
:10488000FFF798FF039C019B00EB8400D0F8804069
:10489000C3F3412C009A3B0243EA8C03134304EA1E
:1048A0000A04234343EA4B03C0F8803006E0C5F80E
:1048B0001046C4E7631CC5F8004627D1043696E7C6
:1048C000601CC5F80446F9D04FF0010B03A803940F
:1048D000FFF770FF0122039B02FA03F38360C2E734
:1048E000C5F80846BAE7C5F86045621C3368E5D0EC
:1048F000C3F30043002BE7D0A3E7C5F86445F4E712
:10490000C5F86845F1E7C5F86C45EEE74FF0000BD8
:10491000DCE76FF015006DE76FF085006AE700BF18
:1049200095BD0000F0F0FCFF2DE9F04104460D4676
:10493000476806F0C0F8A0B9274B1B788BB14FF041
:104940002008642663681B68D3F830318BBB0120D4
:1049500005F09AFB013EF5D10021202006F01BF95D
:10496000EFE72021EFF311831A4681F31288BFF39A
:104970006F8F60680068D0F8300120B983F3118828
:10498000BFF36F8FEEE77B6A00201D706368796A62
:104990001B68C3F83C170121C3F84017C3F8300166
:1049A000D3F83001196582F31188BFF36F8FBDE82A
:1049B000F081EFF311831A4688F31288BFF36F8FEB
:1049C00061680968D1F830110029DCD183F31188BE
:1049D000BFF36F8FC0E700BFB83700202DE9FF415C
:1049E00005690646D0F80480A86C2B6D002835D1E7
:1049F000002B53D0B8F838406A6C9C4228BF1C4644
:104A0000EF6CEB6C53B1296D41B107F06041B1F12E
:104A1000005F03D0082C28BF08246F6E00926A6CD8
:104A2000AC651AB1AA6C002A18BF2246CDE901274D
:104A30001BB12B6D002B18BF234600226946404650
:104A4000039301F047FE184B984229D06FF0040100
:104A5000304604B0BDE8F04105F0B2B9696CEF6CC6
:104A60000A46B8F83840ABB1834228BF03469C429F
:104A700028BF1C460029C4D001F06043B3F1005F99
:104A8000BFD0082C28BF0824286E224604F070FBF3
:104A90002A6EB6E7844228BF0446EBE71946D7E7FB
:104AA00004B0BDE8F08100BF0000AD0B2DE9F04F70
:104AB0008FB001934368884602938B880746990418
:104AC000914604692DD44FF0FF324FF0FF3304F1CB
:104AD000100002F0B1F8C4F80480D7F804B0D7F899
:104AE00010A0DBF8083003939AF85D3023B1DAF8B0
:104AF0000030984500F0AD80B8F804E01EF4006F77
:104B000016D06FF0850523689B8813F4005304D1F9
:104B1000636004F1100002F05BF828460FB0BDE8B6
:104B2000F08FA369002BCED163689845CBD1D4E731
:104B30001EF0090F02D06FF01505E4E7CEF3451320
:104B4000082BF8D1D8F800C0934B9C45F3D904AD9D
:104B50000BF10C060FCE0FC50FCE0FC5039B96E8C9
:104B60000300634528BF63469C468C4B85E80300E1
:104B70009C4517D28A4B9C4514D28A4B9C4511D236
:104B8000894B9C454AD8894B9C4549D8884B9C45C4
:104B900048D8884B9C4547D88749884B884A8C45DC
:104BA00088BF13461EF0020F09930EF004033DD098
:104BB000002B14BF032302238DF82830CEF30013FB
:104BC0008DF82930DBF800301EF0020FD3F80036E4
:104BD0007C484FEA5312CEF3400103F01F0329D162
:104BE000022A00F2D38050F82210012202FA03F3C5
:104BF0008B609AF85D302BB1584601F025FD0023FB
:104C00008AF85D303B4658466F4A04A901F0E2FC41
:104C10006E4B984218D06FF0040574E76C4BC1E7F7
:104C20006C4BBFE76C4BBDE76C4BBBE7003B18BF61
:104C30000123C1E7022A00F2AB8050F822100122C2
:104C400002FA03F34B60D4E70123CAF800808AF824
:104C50005D30012384F85C30029B196C4A1C03D040
:104C600003F1440005F016F9B9F1000F68D1C4F85A
:104C700034900023A36304F1480204F1380104F1E5
:104C8000340004F0C8FF019B6064002B60D1E36333
:104C90000023236404F1500204F1400104F13C00BC
:104CA00004F0B9FF002501212A46E064256320466F
:104CB00004F0E8FF3846FFF791FE2A462B46A06B2A
:104CC00083424DD100231946256CA9424FD193420E
:104CD00038BF134626464FF4FA524FF0000802FB45
:104CE00003F556F8203B47F6122C1B684146B5FBEE
:104CF000F3F540F2E730C8354FF47A720023E5FB54
:104D00000C01FBF79BFC02460B46304601F094FF7A
:104D1000024618B9256B15F1740F2FD10298C4F80B
:104D2000588001F091FC6FF07301384684F85D8083
:104D300005F046F8304601F0A5FF6FF07305E2E696
:104D4000D9F800306363002B93D0D9F8043091E791
:104D5000019B1B68E363002B9AD0019B5B6898E77B
:104D6000616B01EBC301496801330A44A8E7E06BBA
:104D700000EBC100406801310344A6E7002D3FF479
:104D8000C2AE0146386904F07DFFBCE68960FFDEF3
:104D900000235B60FBE700BF47E801000048E80133
:104DA0000024F40000127A00FF083D007F841E00FA
:104DB0003F420F001FA107008FD0030048E8010009
:104DC00090D00300A0BA0000E39D00000000AD0BEE
:104DD00000093D0080841E0040420F0020A1070012
:104DE0005F2810B500F01F034FEA50140DD8094A90
:104DF00052F8242002EB8302D2F88000064B0340D5
:104E000043EA8103C2F8803010BD0022203352F8FB
:104E10002330FFDE28BB0000F0F0FCFF0123F0B5DB
:104E200087B08DF80230022300248DF804306B44E3
:104E300003930F4601AB0DF1030104930546029164
:104E4000059400F0DFFF0C4B064698420FD139461F
:104E5000284603AA00F0C8FDB0420BD028469DF8B2
:104E6000031000F0C3FF6FF0040007B0F0BD6FF057
:104E70001200FAE72046F8E70000AD0B73B51446C0
:104E80001D46684601F092F8009BA342019BAB418E
:104E900014D30B4AD2E90061A41B24F01F0365EB75
:104EA000010064099B1941EB000144EAC060C2E9BA
:104EB000003102B0BDE8704002F036BB02B070BDF8
:104EC000F001002010B500220121E420FEF726FBAE
:104ED000124A0020D2F8183723F44033C2F81837AA
:104EE00001F096F80E4B0446984208D101200D4976
:104EF00001F01CF9A04205D00B4B98420AD04FF0AC
:104F0000FF3010BD6722094B02201A60FEF730FF08
:104F10000020F6E76FF00B00F3E700BF00200E5013
:104F20000000AD0BA40000200200AD0BA02D00205E
:104F300007B5684601F03AF80098074AD2E900320E
:104F4000C01A019B4FEA501063EB020340EAC360B2
:104F500003B05DF804FB00BFF00100207FB5431CE7
:104F600018BF20EAE07502A808BF6FF0004501F005
:104F70001DF802990E4B2020D3E900268C1A0399C4
:104F800061EB06032146C5FB0013402973F10004C1
:104F900036BF014621F01F01002352184FF00101D6
:104FA00046EB03030091034801F024F904B070BDFF
:104FB000F00100209C0000202DE9F043234885B03B
:104FC00004F0A2FF00250446204B214ED3F8388080
:104FD000DFF88090A84503D8002005B0BDE8F08335
:104FE000636A96E807001F6801AB83E807000C229C
:104FF0001946384604F095F888B987B1636A216983
:105000001B681A6991420AD19A69A169914206D82E
:10501000E169914203D962695B699A430CD0276ABE
:1050200077B10D4803F0C3FD002383F31188BFF36C
:105030006F8F0423184602DFE36801351C44C9E77B
:10504000484603F0B4FD636A1F60F5E70006000000
:1050500090B60000DDBD0000B4BD000030B5816831
:1050600085B0103921F00F04054603F038FF1022F7
:105070000146684604F087F810226846064904F0A5
:1050800077F810236A462146284603F0F4FE0038DC
:1050900018BF012005B030BD8ABB000030B50D46F9
:1050A000816887B0102302AA1039044603F0CEFEAF
:1050B000002802DA012007B030BD1022204602A9E4
:1050C00004F041FF00283AD110221E4902A804F042
:1050D00028F800280CBF012302232B70204604F07F
:1050E0001EFF012301460DF10702204603F0AEFE2C
:1050F0000028DFDB9DF80730204603F00F021B0974
:105100006A702B7101220DF1070104F01CFF10B928
:105110006B78042B03D901236B7000232B71A268D9
:105120002046203A22F00F02103AA91C04F01EFF7C
:105130000028BFD12046E91C04F072FFBBE703231F
:10514000CBE700BF8ABB00007FB5264D440069460F
:1051500055F8240004F06AFF002835D1013455F8D1
:10516000240002A904F062FF01282BD103238DF84B
:1051700008308DF80B3000249DF800509DF8086031
:10518000194A2946107804F0D0FE18B331465078F9
:1051900004F0CBFEF0B19378042B03D09DF80310FC
:1051A000994217D1D378042B03D09DF80B10994264
:1051B00010D11379042B09D15079831E022B03D807
:1051C00004B070BD0028D6D0FF20F9E79DF802108A
:1051D0009942F1D00134032C02F10602D1D1012011
:1051E000EEE700BF34BB000010BE0000064BD3F852
:1051F00040231C2A05D1D3F84403431E584258418A
:1052000070470020704700BF00C0FF0003689A0786
:105210000CD50368DB070DD50922074BC3F80C2515
:105220000F22C3F8042501221A60FEE7034B036036
:10523000EF3B0360704700BF00801050F000FA5051
:10524000012208B5334B3448C3F80028FFF7DEFFCE
:105250000830FFF7DBFF0830FFF7D8FF0830FFF713
:10526000D5FF00F5F470FFF7D1FF2C4AD2F88C304F
:1052700043F44063C2F88C300022D30003F57F036F
:1052800003F54043D3F8001401310AD0D3F80014D9
:1052900039B1D3F800140132D3F80434402A0B603A
:1052A000EBD11C4BD3F840247AB3FFF79FFF48B1F2
:1052B0001B4BD3F834231B4B9A429EBF154B1A4A03
:1052C000C3F84026FFF792FF18B1184B184AC3F8ED
:1052D000AC27FFF78BFF48B134220E4BC3F82426CE
:1052E000D3F83C2622F40022C3F83C260323114ABB
:1052F0000A49C2F81835D1F88C3043F44063C1F83C
:105300008C300023C2F8A03508BDC822C3F8402461
:10531000CBE700BF0000125000C50D5000ED00E0CB
:1053200000C0FF00001D0A1840E0A91E00A00850A0
:1053300078000A0400B0045030B50468ACB1B4FA87
:1053400084F30122C3F11F03DBB29A4024EA020274
:10535000D0E8EF5FA54204D1C0E8EC2FBCF1000F0C
:10536000F6D1EAD102480B7030BD0248FCE700BF1D
:105370000000AD0B0200AD0B10B50368CB40DB079E
:1053800010D401238B40026843EA0201D0E8EF4FBA
:10539000944204D1C0E8EC1FBCF1000FF6D1F2D169
:1053A000014810BD0148FCE70000AD0B0400AD0B47
:1053B000F7B5064648B3012825D104224FF480737F
:1053C00071202F490024C1F80803012002F1A042F6
:1053D00003F1A04303F5871302F5871210601C60E8
:1053E0001B68284BD3F840331C2B13D0864201D1C5
:1053F0000DF10704002342F21075214F8DF807309C
:1054000066B1012E28D003B0F0BD14224FF484738E
:105410000420D6E7012EEDD1CE60E9E7D7F84C3471
:1054200003F480333CB9002BEDD0012004F02CFEB6
:10543000013DF3D1E7E7D7F84C2402F003022270D4
:10544000002BE0D09DF80730002BDCD1012004F0C8
:105450001BFE013DD4D1D6E7D7F80C3403F48033DA
:105460003CB9002BCFD0012004F00EFE013DF3D15A
:10547000C9E7002B0CBF012300232370E2D1C2E750
:1054800000E0105000C0FF00044B1A7922B901223D
:1054900018601A710248704702487047A42D002016
:1054A0000000AD0B0C00AD0B08B5084B1B6843B1F9
:1054B00040F20510FEF724F818B940F20510FDF788
:1054C000FDFF0022024BC3F8402408BDA42D00209C
:1054D00000E0105010B510B1012845D010BD324B7E
:1054E000D3F84C14D3F84C24C80324D502F003039A
:1054F000012B04D013B10020FFF75AFF00232A4AE2
:105500000420C2F8403410224FF48473002103F1C8
:10551000A04303F5871319601C68012402F1A0421F
:1055200002F587121460214A1268002A36D01E4BF9
:10553000C3F80403D2E7D3F84824D107DED5D3F863
:1055400050249207D7D4194A12681AB10422C3F81A
:105550000423C3E7D3F80821002AFBD00022C3F8B4
:105560000821D3F80831B9E700220F4BC3F8102106
:10557000D3F81011C3F81821D3F81811C3F8142167
:10558000D3F814210A4AD2F840231C2A04D000225E
:105590004FF480737120B9E79860F8E71A68002A21
:1055A000FCD019601B6899E700E01050A42D002082
:1055B00000C0FF0070B500251D4C1E4ED4F80C3302
:1055C00003B970BDB3FA83F3C3F11F039A0002F568
:1055D000807292B202F1A04202F587121560126841
:1055E0000122D8B202FA03F3DBB2102BC4F808335D
:1055F00011D0402B1AD0042B15D1D4F84C14D4F868
:105600004C1489070FD1C4F84024C4F80433226134
:10561000D4F80C33D4E77571C4F81451D4F81431AC
:105620002023C4F8043333689847F1E77571FAE72B
:1056300000E01050A42D0020036803F01F025F2B30
:1056400002604FEA53129ABF024B53F82200002027
:10565000704700BF3CBB0000034A4309D35C00F025
:105660001F001844C0B2704722BE000070B5054646
:105670000846FFF7F1FF36212A79174B01FB02029A
:10568000083233F81200C10525D56C240026C0F37A
:10569000432120F4F85023F812002A7904FB023445
:1056A0000E3434F8020F10F4807F03D0C0F343208F
:1056B000814210D00136232EF3D16C2000244243C6
:1056C00002EBC1029C502A79BDE8704000FB023019
:1056D0006030FFF751BE70BDAC000020F0B506464B
:1056E000002487B0114F019117F8012B06AB03EB93
:1056F000D20313F8143C02F00702D34013F0010365
:1057000006D10134032CEFD10023184607B0F0BDB9
:10571000074A03AD07CA85E8070055F824100A6A4E
:1057200046F824200A62002AEBD0EEE732BE0000E1
:10573000A8B6000010B504460846FFF78DFF3623D3
:1057400003FB0400024B083033F81000400B10BD7F
:10575000AC00002010B504460846FFF77DFF362355
:1057600003FB0400034B083033F81000C0F3400083
:1057700010BD00BFAC00002010B504460846FFF77E
:105780006BFF362303FB0400034B083033F8100093
:10579000C0F3401010BD00BFAC0000202DE9F04F59
:1057A0000D46D0F8141387B0C9B241F40031AA6D88
:1057B000009004F0F6FC810306462ED50023696EA6
:1057C00003A8CDE903330593FFF788FFDFF868A14D
:1057D000DFF868B10DF10C091AF8013B05EBD302B3
:1057E00092F8642003F0070322FA03F3DA076AD47D
:1057F000534B09F1040953450BF1010BECD14FF464
:105800000031AA6D009804F0CCFC696E03A8FFF784
:1058100065FF0028DAD126F400360124002E73D16A
:1058200007B0BDE8F08F91FAA1F1B1FA81F19BF8D0
:10583000004041EA44142046FFF70EFF083035F8D7
:105840001080C8084FEA98030193012319F800203B
:1058500001F0070103FA01F122EA010209F8002030
:1058600002A80294FFF7E8FE029A019B203250F84A
:105870002220C8F382075B07B846C2F3014227D54E
:105880002846D7B22146424604F05AFC02A80294A8
:10589000FFF7D2FE029B203350F82330C3F30143BD
:1058A0009F4207D10021204604F03BFC39462046A8
:1058B00004F037FC02A80294FFF7BEFE0122029B0F
:1058C00002FA03F30362D9F800100029ABD18FE785
:1058D000022A0DD10321204604F023FC07F0050322
:1058E000012BE7D142462146284604F029FCE1E796
:1058F00002212046019204F014FC032FF2D0019AF9
:10590000032AD7D1022FECE796FAA6F3B3FA83F372
:1059100004FA03F226EA0206009A284602EB830301
:10592000D3F81015D3F81025C1F30811C2F30142C2
:1059300004F006FC72E700BF32BE000032BE000079
:1059400035BE00002DE9F74305460846FFF784FE03
:1059500036222B79204F02FB0303083337F813302C
:105960000E46DB07044635D5284604F041FC95F881
:10597000049031464846FFF7FFFE60B14846FFF706
:10598000D9FE0022D5F8008000B208EB8003C3F8EE
:105990001025C3F8102528463146FFF767FE36224A
:1059A0002B7901A802FB03440023083427F81430A4
:1059B0000196FFF741FE019B00EB8300D0F88020A9
:1059C000064B134043F00203C0F88030044803B094
:1059D000BDE8F0830348FAE7AC000020F0F0FCFFDC
:1059E0000000AD0B0400AD0B2DE9FF471746044640
:1059F0000846FFF731FE3E688846054676B394F8C0
:105A000004904846FFF7A6FE18B14846FFF7B4FEDB
:105A1000A0BB00234046CDE900338DF80E308DF851
:105A20000F300DF10F0233460DF10E0104F030FB83
:105A300036202379644A00FB0353083332F81310ED
:105A400021F0020122F81310237900FB03530833DD
:105A500032F8131041F0010122F813107B68002B7B
:105A600045D026794146304693F80090D3F804A0FB
:105A7000FFF770FE20B1BAF1000F22D0534839E091
:105A80004FF0360C0CFB06564F49083631F81630ED
:105A900023F4604323F0200321F81630BAF1000FFD
:105AA0000FD0B9F1030FE9D87B6826685B681878D6
:105AB00006EB8006B9F1000F1FD1C6F81095C6F8A5
:105AC000109536202379404A00FB0353083332F8FF
:105AD000131021F01C0122F81310237900FB03534B
:105AE000083332F8131041EA890122F81310BB6819
:105AF00063BB374804B0BDE8F087D6F8102522F024
:105B00000302C6F81025226802EB8003D3F81025A3
:105B100022F4473222F47C72C3F8102541F6F07269
:105B2000D3F8106502EA081242EA09423243C3F888
:105B3000102523790CFB0353083331F8132042EA74
:105B4000403242F0200221F81320BAE74146D3E95F
:105B500000972046FFF78AFDB9F1000FC9D06C23EA
:105B60002079194E4343F218F358994504D15368EC
:105B70009F4201D100210CE06C2303FB00600DF17A
:105B80000F016030FFF7D8FB114B9842B2D19DF85E
:105B90000F106C222379534303EBC10346F80390A3
:105BA00023795343362203EBC10333445F602379E7
:105BB00002FB0353083336F8132042EA412242F431
:105BC000807226F8132094E7AC0000200400AD0B8F
:105BD0000000AD0B2DE9FF470546084617461E4657
:105BE000FFF73AFD8946044687B395F8048040469E
:105BF000FFF7B0FD18B94046FFF7BEFD68BB36237E
:105C000003FB0848DFF8E4A008F108083AF8183068
:105C100013F01C0F02D07B78012B1ED001238DF8CE
:105C20000F3000237A1CCDE900734846BB1C0DF1F0
:105C30000F0104F02DFA36222B7902FB03430833BF
:105C40003AF8132042F003022AF81320002E4BD01A
:105C500049462879FFF77EFD18B9254804B0BDE80C
:105C6000F08700214FF0360C30782B68820003EB70
:105C70008003C3F81015C3F810152B791B490CFBD2
:105C80000343083331F8137027F4604727F02007E7
:105C900021F8137077783FB32B68B6781A44D2F89E
:105CA00010E5144B3F040EEA0303C2F8103541F629
:105CB000F07307F4403703EA09133605D2F810E50C
:105CC0003B4306F48016334343EA0E03C2F8103513
:105CD0002B790CFB0344083431F8143043EA403389
:105CE00043F0200321F814300348B7E7AC0000204C
:105CF0000400AD0B0FE0ECFF0000AD0B30B56C25E0
:105D00000479044B05FB0434A160017905FB0133E0
:105D1000DA6030BDAC00002070B50679144630461C
:105D2000FFF72AFD68B10846FFF796FC362303FB10
:105D30000600054B083033F8103004485B0B237025
:105D400070BD0348FCE700BFAC0000200000AD0BB5
:105D50000400AD0B2DE9F041064607796C20194D82
:105D600000FB075898F868404CBB40462146462245
:105D7000103003F008FA21463068D8F858608E4297
:105D800013D10023C0F84431D0F84431C0F30830B7
:105D90000130FDF793FB6C2303FB075501230A48F1
:105DA00085F868302B66BDE8F081CBB29B0003F527
:105DB0008072442B04BF845083580131DFE70348CD
:105DC000F1E700BFAC0000200000AD0B0C00AD0BF4
:105DD0006C210279044B01FB023393F86800003810
:105DE00018BF0120704700BFAC0000206C235C226C
:105DF000007913FB002302481844FFF7BDBA00BF27
:105E0000AC0000206C235C22007913FB00230248C5
:105E10001844FFF791BA00BFAC0000202DE9F34110
:105E200003681746D3F81423044692035CBF4FF46B
:105E30000032C3F8142306790D463046FFF79CFC68
:105E400008B33046FFF786FC8046E0B93046FFF7DE
:105E500071FC05B22168AD0005F5807241F8028041
:105E60008A5821682944D1F8102542F00102C1F86E
:105E700010252FB10122216802FA00F3C1F8143372
:105E800002B0BDE8F0812846FFF7E6FB362303FBAE
:105E900006000F4B083033F81030C3F38203042B95
:105EA00011D0052B11D001A80195FFF7C5FB019A70
:105EB000C368D34003F00103991C284602B0BDE833
:105EC000F04104F02EB90321F7E70221F5E700BF06
