:020000040000FA
:10000000F852002035270000C98C0000212700008D
:100010002127000021270000212700000000000008
:10002000000000000000000000000000C1280000E7
:1000300021270000000000003D28000021270000CB
:10004000C52A0000C52A0000C52A0000C52A0000F4
:10005000C52A0000C52A0000C52A0000C52A0000E4
:10006000C52A0000C52A0000C52A0000C52A0000D4
:10007000C52A0000C52A0000C52A0000C52A0000C4
:10008000C52A0000C52A0000C52A0000C52A0000B4
:10009000C52A0000C52A0000C52A0000C52A0000A4
:1000A000C52A0000C52A0000C52A0000C52A000094
:1000B000C52A0000C52A0000C52A0000C52A000084
:1000C000C52A0000C52A0000C52A0000C52A000074
:1000D000C52A0000C52A0000C52A0000C52A000064
:1000E000C52A0000C52A0000C52A0000C52A000054
:1000F000C52A0000C52A0000C52A0000C52A000044
:1001000000000000000000000000000000000000EF
:1001100000000000000000000000000000000000DF
:1001200000000000000000000000000000000000CF
:1001300000000000000000000000000000000000BF
:1001400000000000000000000000000000000000AF
:10015000000000000000000000000000000000009F
:10016000000000000000000000000000000000008F
:10017000000000000000000000000000000000007F
:10018000000000000000000000000000000000006F
:10019000000000000000000000000000000000005F
:1001A000000000000000000000000000000000004F
:1001B000000000000000000000000000000000003F
:1001C000000000000000000000000000000000002F
:1001D000000000000000000000000000000000001F
:1001E000000000000000000000000000000000000F
:1001F00000000000000000000000000000000000FF
:10020000DEE61E284CBBCE8F023400003C0000000E
:10021000E8A3000001000000000000000000000052
:10022000FFFF02910000000000000000000000003D
:0C023000000000000000000000000000C2
:1002400053B94AB9002908BF00281CBF4FF0FF313D
:100250004FF0FF3000F00CB8ADF1080C6DE904CEA2
:1002600000F008F8DDF804E0DDE9022304B070478F
:10027000704700BF2DE9F04786468C460846089E29
:10028000154674461946002B40F0C2808542B2FAEA
:1002900082F245D94AB1C2F1200300FA02FC2EFADB
:1002A00003F3954043EA0C0C94404FEA154EA8B274
:1002B000BCFBFEF8230C0EFB18CC08FB00F943EA4C
:1002C0000C43994528D9EB1808F1FF3704D299451A
:1002D00002D9A8F102072B44A3EB0903A4B2B3FB94
:1002E000FEFC0EFB1C330CFB00F044EA0344A0426E
:1002F00014D92C190CF1FF3304D2A04202D9ACF16D
:1003000002032C44241A43EA07401EB1D4400023C0
:1003100034607360BDE8F0874746DDE76346F1E788
:1003200092BB431B01214FEA154EAFB2B3FBFEFC5B
:10033000200C0EFB1C330CFB07F840EA03439845E6
:1003400062D9EB180CF1FF3004D2984502D9ACF118
:1003500002002B44A3EB0803A4B2B3FBFEFC0EFB8C
:100360001C330CFB07F744EA0344A7424ED92C196F
:100370000CF1FF3304D2A74202D9ACF102032C44A2
:10038000E41B43EA0040C0E7C2F1200320FA03F176
:10039000954090402EFA03F303434FEA154EAFB257
:1003A000B1FBFEFC0EFB1C10190C0CFB07F841EA1C
:1003B0000041884504FA02F422D969180CF1FF3093
:1003C00004D2884502D9ACF102002944A1EB08010E
:1003D0009BB2B1FBFEFC0EFB1C110CFB07F743EAC2
:1003E00001439F420ED9EB180CF1FF3104D29F421A
:1003F00002D9ACF102012B44DB1B41EA004192E738
:100400006046E3E76146F7E76046A3E76346B7E780
:10041000834206D916B9002108467BE7C6E900E009
:10042000F9E7B3FA83F78FB9834201D3724508D84D
:10043000BEEB020460EB030301209C461EB90021C1
:1004400068E73846FAE7C6E9004CF8E7C7F1200C40
:10045000BB4022FA0CF41C432EFA0CF120FA0CF3E8
:10046000B84001434FEA14490EFA07F5B3FBF9F817
:100470001FFA84FE09FB18300B0C08FB0EFA43EA46
:1004800000439A4502FA07F240D9E31808F1FF3019
:1004900004D29A4502D9A8F102002344A3EB0A032F
:1004A00089B2B3FBF9F809FB183308FB0EFE41EAE9
:1004B00003418E452CD9611808F1FF3304D28E45D3
:1004C00002D9A8F10203214443EA0040A0FB0298AC
:1004D000A1EB0E014145CE46434602D306D14D4520
:1004E00004D2B9EB020E68EB04030138002EA6D04B
:1004F000B5EB0E0261EB030101FA0CFC22FA07F3E3
:100500004CEA0303F940C6E9003198E74046C5E7E5
:100510004346D9E7000000002DE9F04F9FB0824626
:10052000039116461C460025307810B9284600F085
:10053000A6BD252809D00399D0470028C0F29F8581
:10054000731C01350593059EEEE71822002110A8C3
:1005500008F031FC7378252B7ED00023701C984660
:100560009E469C461F46014610F8012B2B2A00F0A0
:10057000A68000F29D80202A00F0A480232A00F0AB
:10058000A4802BB19DF8483043F040038DF84830EB
:10059000B8F1000F05D09DF8483043F020038DF8E6
:1005A0004830BEF1000F05D09DF8483043F01003ED
:1005B0008DF84830BCF1000F05D09DF8483043F06D
:1005C00008038DF848302FB19DF8483043F00403FC
:1005D0008DF848309DF8483003F04400442803D19A
:1005E0006FF386138DF848309DF848302A2A43F07F
:1005F00080038DF8483040F084809DF8492042F017
:1006000001024B1C8DF849201A782E2A9DF84920AA
:100610000CBF0121002161F341028DF849207CD1FA
:100620005A782A2A72D0013300224FF00A0C194658
:1006300011F8010BA0F13007092F40F2B3809DF8AB
:1006400048101492C1F3400040EAD2700A4660F3A9
:1006500041028DF8482060E08DF84B30B31C0593C3
:100660009DF849309DF84A20DF0702F0070040F16D
:10067000548154F8041B0491002908DA9DF84810AD
:1006800041F004018DF8481004994942049159073A
:1006900040F14B8154F8047B002F80F24A819DF891
:1006A00049306FF341038DF849304FF0FF3740E197
:1006B0002D2A0DD0302A7FF464AF012353E74FF089
:1006C000010C50E74FF0010E4DE74FF001084AE7EB
:1006D000012748E70EFB0272303A0346184610F82D
:1006E000017BA7F1300CBCF1090FF3D999428BD0F3
:1006F0009DF848101392D20F62F341018DF8481013
:1007000082E70B4600224FF00A0EE7E79DF84920EA
:1007100042F004028DF8492002331A786C2A61D025
:1007200045D8682A4BD06A2A65D04C2A6BD013F87A
:10073000012B0593782A8DF84B2000F2AD806D2AAD
:100740006ED8692A00F2A880572A00F28880412AD0
:1007500004D0A2F14503022B00F29E809DF84A309E
:1007600002F0DF020421A2F1410961F30203D9F191
:1007700000029DF849108DF84A3042EB090262F3FD
:10078000C7110A068DF84910CBB200F1C48003F0FE
:100790007802182A40F0AE806FF3C6038DF8493016
:1007A00000239DE00CFB0202303A0B463FE7742A1F
:1007B00025D07A2ABBD19DF8492006210CE05A7831
:1007C000682A9DF8492006D1012161F3C6028DF8FF
:1007D00049200233ABE7022161F3C6028DF84920BC
:1007E0000133A4E75A786C2A9DF8492001D10421ED
:1007F000EBE70321F0E79DF849200521ECE79DF8A0
:1008000049200721E8E7BDF8482022F4F04222F011
:10081000020242F4804242F00202ADF84820DFE7D3
:100820006E3AD3B201229A4040F282431A429DF8B6
:10083000493038D112F0240F60D1D1072CD59DF862
:100840004A2003F07803A3F14008032161F3020278
:10085000D8F100038DF84A2043EB080340E0A2F1F1
:100860005801C9B2012000FA01F111F4624F7FF47E
:1008700075AF40F6010319429DF8493019D111F4C2
:10088000043F09D09DF84A2060F3020203F0780388
:10089000402B8DF84A2083D19DF8483043F0010366
:1008A0008DF848307CE79DF84A20022161F302026E
:1008B000ECE79DF84A10022003F0780360F3020190
:1008C000402B8DF84A1002BF9DF8481041F00101FD
:1008D0008DF84810632A7FF463AF003B18BF0123F3
:1008E0009DF84820C2F340010B4363F341028DF8A9
:1008F0004820B5E613F0380FCED151E79DF84A20D5
:10090000032113F0780F61F302028DF84A2014BF1F
:1009100001230023E4E70123E2E79DF948100029C1
:10092000B4BF13994FF0FF31B0E69F077FF5BDAE1E
:10093000149F00230428CDE913339DF8493007D1D3
:10094000990705D49DF949100029ACBF06270D274A
:1009500002F00702012AC3F3C30332D1DA1E042ACC
:1009600004D8DFE802F02045452020002268012B52
:100970004FEAE271CDE910211BD19DF94020D1173A
:10098000CDE9102104349DF84820069292074FD0FB
:10099000059B03993246504608F00AF80028C0F239
:1009A0006E830544CFE554F8042BD117CDE910210F
:1009B000E9E7022BE6D111B242F3C032CDE91012C1
:1009C000E0E7022A24D1DA1E042A04D8DFE802F084
:1009D000181010181800012B54F8042B4FF00001C8
:1009E00014D0022BCDE91021CDD192B21092CAE7DA
:1009F000073424F00704F4E80201CDE91001C2E74E
:100A000054F8042B109200221192BCE7D2B2CDE729
:100A1000042A08D1073424F00704D4E9000108347B
:100A2000CDE91001AFE7032AADD154F8042BDDE77F
:100A30009DF84B80B8F1780F3FF685ADB8F1570FB0
:100A40005CD8B8F1250F00F0A380B8F1240F7FF631
:100A50007AADB8F1410F04D0A8F14503022B3FF65F
:100A600072ADDDE91023002BC0F24B810699080717
:100A700000F14A81C1F300194FEA4919C3F30A5141
:100A8000C3F31303002940F0428152EA030014BF6C
:100A90004FF0010C4FF0000CD80240EA5250D60241
:100AA000CDE90C60B8F1460F46EA010640EAE17074
:100AB00008BF4FF06608304300F0B181BCF1000F71
:100AC00010D01B0343EA12531603324618464FF068
:100AD000000C002880F24F81BCF1000F40F05281E1
:100AE000CDE90C630D9B43F00043A1F2FE3B0D9357
:100AF0000021DDE90C230E46052059E1A8F158023A
:100B0000202A3FF620AD01A151F822F0D50C0000BB
:100B100047050000470500004705000047050000A5
:100B20004705000047050000470500004705000095
:100B3000630A000047050000810C0000950C0000CE
:100B4000630A0000630A0000630A00004705000012
:100B5000950C000047050000470500004705000010
:100B600047050000DB0C0000D50C0000250C000040
:100B70004705000047050000A10B000047050000E5
:100B8000D50C00004705000047050000D50C00000B
:100B900003994046D0470028C0F271820135D2E463
:100BA000002F109E3ADB3946304608F00DF9371811
:100BB000002E3FF4C8AC4FF000099DF84A3013F006
:100BC0001002069200F05082023013F04003DDF86C
:100BD0004C80089318BF149BCDF81C80404418BF6C
:100BE000C018049B002B40F35A829DF848201B1A22
:100BF00004935307C2F3800B00F15182500640F179
:100C00004182B9F1000F07D003994846D047002828
:100C1000C0F235820135D946302234E2304608F040
:100C200091F8C4E71098002800F019820DF17503BF
:100C3000009312AA17AB002107F072FEBDF84A30EC
:100C400003F0EF0343F4F04343F010030646ADF81E
:100C50004A304FF00009002F0CDB9DF848200DF1C1
:100C600075039B1B6FF386129F428DF8482001D9B4
:100C7000FB1A1393002E3FF466AC0DF1750767E085
:100C8000109B8DF85C304FF000090DF15D0717AE39
:100C9000012092E7069B1E0758BFC3F30019DDE948
:100CA000102354BF4FEA49194FF02B09002B06DAE5
:100CB000524263EB4303CDE910234FF02D090DF1B0
:100CC00075030093DDE9100117AB12AA07F028FEA7
:100CD0000646C0E74FF00009F1E7109A072B3FF6F0
:100CE00032ACDFE803F00C04060C08080C0C15709D
:100CF00029E4158027E4EB17C2E9005323E41560CB
:100D000021E44FF02D09B9E64FF02B09B6E640F289
:100D1000FF7081422CD11343A8F141081FD1B8F1D3
:100D20001A0F35BF492369234E216E2134BF462255
:100D300066228DF85C309DF848308DF85D106FF3B9
:100D400086138DF85E208DF848300DF15F0717AEE1
:100D5000B81BB9F1000F3FF430AF01302DE7B8F107
:100D6000190F8BBF6E234E23612141211A46E0E704
:100D70004FF0000C90E6921801F1FF3140414FF026
:100D8000010CA6E6CDE90C20ACE6520842EAC3729B
:100D90005B08B3F1333F59460BF1010BF5D200FB71
:100DA00003FCA2FB002301F1020B6344013E01217D
:100DB0001BF1020FE9DB09B1CDE90C23BBF1000FF8
:100DC000DDE90C322EDCCBF10401A1F120000BF1A6
:100DD0001C0B02FA0BFB22FA00F0CA40CB40079230
:100DE00008F0DF0243EA0B03472A43EA00037DD100
:100DF000F21C01DBB7422BDAA8F10208002F5FFAE0
:100E000088F87CDD9DF84820900607F1FF3776D4FE
:100E1000B7F1000B18BF4FF0010B7A1C27E04FF021
:100E2000000B65E6023342F100020CA8CDE90C325A
:100E300007F047FDDDE90C320BF1FF3B0136DB1813
:100E40005241002A0BF1FF3BF9DACDE90C32B5E74C
:100E50009DF848209106A7EB06074DD4B7F1000B8B
:100E600018BF4FF0010BBA194FF066084AD4102A88
:100E7000A8BF10229FEDA67B8DED0E7B10200B905E
:100E8000DDE90E01002A3FD1079A1B1842EB010150
:100E9000B1F1805F47D2CDE90C31069BB8F1660F06
:100EA00003F0200240F0BB80002E47DC30238DF899
:100EB0005C30002A6ED1002F40F3B7812E238DF8CD
:100EC0005D3086B17342BB42A8BF3B469DF84A20C5
:100ED0001393002BA7EB0307D4BF0023012363F375
:100EE00045128DF84A200DF15E0340E0B8F1660F1F
:100EF0004FF0000BB7D090E74FF0000BB3E74FF087
:100F0000000B8AE70022B5E7400840EAC1704908B3
:100F1000CDE90E010EA8CDE9082307F0D2FC089A0E
:100F2000099B013AACE75B0843EAC1730CA8490886
:100F3000CDE90C31013607F0C4FCAEE717AB0B99D5
:100F400000290BDD0BA90CA8CDE9063207F0D1FC76
:100F5000069B079A03F8010B013EF0D11396AAB93C
:100F6000002F40F360812E2103F8011B0026002F83
:100F700019DD0B9A002A16DD0BA90CA8069307F0C1
:100F8000B8FC069B013F03F8010BF0E72E2203F8A3
:100F9000012BEBE72E238DF85D30002EA3D0002F20
:100FA00090DC0DF15E03BBF1000F4CD114971F468E
:100FB00008F0DF03452B21D1002EBABF76422D2346
:100FC0002B23632EC8BF64227B70C2BFB6FBF2F333
:100FD00003F1300102FB13664FF00A0287F800802C
:100FE000CABFB97002370337B6FBF2F303F1300121
:100FF00002FB1363303339707B700237139B002B75
:101000002BDC149B002BD4BF002301239DF84A2026
:1010100063F3861200238DF84A203B7097E60BA9F4
:101020000CA8069207F065FC069A8DF85C00302843
:1010300018BF06F1FF3612B9002F40F3F6802E23B9
:101040008DF85D304FE71F46013B17F8012C302A21
:10105000F9D02E2A08BF1F46AAE70123D6E72E4F54
:1010600081467E1F0520A8E51A0748BF0130ACE580
:10107000104609920399D0470028099A05DA1FB053
:10108000BDE8F08F2022DDF810B0594600290BF1A1
:10109000FF3BEDDC049BCDF810B02B445D1AB9F199
:1010A000000F05D003994846D0470028E7DB0135FB
:1010B000089B002B7CD09DF94930002B2EDBB346DA
:1010C0009BF80000A0F13003092BD9460BF1010B6E
:1010D00045D99DF84A30AE1B99064E4407D4424686
:1010E000002A08F1FF383FDC079B33449E1A99F829
:1010F00000002E280AD10399D0470028BFDBB8F1A1
:10110000000F06F1010635DC09F101094D463CE00E
:101110000000000000000008B1A00000B14699F8EE
:1011200000007028C84609F1010913D1AE1B149DB7
:1011300046443544AB1B002B32DC03993B46424608
:10114000504607F035FC002899DB3044049E0546E4
:10115000064463E00399D0470028E0DA8FE703995B
:10116000D0470028ACDA8AE703993020D04700281E
:10117000B5DA84E703993020D04708F1FF38BCE79F
:101180000399D0470028FFF67AAF2878A0F1300302
:10119000092BA84605F10105F2D9A6EB0906C6E719
:1011A00003993020D0470028FFF669AF0136C1E728
:1011B0009DF84A30DA0601D41B0706D50399302082
:1011C000D0470028FFF65BAF0135069B3BB1039982
:1011D0009DF84B00D0470028FFF651AF0135A844D9
:1011E00006E003993020D0470028FFF648AF0135CC
:1011F000A8EB0503002BF4DC03993B46324650462E
:1012000007F0D6FB0028FFF63AAF28449EE7039983
:101210002020D0470028FFF632AF0135731B002B8A
:10122000F5DCFFF790B91646BDE60DF15D03BAE6B1
:101230007FB51F4B1F4AC3F80026C3F80426C3F826
:101240000826C3F80C26C3F81026C3F81426C3F8E2
:101250001826C3F81C2600F031F806F003FF01A899
:1012600000F020FC144B1B68834200D0FEE7694667
:101270009DF8080006F0D5FE009B039C1C44019BD2
:101280001D8903F019F8661900F01EFE00F0F2FD4A
:1012900001F07AFA635983F30888002383F31488F2
:1012A000BFF36F8FBFF36F8F73689847FEE700BF80
:1012B000000001403546526E2804002010B50C4C49
:1012C000204608F06BF990B12269A168136823F0F9
:1012D000100313600B684FF4003204212046984736
:1012E00020460022BDE81040042106F08ABE10BD51
:1012F0007899000021B1012906D06FF015007047E0
:10130000044B53F830007047024B03EBC00358689E
:10131000704700BF489C00002DE9F04F9B46DBB0B2
:10132000844B679F1E680290DDE9658915460C466F
:1013300000F06AFD804B0122C3F800253AA805F0B1
:101340009FFDB8F1000F07D0B9F1000F04DD4A4648
:1013500041463AA807F079FA23896289D4F80CA0AB
:1013600013449A444FF00008C2456CD80DA93AA81E
:1013700005F0F8FD704B0022C3F80025C3F80025E6
:1013800027B120220DA9384607F00AFD002300935B
:101390002A464FF6FF73214607A806F064FE07466B
:1013A000002861D102980C9C294606F05FFF844218
:1013B0005AD8DFF890B1DFF880914FF0FF340DF18B
:1013C000160305AA06A907A806F09BFE00284BDB1A
:1013D00040F0A980069907A806F0DFFE50B9BDF8D5
:1013E0001600564A4FF6FF7132F8023B8B423BD053
:1013F0009842F9D1BDF816A0BAF1100F3ED0BAF15B
:10140000220F73D0BAF1010FD9D1BDF81430202BBF
:101410002AD806993AAA284607F0BBFB044618BB0F
:101420009DF814300293202B0AD8DBF80030DFF847
:1014300018810393039B9C4237DB0023C9F80035D6
:101440004FF0FF34BBE7649BAAEB0809994528BF1E
:1014500099464B465A464146284607F09AFB30B11A
:10146000354B0022C3F80025324B1E685DE04A462A
:1014700059463AA807F0E9F9C84475E7BDF8147071
:10148000202FF1D106993B463AAA284607F081FB66
:101490000028E9D13A463AA90DA806F0B8FE284B33
:1014A0001B688342E0D1012789E700F0ADFCC9F851
:1014B00000A51DA805F0E4FCD8F8042058F8081B86
:1014C00012681DA807F0C1F915A91DA805F04AFD6D
:1014D0000022C9F80025029A3AA915A807F039FC9C
:1014E00010B9C9F800056AE70134A3E7631C3FF4AB
:1014F00066AFDBF80030A342A2DDBDF81430802BCC
:10150000B2D806993AAA284607F043FB0028ABD187
:10151000E4B2BDF8143000943AAA20210DA800F0DE
:1015200015F806468CE7002F9ED030465BB0BDE82C
:10153000F08F00BF0400002000A00250FC9F0000BC
:1015400028040020509C0000549C00002DE9F04726
:1015500096B016461D469DF87820374BDFF8E88098
:1015600053F83210019103EBC20307465B68D8F8C9
:101570000090186802AA0144302301A807F0F3F88C
:10158000002851D1DDE901431C4403AA06AB2146E2
:1015900001A807F010F9002846D1049A072A43D180
:1015A0002649059807F0D5FB00283DD1079A082A5F
:1015B0003AD12349089807F0CCFBA8BB02AA2146E0
:1015C00001A807F0E4F878BBDDE901A30AEB030208
:1015D000944229D1412B27D13544302303AA2946EF
:1015E00002A8029607F0BFF8E0B9DDE90232134421
:1015F0009D4217D32A4602A906A806F0DCFD88B949
:101600002A4602A90EA806F0D6FD58B99AF800306D
:10161000042B07D1202306AA0AF10101384600F065
:101620000BFC28B1D8F80090484616B0BDE8F0870A
:10163000044BD3F80090F7E7549C000049A0000049
:1016400040A000002804002004000020094A0B7874
:10165000400052F820108B4209D0013052F820008F
:10166000834214BF4FF0FF304FF4407070474FF487
:10167000407070475C9C00001FB5582303FB0100BD
:101680006A46046AA16810231039204607F081FADF
:1016900038B905491022684607F05BFB204604B0C4
:1016A00010BD0024FAE700BF30A000002DE9FF4183
:1016B0002C2707FB010704463D6A284690460E4644
:1016C00007F0B2FA7B1EFA1C13F8011F81421CD1ED
:1016D0009A42F9D15EB12946204606F0A1FE98F85B
:1016E0000730042B08D1216A204606F099FE1F4BD3
:1016F000186804B0BDE8F081002002F0BDFE0428A7
:10170000F5D1F0E71A4B186823E02C237343E11856
:101710000869C206DED4E258164B9A42F2D1CA6872
:101720000B899B18EED24A89D218EBD2AB689A4249
:10173000E8D240F60C630340E4D1CDE902330193D3
:101740004FF4807300932A460B4B39462046FFF72F
:10175000E3FD0A4B1B688342CBD0002EC7D0AA689A
:101760000021284607F03FFAC1E700BF0000002033
:10177000040000203DB8F396B0200020280400208B
:1017800073B50D46044600212846CDE9001106F048
:1017900006FEE8B12368164EB34203D101AA2046E3
:1017A00006F074FDE36AB34204D16A460121204683
:1017B00006F06CFDDDE90032934288BF0193019B86
:1017C000AB60019A2946204600F032FA02B070BDA3
:1017D00001462046FFF750FF05F10801064606F0D6
:1017E00028FDAB680193304607F0D2F9E9E700BF66
:1017F0003DB8F3962DE9F84FDFF878B01B4C1C4D3F
:10180000884691469A4600260B9B9E4201D30020B3
:101810000FE00B9B174A9F1BB7F5806F28BF4FF453
:1018200080673B4606EB0A01404607F0B2F910B16B
:101830000120BDE8F88F0A993B465A467118484680
:1018400007F0BCF90028F3D1C4F800563E44C4F8B0
:101850000456C4F80856C4F80C56C4F81056C4F818
:101860001456C4F81856C4F81C56CDE700000140C1
:101870003546526E2C040020F0B5864B43620E466E
:1018800003F50063002187B0044603650846FFF7AF
:1018900031FD04F12001C0B200F0A6FC002858D1AF
:1018A0000121FFF727FD04F14C01C0B200F09CFCC0
:1018B00000284ED1204606F047FD00284AD10022DC
:1018C0001146204606F02AFD00285AD1204606F08F
:1018D000ABFE002855D002A806F058FD0146204670
:1018E00006F0E9FD00284CD102A806F058FD80F072
:1018F000010102AAC9B2204606F010FD02460028E6
:101900003FD102A806F04BFD0546F0BB02A92046D8
:10191000FFF736FF9DF80F3084F85830033B012B5A
:1019200006D8284600F0E4F810B1FF2384F85830B8
:101930009DF80F30023B022B06D8002000F0C2F8C1
:1019400010B1FF2384F8583094F85830FF2B13D18E
:10195000FEE7FEE70123984284F85830AFD194F8AF
:1019600058308DF80F30042B39D8012B3DD84FD08B
:10197000FF2384F858304BE000221146204606F041
:10198000CDFC012384F85830E9E79DF80F70012F52
:1019900018D1104602F070FD831E022B05460ED8AA
:1019A00002AA39462046FFF781FE3B4B1B6898424E
:1019B00005D03A4B1D68A84214BF0525012584F8BF
:1019C0005850CCE7012102AA2046FFF76FFE324BA8
:1019D0001B6898420CBF9DF80F300523D2E7052BFA
:1019E000C6D1002000F084F810E002A92046FFF7DD
:1019F000C7FE94F85830DA1E012A0ED8002000F0F5
:101A000077F80028B4D1002000F05CF80028AFD1AE
:101A100094F85830FF2B03D1FEE7022BF8D1F2E700
:101A20000022012B1E4D019213D01146204606F0D4
:101A300075FC70B12D681022002102A807F0BBF9D7
:101A4000E06C07F0A5F8206A07F0A2F8284607B076
:101A5000F0BD002211462046FFF728FE0E4F3B68DE
:101A60008342E7D12A689A42E4D00C4A12689A422B
:101A7000E0D0019B01330193019B012B00D0FEE7D5
:101A8000206A06F0D4FA3071236A5B6834603D68DE
:101A9000B360D0E72C0800202804002000000020BC
:101AA0000400002038B5064D044660220021284677
:101AB00007F081F921462846FFF7DEFE38BD00BF5A
:101AC0002C18002013B5094B01A913F8300000F0C1
:101AD0008BFB48B9019807F0ABFC0446019807F06E
:101AE00057F8204602B010BD0124FAE7649C0000BC
:101AF0001FB50F4B01A913F8300000F075FBA8B912
:101B0000019802A902F062FC044668B99DF80B3006
:101B1000032B03D1019807F059FC0446019807F004
:101B200037F8204604B010BD0124F7E70124F8E798
:101B3000649C00002DE9F34106460C4617461D46FD
:101B40000BB9002121E0184606F029FC01460028C7
:101B5000F7D13046FFF790FD18B9012002B0BDE87B
:101B6000F08101A906F065FB0028F6D10199304605
:101B700006F0EFFC736A59686B79012B18D1002CC1
:101B8000DFD12B68834298BF00212C2303FB04661E
:101B90003A46306A202306F0FCFF0028DDD1002DF4
:101BA000DCD038680D4BC01A18BF4FF0FF30D5E7B6
:101BB000022BC6D12B68012B05D98342C1D8B4FAB8
:101BC00084F46409BDE7BCD1002CDED0012CB8D16F
:101BD0002C79023C18BF0124B3E700BF3DB8F3964F
:101BE00073B54B681446114A03F0FF23934206462F
:101BF0000D4618D10B68012B15D16946204602F01D
:101C0000E5FB9DF80030032B0DD12146304606F050
:101C100007FC204607F0DAFBA968204606F017FB10
:101C2000204602F0B3FB02B070BD00BF000100040B
:101C30002DE9F04F0C4689B01146054606F089FCA7
:101C40006B6A039020465E6806F0A9FB90B1E86DD0
:101C500006F0DFFAAB6A0022013B3244904201D920
:101C6000013BFAE7039A934204D80123E37109B0D8
:101C7000BDE8F08F06A9042000F0B6FA07A90220FB
:101C800000F0B2FA079A21462846FFF7A9FF6379C8
:101C9000012B4BD1039FDFF858B141E02268039933
:101CA000C2F101030B44BB4239D36B6A196853F884
:101CB000370003EBC703012A53F8083CA0EB0109E6
:101CC000A3EB010A11D1079B0493E368022B08D010
:101CD0004146284606F0A4FB22464146284606F027
:101CE000CBFB0499284606F09BFB3246494640460A
:101CF00006F094FB534642464146CDE900962846FD
:101D0000FFF778FD2146284606F056FB236801338D
:101D1000236020B1DBF800300133CBF80030013F05
:101D2000DDF81880002FB9D10123236002236371ED
:101D30000127039BDDF818909F4206D9484606F01C
:101D400027FF079806F024FF91E72368BB424DD890
:101D50006A6ADDF81CA052F83710D2F800B004917E
:101D6000FB00083BD1582A6DD0581368A0EB03083C
:101D70002379012B38D1A1EB0B013246484605915E
:101D800006F04CFB0599009143464A4651460196A0
:101D90002846FFF72FFD2146284606F00DFB0223BB
:101DA000237118B1124A1368013313603246414659
:101DB000504606F033FB049B5246A3EB0B03494607
:101DC000CDE900862846FFF715FD2146284606F096
:101DD000F3FA2368013323600123237130B1044AED
:101DE00013680133136001E0022BDFD00137A0E755
:101DF0008C1800200A4619B1024B00211B681847B5
:101E0000704700BF0800002070B5094D2B780BB15A
:101E1000002070BD074C0126C4F8006505F0D2F81B
:101E200018B92E70C4F80005F2E74FF0FF30F0E764
:101E3000B021002000A002502DE9F041DFF83080F1
:101E4000ACB01F4606460C461546FFF7DDFF0123E2
:101E5000C8F800352A4633460097214603A807F004
:101E60001DFD0023C8F800352CB0BDE8F08100BF8F
:101E700000A00250BFF36F8F72B6124B4FF0FF32CB
:101E8000C3F88020C3F88420C3F88820C3F88C20CE
:101E9000C3F89020C3F89420C3F89820C3F89C207E
:101EA000C3F88021C3F88421C3F88821C3F88C21AA
:101EB000C3F89021C3F89421C3F89821C3F89C215A
:101EC000704700BF00E100E0F8B5254B254D4FF00D
:101ED000FF3401275F60C3F84843C3F8084303F5A4
:101EE000C04300265F60C3F84843C3F8084303F5C6
:101EF000983302205F60C3F84843C3F80843C5F82D
:101F0000084300F0FDFC6F60C5F84C61D5F84C311A
:101F1000C5F81061D5F81031C5F84461D5F84431E1
:101F2000C5F8006505F518352820C5F8084300F008
:101F3000E7FC6F60C5F84C61D5F84C31C5F810610D
:101F4000D5F81031C5F84461D5F84431064BC5F8D1
:101F50000065C3F808454FF08043C3F80843F8BD57
:101F600000B000400020004000F00140014B1B6821
:101F7000184700BF0C00002007B50B4600210246A1
:101F800000910348FEF7C8FA03B05DF804FB00BFF8
:101F90006D1F000008B50446EFF31183202383F37F
:101FA0001288BFF36F8F02F087F9204600F0DCFE45
:101FB000024806F06FFC06F099FEFCE7B2A00000B4
:101FC0002DE9F047058B04462807904611D40229D5
:101FD00005F0070540F0CC80204606F000FD78B102
:101FE0000138218B042811D8DFE800F0C2106D857C
:101FF000950001290CBF45F0100545F0200525830B
:1020000088F31188BFF36F8FBDE8F08701F0070AEE
:10201000AA4500F0A5800027B9463E46A368002BDC
:1020200000F0BC8041F00801218388F31188BFF3E0
:102030006F8FA168002900F0BA800D68002900F0B8
:10204000B680D1F80480334652462046C047002D62
:1020500076D02B6829461D46F0E701F007035A1F8A
:10206000012A1BD8002221F00701062B276889B21C
:10207000C4E9002209D13B4603E0628B013262834E
:102080001B68002BF9D141F002012183204606F0A4
:10209000A6FC00287AD041F0200176E0042B0AD17A
:1020A00021F0070189B22183204606F098FC10B187
:1020B00041F020012183218B01F0070AAA454FD06E
:1020C0000027B946AAE7236921F0070141F006017C
:1020D000062DD3F8009021832DD1B9F1000F3FD008
:1020E00041F00801218388F31188BFF36F8F3A49CB
:1020F0002046C84729E021F00701236941F0040187
:1021000089B2042DD3F804902183E6D000273E46FF
:102110004FF0040A82E721F00701236941F005012D
:1021200089B2052DD3F808902183D6D000273E46EA
:102130004FF0050A72E700273E464FF0060A6DE7AA
:102140002B4687E7B9F1000FD1D1EFF31188202397
:1021500083F31288BFF36F8F238B23F0080323834D
:10216000258BEA062ED525F01003238305F00705FD
:102170006669218B002EBFF670AF00232768C4E983
:10218000003321F0070141F001012183218B01F08F
:10219000070AAA454FF000097FF440AF002F9CD0FA
:1021A00041F00801218388F31188BFF36F8F002F5E
:1021B000C8D03D68394633465246204606F03BFCBF
:1021C0002F46F4E7AB067FF51BAF25F020032383F2
:1021D00005F0070500E700BF638A0000014B0360BC
:1021E00000207047709C000070B5104B1C680D46B5
:1021F000B4B10F4B196800238B4202DB6FF0010072
:1022000070BD224612F8106B864202D0013314468C
:10221000F2E7E06807F0C2F928B12C600020EFE790
:102220006FF00C00ECE76FF01200E9E710000020FF
:10223000709C000010B588B0436802938368C06842
:10224000CDE903320A680023CDE906230C4601AA32
:102250000449059306F075FE079808B9059B2360AD
:1022600008B010BD378C000008B54FF01022D2F82E
:10227000100210F47F4018D00C4B0121C3F8041554
:10228000BFF34F8FBFF36F8F6FF47F41C2F810120F
:10229000D3F80024002AFBD00020C3F80405BFF3C4
:1022A0004F8FBFF36F8FFFF775FE08BD00E0014051
:1022B000014804F001BB00BF049D000038B504468E
:1022C00018B90F4B0F485B6898476168B1F5683FD4
:1022D00010D0B1F5680F0DD00B4DA9420AD011F402
:1022E0006861206807D00146084807F0B2F900236A
:1022F0002360656038BD142206F05DFDF9E700BF7C
:10230000EC000020DBA000002C5F5CA9901D0020E9
:1023100008B520B34368B3F5683F10D101220368C4
:10232000BFF35B8F53E8001F002903D143E800206F
:102330000028F7D1BFF35B8F0DD1002008BD094AFB
:1023400093420AD000684FF0FF324FF0FF3303F0A2
:1023500065FC0028F1D00448F0E70448EEE76FF48C
:10236000E040EBE72C5F5CA9E98FFFFFEA8FFFFFFE
:1023700008B5D8B14368B3F5683F10D100220368AF
:10238000BFF35B8F53E8001F012903D143E800200E
:102390000028F7D1BFF35B8F0BD1002008BD074A9F
:1023A000934208D0006803F0B1FCF6E76FF4E04018
:1023B000F4E70348F2E70348F0E700BF2C5F5CA9AD
:1023C000E98FFFFFEA8FFFFF10B5044618B91D4BD8
:1023D0001D485B6898476368B3F5683F2FD0B3F535
:1023E000680F2CD0194A934219D1236803BB1848AF
:1023F0004FF0FF324FF0FF33214603F0E1FB08B905
:1024000023681BB90F4B13485B6898472068142258
:10241000002106F0D0FC4FF46863636008E0B3F578
:10242000683F0DD83A2B03D040F6BA629342DED112
:10243000206807F058F9636843F03A03636010BD01
:10244000054AF3E7EC000020DBA000002C5F5CA94C
:10245000901D002001A100003A00003A08B506498D
:1024600006484023142207F0E6F8BDE80840044976
:10247000044804F093BA00BF90180020901D00207B
:102480000C9D0000209D000030BFFFF7FDBF00BF86
:10249000074A936893F90E10002907DB926993426B
:1024A0001FBF044A536843F080535360704700BF16
:1024B000A01E002000ED00E0134B9A6A12F0007F8E
:1024C0009A6A14BF1E201D2012F0807F9A6A18BFDE
:1024D0001F2012F4002F9A6A18BF212012F4802FB7
:1024E0009A6A18BF222012F4003F9A6A18BF23206C
:1024F00012F4803F9A6A6FEA02426FEA12429A62CD
:1025000018BF2420704700BF00ED00E010B5194B44
:102510000246986A9C6A10F4805F14BF1720162048
:1025200014F4006F9C6A18BF1820A40509D5986B95
:10253000986A000404D51AB19A6A22F400429A6299
:1025400019200C4B9A6A12F4806F9A6A18BF1A20ED
:10255000D2050CD49B6A13F4005F18BF1C20054AF7
:10256000936A43F47F43936200230B7010BD1B20DA
:10257000F5E700BF00ED00E010B51C4B0246986A7D
:102580009C6A10F0100F14BF1120102014F0080FD7
:102590009C6A18BF1220A40709D5586B986A0006D8
:1025A00004D51AB19A6A22F080029A6213200F4B66
:1025B0009A6A12F0010F9A6A18BF142012F0200FC5
:1025C0009A6A18BF1520D40658BF9B6A074B9A6AAF
:1025D000920642BF5A6A22F400525A629A6A42F044
:1025E000FF029A6200230B7010BD00BF00ED00E0F7
:1025F00070B5444B5B689CB00646C3F308030025E6
:1026000085F31188BFF36F8F02F07F40B0F17F4FE9
:1026100011D102F00C0008280DD010074CBF0E4657
:1026200001250022033B8DF80720032B05D8DFE8A6
:1026300003F01E5C60592E46F3E700249DF8073036
:102640009BB96822314602A806F0AAFB099B002D1F
:1026500053D0C3F3080222B96FEA53236FEA43232E
:10266000099302A9204606F025FB1CB070BD254B3E
:10267000DA6A9107E1D4DA6A002ADEDBDA6A52000C
:10268000DBD55A69B16942F480725A61BFF34F8F4A
:10269000BFF36F8F5A6931F8021C22F480725A61BD
:1026A000BFF34F8FBFF36F8F4DF60272914209D087
:1026B0009A6AD2B242B10DF107010120FFF75CFF27
:1026C0000446BBE73468B9E79A6A12F47F4F05D035
:1026D0000DF107010120FFF719FFF1E79B6AB3F540
:1026E000803FAAD3FFF7E8FEEAE70DF107010020DB
:1026F000E4E70DF107010020EDE723F4FF7323F079
:102700000103ADE700ED00E0044B5A6942F010020E
:102710005A615A6922F008025A61704700ED00E0E0
:10272000EFF30880EFF3098101B57246FFF760FF10
:1027300001BD00BF002080F31488BFF36F8F0F48E6
:1027400080F3088801F004FF00200D490860BFF302
:102750004F8F00F02BF8202080F3118809484FF4A8
:102760000061401880F30988EFF3148002210843C8
:1027700080F31488BFF36F8F00F0FCF8F85200204C
:1027800094ED00E0B82100200749D1F89020002303
:10279000C2F307221846934200DB7047C1F8983015
:1027A000C1F8A0000133F6E700ED00E008B572B60D
:1027B000002383F31388FFF7E7FF144B4FF0FF323A
:1027C000C3F88020C3F88420C3F88820C3F88C2085
:1027D000C3F89020C3F89420C3F89820C3F89C2035
:1027E000C3F88021C3F88421C3F88821C3F88C2161
:1027F000C3F89021C3F89421C3F89821C3F89C2111
:1028000062B6BFF34F8FBFF36F8F08BD00E100E0EA
:10281000084B9B6883420BD1EFF3058343B1064B12
:102820005A6842F080525A605A6A22F400425A6250
:1028300003F0B8BDA01E002000ED00E01E498A682C
:1028400082F8BDE04FF030001044EFF3098C80E8CF
:10285000F01F1EF0100F03D102F17C0080EC108AF3
:10286000202080F31288BFF36F8F144F4FF0006663
:102870008A698A603E6092F9BDE0506F0023536719
:1028800080F311881EF0100F03D00023E1EE103A00
:1028900003E002F17C0090EC108AEFF3148323F044
:1028A000040383F31488BFF36F8F02F1300090E8C4
:1028B000F01F8CF309887047A01E002004ED00E093
:1028C0001EF0040F0CBFEFF30880EFF3098081695D
:1028D00011F8021C0229FFD001B5724606F0F0F98A
:1028E00001BD00BF40B2002807DB044A41090123B3
:1028F00000F01F00834042F82130704700E100E003
:1029000040B200280CDB4309064900F01F002033C9
:102910000122824041F82320BFF34F8FBFF36F8F16
:10292000704700BF00E100E0054B420900F01F00C6
:1029300053F82220012303FA00F01040704700BF33
:1029400000E100E040B20028A8BF00F1604001F1C2
:102950000101B8BF064B4FEA4111ACBF00F5614021
:1029600000F00F00C9B2B4BF195480F800137047CB
:1029700014ED00E0144A08B5144B22F07F029A606F
:10298000BFF34F8FBFF36F8FD3F8882022F470020C
:10299000C3F88820D3F8882042F4A002C3F8882026
:1029A0004FF04042C3F83422BFF34F8FBFF36F8F15
:1029B0000023E1EE103A03F043F803F003FE00F0C9
:1029C00075F803F07DF800BF0000000000ED00E0A6
:1029D00042F8203C009B42F81C3C019B42F8183C0A
:1029E0000A49029B42F8143C4FF0807342F8043CC1
:1029F00021F00101002342F8081C203A43674FF4FC
:102A00007D430265C0F8BC30704700BFAF8800004E
:102A1000104B9B6883421AD1EFF30580B8B9EFF3EE
:102A20001181202282F31288BFF36F8F1A7B22F06C
:102A300002021A73EFF3148323F0040383F3148860
:102A4000BFF36F8F81F31188BFF36F8F70476FF003
:102A500015007047A01E002000B50E461546002345
:102A6000E1EE103AEFF3148323F0040383F31488A8
:102A7000BFF36F8FBFF36F8F064B98602C4686F3C2
:102A800009880020044B984720460021002200239B
:102A9000024C2047A01E0020DF8C0000AF88000001
:102AA000014B10221A61704700ED00E0044800233A
:102AB0002021C2180133302B82F80013F9D170475E
:102AC00000E100E008B5EFF30583064A103B02EB96
:102AD000C30152F8330049688847BDE80840FFF752
:102AE000D7BC00BFDC990000024B034A0348012118
:102AF00000F066B80000042000000020309D0000B7
:102B0000084AC2F898000B6823F01F03034343F000
:102B10001003C2F89C308B6843F00103C2F8A03068
:102B2000704700BF00ED00E02DE9F043DFF8608062
:102B300085B00E461F4604464FF00009B14523DA22
:102B40006068D8B13FB1411E08421BD11F2819D976
:102B50002368194216D12368019306F0E3F8A368AD
:102B600003430393D8F89050C5F30725D0B2013D35
:102B7000A84207D801A9FFF7C3FF421C09F10109C8
:102B80000C34DBE76FF01502104605B0BDE8F083AA
:102B900000ED00E0044B0522C3F89420BFF34F8FF3
:102BA000BFF36F8F704700BF00ED00E0BFF35F8F92
:102BB000024B0022C3F89420704700BF00ED00E0F4
:102BC00010B5034C01232278FFF7AEFF207010BD33
:102BD000B12100202DE9F043534B544CD3F89030F1
:102BE0002568C3F307239D4285B000F29A80FFF762
:102BF000DDFF00200C2685421AD14D4C4D4F25702B
:102C00006846FFF7EBFADFF82081DFF82C910646E3
:102C10000025AE4213D1237843490020D1F89020FB
:102C2000C2F30722934276DBFFF7B4FF002042E0B5
:102C3000616806FB0011FFF763FF0130DBE70098D6
:102C400000EB05114FEA051CCB683B40B3F5000FC4
:102C500048D00AD8B3F5001F30D0B3F5800F36D076
:102C6000B3F5801F10D00135D3E7B3F1807F42D098
:102C7000B3F1007FF7D150F80C3088684A6806F04D
:102C800051F840F4802009E050F80C3088684A6818
:102C900006F048F840F0885040F43020CDE9012398
:102CA0000390D8F890302078C3F30723013B984273
:102CB0002AD96FF0150005B0BDE8F08350F80C304C
:102CC00088684A6806F02EF840EA0900E6E750F8FE
:102CD0000C3088684A6806F025F840F0007040F42F
:102CE0000030DBE750F80C3088684A6806F01AF8C4
:102CF00040F08270D2E750F80C3088684A6806F0DD
:102D000011F840F08870C9E701A9FFF7F9FE2378B0
:102D100001332370A7E7C1F89830C1F8A000013350
:102D20007CE74FF0FF30C6E700ED00E03C9D00007F
:102D3000B12100200000F0FF00000811044A012327
:102D4000C2F840354FF080420020C2F87835704715
:102D500000E0014020B1034B800143F0010318471C
:102D6000704700BF409C0000BFF34F8F0549064BE2
:102D7000CA6802F4E0621343CB60BFF34F8F00BF19
:102D8000FDE700BF00ED00E00400FA05084B70B558
:102D9000C31A0D4607499B10044659430648402272
:102DA00006F024F82B4601462046BDE8704018473F
:102DB000C01D0020B76DDBB66499000073B50C4CE4
:102DC0000C4A4023041B00930D460B460A49A410ED
:102DD00061430646094806F035F8011E05DA30461B
:102DE0002B4602B0BDE87040184702B070BD00BF6E
:102DF000C01D0020AF8E0000B76DDBB664990000E7
:102E000010B5EFF31184202383F31288BFF36F8F83
:102E1000074A136823F00201DB07116002D4012086
:102E200006F01DFB84F31188BFF36F8F10BD00BF48
:102E3000101E0020002270B5012104461046FFF745
:102E400081FD0F4801F01CFD0E4B984215D101F099
:102E500027FD26690C49304605F011FE00280BDBE2
:102E6000012535642469084904F11C0005F007FEBA
:102E7000002801DBE564002070BD6FF00400FBE773
:102E8000892F00000000AD0B5C9D00001FB50022E3
:102E90000123CDE90223094ACDF800D06B46CDF8D5
:102EA00004D005F0FDFF002805DB4FF4804200232D
:102EB000684602F0AFFF05B05DF804FBCF8E00005E
:102EC00030B4104B0C2202FB003301460020D3E942
:102ED0000E529863EFF31180202484F31288BFF31D
:102EE0006F8F1C6C04F0C00444F002041C6480F377
:102EF0001188BFF36F8F1DB12B46034830BC1847B4
:102F000030BC7047C01D00206499000010B4EFF37E
:102F10001182202383F31288BFF36F8F1848016852
:102F200041F002040460C80708D482F31188BFF39B
:102F30006F8F01205DF8044B01F0C4BC4FF080415D
:102F4000D1F80C04D1F80C14C907EED5EFF31180B9
:102F500083F31288BFF36F8F0A490B6C03F0C00331
:102F600043F002030B6480F31188BFF36F8F82F389
:102F70001188BFF36F8F00205DF8044BFFF7A0BFEF
:102F8000101E0020C01D002010B1012804D0704781
:102F9000034B1B6C5B0701D1FFF792BF704700BF6B
:102FA000C01D00202DE9F0413849BFF35B8F074673
:102FB000012251E8003F41E800200028F9D1BFF389
:102FC0005B8F33B9324933484B60CB608A6005F080
:102FD00069FD7B1E012B2BD8012F07D14FF08043B9
:102FE000D3F81C3403F00303012B21D006F08EFB31
:102FF0000546F8B9284B1B78E3B14FF08043022215
:10300000C3F808230646DFF894804FF08044D4F8D4
:103010001824D4F81834D20315D503F00303012B78
:1030200001D0012F0FD155B386F31188BFF36F8FF5
:10303000BDE8F081EFF31186202383F31288BFF3FC
:103040006F8F0125DFE7ADB1304605F05CFED4F8A7
:103050001835002BDBD1D4F80421002AD7D0C4F8CE
:103060000431D4F804310123C4F81835C8F880318C
:10307000A360CCE70021212006F0B8FBE7E74FF082
:1030800080430222C3F80423D2E700BFBC1D002006
:10309000AC1D0020DC1D0020B521002000E100E077
:1030A00000F1744000F5A6000A289ABF024B33F9DC
:1030B00010006FF00F0070471AA00000024B0B6069
:1030C00001231360704700BFE49D00000048704773
:1030D000789D00000268154BFF2A08BF4FF0FF32B1
:1030E000C3F824254268FF2A08BF4FF0FF32C3F817
:1030F00028258268FF2A08BF4FF0FF32C3F8302529
:10310000C268FF2A08BF4FF0FF32C3F834250269B6
:10311000FF2A08BF4FF0FF32C3F838254269FF2A63
:1031200008BF4FF0FF32C3F83C25704700900240C3
:10313000054B994206D14FF0FF324FF0FF3310306C
:1031400002F068BE704700BF0000AD0B2DE9FF47DD
:103150000F46054641681E469046002A77D0002B50
:1031600075D0042B01D9B30771D117F003046ED1C8
:10317000002F6CDBCA6ABB19934268D8284605F059
:1031800095FF204605F062FF044648B1012005F096
:103190005DFF284605F06FFF204604B0BDE8F087CC
:1031A000032E1CD83A460421684606F0EBF9044683
:1031B00001462869FFF7BCFF264B9C4234D13246BA
:1031C0004146684605F0ECFD3A460421684606F0A3
:1031D000D6F9044601462869FFF7AAFF24E008F063
:1031E0006043B3F1005F02D118F0030F2BD0DFF87A
:1031F00064A0102EB14628BF4FF010094A46414640
:10320000684605F0CDFD3A464946684606F0B7F9EE
:10321000044601462869FFF78BFF544504D1B6EBFD
:103220000906C8444F44E4D12046FFF739FF04465D
:10323000012005F00BFF0646284605F01CFF002C78
:1032400008BF3446A8E73A4631464046BFE76FF02C
:103250001504A1E70000AD0B2DE9F04F824685B0C3
:1032600088461C461746002A00F08F80002B00F08D
:1032700088800029C0F289804268D26ACB189342C4
:1032800000F28380C8F1000505F0030505F00EFF8C
:10329000A54228BF25467B4203F0030307F003063F
:1032A00058BF5E42764206F00306A64228BF264675
:1032B000631BA41B24F0030423F00309A145C8BF2A
:1032C000A14603F0030BC8BFA3EB040BB9F1000F39
:1032D00018D0BB1908EB050249461846019306F0C1
:1032E00051F904460146DAF81000FFF721FF284A99
:1032F00094423DD1B54205D0019B4A461946781902
:1033000005F037FDC5B1C5F10406A8EB060204219E
:1033100002A806F037F904460146DAF81000FFF774
:1033200007FF1B4B9C4223D106F108032A460DEBF5
:103330000301384605F034FDBBF1000F17D008211A
:1033400008EB05024A440DEB010006F01BF90446A8
:103350000146DAF81000FFF7EBFE0D4B9C4207D157
:1033600009EB05005A4602A9384405F019FD084C3E
:10337000504605F080FE204605B0BDE8F04FFFF74F
:103380008FBE184605B0BDE8F08F6FF01500F9E765
:103390000000AD0B2DE9F047C1F30B03D0F804C0DA
:1033A00007460E461546002A6BD0C2F30B0252EABE
:1033B000030466D1002964DBDCF82C204B1993420E
:1033C0005FD805F073FE2046D7F8048005F03EFE76
:1033D000044600284FD1DFF8B490D8F82C30AB4227
:1033E00021D106F0D2F8AA46044638692146FFF7F3
:1033F0009FFE4C452CD15644A5EB0A0500214FF405
:10340000A47006F0F3F905F006FE041E30DB14F09C
:103410000104F3D1002DE0D1012005F017FE002CAE
:1034200008BF044627E0B5F5803F09D3B3B2A3B97E
:103430003146012002F0DCF94FF4803A0446D4E72B
:10344000B5F5805F09D2104938690F4CFFF770FE5F
:103450002046FFF725FE0446DEE7C6F30B000028F2
:10346000F1D1314602F0C4F94FF4805A0446BCE76A
:10347000012005F0EBFD384605F0FDFD2046BDE8D6
:10348000F0876FF01504F9E70400AD0B0000AD0BF9
:103490002DE9F04743685D6B90B007460AAA00210A
:1034A000284605F09AFE041E6FDB0A9B2A681979EC
:1034B000186800F049FB041E67DB00220121292067
:1034C000FFF740FAD7F804803A695549404602F0C0
:1034D000F1F8FFF7E5FD041E52DB524D0FCD0AACAB
:1034E0000FC495E8030000260DF1040984E80300E9
:1034F0000196AB23C9E901668DF804304A4BD3F835
:103500002425D2B20492D3F82825D2B20592D3F85A
:103510003025D2B20692D3F83425D2B20792D3F82E
:103520003825D2B20892D3F83C350AA8DBB2099309
:10353000FFF7D0FD012002F033F904AD0146284623
:10354000FFF7C8FD394B994223D13146484605F073
:1035500031FD041E14DB232006F01BF84FF0030A94
:103560009F2331460AA8CDE90A66CDF81090CDF820
:1035700014A08DF828300C9505F01CFD041E0BDA04
:1035800002F02CF908B102F017F9204610B0BDE89E
:10359000F0876FF00404F3E75246494608F1300023
:1035A00005F0D7FB0446002834D17A68537F023BEC
:1035B000012B2DD9167F023E022E8CBF002601263C
:1035C00005F029FD002828DBC2B2C0F38010864236
:1035D000D6D00023012182F040020AA8ADF80030C5
:1035E0000A938DF80020CDF810D005910C938DF83A
:1035F00028100B9505F0DEFC04460028C0D105F02C
:103600000AFD041E01DBE307F9D404EAE474B7E71A
:103610000126D5E76FF01204B2E70446B0E700BF19
:10362000A98F0000E09B0000009002400000AD0B5D
:10363000024B0B6001231360704700BF141E002073
:1036400000487047EC9D000010B501221146064865
:10365000064C06F04FF805F08EFF206005F087FF5E
:103660006060002010BD00BF1C1E0020141E002042
:103670004FF08042D2F81015D2F8103501F01E013B
:1036800023F01F030B4343F00103C2F81035024B34
:1036900000221A70704700BFB22100204FF0805303
:1036A000D3F83031082B20D14FF08042D2F81015DA
:1036B000CB071AD5D2F8103501F01E0123F01F03F5
:1036C0000B43C2F81035D2F808315BB1D2F810358F
:1036D00023F01F030B4343F00103C2F810356FF0D2
:1036E0008B007047024B01221A700020704700BF08
:1036F000B22100202DE9F0410D46164605F037FFB6
:1037000031460746284605F0EEFC78B3B5FBF7F3E3
:1037100007FB135353BBB6FBF7F407FB14642CBB36
:10372000B7421DD84FF0FF324FF0FF331148DFF89A
:10373000488002F06FFB05F01AFF0746FFF7AEFF67
:10374000044680B9284601F04BFD98F800300BB1D3
:10375000FFF78EFFF61B3D44F0D1064802F026FB32
:103760002046BDE8F0816FF08B04F6E76FF015049A
:10377000F6E700BF1C1E0020B22100202DE9F8430F
:103780000E463046194617461C4605F0ACFC88B379
:1037900046EA040515F003052CD1BCB11748DFF843
:1037A00064904FF0FF324FF0FF3302F033FB24F010
:1037B0000304AC4206EB05080BD1114AD2F80034E1
:1037C000DB07FBD500240D4802F0F0FA2046BDE8E7
:1037D000F883FFF763FF50B97959404601F020FDA7
:1037E00099F800300BB1FFF743FF0435E1E76FF0C4
:1037F0008B04E8E76FF01504E8E700BF1C1E00200B
:1038000000E00140B2210020F0B54068057B01F0E6
:103810001F0444EA4514056987B0002D64D0B2F551
:10382000001F00F1100506D12146284605F097FE3D
:10383000002007B0F0BD01AE0027B2F5800F019760
:10384000776039D1B3F1007F14BF052304238DF8CD
:1038500004300023CDE904630393836823FA01F164
:1038600011F001011AD1B2F1A07F17D104F01F03AA
:10387000620903F5E0732AD0012A3BD11F4A52F8AE
:103880002330DB070AD40DF10306324621462846D1
:1038900001F000FB1A4B98421CD0029603AA214665
:1038A000284601F0B9F9174B984220D10122214650
:1038B000284601F053FBBBE7B3F1C06F05D0B3F16D
:1038C000007F14BF01230223C1E70323BFE74FF0AA
:1038D000A042D4E73146284601F03AFB094B984212
:1038E000DBD06FF00B00A4E76FF08500A1E76FF06D
:1038F00015009EE751F82330FFDE00BF00030050A3
:103900000400AD0B0000AD0B38B545682B69B3B1B1
:103910001035284601F00CFB044680B901462846C4
:1039200001F0D2FA084B98420BD1084922462846AA
:1039300001F0AAFA224605210620FFF703F800202D
:1039400038BD6FF00400FBE70000AD0B51390000FB
:10395000420970B5034602D0012A17D070BD0D4E42
:10396000326951680029F9D003F01F0301250C6862
:103970009D400029F2D08A682A4002D04B68304628
:1039800098472CB1236821461C46F2E7024EE7E730
:103990002346F8E78C990000789900002DE9F04360
:1039A000466840F20635D006337B87B002EA05054B
:1039B00054BFC2F34010032001F01F07B5F5837F09
:1039C000144647EA43178DF8030045D00FD8062D5B
:1039D00018D007D8B5B1022D40D06FF0150007B050
:1039E000BDE8F083B5F5807FF7D101250AE040F20C
:1039F0000222954234D0B5F5407F33D0B5F5007F33
:103A0000EBD102250123220303FA01F12CD57368BF
:103A1000C3F80815326982BB07F01F037F0929D05C
:103A2000012F77D13E4A02EB830284F48033D2F82F
:103A30000017C3F30043C4F3404444EA430421F4B1
:103A4000E16144EA800421F0070144EA05230B43C5
:103A5000C2F800370020C2E70725D3E70425D1E7E5
:103A60000525CFE70325CDE7630344BF7368C3F89B
:103A70000C15CFE74FF0A042D5E710360DF102024A
:103A80003946304601F006FA14F4403F80460CD126
:103A90003946304605F061FD224B9845DAD19DF854
:103AA0000210304601F04EFAD4E701AB4FF00009A6
:103AB00003AA39463046CDE90439CDE90199CDF85C
:103AC0000C9001F0A9F8174B984286D114F40033FA
:103AD00015D09DF803308DF80E3084F48034C4F393
:103AE00000444B4603AA394630468DF80C508DF8F9
:103AF0000D4001F04BF90B4B9842CDD06DE7CDE96D
:103B0000043303AA0DF1030339463046039301F051
:103B100083F8F0E703F5E07352F82330FFDE00BFCF
:103B2000000300500000AD0B036803F01F025B09A7
:103B3000026004D0012B034818BF002070474FF0EB
:103B4000A0407047000300502DE9F04FDFF870915E
:103B5000DFF870A185B01646834600EB810140F284
:103B6000FF18594503D1002005B0BDE8F08FDBF800
:103B700000305804C3F3C322C3F3080400F1998052
:103B80001B0E19F80270444508BF4FF0FF34222B7A
:103B900000F29280DFE803F012191F2225352290EF
:103BA0009090903B68909090909090909090909092
:103BB00090909090906B7275787B7E00C6F80C4563
:103BC000621C6AD10BF1040BCBE7C6F81445621CEA
:103BD000F8D000256BE0C6F80845F1E7C6F81045B7
:103BE000F5E7631CC6F80845ECD0002503A803944C
:103BF000FFF79AFF039B012202FA03F3C0F80C358A
:103C00000EE0651CC6F80C45DCD00125EEE7C6F8D1
:103C10000845002FDBD1631CD4D000252A46062797
:103C2000DBF80030019303F40040002818BF0022A5
:103C300003A8009218BF01250394FFF775FF039CAA
:103C4000019B009A00EB8400C3F3412CD0F800479D
:103C50003B0243EA8C03134304EA0A04234343EA86
:103C60004503C0F80037ADE7C6F80C45D1E7C6F804
:103C70002445601CA6D000220125D1E7C6F82845BE
:103C80009EE7C6F83045F4E7C6F83445F1E7C6F8D4
:103C90003845EEE7C6F83C4592E703A80394FFF7E2
:103CA00043FF039B012505FA03F3C0F808352A46B4
:103CB000B6E76FF0150057E76FF0850054E700BFD7
:103CC0008FA10000F0F8FCFF2DE9F04104464768A1
:103CD0000D4605F01BFD4FF0200888B9264B1B78D8
:103CE00073B16426606805F0A5FAF0B9012005F00B
:103CF000A8FB013EF6D10021212005F077FDF0E779
:103D0000EFF31186314688F31288BFF36F8F606836
:103D100005F090FAA8B986F31188BFF36F8FEFE72B
:103D200086F31188BFF36F8FE5E7EFF31186314615
:103D300088F31288BFF36F8F606805F07BFA002864
:103D4000EED0BB691D706368BA691B680020C3F8B8
:103D500044250122C3F84825C3F82001D3F82041A7
:103D6000C3F85801D3F858019A6081F31188BFF362
:103D70006F8FBDE8F08100BFB5210020F7B5054683
:103D8000002201210220FEF7DDFD0220FEF7AAFD40
:103D90006A6811681369C1F82435137D507D927DDE
:103DA00003431343C1F86C356E68D6E9004313F042
:103DB000010348D02F6907F1080005F04EFB304B96
:103DC00098425AD1387A04F10C0204F5907105F04A
:103DD0003AFB387A012707FA00F000F0E9FC0823E3
:103DE000C4F80035B369C4F844350023C4F8483535
:103DF000A760D4F85831002BFBD00021C4F800157F
:103E00006B68DC6801AA204605F0E7F9002805DBAD
:103E1000019B226819791868FFF796FE6A68136893
:103E20000821C3F80015117A51B9D269C3F83425B5
:103E30000122C3F83825C3F81011D3F810111A6005
:103E4000002003B0F0BD0822C4F80025B269C4F810
:103E50004425C4F848350123A360D4F82031002B51
:103E6000FBD00023C4F82031D4F820310123E360D3
:103E70004FF48073C4F80433BBE76FF00400E0E74D
:103E80000000AD0B70B5012383400E4ABFF35B8F7A
:103E9000DC4352E8001F01EA040542E80056002E08
:103EA000F7D1BFF35B8F4FF4803282400648C0F8F1
:103EB0000823BFF35F8FBFF36F8F0B4214BF012046
:103EC000002070BD541E00200010014070B40E4947
:103ED000D1E90034D01AC31844F1000422F07F461F
:103EE000C1E90034A6F50013B3F5400F09D2074B22
:103EF0001B681A0A1B069C19054B42F10005C3E911
:103F0000004570BC02F01EBCB8010020581E002005
:103F1000C001002011B3BFF35B8F0123104A83401F
:103F200052E800CF4CEA030C42E800C10029F7D167
:103F3000BFF35B8F0B4A4FF480338340C2F80433E6
:103F4000094BBFF35B8F1B68BFF35B8FC340DB077D
:103F500042BF064B4FF40032C3F80021704700BF48
:103F6000541E002000100140501E002000E100E01F
:103F70000D4B1868010A0006BFF35F8F0B4BD3F897
:103F80000435181841F10001B3F5801F0AD2084B1F
:103F9000D3E90023904271EB030303D210F1807048
:103FA00041F10001704700BF581E00200010014081
:103FB000C00100202DE9F04F85B016461F469DF840
:103FC00040A00446FFF75EFF0190FFF7D1FFB0422B
:103FD00071EB070354D23E4B301A67EB0101984254
:103FE00071F100014FD23B4B03EB0413D3E90223E1
:103FF0009F4208BF96425ED037494FF4803804F1A3
:10400000500508FA04F8AD00C1F848832046ADB267
:1040100005F041F926F07F4B05F1804504F5A873C2
:1040200005F58835DC464FF003090293029A2CF01F
:104030007F4341F82230C1F84483D1F80435274A40
:104040006FF00200C01A604420F07F40904232D9E5
:10405000286868B1D1F804350393A3EB0B0020F076
:104060007F40B0F5000F26D9204605F014F9039BD8
:10407000BAF1000F07D109EB030C09F10109D5E7EB
:10408000BAF1000F09D06FF0150520460199FFF72E
:1040900041FF284605B0BDE8F08F0123104ABFF369
:1040A0005B8FA34052E8000F184342E8000100294B
:1040B000F8D1BFF35B8F07490E98230101EB04127F
:1040C000C8500F9B5360C2E902670025DDE700BFBF
:1040D00001008000A801002000100140FDFF7F00CA
:1040E000501E00207FB51C4C1C4BC4F80833C4F88C
:1040F00048331B4B00254FF0FF304FF0FF31C4F821
:104100000855C3E902014FF48033C4F80433154B5A
:1041100002264FF400320121C4F804631120C3F8D1
:1041200080212A46FEF70EFC1120FEF7DBFB0E4A2B
:104130000123A360236013600C4B0D4A0093CDE96B
:10414000015500232846FFF735FF3046FEF72AFFCA
:10415000284604B070BD00BF0010014003000F00EE
:10416000A801002000E100E0541E0020CD3E000028
:10417000FFFF7F002DE9F7432F4CD4F80433990754
:104180000BD5D4F8043143B12C4A0023C4F80431D0
:10419000D4F80431136801331360D4F80433DA031C
:1041A00029D5BFF35B8F264B53E8002F22F0010186
:1041B00043E800100028F7D1BFF35B8FD30702D488
:1041C000D4F84031BBB10025C4F84051D4F8403197
:1041D000FFF7CEFEEFF31182202383F31288BFF3A3
:1041E0006F8F184BD3E90267B042B94106D282F310
:1041F0001188BFF36F8F03B0BDE8F0834FF0FF3835
:104200004FF0FF39C3E90289D3E900101D604FF474
:104210008033C4F84833C4F84051D4F8403182F3B5
:104220001188BFF36F8F0029E5D0009032463B46DE
:1042300028468847DFE700BF00100140581E0020D5
:10424000501E0020A801002030B5431C124C85B040
:1042500005D08442A8BF0446012CB8BF0124FFF753
:1042600087FE0E4B0C4DD3E90013401AB0F5000F3A
:1042700010D22218AA4228BF2A4652184FF0000036
:1042800007490091CDE9010043F10003FFF792FED9
:1042900005B030BD2A46F0E7FFFF7F00B8010020DF
:1042A000CD3E000008B5FFF763FE024B1B68C01A45
:1042B00008BD00BFB801002010B5084C01236360A1
:1042C0001120FEF71DFB064BC4F80833C4F8483331
:1042D000044B4FF40032C3F8802110BD00100140A0
:1042E00003000F0000E100E02DE9F0432348244ED5
:1042F000DFF8949085B004F0DAFF204BD3F83880D3
:1043000004460025A84503D8002005B0BDE8F08389
:1043100096E80700636A1F6801AB83E807000C2278
:104320001946384604F015FD88B987B1636A2169DA
:104330001B681A6991420AD19A69A169914206D80B
:10434000E169914203D962695B699A430CD0276A9B
:1043500077B10C4804F09EFA002383F31188BFF371
:104360006F8F0423184602DFE36801351C44C9E758
:10437000484604F08FFA636A1F60F5E70002000008
:10438000F89B0000A5A10000CEA1000030B5816817
:1043900085B0103921F00704054604F045FC1022D1
:1043A0000146684604F007FD07491022684604F0FC
:1043B000F7FC10236A462146284604F0FFFB00382C
:1043C00018BF012005B030BD30A0000030B50D464B
:1043D000816887B0102302AA1039044604F0D9FB83
:1043E000002802DA012007B030BD102202A92046C1
:1043F00004F087FF00283AD11E49102202A804F0D9
:10440000A8FC00280CBF012302232B70204604F0D7
:1044100064FF012301460DF10702204604F0B9FBB9
:104420000028DFDB9DF8073003F00F021B096A70DC
:104430002B7101220DF10701204604F062FF10B933
:104440006B78042B03D901236B7000232B71A268B6
:10445000183A22F00702083AA91C204604F064FF2B
:104460000028BFD1E91C204604F0B7FFBBE70323B7
:10447000CBE700BF30A000007FB5264D4400694661
:1044800055F8240004F0AFFF002835D1013402A90B
:1044900055F8240004F0A7FF01282BD103238DF841
:1044A00008308DF80B309DF800509DF808601A4ACE
:1044B00000241078294604F016FF18B350783146CE
:1044C00004F011FFF0B19378042B03D09DF8031092
:1044D000994217D1D378042B03D09DF80B10994241
:1044E00010D11379042B09D15079831E022B03D8E4
:1044F00004B070BD0028D6D0FF20F9E79DF8021067
:104500009942F1D00134032C02F10602D1D10120ED
:10451000EEE700BF689E000001A200004FF080534C
:10452000D3F83021082A06D1D3F83431052B02D82C
:10453000024AD05C70470020704700BF19A20000FB
:10454000024AD2F80034002BFBD0704700E0014053
:1045500010B54FF08053D3F83021082A4ED14FF0D8
:1045600080420021C2F80C11C2F81011C2F83815AF
:1045700002F54042D3F80414C2F82015D3F8081409
:10458000C2F82415D3F80C14C2F82815D3F8101467
:10459000C2F82C15D3F81414C2F83015D3F8181437
:1045A000C2F83415D3F81C14C2F84015D3F82014FF
:1045B000C2F84415D3F82414C2F84815D3F82814C7
:1045C000C2F84C15D3F82C14C2F85015D3F8301497
:1045D000C2F85415D3F83414C2F86015D3F838145F
:1045E000C2F86415D3F83C14C2F86815D3F8401427
:1045F000C2F86C15D3F84434C2F87035FFF78EFF5B
:1046000018B1414B414AC3F88C26FFF787FF18B118
:104610003F4BFB22C3F81825FFF780FF70B14FF026
:1046200080414FF08053D1F8E42ED3F8583222F075
:104630000F0203F00F031343C1F8E43EFFF76EFFD0
:1046400020B1344B4FF40072C3F840264FF0805332
:10465000D3F83031082B09D14FF08043D3F8002430
:10466000D20744BF6FF00102C3F800242A4AD2F8EF
:10467000883043F47003C2F88830BFF34F8FBFF324
:104680006F8F4FF08053D3F83021082A0ED1D3F822
:104690003431052B02D8214AD35C3BB14FF01023B3
:1046A000D3F808224FF08043C3F858254FF0102369
:1046B000D3F80022002A03DBD3F80432002B22DADD
:1046C000174901234FF01020C1F804351224FFF7D9
:1046D00037FFC0F80042FFF733FFC0F80442FFF78E
:1046E0002FFF0023C1F80435FFF72AFFBFF34F8FD8
:1046F00009490C4BCA6802F4E0621343CB60BFF374
:104700004F8F00BFFDE710BD0050004048810300FF
:1047100000F000400090024000ED00E013A2000015
:1047200000E001400400FA0530B50468CCB1BFF3E5
:104730005B8FB4FA84F3C3F11F03DBB201229A400A
:1047400024EA020250E8005FA54204D140E8002CB0
:10475000BCF1000FF6D1BFF35B8FE6D102480B70BE
:1047600030BD0248FCE700BF0000AD0B0200AD0BFE
:1047700010B50368CB40DB0714D401238B400268DB
:10478000BFF35B8F43EA020150E8004F944204D12B
:1047900040E8001CBCF1000FF6D1BFF35B8FEED1F7
:1047A000014810BD0148FCE70000AD0B0400AD0B53
:1047B000014BC3F80405704700F00140F7B505460A
:1047C000F8B101281BD104224FF4807301464FF049
:1047D000804003440244C0F8081300260121116000
:1047E0001E608D421B688DF8071008BF0DF107068B
:1047F00042F210744FF0804745B1012D28D003B02C
:10480000F0BD0C224FF482730221E0E7D7F8183490
:1048100003F480333EB9002BF1D0012004F011FEE7
:10482000013CF3D1EBE7D7F8182402F00302326021
:10483000002BE4D09DF80700012803D104F001FE0D
:10484000013CD9D1012DDAD10C4B00225A71D6E7A7
:10485000D7F80C3403F480333EB9002BF4D0012098
:1048600004F0EFFD013CF3D1EEE7D7F80C2402F0A1
:1048700001023270002BDDD1E6E700BF5C1E002094
:10488000044B1A7922B9012218609A8002487047B5
:10489000024870475C1E00200000AD0B0C00AD0B01
:1048A00008B5074B1B682BB10020FEF73DF808B98F
:1048B000FEF718F84FF080430022C3F8182508BD12
:1048C0005C1E002010B510B1012843D010BD4FF080
:1048D0008043D3F81814D3F81824C80321D502F064
:1048E0000303012B04D013B10020FFF767FF00235F
:1048F0004FF080420220C2F8183508224FF482732C
:1049000003F180430021196002F180421C680124F8
:104910001460154A12680AB34FF08043C3F80403C9
:10492000D4E7D3F81424D107E1D5D3F81C24920797
:10493000DAD40D4A12681AB10222C3F80423C5E77B
:10494000D3F80421002AFBD00022C3F80421D3F8B5
:104950000431BBE700224FF48073D1E71A68002AC4
:10496000FCD019601B68B1E75C1E0020F8B54FF061
:1049700080431C4ED3F804430125002704B9F8BD39
:10498000B4FA84F0C0F11F00830003F580739BB27A
:1049900003F1804305FA00F2196892B224EA020496
:1049A0000029EBD01F601B684FF08043012AC3F839
:1049B000082305D0022A08D03368C0B29847DDE743
:1049C0007379002BDAD17271F6E7D3F81814D3F8A3
:1049D00018148907F0D1C3F81855C3F804239D6053
:1049E000CCE700BF5C1E0020036803F01F025B09D8
:1049F000026004D0012B034818BF002070474FF01D
:104A0000A040704700030050034A430900F01F0014
:104A1000D35C1844C0B270471FA2000070B50546B1
:104A2000FFF7F2FF0C4C08300E4634F81030DA0570
:104A300008D5C3F3432304EBC302284654F83330AC
:104A400052689847A3682BB1E26831462846BDE812
:104A50007040184770BD00BF5C00002008B5FFF72C
:104A6000D3FF034B083033F81000400B08BD00BFE4
:104A70005C00002008B5FFF7C7FF034B083033F890
:104A80001000C0F3400008BD5C00002008B5FFF72F
:104A9000BBFF034B083033F81000C0F3401008BDD3
:104AA0005C000020034611F0010010B5CCB20DD11E
:104AB000A207C4F3400012D5094AD2F82005586075
:104AC000C2F82005003818BF012008E04FF0A041CF
:104AD000D1F820251A60C1F82025002AE8D010BDA1
:104AE0000003005010B5FFF78FFF124A083032F86C
:104AF0001030D9051CD5C3F3432123F4F85322F811
:104B0000103002F10E04002034F8023F13F4807FCD
:104B100003D0C3F3432399420AD001303028F3D1A4
:104B2000002342F831300448BDE81040FFF720BEB2
:104B300010BD00BF5C000020D4000020F0B5054689
:104B400000200446012607468C420BD1114BD3F8B6
:104B50007C2132B10022C3F87C21D3F87C3140F0B3
:104B60000040F0BDE3B29B0003F580729B0806FA9B
:104B700003F31D420BD002F1804202F5C042D2F88D
:104B800000C0BCF1000F02D0176012681843013456
:104B9000DAE700BF00600040F7B506460846FFF7B9
:104BA00033FF194F00F108050C4637F81530DB07C5
:104BB00027D5304604F0ADFC2046FFF767FF40B133
:104BC0002046FFF74BFF316800F5A270002341F843
:104BD00020302046FFF786FF002301A827F8153074
:104BE0000194FFF701FF019B00EB8300074BD0F816
:104BF0000027134043F00203C0F80037044803B015
:104C0000F0BD0448FBE700BF5C000020F0F8FCFFAB
:104C10000000AD0B0400AD0B2DE9FF4116468046A8
:104C20000846FFF7F1FE0D463168044609B32846F1
:104C3000FFF720FF18B12846FFF728FF10BB00231D
:104C4000CDE900338DF80E308DF80F300DF10F02E5
:104C50000B4628460DF10E0104F003FC474A04F10F
:104C6000080132F8113023F0020343F0010322F867
:104C70001130736863B328461F785968FFF7FAFE4E
:104C800010B1D1B13E4826E03C4A04F1080032F8A8
:104C9000103023F02003DB04DB0C22F8103061B16C
:104CA000032FEFD87168496891F800C0D8F8001058
:104CB000A7B90CF5A27C41F82C70304A04F1080128
:104CC00032F8113023F01C0343EA870322F8113035
:104CD000B3684BBB2B4804B0BDE8F08101EB8C01FD
:104CE00043EA4C33D1F810E52EF0030EC1F810E57D
:104CF000D8F8001001EB8C0E43F02003DEF81015FD
:104D000022F8103021F44F3121F44071CEF8101503
:104D10002902DEF8108501F47C5141EA074141EA9D
:104D20000801CEF81015C8E7D3E900672846FFF759
:104D3000D9FE002ECED0114DD5E90023964203D1E5
:104D40009F4201D1002209E00F480DF10F01FFF74A
:104D5000EBFC0C4B9842BED19DF80F2045F8326019
:104D600005EBC20308345F6035F8143043EA422390
:104D700043F4807325F81430ACE700BF5C000020DA
:104D80000400AD0B0000AD0BD40000202DE9F04372
:104D90000C4685B08046204611461E46FFF734FE7D
:104DA000054629B32046FFF765FE18B92046FFF7F0
:104DB0006DFE18BB314F05F1080937F8193013F0B3
:104DC0001C0F02D04B78012B18D001238DF80F3027
:104DD0000023CDE900134A1C8B1C20460DF10F0166
:104DE00004F03FFB37F8193043F0030327F819307C
:104DF000002E41D02046FFF73DFE18B9204805B0EF
:104E0000BDE8F08396F800C0D8F800301B4F0CF5D1
:104E1000A272002143F8221005F1080237F812109F
:104E200021F02001C904C90C27F8121075781DB3B0
:104E3000D8F80000B67800EB8C002D04D0F81035BF
:104E400023F4991323F4F853C0F81035230203F424
:104E50007C5305F440353605D0F810E52B4306F4B5
:104E6000801641EA4C31334341F0200143EA0E03FE
:104E700027F81210C0F810350248C0E75C00002087
:104E80000400AD0B0000AD0B014BC3E902127047EB
:104E90005C00002010B508461446FFF7F7FD50B13E
:104EA0000846FFF7B1FD054B083033F810300448D1
:104EB0005B0B237010BD0348FCE700BF5C000020C3
:104EC0000000AD0B0400AD0B70B5164D95F8804099
:104ED00006462CBB2146602205F1100003F06BFF53
:104EE00030682E6F21468E420ED10023C0F87C31EF
:104EF000D0F87C3140F30730FDF7F4FC01230A4879
:104F000085F88030AB6770BDCBB29B0003F5807233
:104F10007C2B08BF845001F1010108BF8358E2E7F0
:104F20000248F0E75C0000200000AD0B0C00AD0B68
:104F3000034B93F88000003818BF0120704700BF72
:104F40005C0000200148FFF713BC00BFD000002028
:104F50000148FFF7E9BB00BFD000002073B503682C
:104F60001646D3F80423002AA8BF4FF00042054696
:104F7000A8BFC3F8042308460C46FFF787FD00B31B
:104F80000846FFF777FD0146D8B92046FFF766FDD2
:104F900004B2A40004F58072034628688150296891
:104FA00082582144D1F8102542F00102C1F81025A1
:104FB0002EB12968012202FA03F3C1F8043302B0CA
:104FC00070BD2046FFF720FD0F4B083033F810303E
:104FD000C3F38203042B12D0052B12D001A8019435
:104FE000FFF702FD019AD0F81035D34003F001031A
:104FF000991C204602B0BDE8704004F07BBA032142
:10500000F7E70221F5E700BF5C0000202DE9F04F33
:10501000694BDFF8B081D3F80403D8F87010C0B240
:1050200089B040F00040FFF789FD051E2FDAC24627
:1050300000235AF87C1F06A8CDE90633FFF732FD9E
:105040005E4B01930DF118094FF0000B019A12F815
:10505000013B0192DA0803F007031AF8022022FA52
:1050600003F3DA071CD409F10409BBF1000F14D0D3
:10507000D8F870104FF00040FFF760FDD8F87C10B2
:1050800006A8FFF70FFD0028DAD125F0004501241E
:10509000002D79D109B0BDE8F08F4FF0010BD5E7B5
:1050A000474B5B440293D9F800100029DBD0029BE8
:1050B00091FAA1F11C78B1FA81F141EA4414204639
:1050C000FFF7A2FC0830059438F81070C808BB0838
:1050D00019F80020039301F00701012303FA01F1FD
:1050E00022EA010209F8002005A8FFF77DFC059AD5
:1050F000039B02F5E072C7F3820650F822205B079B
:105100003746C2F3014224D520463946D6B2FFF7CE
:1051100085FC05A80594FFF767FC059B03F5E07384
:1051200050F82330C3F301439E4207D100212046AB
:1051300004F0E0F93146204604F0DCF905A80594B6
:10514000FFF752FC059B012202FA03F3C0F8203559
:10515000A9E7022A0CD10321204604F0CBF906F07E
:105160000503012BEAD139462046FFF757FCE5E756
:1051700002212046039204F0BDF9032EF3D0039AD6
:10518000032ADBD1022EEDE795FAA5F3B3FA83F3F8
:1051900004FA03F29B0003F1804303F5C04325EAC0
:1051A0000205D3F81005D3F81015C0F30520C1F39C
:1051B0000141FFF733FC6BE7006000402FA20000C5
:1051C0002FA200005C000020044AD2F80034DB0764
:1051D000FBD50160BFF35F8F704700BF00E0014067
:1051E0004FF080531A69B0FBF2F302FB130373B95B
:1051F000084B0222C3F80425C3F80805D3F800249D
:10520000D207FBD500220448C3F8042570470348A1
:10521000704700BF00E001400000AD0B0A00AD0B7D
:1052200010B5054C0123C4F80435FFF7CDFF00236A
:10523000C4F8043510BD00BF00E00140014601483C
:10524000FFF772BAE000002070B5104D6C6B9CB196
:105250004FF47A735C430A23B4FBF3F40C4ED6F894
:10526000003163B995F839304BB90A2004F0E9F8F8
:10527000013CF4D1074870BD4CF25034EEE795F88C
:105280003930002BF6D10448F5E700BF641E00203A
:10529000009002400700AD0B0000AD0B094B10B5AC
:1052A00000220124C3F80045C3F800211C6038B176
:1052B000FFF7CAFF044B984203D1044B83F83840F0
:1052C000014810BD009002400000AD0B641E00209C
:1052D00070B500F06044B4F1005F5DD184075BD12C
:1052E0002F4C94F83050012D05D09D4256D194F8A2
:1052F0003850002D52D02B4D022B0BBFC5F8102576
:10530000C5F80425C5F81405C5F808050CBFC5F88F
:105310001815C5F80C154FF0000684F8396026689A
:105320000CBF08250425BEB994F838306BB11D4B6D
:1053300005F1804505F524350022C3F8002101233D
:105340002B60BDE87040FFF77FBF0120FFF7A6FF8D
:10535000154B9842EBD170BDA66826B1E060616143
:10536000E2611248F7E7A2610E4A84F83030012367
:10537000A0602161C2F80061C2F8043394F83820BB
:1053800002F0FF0012B9FFF789FFEAE705F1804557
:1053900005F524352B60E4E70548DCE70548DAE746
:1053A000641E0020009002400700AD0B0000AD0B12
:1053B0000A00AD0B0B00AD0B084B9A685A621A69D4
:1053C0009A629A69DA62DA689A6032B15A691A6145
:1053D000DA699A610022DA6070477047641E002023
:1053E00000F01F0340090FD0012810D10B4A02EB37
:1053F00083020B4BD2F80007034043EA012343F03A
:105400000203C2F8003770474FF0A042EFE70022D6
:1054100003F5E07352F82330FFDE00BF00030050B5
:10542000F0F8FCFF10B50E4B0238D3F83C26D3F849
:105430003836072813D8DFE800F0110F0D0B0A08E3
:105440000604100EC871100C8871100A48710A7198
:105450001A0ECA701A0C8A701A0A4A700B7010BDA4
:1054600000900240023807281FD8DFE800F0292703
:10547000251123211F04CB791B068A7943EA0243B5
:105480004A7943EA02230A7913430E4AC2F83C36AA
:10549000CB781B068A7843EA02434A7843EA022320
:1054A0000A781343074AC2F8383670470023E4E706
:1054B0000023E5E70023E6E70023EBE70023ECE722
:1054C0000023EDE7009002400268154BFF2A08BF59
:1054D0004FF0FF32C3F824254268FF2A08BF4FF07F
:1054E000FF32C3F828258268FF2A08BF4FF0FF3239
:1054F000C3F83025C268FF2A08BF4FF0FF32C3F857
:1055000034250269FF2A08BF4FF0FF32C3F838255F
:105510004269FF2A08BF4FF0FF32C3F83C257047AD
:10552000009002400A4B002283F83820094B0121E9
:105530004FF08050C3F808131961D0F830010828E3
:1055400008BF5965C3F80025C3F80021704700BFA4
:10555000641E00200090024030B5194D0FCD8DB073
:1055600006AC0FC495E8030084E803001549D1F8A0
:105570002435DBB20093D1F82835DBB20193D1F8A2
:105580003035DBB20293D1F83435DBB20393D1F876
:105590003835DBB20493D1F83C3506A8DBB205936D
:1055A000FFF792FF0023C1F8003101230B60D1F80F
:1055B0000031002BFBD06846FFF786FF0DB030BDF1
:1055C000109C00000090024070B590F8293004460D
:1055D00013B190F82A204ABB6068FF2860D0A26807
:1055E000FF2A5DD0E268FF2A5AD02269FF2A57D0ED
:1055F000B3B90321FFF7F4FEA068FFF7F1FEE068FE
:10560000FFF7EEFE2069FFF7EBFE6069FF2801D08F
:10561000FFF7E6FEA069FF2802D00321FFF7E0FEB6
:1056200094F82A3013B9201DFFF74EFF1D4E636A10
:1056300073631D4D94F8293086F83A300123C5F87C
:105640000833FFF789FF2368C5F84035A37F617FE2
:10565000227F9B0143EAC1031343E27F43EAC21363
:10566000C5F84435D5F8002694F8203022F07F4262
:1056700022F0FF02134394F8212043EA026394F8D6
:10568000222043EA426394F8232043EA0273C5F8D8
:105690000036336813B12920FDF724F9034870BDA3
:1056A0000348FCE7641E0020009002400000AD0BA0
:1056B0000400AD0B38B50C4C94F8305095B9C4E9E2
:1056C000001248B90023C4E902330122074884F8D4
:1056D000302084F8383038BDFFF776FF034B98420E
:1056E000F9D1EFE70248F6E7641E00200000AD0B99
:1056F0000C00AD0B2DE9F843DFF8A090074699F8B0
:1057000030000128884614463DD199F838301F4EA4
:105710006BB31F4D0123C5F80833FFF71DFFB8F128
:10572000000F2BD14FF0000889F83980C5F80081AF
:10573000BB787A781B0343EA02233A781343FA785A
:1057400043EA42333A7943EA82337A7943EAC2330D
:10575000C5F83436FFF778FDB0420CD0C5F80081AB
:105760001CB178782146FFF75DFE0A4804E0FFF798
:1057700095FDB042CDD10548BDE8F8837878414623
:10578000FFF770FECEE70448F6E700BF0700AD0B59
:10579000009002400000AD0B0B00AD0B641E00201A
:1057A000034B93F838300BB9FFF778BD01487047C9
:1057B000641E00200C00AD0B08B5054B93F830308B
:1057C000012B03D1FFF7AEFE024808BD0248FCE7FB
:1057D000641E00200000AD0B0B00AD0B034B93F8D3
:1057E0003000003818BF0120704700BF641E002041
:1057F00038B511F0030539D11E4B1A68D2B193F8B0
:105800003040012C34D11C4AC2F81C150421C2F8C6
:10581000200583F8395083F83010C2F80051C2F8DF
:10582000044393F8383003F0FF00EBB9FFF736FD7F
:10583000124818E0104CC4F81C15C4F8200583F871
:10584000392093F8383043B10023C4F800310123E4
:10585000E360BDE83840FFF7F7BC0120FFF71EFD0D
:10586000074B9842F0D138BDD460E1E70548FAE72C
:105870000548F8E7641E0020009002400000AD0BD0
:105880000700AD0B0A00AD0B0B00AD0B10B5224BA2
:10589000D3F8002192B1214C0022C3F8002194F8E2
:1058A000381094F8302071B90121032A84F8381097
:1058B00005D0042A05D0022A00D1996010BD596094
:1058C000FCE7D960FAE7032A19D0042A19D0022A82
:1058D00004D1012384F82030FFF76EFDA36813B9CB
:1058E000012384F8303094F8393003F0FF0013B905
:1058F000D4E900319847002384F82030DEE7022302
:10590000E8E7032284F82020D3F81C256262D3F84C
:10591000203584F82830E1E700900240641E002022
:1059200038B5EFF31185202383F31288BFF36F8F0F
:10593000064B9C6803F045FE85F31188BFF36F8F1B
:105940002046BDE83840FCF763BF00BFA01E002022
:1059500038B5094B53F82040013053F82050A54288
:1059600000D838BD636823B1204603F02DFE08340B
:10597000F5E723689847FAE7709E000070B52B4B57
:105980002B4C2C4D012286B003201A70FFF7E0FF4C
:1059900003F083FF03F034FE0420FFF7D9FF26460F
:1059A000AE4204F1300410D300F0FCFB204C224E38
:1059B000AC4226D300F00AFCFBF73AFC1F4A137BEB
:1059C00023F00103137306B070BD54F80C3C05932B
:1059D00054F8103C049354F8143C039354F8183CC6
:1059E000029354F81C3C019354F8203C009354E972
:1059F0000A2354E90C0100F033FA54F8303C5E6598
:105A0000CDE7D4E90A23B3F1FF3F08BFB2F1FF3F6E
:105A100005D052EA0301206803D100F097FC30342E
:105A2000C6E73146183000F017FEF8E7B521002030
:105A30005C9B00005C9B0000E59700008802002052
:105A400008B50348034A0021121A03F0D5FD08BD2A
:105A5000A8010020B821002070B5144E144D15493E
:105A6000C02386B003FB006601220023CDE9042396
:105A70000F22CDE902320193182303FB00554FF4A6
:105A8000A072044602FB00110B4B0095304600F05B
:105A9000E7F9737B2C7423F004037373074BEE60F8
:105AA000013403EBC4236B6006B070BDC801002055
:105AB000A01E0020B8290020C1960000B8210020B7
:105AC000BFB50020FFF744FF2C4B83F308882C4D13
:105AD0002C4E6B692C4F43F400736B610024E02360
