:020000040000FA
:1000000010560020F1320000BD730000DD32000008
:10001000DD320000DD320000DD320000DD320000A4
:10002000000000000000000000000000C1330000DC
:10003000DD32000000000000DD320000DD32000093
:1000400005350000053500000535000005350000C8
:1000500005350000053500000535000005350000B8
:1000600005350000053500000535000005350000A8
:100070000535000005350000053500000535000098
:1004700005350000053500000535000000000000CE
:10048000000000000000000000000000000000006C
:10049000000000000000000000000000000000005C
:1004A000000000000000000000000000000000004C
:1004B000000000000000000000000000000000003C
:1004C000000000000000000000000000000000002C
:1004D000000000000000000000000000000000001C
:1004E000000000000000000000000000000000000C
:1004F00000000000000000000000000000000000FC
:1005000000000000000000000000000000000000EB
:1005100000000000000000000000000000000000DB
:1005200000000000000000000000000000000000CB
:1005300000000000000000000000000000000000BB
:1005400000000000000000000000000000000000AB
:10055000000000000000000000000000000000009B
:10056000000000000000000000000000000000008B
:10057000000000000000000000000000000000007B
:10058000000000000000000000000000000000006B
:10059000000000000000000000000000000000005B
:1005A000000000000000000000000000000000004B
:1005B000000000000000000000000000000000003B
:1005C000000000000000000000000000000000002B
:1005D000000000000000000000000000000000001B
:1005E000000000000000000000000000000000000B
:1005F00000000000000000000000000000000000FB
:10060000DEE61E284CBBCE8F023600003C00000008
:10061000D898000001000000000000000000000069
:10062000FFFF029100000000000000000000000039
:1006300000000000000000000000000053B94AB9AB
:10064000002908BF00281CBF4FF0FF314FF0FF30DA
:1006500000F00CB8ADF1080C6DE904CE00F008F81C
:10066000DDF804E0DDE9022304B07047704700BF05
:100670002DE9F04786468C460846089E1546744686
:100680001946002B40F0C1808542B2FA82F245D96A
:100690004AB1C2F1200300FA02FC954094402EFAC0
:1006A00003F343EA0C0C4FEA154EA8B2230CBCFB33
:1006B000FEF80EFB18CC08FB00F943EA0C43994501
:1006C00028D9EB1808F1FF3704D2994502D9A8F1CF
:1006D00002072B44A3EB0903A4B2B3FBFEFC0EFB01
:1006E0001C330CFB00F044EA0344A04214D92C193B
:1006F0000CF1FF3304D2A04202D9ACF102032C4426
:10070000241A43EA07401EB1D440002334607360CA
:10071000BDE8F0874746DDE76346F1E792BB431B40
:1007200001214FEA154EAFB2200CB3FBFEFC0EFBCD
:100730001C330CFB07F840EA0343984561D9EB18DA
:100740000CF1FF3004D2984502D9ACF102002B44E1
:10075000A3EB0803A4B2B3FBFEFC0EFB1C330CFBA3
:1007600007F744EA0344A7424DD92C190CF1FF3393
:1007700004D2A74202D9ACF102032C44E41B43EAA1
:100780000040C0E7C2F120039540944020FA03F1F5
:100790002EFA03F34FEA154E9040AFB20343B1FB7C
:1007A000FEFC0EFB1C10190C0CFB07F841EA004183
:1007B000884522D969180CF1FF3004D2884502D946
:1007C000ACF102002944A1EB08019BB2B1FBFEFC95
:1007D0000EFB1C110CFB07F743EA01439F420ED9A5
:1007E000EB180CF1FF3104D29F4202D9ACF10201A7
:1007F0002B44DB1B41EA004193E76046E3E7614697
:10080000F7E76046A4E76346B8E7834206D916B91E
:10081000002108467CE7C6E900E0F9E7B3FA83F770
:100820008FB9834201D3724508D8BEEB020460EB56
:10083000030301209C461EB9002169E73846FAE708
:10084000C6E9004CF8E7C7F1200CBB400EFA07F5EB
:1008500022FA0CF42EFA0CF1BA401C4320FA0CF3E5
:10086000B8404FEA144901431FFA84FEB3FBF9F87C
:1008700009FB18300B0C08FB0EFA43EA00439A45BB
:1008800040D9E31808F1FF3004D29A4502D9A8F103
:1008900002002344A3EB0A0389B2B3FBF9F809FB76
:1008A000183308FB0EFE41EA03418E452CD961182E
:1008B00008F1FF3304D28E4502D9A8F10203214486
:1008C00043EA0040A1EB0E01A0FB02984145CE4651
:1008D000434602D306D14D4504D20138B9EB020E8E
:1008E00068EB0403002EA7D0B5EB0E0261EB030109
:1008F00001FA0CFC22FA07F3F9404CEA0303C6E9BB
:10090000003199E74046C5E74346D9E77FB5354B07
:10091000354AC2F80036C2F80436C2F80836C2F8C2
:100920000C36C2F81036C2F81436C2F81836C2F8BF
:100930001C3602F58052C2F80036C2F80436C2F8FE
:100940000836C2F80C36C2F81036C2F81436C2F8AF
:100950001836C2F81C3600F04FF805F066F800F0C3
:1009600069F868B1214BD3F800360BB1DB0707D526
:10097000012000F057F801F029FF1D4802F0EEFABF
:1009800001A800F049FC1B4B1B68834208D00120E2
:1009900000F048F801F01AFF154802F0DFFAFEE710
:1009A00069469DF8080005F01FF8009B039C1C4455
:1009B000019B1D8900F0DAFF661900F0BBFF06F00D
:1009C000AEFD02F0DBFF02F0C3FC635983F308883D
:1009D000002383F31488BFF36F8FBFF36F8F7368A7
:1009E0009847FEE73546526E0080105000E01050E8
:1009F000F88F00005802002008B5084807F06BFD8A
:100A000058B14FF40031064804F0D9FFBDE8084062
:100A100000220721014804F0C2BF08BD388600004B
:100A20000890000002460721014804F0B8BF00BF4B
:100A30003886000037B50D4C204607F04CFD98B1C4
:100A40004FF480310A4804F0BAFF2569A3682046B4
:100A50005B6801A9984720B92B6801985840C0F3FA
:100A60000010003818BF012003B030BD1086000010
:100A70000090000021B1012906D06FF015007047E9
:100A8000044B53F830007047024B03EBC003586827
:100A9000704700BF109000002DE9F04F9B46D9B081
:100AA000764B039038A8DDE963890E461446659FAE
:100AB0001D6800F013FFB8F1000F07D0B9F1000F67
:100AC00004DD4A46414638A806F076F94FF00008A2
:100AD00033897289D6F80CA013449A44C2453DD894
:100AE00038A90CA806F08EF927B1202238460CA9A7
:100AF00006F0EBFC00232246009331464FF6FF73CD
:100B000006A804F093FF074628BB214603980B9ED6
:100B100005F08FF886421ED84FF0FF36DFF860B13F
:100B2000DFF860910DF1120304AA05A906A804F0EC
:100B3000CBFF00280FDB40F09A80059906A805F04E
:100B40000FF810BB4FF6FF71BDF812004E4A32F895
:100B5000023B8B4217D1494B1D688BE0629BAAEB8D
:100B60000809994528BF99465A464B4641462046B2
:100B700006F010FB0028EED14A46594638A806F088
:100B80001BF9C844AAE79842E1D1BDF81230102BF6
:100B900017D0222B4DD0012BC4D1BDF81030202B03
:100BA000D9D82046059938AA06F0F4FA0646002856
:100BB000D1D19DF810A0BAF1200F19D94FF0FF360E
:100BC000B0E7BDF81070202FC5D13B4620460599EF
:100BD00038AA06F0DFFA0028BDD13A4638A90CA899
:100BE00004F0F8FFDBF800308342B4D1012799E725
:100BF000D9F80030DFF894800393039B9E42DDDA3E
:100C00001CA800F06BFED8F804201CA8126858F845
:100C1000081B06F0D1F81CA914A806F0F3F85246F8
:100C200038A914A806F02AFC00283FF47BAF01364F
:100C3000E3E7731C3FF476AFD9F80030B342BDDD73
:100C4000BDF81030802B86D82046059938AA06F0CA
:100C5000A1FA00287FF47FAFF6B22021BDF8103052
:100C6000009638AA0CA800F013F80546A6E7002F56
:100C70003FF471AF284659B0BDE8F08F0400002062
:100C80005802002018900000389400001C900000CA
:100C90002DE9F04798B016461D469DF88020394B47
:100CA000074653F8321003EBC2035B6803911868E0
:100CB000DFF8D4800144302304AA03A8D8F80090B8
:100CC00005F033FA002849D1DDE903431C442146ED
:100CD00008AB05AA03A805F050FA00283ED1069AF1
:100CE000072A3BD12949079806F0C8FB002835D1CF
:100CF000099A082A32D126490A9806F0BFFB68BB38
:100D0000214604AA03A805F024FA38BBDDE903A3B1
:100D10000AEB0302944221D1412B1FD135443023E9
:100D2000294605AA04A8049605F0FFF9A0B9DDE953
:100D3000043213449D420FD32A4604A908A804F0A4
:100D40001DFF48B92A4604A910A804F017FF18B9D6
:100D50009AF80030042B05D0D8F80090484618B017
:100D6000BDE8F08700F0CCFC20220090394608ABAB
:100D70000AF1010005F0BDFE0128EDD1054BD3F8C5
:100D80000090EBE71C900000040000206F9400002E
:100D90006694000058020020094A40000B7852F87F
:100DA00020108B4209D0013052F82000834214BF3A
:100DB0004FF0FF304FF4407070474FF44070704771
:100DC000249000001FB5582303FB0100046A102380
:100DD000A1686A462046103906F0DCF938B91022BD
:100DE0006846044906F04AFB204604B010BD0024C2
:100DF000FAE700BF569400002DE9FF412C2707FBBE
:100E000001073D6A0446284690460E4606F00BFA56
:100E10007B1EFA1C13F8011F81421CD19A42F9D1A2
:100E20005EB12946204604F0DEFF98F80730042B17
:100E300008D12046216A04F0D6FF1F4B186804B081
:100E4000BDE8F081002003F079FB0428F5D1F0E73C
:100E50001A4B186823E02C237343E1180869C20673
:100E6000DED4E258164B9A42F2D1CA680B899B181D
:100E7000EED24A89D218EBD2AB689A42E8D240F659
:100E80000C630340E4D1CDE9023301934FF4807346
:100E90002A460093394620460A4BFFF7FDFD0A4BD0
:100EA0001B688342CBD0002EC7D000212846AA68F9
:100EB00006F09AF9C1E700BF0000002004000020FE
:100EC0003DB8F396221C00205802002073B50D4651
:100ED000002104462846CDE9001104F043FFE8B1A3
:100EE0002368164EB34203D1204601AA04F0B1FE96
:100EF000E36AB34204D16A460121204604F0A9FE08
:100F0000DDE90032934288BF0193019BAB60294623
:100F10002046019A00F046FA02B070BD0146204614
:100F2000FFF750FF064605F1080104F065FEAB68C7
:100F30003046019306F02DF9E9E700BF3DB8F3967E
:100F40002DE9F84F884691469A460026DFF88CB086
:100F5000234C244D0B9B9E4201D300200FE00B9BA2
:100F600040469F1BB7F5806F28BF4FF480671B4A30
:100F70003B4606EB0A0106F00DF910B10120BDE871
:100F8000F88F0A993B465A464846711806F017F9F9
:100F90000028F3D1144B3E44C3F80046C3F804467E
:100FA000C3F80846C3F80C46C3F81046C3F8144605
:100FB000C3F81846C3F81C46C5F80046C5F80446F1
:100FC000C5F80846C5F80C46C5F81046C5F81446DD
:100FD000C5F81846C5F81C46BCE700BF5C020020F7
:100FE0003546526E0090105000801050F0B50E46FD
:100FF0000021854B0446436203F5006387B0036517
:101000000846FFF737FD04F12001C0B201F0FAFAFB
:10101000002858D10121FFF72DFD04F14C01C0B289
:1010200001F0F0FA00284ED1204604F070FE0028AE
:101030004AD100222046114604F053FE00285AD11E
:10104000204604F0D3FF002855D002A804F081FE0A
:101050000146204604F012FF00284CD102A804F0FB
:1010600081FE80F0010102AA2046C9B204F039FED7
:10107000024600283FD102A804F074FE0546F0BBEA
:10108000204602A9FFF722FF9DF80F3084F8583060
:10109000033B012B06D8284600F0E4F810B1FF23EB
:1010A00084F858309DF80F30023B022B06D8002000
:1010B00000F0C2F810B1FF2384F8583094F858308B
:1010C000FF2B13D1FEE7FEE70123984284F8583046
:1010D000AFD194F85830042B8DF80F3039D8012B4C
:1010E0003DD84FD0FF2384F858304BE000222046F3
:1010F000114604F0F6FD012384F85830E9E79DF825
:101100000F70012F18D1104603F018FA831E022B1E
:1011100005460ED83946204602AAFFF76DFE3B4B26
:101120001B68984205D03A4B1D68A84214BF05259C
:10113000012584F85850CCE70121204602AAFFF788
:101140005BFE324B1B68984214BF05239DF80F309D
:10115000D2E7052BC6D1002000F084F810E020462D
:1011600002A9FFF7B3FE94F85830DA1E012A0ED810
:10117000002000F077F80028B4D1002000F05CF8DF
:101180000028AFD194F85830FF2B03D1FEE7022B93
:10119000F8D1F2E70022012B1E4D019213D0114627
:1011A000204604F09EFD70B12D681022002102A897
:1011B00006F096F9E06C05F0ECFF206A05F0E9FF17
:1011C000284607B0F0BD002220461146FFF714FE66
:1011D0000E4F3B688342E7D12A689A42E4D00C4A1A
:1011E00012689A42E0D0019B01330193019B012BCD
:1011F00000D0FEE7206A04F0FDFB3071236A5B68D3
:1012000034603D68B360D0E75C06002058020020DF
:10121000000000200400002038B5064D044660227E
:101220000021284606F05CF921462846FFF7DEFE3D
:1012300038BD00BF5C16002013B5094B01A913F897
:10124000300001F0DFF948B9019806F003FD0446CB
:10125000019805F09EFF204602B010BD0124FAE778
:101260002C9000001FB50F4B01A913F8300001F0BE
:10127000C9F9A8B9019802A903F00AF9044668B9A6
:101280009DF80B30032B03D1019806F0B1FC044606
:10129000019805F07EFF204604B010BD0124F7E759
:1012A0000124F8E72C9000002DE9F34106460C4696
:1012B00017461D460BB9002121E0184604F052FDE7
:1012C00001460028F7D13046FFF77CFD18B9012010
:1012D00002B0BDE8F08101A904F08EFC0028F6D12F
:1012E0000199304604F017FE736A59686B79012B37
:1012F00018D1002CDFD12B68834298BF00212C230A
:1013000003FB04663A462023306A05F043FF0028B9
:10131000DDD1002DDCD038680D4BC01A18BF4FF05E
:10132000FF30D5E7022BC6D12B68012B05D98342AC
:10133000C1D8B4FA84F46409BDE7BCD1002CDED076
:10134000012CB8D12C79023C18BF0124B3E700BFAF
:101350003DB8F39673B54B681446114A03F0FF236A
:10136000934206460D4618D10B68012B15D16946EC
:10137000204603F08DF89DF80030032B0DD1214657
:10138000304604F030FD204606F032FC2046A968C5
:1013900004F040FC204603F05BF802B070BD00BFD3
:1013A000000100042DE9F04F054689B00C461146B6
:1013B00004F0B1FD6B6A039020465E6804F0D2FC35
:1013C00090B1E86D04F008FC0022AB6A013B3244A6
:1013D000904201D9013BFAE7039A934204D80123D2
:1013E000E37109B0BDE8F08F06A9022001F00AF907
:1013F00007A9052001F006F921462846079AFFF7BC
:10140000A9FF6379012B4BD1039FDFF858B141E06D
:1014100022680399C2F101030B44BB4239D36B6AC2
:10142000012A196853F8370003EBC70353F8083C47
:10143000A0EB0109A3EB010A11D1079B0493E36818
:10144000022B08D04146284604F0CDFC22464146F6
:10145000284604F0F4FC2846049904F0C4FC324603
:101460004946404604F0BDFC5346424641462846A4
:10147000CDE90096FFF764FD2146284604F07FFC85
:1014800023680133236020B1DBF800300133CBF84F
:101490000030013FDDF81880002FB9D1012323600F
:1014A000022301276371039BDDF818909F4206D940
:1014B000484605F06EFE079805F06BFE91E723683D
:1014C000BB424DD86A6AFB0052F83710083BD2F88D
:1014D00000B00491D1582A6DDDF81CA0D0581368D3
:1014E000A0EB03082379012B38D1A1EB0B01324685
:1014F0004846059104F075FC059943464A4600911B
:10150000284651460196FFF71BFD2146284604F068
:1015100036FC0223237118B1124A13680133136099
:1015200032464146504604F05CFC049B5246A3EB15
:101530000B0349462846CDE90086FFF701FD214609
:10154000284604F01CFC2368013323600123237127
:1015500030B1044A13680133136001E0022BDFD07D
:101560000137A0E7BC1600200A4619B1024B002142
:101570001B681847704700BF080000200822F0B51C
:1015800089B004F036FFCB6A002703930B6B0C463F
:1015900004934B6B064605938B6BCDE9017706935D
:1015A000CB6B0097079313466A461146104604F02A
:1015B0002EFE31460546304604F029FE216B0544D7
:1015C0000391616B10460491A16B0591E16BCDE92C
:1015D0000617114604F01BFE31460544304604F060
:1015E00016FE0544206ACDE904770090606A0397EF
:1015F0000190A06A0290A06B0690E06B07903046C5
:1016000004F005FE0544606AD4F838C00090A06A72
:10161000CDF810C00190E06AD4F83CC00290606B35
:10162000CDE905C00390206A0790304604F0EFFD35
:101630000544E06ACDE904770090206B03970190A0
:10164000606B0290206A0690A06A0790304604F012
:1016500003FF236B2D1A0093636B30460193A36B3A
:101660000293E36B0393636A0693E36A0793082389
:1016700004F0F2FE636B2D1A0093A36B30460193C6
:10168000E36B0293236A0393636A0493A36ACDE92D
:101690000537236B0793082304F0DEFEA36B2D1A96
:1016A0000093E36B3046CDE90137636A0393A36A85
:1016B0000493E36A0593636B0793082304F0CCFE5D
:1016C0002D1A10D40D4C35B908223146204604F0AD
:1016D0009CFE01280FD0082322463146304604F0F4
:1016E000BBFE2D1AEFE7054A08233146304604F0C9
:1016F0008EFD2D18F8D409B0F0BD00BF3890000061
:1017000000487047349000002DE9F04F002703682F
:101710009DB002934368DFF8BCA103938368DDE9C1
:1017200002460493C36805930369DDE904BE06938A
:10173000436907938369DDE9062C0893C3699846DA
:101740000993089B0093CD590CAB2DBA5AF8049B12
:10175000DD514FEAF223A94483EAB213009D83EAE4
:1017600072634B4425EA020502EA0C0985EA090581
:101770002B44434486EA0B054FEA743888EAB408E0
:10178000254006EA0B0985EA090588EAB4580437BA
:10179000A844402F03EB0E054344DE46DDF80080ED
:1017A00040F088804FF0100A4B490A9151460AF1E7
:1017B000010A0DF1700E0AF00F070EEB870757F8BC
:1017C000407C01F00F094FEAB748019788EAF71803
:1017D00001F10E0707F00F070EEB870757F8407C63
:1017E00009314FEAF74E8EEA774ECDF82CE001F042
:1017F0000F010DF1700E0EEB81010EEB890959F806
:1018000040EC51F8401CBAF1400F7144DDF804E09F
:1018100088EADE08DDF82CE041448EEA972E714418
:1018200005EA02084FEAF52E2CEA050787EA0807C1
:101830008EEAB51EDDF828808EEA756E774458F87A
:1018400004EF49F8401C77440F4400994FEA733E77
:10185000394484EA0607CDF828808EEAB30E07EAF9
:10186000030704EA06088EEAB35E87EA08077744AE
:101870000F4401EB0B0ECDF800C0B34622D1029904
:101880003944016003991944049B416023448360F7
:10189000059B3344C360069B73440361079B2B4441
:1018A0004361089B13448361099B6344C3611DB07A
:1018B000BDE8F08FB346CDF800C0264694461C46DE
:1018C0002A4640E7944626462A461C4675463B462D
:1018D0006CE700BFE49000002091000010B50446C2
:1018E000C8B17022002105F0EAFA0B4B0B4A0C49F3
:1018F000C4E900230B4B0C48C4E902130B4BC4E9A9
:10190000040301200A4BA36103F17453A3F52303DD
:10191000A3F69243E36110BD85AE67BB67E6096A33
:1019200072F36E3C3AF54FA57F520E518C68059BC1
:10193000ABD9831FBFF36F8F72B600234FF0FF3018
:10194000094A03F120010133102B42F82100F8D19C
:1019500000234FF0FF30044A03F160010133102BE4
:1019600042F82100F8D1704700E100E0F8B54FF0EF
:10197000FF3600250127184CC620C4F8086301F083
:101980003FFDE762C4F85051D4F85031C4F84C51CF
:10199000D4F84C31C4F82451D4F82431C4F800559B
:1019A00004F578344FF48270C4F8086301F028FD20
:1019B000E762C4F85051D4F85031C4F84C51D4F80F
:1019C0004C31C4F82451D4F82431044BC4F80055E8
:1019D000C3F80863F8BD00BF00600C5000E0105071
:1019E000014B1B68184700BF0C00002007B50B46D1
:1019F000002102460091034800F006F803B05DF8AC
:101A000004FB00BFE11900002DE9F04F82461746A4
:101A10001C46002595B00391387808B928465FE345
:101A2000252809D00399D0470028C0F259837B1C90
:101A300001350493049FEFE7182200210EA805F05A
:101A40004FFD7B78252B7DD0002398469E469C46F3
:101A50001E46781C014610F8012B2B2A00F0A180AD
:101A600000F29880202A00F09F80232A00F09F80B7
:101A70002BB19DF8403043F040038DF84030B8F171
:101A8000000F05D09DF8403043F020038DF8403022
:101A9000BEF1000F05D09DF8403043F010038DF8E3
:101AA0004030BCF1000F05D09DF8403043F00803F2
:101AB0008DF840302EB19DF8403043F004038DF88E
:101AC00040309DF8403003F04400442803D16FF3C8
:101AD00086138DF840309DF840302A2A43F0800369
:101AE0008DF840307FD19DF841204B1C42F001021F
:101AF0008DF841201A782E2A0CBF012100219DF873
:101B0000412061F341028DF8412078D15A782A2A88
:101B10006ED000224FF00A0C0133194611F8010B68
:101B2000A0F13006092E40F295809DF840101292E7
:101B3000C1F3400040EAD2700A4660F341028DF8DA
:101B400040205CE08DF84330BB1C04939DF841308D
:101B5000DA0740F12E8154F8048BB8F1000F07DA50
:101B60009DF84020C8F1000842F004028DF84020A2
:101B70005E0740F1278154F804BBBBF1000F80F2EF
:101B800026819DF841306FF341038DF841304FF0CD
:101B9000FF3B1CE12D2A0DD0302A7FF469AF0123D1
:101BA00058E74FF0010C55E74FF0010E52E74FF0A8
:101BB00001084FE701264DE703460EFB0262303A6B
:101BC000184610F8016BA6F1300CBCF1090FF3D9DF
:101BD00099428FD09DF840101192D20F62F34101CB
:101BE0008DF8401086E70B4600224FF00A0EE7E71B
:101BF0009DF84120023342F004028DF841201A780A
:101C00006C2A47D02BD8682A31D06A2A4BD04C2A6C
:101C100051D01A4612F8013B782B04928DF84330CC
:101C20009DF8412000F2BE806D2B51D8692B00F247
:101C3000B980572B67D8412B03D0453B022B00F2CC
:101C4000B18004229DF8423062F302038DF84230E5
:101C5000012373E00CFB02020B46303A5DE7742A65
:101C600025D07A2AD5D106219DF841200CE05A785A
:101C7000682A9DF8412006D1012161F3C6028DF842
:101C800041200233C5E7022161F3C6028DF84120ED
:101C90000133BEE75A786C2A9DF8412001D1042116
:101CA000EBE70321F0E705219DF84120ECE7072150
:101CB0009DF84120E8E7BDF8402022F4F04222F0F0
:101CC000020242F4804242F00202ADF84020DFE717
:101CD0006E3BD9B201238B4040F282410B4237D197
:101CE00013F0240F51D1D8075CD503219DF8423061
:101CF00061F302038DF8423002F07803A3F1400152
:101D00004B424B411AE00120A3F15801C9B200FA3D
:101D100001F111F4624F94D140F6010631421DD118
:101D200011F4043F3ED09DF8423060F3020302F00C
:101D30007802402A8DF8423034D000239DF84020AC
:101D4000C2F340010B4363F341028DF84020FDE6EE
:101D500002219DF8423061F30203E8E702209DF87A
:101D6000421002F0780260F30201402A8DF842101E
:101D700002BF9DF8401041F001018DF84010632B27
:101D8000DBD1131E18BF0123D8E703219DF8423091
:101D900012F0780F61F302038DF8423014BF012373
:101DA0000023CBE79DF8403043F001038DF840302D
:101DB000C3E79DF94020002AACBF4FF0FF38DDF8A3
:101DC0004480D5E698077FF5E2AEDDF848B0002301
:101DD000CDE911339DF842309DF8411003F007031F
:101DE000012BC1F3C30132D1CB1E042B04D8DFE891
:101DF00003F0204545202000236801294FEAE372C3
:101E0000CDE90E321BD19DF93830DA17CDE90E320B
:101E100004349DF8403013F003064FD03A46504644
:101E2000049B039905F0C6F80028C0F259810544C7
:101E300000E654F8043BDA17CDE90E32E9E702294F
:101E4000E6D11AB243F3C033CDE90E23E0E7022B0B
:101E500024D1CB1E042B04D8DFE803F0181010188F
:101E6000180001294FF0000254F8043B14D0022955
:101E7000CDE90E32CDD19BB20E93CAE7073424F0E0
:101E80000704F4E80223CDE90E23C2E754F8043B2B
:101E90000E9300230F93BCE7DBB2CDE7042B08D1F0
:101EA000073424F00704D4E900230834CDE90E23D5
:101EB000AFE7032BADD154F8043BDDE79DF84300B9
:101EC00078283FF6B7AD62281DD825284ED058286F
:101ED0007FF4B0ADDDE90E010DF13603009310AAD9
:101EE00008AB05F01FF8BBF1000F074680F2C18078
:101EF000002F3FF49FAD0DF13609A9EB0700002E2E
:101F000049D0013047E0633815283FF693AD01A270
:101F100052F820F03720000049200000351A000058
:101F2000351A0000351A0000351A0000492000005B
:101F3000351A0000351A0000351A0000351A000065
:101F4000932000006D200000F71F0000351A0000EC
:101F5000351A00007B1F0000351A00006D200000BC
:101F6000351A0000351A00006D2000000399D04793
:101F70000028C0F2B58001355CE5BBF1000F0E9F73
:101F800035DB5946384605F0C1FA07EB0009002F4A
:101F90003FF450AD00269DF8423013F01002059238
:101FA00000F0918002305B06DDF844B048BF129B20
:101FB000584448BFC018B8F1000F40F39E809DF808
:101FC0004020A8EB0008C2F380035007069300F1FD
:101FD0009480510640F187803EB130460399D04746
:101FE00000287DDB069B01351E4630227CE038460A
:101FF00005F03DFAC9E70E9800285ED00DF13609CC
:1020000008AB0021CDF8009010AA04F08BFFBDF8BA
:102010004230BBF1000F03F0EF0343F4F04343F011
:1020200010030746ADF8423022DA00283FF402AD33
:10203000A9EB0000AEE70E9B002601208DF82030B2
:1020400008AF0DF12109A6E719075ABFC3F3001322
:102050005E012B26DDE90E23002BBFF63BAF52427B
:1020600063EB43032D26CDE90E2333E7002631E74A
:1020700000269DF840200DF13603DB1B6FF386121E
:102080009B458DF840207FF633AFABEB03031193F4
:102090002EE70E9B07293FF6CDACDFE801F00C04DC
:1020A000060C08080C0C1D70C4E41D80C2E4EA177D
:1020B000C3E90052BEE41D60BCE42F4F064607F1A1
:1020C0000509052067E71A0748BF01306BE710468E
:1020D000079306920399D047DDE90623002804DA26
:1020E00015B0BDE8F08F202243461946002903F1C0
:1020F000FF33ECDC454498466D1A2EB13046039907
:10210000D0470028ECDB01359DF84230DA0601D4D7
:102110001B0705D530200399D0470028E0DB0135A7
:10212000059B33B103999DF84300D0470028D7DBC6
:102130000135AB4405E030200399D0470028CFDBC0
:102140000135ABEB0503002BF5DC4B463A46504618
:10215000039904F02FFF0028C2DB0544A844A8EB34
:102160000503002B7FF766AC20200399D047002899
:10217000B6DB0135F3E700BFD294000008B5EFF3FA
:102180001183202383F31288BFF36F8F01F0DCFBF0
:10219000024804F0BAFE05F02CF9FCE7D8940000E0
:1021A0002DE9F043079D15B91560002012E00324C6
:1021B000B5FBF4F404EB4407BD4218BF0134B4F19D
:1021C000804F09D2A40001348C4200D838B96FF096
:1021D0000B001460BDE8F0834FF0FF34F7E70446CE
:1021E0000021DFF8B4E0B94203F1030C04F1040666
:1021F0002BD3A942274623D201F1010CAC451F780D
:1022000028BF002324494FEAA70E38BF5B7811F896
:102210000EE0AC4584F800E001EB131E2EBF3D2319
:102220009B0003F03C034FEA071738BFCB5C07F075
:1022300030071EF80770A3703D2367703746E370C0
:102240000023381A10603B70AFE71CF8034C1CF8F1
:10225000023C4FEAA4091EF8099024011CF8018CE5
:1022600004F0300406F8049C0EEB131919F804402E
:102270009B0006F8034C03F03C030EEB9814E35C60
:1022800008F03F0806F8023C1EF80830344606F80D
:10229000013C03316346A6E7819500002DE9F04338
:1022A00000273C463D46DDF81CE0DFF828817545F7
:1022B0001FD3E4BB00201460BDE8F08301367645EF
:1022C00033D013F806C0BCF1200FF7D0AEEB0609EF
:1022D000B9F1010FA6EB05050DD0BCF10D0F0AD128
:1022E00003EB060999F80190B9F10A0F6ED1751C3C
:1022F000DDE72E46E3E7BCF10A0FF8D02DB9BCF1BB
:102300003D0F05D10137022F0DD96FF01500D3E72E
:102310001CF0800FF9D118F80C507F2DF5D03F2D0F
:1023200001D8002FF1D10134E1E73546C1E74FF084
:10233000060C04F00706E4080CFB06F60CFB04F49C
:102340000736E41B04EBD60470B18C420CD800278E
:10235000014603263C46DFF87CE0DFF87C801D4424
:102360009D4205D10C1AA5E76FF00B001460A3E79E
:1023700013F8019BA9F10A0C5FFA8CFCBCF1160F53
:1023800004D848FA0CFC1CF0010FE9D01EF809C073
:102390000134BCF1400F08BF013E0CF03F0C042C8F
:1023A0004CEA8717DCD17EB13C0C012E0C7002D1B7
:1023B00001310024D4E7022E4FEA17244C7016BFD7
:1023C0008F7002310331F4E73446C9E7002DA2D003
:1023D0009BE700BF01950000F6FFBFFF2DE9F04726
:1023E000058B04462807904611D4022905F00705FD
:1023F00040F0CC80204604F0F4FD78B10138218B08
:10240000042811D8DFE800F0C2106D85950001297D
:102410000CBF45F0100545F02005258388F3118891
:10242000BFF36F8FBDE8F08701F0070AAA4500F0FF
:10243000A5800027B9463E46A368002B00F0BC806B
:1024400041F00801218388F31188BFF36F8FA168E1
:10245000002900F0BA800D68002900F0B6803346EC
:1024600052462046D1F80480C047002D76D02B6814
:1024700029461D46F0E701F007035A1F012A1BD821
:10248000002221F00701062B276889B2C4E9002247
:1024900009D13B4603E0628B013262831B68002B4B
:1024A000F9D141F002012046218304F09AFD002871
:1024B0007AD041F0200176E0042B0AD121F0070107
:1024C00089B22046218304F08CFD10B141F0200137
:1024D0002183218B01F0070AAA454FD00027B94676
:1024E000AAE7236921F0070141F00601062DD3F880
:1024F000009021832DD1B9F1000F3FD041F00801A8
:10250000218388F31188BFF36F8F20463949C8476C
:1025100029E021F00701236941F0040189B2042D6B
:10252000D3F804902183E6D000274FF0040A3E46FA
:1025300082E721F00701236941F0050189B2052DE9
:10254000D3F808902183D6D000274FF0050A3E46E5
:1025500072E700274FF0060A3E466DE72B4687E7F5
:10256000B9F1000FD1D1EFF31188202383F3128842
:10257000BFF36F8F238B23F008032383258BEA0699
:102580002ED525F01003238305F007056669218BFE
:10259000002EBFF670AF00232768C4E9003321F096
:1025A000070141F001012183218B4FF0000901F067
:1025B000070AAA457FF440AF002F9CD041F00801E4
:1025C000218388F31188BFF36F8F002FC8D03D6837
:1025D000394633465246204604F02FFD2F46F4E795
:1025E000AB067FF51BAF25F02003238305F007051D
:1025F00000E700BF67700000014B036000207047D8
:10260000E891000070B5104B0D461C68B4B10F4B3B
:10261000196800238B4202DB6FF0010070BD224677
:1026200012F8106B864202D014460133F2E7E068DC
:1026300005F051FF28B100202C60EFE76FF00C008F
:10264000ECE76FF01200E9E710000020E8910000CD
:1026500010B5436888B0029383680C46CDE9033215
:1026600000230A68C068CDE90623054901AA05933D
:1026700005F013F8079808B9059B236008B010BD52
:1026800035720000F7B5224E30688368DB6B03B10A
:10269000984730688368DB6A002B31D11D4C1E4D92
:1026A000306883681B69002B2DD001220DF10701D2
:1026B0009847012827D1236843B92B681BB3696861
:1026C0001A688B422A6008BF6A602360134A9DF82B
:1026D000070011887F2904D823684F1C0B441780FA
:1026E00018720A28DCD1002023681188186059600C
:1026F0000B494D684DB9C1E9003310802060CEE729
:1027000098470028CAD103B0F0BD2B604B60F4E7B6
:10271000181B0020C0160020D0160020201C00200E
:10272000C816002010B5044B044618688368E1B24F
:102730005B689847204610BD181B0020F8B5054679
:1027400016460846EFF31187202383F31288BFF360
:102750006F8F1B490B684BB11A4C62689A4205D0C7
:1027600000221A60626862B9C4E90033164A13682D
:1027700053B987F31188BFF36F8F18460B6033602E
:10278000F8BD13606360F1E7D2F804C01C686345CC
:10279000146008BF546087F31188BFF36F8F5C68C3
:1027A0000B60A042D8BF00F1FF3403F108012246BC
:1027B000284604F08AFE0023601C2B550123DEE727
:1027C000C4160020D0160020C8160020002313B520
:1027D0001C462049204AC1E90033C2E900331F4AA0
:1027E0004868146020BBC1E900220133082B02F1C4
:1027F0008802F5D11A4C1B48206005F06CFE28B306
:102800002068836823B11B6C13B1002216499847D6
:1028100020688368DB6A0BB1984760B120688368E1
:102820001B69002BFAD001220DF107019847F4E74C
:1028300002604A60D9E700220C4B20681A80836846
:102840001B6A03B19847002002B010BD4FF0FF3063
:10285000FAE700BFD0160020C8160020D8160020C6
:10286000181B00207486000085260000201C002014
:1028700041F204432DE9F043DBB0ADF80C3040F6F3
:1028800006130025ADF81030DFF80891424BD9F857
:1028900000101B68414E4D70A3EB06080B782846CC
:1028A0005A1C62F302030B7098FA98F34B808B88E2
:1028B00008225BBA8B8004F012FB31464246ADF829
:1028C000140004F00CFB02271FFA88F440BA04F14C
:1028D0000A035BBA0222ADF814000DF1160107A835
:1028E000ADF8163004F0F1FD0822D9F800100DF112
:1028F0001E00ADF8167004F0E8FDBDF8160007AB39
:10290000083080B231464246ADF81600184404F053
:10291000DCFDBDF816303A461C44A0B22C4607AB8D
:10292000ADF8160005A9184404F0CFFDBDF8163027
:10293000BD213B449BB2ADF81630009306AA07AB0D
:102940002AA8FFF72DFC069B154E164FADF8163042
:10295000BDF81630A34202DC5BB0BDE8F0833368FB
:1029600002215B68A4B904A89847BDF816503368E3
:102970002D1B7C2DA8BF7C252AAA101929465B682F
:1029800098473368012138465B682C449847DFE755
:1029900003A8E9E77C1B0020341B0020221D002037
:1029A000801B0020D996000038B505460A4C0A2144
:1029B000204605F077FD02222046084905F065FD16
:1029C0002946204605F04AFD20460A2105F072FD01
:1029D000BDE83840FFF74CBF341B0020C195000014
:1029E0002DE9F0474FF0FF34D4B00B460594069420
:1029F0000794012100240AAD0246C5E9004430A82D
:102A00000091CDE9014404210894099405F05AFA93
:102A10004022214620A804F063FD8A4B03211C9329
:102A2000052304221D93884B0DF11809CDE91E39A9
:102A3000864B87482193874B05AFCDE92335864BDD
:102A400007AE2693854BCDE92B01CDE92836CDE99C
:102A50002D37279109AB1CA930A8229204F052FC13
:102A600020B303240A217E4805F01CFD7D49022283
:102A70007B4805F00AFD2146794805F0EFFC4CB98A
:102A800073490322764805F000FD774B74481968B6
:102A900005F0EEFC0A21724805F00CFDFFF7E8FE98
:102AA000089804F076FB54B0BDE8F0873B68D5E9A0
:102AB00000845A1CD5D0B8F1000FD2D06B4A33B97C
:102AC000D9F80010B1F1FF3F18BF0B461360002189
:102AD0001068FDF7CFFF08A9C0B2FFF793FD0028EB
:102AE000BFD13B68604D002B47D1089F2B60384613
:102AF000D7F8089003F075F85D4A0146384602F0B1
:102B00007BFF002840F09C8033684B45A9D8594A88
:102B10001060594A13602A68564E2244316808985A
:102B2000013A04F0D0FB002830609ADB089804F0EA
:102B300073FBB4FBF0F303FB1046DFF83C912B680A
:102B4000A71B1C44D9F8003008989C4238BF0026C7
:102B500004F062FB012806D9089804F05DFB0138F7
:102B600018EA000F4AD13B4642462968089804F00B
:102B700026FB00287FF475AF2FE02A68934201D02E
:102B800000246FE73C4A234412689342C3D968E7A4
:102B9000BA45089828BFBA4604F045FB40220146D2
:102BA0000CA804F09DFC524641460CA804F08DFC94
:102BB0005346296808980CAA04F001FB0446002833
:102BC0007FF450AF2B68D04453442B60A7EB0A0727
:102BD000089804F021FBB842DAD996B92B68D9F8E5
:102BE000002033443B4493422B60C9D1204B0898CA
:102BF0001A68114604F067FBC40F33E74FF0400A30
:102C0000E6E7089804F00FFB102201460CA804F038
:102C100067FC324608EB07010CA804F056FCDDF80F
:102C20002080296840467C1804F0F6FA21460346C5
:102C30000CAA404604F0C3FA00287FF412AFCDE797
:102C400001240FE7C4950000B3810000CA9500007D
:102C5000D3950000BD810000CF950000B981000030
:102C6000341B0020C19500002C1B0020301B0020CD
:102C7000241B0020201B00201C1B0020F0B50C682A
:102C8000164F85B002380D46C4F580610090144B94
:102C9000381903AA0131FFF701FB0446D0B92B68AC
:102CA000039A1344022B2B6011D93E88023B76BA5B
:102CB000B6B29E420BD13246B91C04F010F930B9BD
:102CC000022E04D92B689A1E2A60FC540124204647
:102CD00005B0F0BD4FF0FF34F9E700BFA31D0020A1
:102CE000A6210020002307B502210093034A802378
:102CF000034805F0E1FB03B05DF804FB221D002052
:102D0000341B00202DE9F04307290446B3B06AD9EB
:102D1000037813F0050F66D14388A1F108055BBA6B
:102D20009BB2AB425FD3814B00F1080618608388E9
:102D30005BBA8380FFF7D6FFA088012840F0998016
:102D4000E37943B1012B00F08D80082033B0BDE85A
:102D5000F043FFF729BE247814F00704F5D10146AB
:102D6000734805F09FFB06227249714805F08DFB00
:102D700005216F4805F092FB6F4E704FDFF8C08160
:102D800021460020D6F80090FDF774FE04A9C0B2D9
:102D9000FFF738FC0546D8B92023014606AA049857
:102DA00004F0F8F9069BBB420BD140232846009360
:102DB000CDE90255049A01950EAB06A9FDF76CFE0C
:102DC0008146D8F8003004984B4511D004F0E1F961
:102DD00064B10521564805F069FB0121544805F00E
:102DE00069FBFFF745FD33B0BDE8F0830124C7E779
:102DF00004F0CFF914214E4805F054FB0422514948
:102E00004B4805F042FB2146494805F031FB0722BB
:102E10004D49474805F039FBBDF82E30402101935C
:102E20009DF82D30494A00930EA89DF82C3000F0F3
:102E300005FD0C9B4BB1421E3E2A06D80EADC0F1DB
:102E40004001434A284400F0F9FC0EA804F00FFBAF
:102E50000EA90246364805F018FB1421344805F047
:102E600029FBB5E72946304633B0BDE8F043FFF70C
:102E7000B7BD00287FF469AFE379012B3FF466AF5B
:102E8000052B4BD0002B7FF460AFCDE90433CDE9A7
:102E9000013301230EA8009332462B46042105F08E
:102EA00011F80EA805F090F9002835D006A90EA853
:102EB00005F087F980B3079C012C21D1069B1B7874
:102EC000642B1DD104A90EA805F07BF920B30EA830
:102ED00005F0A3F900B30A21154805F0E3FA1D49EE
:102EE0002246134805F0D1FA114804A905F0CAFAA0
:102EF00058B90224FFF7F6FE2046FFF755FD72E7AA
:102F000000210EA805F0A0F9CEE70A21084805F037
:102F1000D1FA0028EDD064E70324EBE7FFF744FD86
:102F20000D4805F0D3FA0120FFF728F97C1B00209B
:102F3000341B0020D7950000040000203DB8F39614
:102F400058020020DE950000E3950000EB9500009C
:102F5000F7950000FB95000090D0030001232DE9B8
:102F6000F34700258146DFF8E080384E88F80030CE
:102F7000374B384C384F0095186004F03AFADFF8B8
:102F8000DCA0C6F80046C5F58061C6F80446C6F860
:102F90000846C6F80C46C6F81046C6F81446C6F8E9
:102FA0001846C6F81C46C7F80046C7F80446C7F8D6
:102FB0000846C7F80C46C7F81046C7F81446C7F8C5
:102FC0001846C7F81C46D9F8003001AA01310AEBAF
:102FD000050098470028019B00DC7BB305445BB9E2
:102FE00040F201439D4224D198F8003013B902B059
:102FF000BDE8F0870025C2E79AF80030062B0AD119
:103000009AF80130092B0CD1002300936946A81EC1
:10301000FFF734FE05E0042B03D19AF80130142B9E
:10302000F4D00128E0D100990D480239FFF76AFE7B
:10303000DAE798F80030002BA1D1D8E798F80030F3
:10304000002B9AD1D3E700BFA21D002000801050B2
:10305000801B00203546526E00901050A4210020A5
:10306000A51D002030BFFFF7FDBF00BF154B9A6ABA
:1030700012F0007F9A6A14BF1E201D2012F0807F7C
:103080009A6A18BF1F2012F4801F9A6A18BF202066
:1030900012F4002F9A6A18BF212012F4802F9A6A26
:1030A00018BF222012F4003F9A6A18BF232012F49E
:1030B000803F9A6A18BF24206FEA02426FEA1242E8
:1030C0009A62704700ED00E010B5194B0246986A0D
:1030D0009C6A10F4805F14BF1720162014F4006F50
:1030E0009C6A18BF1820A40509D5986B986A00043B
:1030F00004D51AB19A6A22F400429A6219200C4B44
:103100009A6A12F4806F9A6A18BF1A20D2050CD4FA
:103110009B6A13F4005F18BF1C20054A936A43F4AE
:103120007F43936200230B7010BD1B20F5E700BFA7
:1031300000ED00E010B51C4B0246986A9C6A10F046
:10314000100F14BF1120102014F0080F9C6A18BF34
:103150001220A40709D5586B986A000604D51AB145
:103160009A6A22F080029A6213200F4B9A6A12F038
:10317000010F9A6A18BF142012F0200F9A6A18BF24
:103180001520D40658BF9B6A074B9A6A920642BF25
:103190005A6A22F400525A629A6A42F0FF029A6214
:1031A00000230B7010BD00BF00ED00E070B5444B74
:1031B00006465B6800258AB0C3F3080385F31188CF
:1031C000BFF36F8F02F07F40B0F17F4F11D102F05B
:1031D0000C0008280DD010074CBF0E460125002218
:1031E000033B8DF80720032B05D8DFE803F01E5CB6
:1031F00060592E46F3E700249DF807309BB9202242
:10320000314602A804F061F9099B002D53D0C3F3A5
:10321000080222B96FEA53236FEA43230993204639
:1032200002A904F0C1F80AB070BD254BDA6A910713
:10323000E1D4DA6A002ADEDBDA6A5200DBD55A69A9
:10324000B16942F480725A61BFF34F8FBFF36F8F41
:103250005A6931F8021C22F480725A61BFF34F8F11
:10326000BFF36F8F4DF60272914209D09A6AD2B2C3
:1032700042B101200DF10701FFF75CFF0446BBE7F7
:103280003468B9E79A6A12F47F4F05D001200DF136
:103290000701FFF719FFF1E79B6AB3F5803FAAD357
:1032A000FFF7E4FEEAE700200DF10701E4E7002064
:1032B0000DF10701EDE723F4FF7323F00103ADE700
:1032C00000ED00E0044B5A6942F010025A615A695D
:1032D00022F008025A61704700ED00E0EFF3088029
:1032E000EFF3098101B57246FFF760FF01BD00BF32
:1032F000002080F31488BFF36F8F002080F30A88CA
:1033000080F30B880F4880F3088801F093F90020C0
:103310000D490860BFF34F8F00F02CF8202080F398
:1033200011880A484FF40061401880F30988EFF3D0
:1033300014800221084380F31488BFF36F8F00F0DC
:1033400097F800001056002094ED00E010260020B1
:10335000002318460649D1F89020C2F30722934271
:1033600000DB7047C1F89830C1F8A0000133F6E7E0
:1033700000ED00E010B572B6002484F31388FFF767
:10338000E7FF23464FF0FF300C4A03F120010133E1
:10339000102B42F82100F8D100234FF0FF30074AEC
:1033A00003F160010133102B42F82100F8D162B61D
:1033B000BFF34F8FBFF36F8F10BD00BF00E100E080
:1033C0001EF0040F0CBFEFF30880EFF30980816952
:1033D00011F8021C0229FFD001B5724603F0EAFF82
:1033E00001BD00BF00B2002807DB01234109034AE9
:1033F00000F01F00834042F82130704700E100E0F8
:1034000000B200280CDB01220649430900F01F002E
:103410008240203341F82320BFF34F8FBFF36F8FDB
:10342000704700BF00E100E0054B420953F822203D
:10343000012300F01F0003FA00F01040704700BFA6
:1034400000E100E000B2002801F10101ACBF00F191
:103450006040064B4FEA4111C9B2ABBF00F5614075
:1034600000F00F0080F800131954704714ED00E0CD
:103470000B4A08B50B4B22F07F029A60BFF34F8FC7
:10348000BFF36F8FD3F8882022F47002C3F888202E
:1034900002F09CF902F0DCF900F024F802F0A2F945
:1034A0000000000000ED00E080B50C460746154620
:1034B000064E86F309884FF00000054988472046EC
:1034C00029461A46B84703488047FEE710560020B1
:1034D000D5730000E37300001022014B1A6170479E
:1034E00000ED00E00023202040F20F1210B5044C44
:1034F000E1180133934281F80003F9D110BD00BFF8
:1035000000E100E008B5EFF30583064A103B02EB4B
:10351000C30152F8330049688847BDE8084003F00A
:1035200054BF00BF9C8600000121024B024A0348A1
:1035300000F0ECB800000420000000206C920000B5
:1035400010B50C7A0B6804F01F0223F01F031A4316
:10355000CB68640923F01F03054943EA440343F0A1
:103560000103C1F89800C1F89C20C1F8A03010BD3B
:1035700000ED00E010B5074BD3F89030C3F30723FC
:10358000013B984202D8FFF7DBFF10BD6FF015003A
:10359000FBE700BF00ED00E02DE9F04F0F461446B9
:1035A00006464FF000084D4D85B0B84580F2928038
:1035B000D6F80490B9F1000F36D0B9F11F0F40F2E0
:1035C000878019F01F0F40F08380D6F800A01AF012
:1035D0001F0F7DD1504603F028FF834609EB0A00F8
:1035E000013803F022FF834572D11BF1160F6FD013
:1035F0005C456DDDC5F898B0D5F89C10C5F898B05D
:10360000D5F8A03021F01F0143F01F0AD6E900329F
:103610001A44994202F1FF391ED1CA4508D13146F8
:103620005FFA8BF003F00AFF08F101080C36BCE7E3
:103630003146C5F898B0D5F89C3022F01F0203F04F
:103640001F031343C5F89C30E0B203F0F7FE10F1FE
:10365000160F3DD0441CE7E7C5F898B0D5F8A02078
:10366000013B23F01F0302F01F021343CA453146FA
:10367000E0B2C5F8A030E8D003F0E0FE10F1160F7C
:1036800026D0C5F898B0D5F89C209DF808300AF1EE
:10369000FF3A62F304038DF80830D5F8A0309DF8A6
:1036A00008205B0863F347128DF80820D6E9003242
:1036B0001344009323F01F035344A3EB0903013089
:1036C00023F01F036946C0B20393FFF753FFBEE721
:1036D0006FF01504204605B0BDE8F08F00ED00E066
:1036E0000522044BC3F89420BFF34F8FBFF36F8FB5
:1036F000704700BF00ED00E0BFF35F8F0022024B78
:10370000C3F89420704700BF00ED00E010B5034CF3
:103710002278FFF741FF207010BD00BFA5250020D3
:10372000F0B54149414CD1F890302568C3F30723E7
:103730009D4287B075D80020FFF7DEFF3C4BC1F8F3
:10374000C030854216D13B4C01A82570FEF754FFCE
:1037500000250646384FAE4213D100202378324967
:10376000D1F89020C2F30722934254DBFFF7B8FF51
:1037700000202FE0616801EB0011FFF7E1FE01304E
:10378000DFE70199280101EB0513DA683A40B2F549
:10379000001F21D0B2F5800F2BD0B2F5801F38D199
:1037A0005A689B680958013B22F01F00034401201E
:1037B000844623F01F0340EA4C10CDE902218DF826
:1037C000100002A920780593FFF7D4FE00281DDA27
:1037D0006FF0150007B0F0BD5A689B680958013BAF
:1037E00022F01F0003444FF0020C012023F01F03BE
:1037F000E1E75A689B680958013B22F01F00034427
:103800004FF0000C022023F01F03D4E7237801338C
:10381000237001359FE7C1F89830C1F8A00001334B
:103820009EE74FF0FF30D5E700ED00E07892000012
:10383000AAFF4400A52500200000F0FF0CB410B53D
:1038400086B009B90DF10B000024CDE9040109ABE4
:10385000089A009404A905480393FEF7D5F8049B41
:103860001C7006B0BDE8104002B07047F374000051
:1038700008B5284A284B1A6000F078F841F6F8732A
:103880002648D0F82416C1F3080203EA5133132165
:1038900082F48072883201FB0233214A590ADB0527
:1038A00048BF0131C2F80419D0F820364FF47A60CD
:1038B000C3F30801C3F30943434342F21C5081F4AC
:1038C000807101F2172100FB01334FF47A701B0A5B
:1038D000B3FBF0F100FB1133B3F5FA7F28BF0131E0
:1038E0000E4BC2F81C17D3F840131C290CD1D3F887
:1038F0004433012B08D13423C2F82436D2F83C36A5
:1039000023F40023C2F83C360122054B0020C3F803
:10391000002608BD0020A1078000002000C0FF0095
:103920000000125048B1054B054A1B68B3FBF2F387
:103930005843044B43F001031847704780000020B0
:1039400040420F00E08F0000BFF34F8F0549064B48
:10395000CA6802F4E0621343CB60BFF34F8F00BF2D
:10396000FDE700BF00ED00E00400FA050122024B74
:10397000C3F80424704700BF002008E00022024B77
:10398000C3F80424704700BF002008E0084B70B55E
:10399000C31A0D4607499B10044659434022064866
:1039A00003F0C9FD2B4601462046BDE8704018478C
:1039B000981B0020B76DDBB6FC850000402373B573
:1039C0000B4C0093041B0B460D460A49A41061439F
:1039D0000646094A094803F0DAFD011E05DA3046B9
:1039E0002B4602B0BDE87040184702B070BD00BF62
:1039F000981B0020B76DDBB6FF750000FC8500004A
:103A000010B5EFF31184202383F31288BFF36F8F77
:103A1000074A136823F00201DB07116002D401207A
:103A200004F023F984F31188BFF36F8F10BD00BF3A
:103A3000E81B002070B500220121044640F2051069
:103A4000FFF700FD0F4800F019FF0F4B984215D10A
:103A500000F024FF26690D49304603F011FB0028D1
:103A60000BDB012535642469084904F11C0003F0CF
:103A700007FB002801DB0020E56470BD6FF0040047
:103A8000FBE700BF1D7600000000AD0BA092000018
:103A90000C22104B014602FB0033002030B4D3E966
:103AA0000E529863EFF31180202484F31288BFF341
:103AB0006F8F1C6C04F0C00444F002041C6480F39B
:103AC0001188BFF36F8F1DB12B4630BC02481847D9
:103AD00030BC7047981B0020FC85000010B4EFF349
:103AE0001182202383F31288BFF36F8F1648016879
:103AF00041F002040460C80707D482F31188BFF3C1
:103B00006F8F012010BC00F0DFBE1049D1F80C14FB
:103B1000C903F2D5EFF3118083F31288BFF36F8FDF
:103B20000B490B6C03F0C00343F002030B6480F3FA
:103B30001188BFF36F8F82F31188BFF36F8F00205E
:103B400010BCFFF7A5BF00BFE81B002000E010502D
:103B5000981B00202DE9F843012207463249D1E89D
:103B6000EF3FC1E8E02F0028F9D133B92F493048A1
:103B70004B60CB608A6003F096FA7B1E012B2AD83B
:103B8000012F06D12B4BD3F8503403F00303012B44
:103B900021D004F0E2FC0546F8B9274B1B78E3B1CD
:103BA00004220646234BC3F808234FF00108214C9A
:103BB000DFF88890D4F84C24D4F84C34D20315D5CF
:103BC00003F00303012B01D0012F0FD135B386F38E
:103BD0001188BFF36F8FBDE8F883EFF311862023C0
:103BE00083F31288BFF36F8F0125DEE7304603F0C1
:103BF0000DFCD4F8403413F0FF03DBD1D4F80821D6
:103C0000002AD7D0C4F80831D4F808312023C4F8EA
:103C10004084C9F8A031C4F81080CBE70422054BDA
:103C2000C3F80423D7E700BF941B0020841B0020A7
:103C3000B41B002000E010500C26002000E100E042
:103C40000023024A0020C1E90023704700D017007A
:103C500000487047BC920000024B0B6001231360C8
:103C6000704700BFC4920000024B034A0020C3F813
:103C70000C25704700B004508000008070B5164DD0
:103C80001446A84225D8C0F5BE1303F580539A42C6
:103C90001FD8C2B140F20113104DC5F80035A1B1D3
:103CA00003F013FCBFF35F8FD5F81834DA0705D49F
:103CB000230703D00123AB60BFF35F8F4FF4807203
:103CC000064BC3F80025002070BDFF2103F008FC5F
:103CD000E8E76FF01500F7E7FFCF170000B00450DA
:103CE00010461A46084B10B5994209D8C1F5BE14C2
:103CF00004F58054A24203D803F0E7FB002010BD76
:103D00006FF01500FBE700BFFFCF170038B545681F
:103D10002B69E3B11035284601F054FA0446B0B9D6
:103D20000146284601F010FA0B4B984211D1224669
:103D300028460A4901F0DCF922460121DB20FFF781
:103D400081FB2246012140F20D10FFF77BFB002092
:103D500038BD6FF00400FBE70000AD0BE53E00004E
:103D60002DE9F04340F206354668D00648BF0320EF
:103D7000337B02EA050558BFC2F3401087B001F05B
:103D80001F07B5F5837F144647EA43178DF80300F4
:103D900046D00FD8062D45D007D8B5B1022D14D086
:103DA0006FF0150007B0BDE8F083B5F5807FF7D15F
:103DB00001250AE040F20222954235D0B5F5407F58
:103DC00034D0B5F5007FEBD104250123220303FA9B
:103DD00001F12DD573685960326972BB5F2F07F00E
:103DE0001F034FEA571175D83C4A52F8212084F43A
:103DF000803102EB8302D2F88030C1F30041C4F37A
:103E0000404423F4706344EA410423F00F031C434D
:103E100044EA800444EA0524C2F880400020C1E757
:103E20000925D2E70825D0E70625CEE70525CCE70A
:103E3000630344BF73689960CEE710363946304655
:103E40000DF1020201F062F914F4403F80460CD1FA
:103E50003946304603F0CEFF214B9845DED130463F
:103E60009DF8021001F0BCF9D8E74FF0000901AB52
:103E70003946304603AACDE90439CDE90199CDF898
:103E80000C9000F0ABFF164B984289D114F400332C
:103E900015D09DF8033084F48034C4F300448DF8C9
:103EA0000E3039464B46304603AA8DF80C508DF83B
:103EB0000D4001F089F80A4B9842CDD070E7CDE96A
:103EC000043339460DF10303304603AA039300F08F
:103ED00085FFF0E7203352F82330FFDECC9200005C
:103EE0000000AD0B4209022A034670B503D0012A37
:103EF00018D0CAB170BD0E4E326951680029F9D090
:103F0000012503F01F030C689D400029F2D08A6848
:103F10002A4002D030464B6898473CB1236821467E
:103F20001C46F2E7034EE7E7034EE5E72346F6E7D4
:103F3000388600002486000010860000F0B5406836
:103F400001F01F04057B87B044EA45140569002D84
:103F500063D0B2F5001F00F1100506D121462846B6
:103F600003F04AFF002007B0F0BD0027B2F5800F34
:103F700001AE019777603BD1B3F1007F14BF0523F9
:103F800004238DF804300023CDE904630393836890
:103F900023FA01F111F001011CD1B2F1A07F19D176
:103FA00004F01F035F2C4FEA541003F120033AD8AA
:103FB0001E4A52F8202052F82330DB070AD40DF1B4
:103FC000030632462146284601F0A0F8184B9842D5
:103FD00019D002962146284603AA00F0FFFE154B91
:103FE00098421DD101222146284601F011F9B9E776
:103FF000B3F1C06F05D0B3F1007F14BF01230223DA
:10400000BFE70323BDE73146284601F0F5F8094B29
:104010009842DED06FF00B00A5E76FF08500A2E7B5
:104020006FF015009FE751F82330FFDECC920000BF
:104030000400AD0B0000AD0B036803F01F025F2B03
:1040400002604FEA53129ABF024B53F8220000203D
:10405000704700BF209300002DE9F04F15468346BE
:1040600040F2FF18DFF85491DFF854A185B000EB5F
:104070008101594503D1002005B0BDE8F08FDBF880
:104080000030C3F3C322082AC3F3080400F28F8070
:104090001B0E444508BF4FF0FF3419F80270192B6E
:1040A00000F28880DFE803F00D141A1D20261D861B
:1040B0008686863562868686868686868686657A42
:1040C0007D80C5F80446621C5DD10BF1040BD0E77E
:1040D000C5F80C46631CF8D000265DE0C5F8104614
:1040E000F1E7C5F80846F5E7661CC5F80046ECD0D0
:1040F000002604E0601CC5F80446E6D0012603A8AB
:104100000394FFF799FF0122039B02FA03F38360F4
:1041100008E0C5F80046002FDCD1631CD5D000268E
:1041200008273246DBF80030039403F400400028EF
:1041300018BF002203A818BF012601930092FFF7C1
:104140007BFF039C019B00EB8400D0F88040C3F30D
:10415000412C009A3B0243EA8C03134304EA0A040D
:10416000234343EA4603C0F88030AEE7C5F804466F
:10417000D1E7C5F86045621CDBF80030A5D0C3F379
:104180000043002BBAD0012603A80394FFF754FF85
:10419000039B06FA03F343603246C3E7C5F8644560
:1041A000E9E7C5F86845E6E7C5F86C45E3E76FF071
:1041B000150061E76FF085005EE700BF54960000D0
:1041C000F0F0FCFF2DE9F04104460D46476804F08D
:1041D000C4F980B9254B1B786BB14FF020086426D9
:1041E00063681B68D3F830316BBB012003F03BFDE3
:1041F000013EF5D1F3E72021EFF311831A4681F355
:104200001288BFF36F8F60680068D0F8300120B962
:1042100083F31188BFF36F8FEEE77B6A00201D7078
:104220006368796A1B68C3F83C170121C3F840171B
:10423000C3F83001D3F83001196582F31188BFF358
:104240006F8FBDE8F081EFF311831A4688F312886F
:10425000BFF36F8F61680968D1F830110029DCD194
:1042600083F31188BFF36F8FB9E700BF0C260020DE
:1042700073B514461D46684601F092F8009BA342B0
:10428000019BAB4114D30B4AD2E90061A41B24F07B
:104290001F0365EB010064099B1941EB000144EA2F
:1042A000C060C2E9003102B0BDE8704001F01ABB45
:1042B00002B070BDC801002010B500220121E42029
:1042C000FFF7C0F8124A0020D2F8183723F4403321
:1042D000C2F8183701F096F80E4B0446984208D100
:1042E00001200D4901F01CF9A04205D00B4B98426A
:1042F0000AD04FF0FF3010BD6722094B02201A6030
:10430000FFF728FC0020F6E76FF00B00F3E700BF93
:1043100000200E500000AD0B7C0000200200AD0B11
:10432000101C002007B5684601F03AF80098074ACB
:10433000D2E90032C01A019B4FEA501063EB02032E
:1043400040EAC36003B05DF804FB00BFC801002071
:104350007FB5431C18BF20EAE07502A808BF6FF0C4
:10436000004501F01DF802990E4B2020D3E90026EC
:104370008C1A039961EB06032146C5FB0013402903
:1043800073F1000436BF014621F01F0100235218CB
:104390004FF0010146EB03030091034801F024F9BB
:1043A00004B070BDC8010020740000202DE9F04366
:1043B000234885B003F097FB00250446204B214E8F
:1043C000D3F83880DFF88090A84503D8002005B0E6
:1043D000BDE8F083636A96E807001F6801AB83E8D5
:1043E00007000C221946384603F048F888B987B10F
:1043F000636A21691B681A6991420AD19A69A169A5
:10440000914206D8E169914203D962695B699A4396
:104410000CD0276A77B10D4802F077FD002383F3B3
:104420001188BFF36F8F0423184602DFE36801355C
:104430001C44C9E7484602F068FD636A1F60F5E75F
:1044400000060000B08F0000A89600007F960000D4
:1044500030B5816885B0103921F00F04054602F0AF
:10446000E2FE10220146684603F03AF81022684640
:10447000064903F02AF810236A462146284602F02E
:104480009EFE003818BF012005B030BD56940000D4
:1044900030B50D46816887B0102302AA1039044652
:1044A00002F078FE002802DA012007B030BD1022A9
:1044B000204602A903F036FB00283AD110221E49FB
:1044C00002A802F0DBFF00280CBF012302232B709F
:1044D000204603F013FB012301460DF1070220469D
:1044E00002F058FE0028DFDB9DF80730204603F07D
:1044F0000F021B096A702B7101220DF1070103F0F5
:1045000011FB10B96B78042B03D901236B700023C6
:104510002B71A2682046203A22F00F02103AA91C03
:1045200003F013FB0028BFD12046E91C03F067FB12
:10453000BBE70323CBE700BF569400007FB5264DB1
:104540004400694655F8240003F05FFB002835D18C
:10455000013455F8240002A903F057FB01282BD1A0
:1045600003238DF808308DF80B3000249DF800509F
:104570009DF80860194A2946107803F0C5FA18B367
:104580003146507803F0C0FAF0B19378042B03D091
:104590009DF80310994217D1D378042B03D09DF8CE
:1045A0000B10994210D11379042B09D15079831E35
:1045B000022B03D804B070BD0028D6D0FF20F9E745
:1045C0009DF802109942F1D00134032C02F1060249
:1045D000D1D10120EEE700BF0C940000DB96000073
:1045E000064BD3F840231C2A05D1D3F84403431EBD
:1045F0005842584170470020704700BF00C0FF007C
:1046000003689A070CD50368DB070DD50922074B11
:10461000C3F80C250F22C3F8042501221A60FEE717
:10462000034B0360EF3B0360704700BF00801050F6
:10463000F000FA50012208B5334B3448C3F8002883
:10464000FFF7DEFF0830FFF7DBFF0830FFF7D8FF8A
:104650000830FFF7D5FF00F5F470FFF7D1FF2C4AC3
:10466000D2F88C3043F44063C2F88C300022D3007F
:1046700003F57F0303F54043D3F8001401310AD05A
:10468000D3F8001439B1D3F800140132D3F804344C
:10469000402A0B60EBD11C4BD3F840247AB3FFF7D0
:1046A0009FFF48B11B4BD3F834231B4B9A429EBF4C
:1046B000154B1A4AC3F84026FFF792FF18B1184B62
:1046C000184AC3F8AC27FFF78BFF48B134220E4BD2
:1046D000C3F82426D3F83C2622F40022C3F83C2653
:1046E0000323114A0A49C2F81835D1F88C3043F433
:1046F0004063C1F88C300023C2F8A03508BDC82241
:10470000C3F84024CBE700BF0000125000C50D5095
:1047100000ED00E000C0FF00001D0A1840E0A91EE7
:1047200000A0085078000A0400B0045030B50468B6
:10473000ACB1B4FA84F30122C3F11F03DBB29A4097
:1047400024EA0202D0E8EF5FA54204D1C0E8EC2FD2
:10475000BCF1000FF6D1EAD102480B7030BD02481F
:10476000FCE700BF0000AD0B0200AD0B10B5036805
:10477000CB40DB0710D401238B40026843EA0201DF
:10478000D0E8EF4F944204D1C0E8EC1FBCF1000F19
:10479000F6D1F2D1014810BD0148FCE70000AD0B95
:1047A0000400AD0BF7B5064648B3012825D1042215
:1047B0004FF4807371202F490024C1F808030120B1
:1047C00002F1A04203F1A04303F5871302F587121B
:1047D00010601C601B68284BD3F840331C2B13D08F
:1047E000864201D10DF10704002342F21075214FDA
:1047F0008DF8073066B1012E28D003B0F0BD142229
:104800004FF484730420D6E7012EEDD1CE60E9E7A2
:10481000D7F84C3403F480333CB9002BEDD00120A1
:1048200003F021FA013DF3D1E7E7D7F84C2402F079
:1048300003022270002BE0D09DF80730002BDCD162
:10484000012003F010FA013DD4D1D6E7D7F80C349B
:1048500003F480333CB9002BCFD0012003F003FADE
:10486000013DF3D1C9E7002B0CBF012300232370C6
:10487000E2D1C2E700E0105000C0FF00044B1A79FB
:1048800022B9012218601A71024870470248704725
:10489000141C00200000AD0B0C00AD0B08B5084B3C
:1048A0001B6843B140F20510FEF7BEFD18B940F297
:1048B0000510FEF797FD0022024BC3F8402408BD07
:1048C000141C002000E0105010B510B1012845D094
:1048D00010BD324BD3F84C14D3F84C24C80324D564
:1048E00002F00303012B04D013B10020FFF75AFF9D
:1048F00000232A4A0420C2F8403410224FF4847363
:10490000002103F1A04303F5871319601C680124FB
:1049100002F1A04202F587121460214A1268002AAF
:1049200036D01E4BC3F80403D2E7D3F84824D1078E
:10493000DED5D3F850249207D7D4194A12681AB199
:104940000422C3F80423C3E7D3F80821002AFBD0CC
:104950000022C3F80821D3F80831B9E700220F4B31
:10496000C3F81021D3F81011C3F81821D3F8181187
:10497000C3F81421D3F814210A4AD2F840231C2A80
:1049800004D000224FF480737120B9E79860F8E7F3
:104990001A68002AFCD019601B6899E700E01050E3
:1049A000141C002000C0FF0070B500251D4C1E4ED9
:1049B000D4F80C3303B970BDB3FA83F3C3F11F030A
:1049C0009A0002F5807292B202F1A04202F58712BB
:1049D000156012680122D8B202FA03F3DBB2102B81
:1049E000C4F8083311D0402B1AD0042B15D1D4F8B9
:1049F0004C14D4F84C1489070FD1C4F84024C4F8DF
:104A000004332261D4F80C33D4E77571C4F814511F
:104A1000D4F814312023C4F8043333689847F1E7FD
:104A20007571FAE700E01050141C0020036803F0D1
:104A30001F025F2B02604FEA53129ABF024B53F8DA
:104A400022000020704700BF14940000034A43096D
:104A5000D35C00F01F001844C0B27047ED96000010
:104A600070B505460846FFF7F1FF36212A79174B46
:104A700001FB0202083233F81200C10525D56C246F
:104A80000026C0F3432120F4F85023F812002A79BD
:104A900004FB02340E3434F8020F10F4807F03D08C
:104AA000C0F34320814210D00136232EF3D16C2075
:104AB0000024424302EBC1029C502A79BDE87040B9
:104AC00000FB02306030FFF751BE70BD8400002053
:104AD000F0B50646002487B0114F019117F8012B5D
:104AE00006AB03EBD20313F8143C02F00702D340E9
:104AF00013F0010306D10134032CEFD10023184633
:104B000007B0F0BD074A03AD07CA85E8070055F8AE
:104B100024100A6A46F824200A62002AEBD0EEE745
:104B2000FD960000C88F000010B504460846FFF748
:104B30008DFF362303FB0400024B083033F81000CE
:104B4000400B10BD8400002010B504460846FFF756
:104B50007DFF362303FB0400034B083033F81000BD
:104B6000C0F3400010BD00BF8400002010B5044613
:104B70000846FFF76BFF362303FB0400034B0830A6
:104B800033F81000C0F3401010BD00BF84000020B7
:104B90002DE9F04F0D46D0F8141387B0C9B241F497
:104BA0000031AA6D009003F0D9F8810306462ED596
:104BB0000023696E03A8CDE903330593FFF788FF4F
:104BC000DFF868A1DFF868B10DF10C091AF8013BB4
:104BD00005EBD30292F8642003F0070322FA03F3F3
:104BE000DA076AD4534B09F1040953450BF1010B61
:104BF000ECD14FF40031AA6D009803F0AFF8696E64
:104C000003A8FFF765FF0028DAD126F40036012457
:104C1000002E73D107B0BDE8F08F91FAA1F1B1FA7F
:104C200081F19BF8004041EA44142046FFF70EFF53
:104C3000083035F81080C8084FEA98030193012323
:104C400019F8002001F0070103FA01F122EA01023C
:104C500009F8002002A80294FFF7E8FE029A019BDF
:104C6000203250F82220C8F382075B07B846C2F30F
:104C7000014227D52846D7B22146424603F04FF8D5
:104C800002A80294FFF7D2FE029B203350F8233093
:104C9000C3F301439F4207D10021204603F030F8BF
:104CA0003946204603F02CF802A80294FFF7BEFE16
:104CB0000122029B02FA03F30362D9F800100029D3
:104CC000ABD18FE7022A0DD10321204603F018F85B
:104CD00007F00503012BE7D142462146284603F0A1
:104CE0001EF8E1E702212046019203F009F8032FA4
:104CF000F2D0019A032AD7D1022FECE796FAA6F355
:104D0000B3FA83F304FA03F226EA0206009A28466D
:104D100002EB8303D3F81015D3F81025C1F3081163
:104D2000C2F3014202F0FBFF72E700BFFD960000F4
:104D3000FD960000009700002DE9F7430546084660
:104D4000FFF784FE36222B79204F02FB0303083342
:104D500037F813300E46DB07044635D5284603F0F6
:104D600024F895F8049031464846FFF7FFFE60B1FD
:104D70004846FFF7D9FE0022D5F8008000B208EBC4
:104D80008003C3F81025C3F8102528463146FFF7E5
:104D900067FE36222B7901A802FB03440023083466
:104DA00027F814300196FFF741FE019B00EB8300CA
:104DB000D0F88020064B134043F00203C0F8803047
:104DC000044803B0BDE8F0830348FAE784000020FC
:104DD000F0F0FCFF0000AD0B0400AD0B2DE9FF4728
:104DE000174604460846FFF731FE3E6888460546EA
:104DF00076B394F804904846FFF7A6FE18B14846EB
:104E0000FFF7B4FEA0BB00234046CDE900338DF888
:104E10000E308DF80F300DF10F0233460DF10E01FB
:104E200002F025FF36202379644A00FB0353083340
:104E300032F8131021F0020122F81310237900FB3D
:104E40000353083332F8131041F0010122F8131014
:104E50007B68002B45D026794146304693F8009078
:104E6000D3F804A0FFF770FE20B1BAF1000F22D0F2
:104E7000534839E04FF0360C0CFB06564F490836C4
:104E800031F8163023F4604323F0200321F8163064
:104E9000BAF1000F0FD0B9F1030FE9D87B6826688B
:104EA0005B68187806EB8006B9F1000F1FD1C6F8D1
:104EB0001095C6F8109536202379404A00FB03531D
:104EC000083332F8131021F01C0122F81310237953
:104ED00000FB0353083332F8131041EA890122F82A
:104EE0001310BB6863BB374804B0BDE8F087D6F841
:104EF000102522F00302C6F81025226802EB800379
:104F0000D3F8102522F4473222F47C72C3F810251E
:104F100041F6F072D3F8106502EA081242EA09423B
:104F20003243C3F8102523790CFB0353083331F8BF
:104F3000132042EA403242F0200221F81320BAE75F
:104F40004146D3E900972046FFF78AFDB9F1000FEB
:104F5000C9D06C232079194E4343F218F358994570
:104F600004D153689F4201D100210CE06C2303FB64
:104F700000600DF10F016030FFF7D8FB114B984234
:104F8000B2D19DF80F106C222379534303EBC10378
:104F900046F8039023795343362203EBC10333448D
:104FA0005F60237902FB0353083336F8132042EA8B
:104FB000412242F4807226F8132094E784000020F6
:104FC0000400AD0B0000AD0B2DE9FF470546084678
:104FD00017461E46FFF73AFD8946044687B395F803
:104FE00004804046FFF7B0FD18B94046FFF7BEFD0C
:104FF00068BB362303FB0848DFF8E4A008F1080883
:105000003AF8183013F01C0F02D07B78012B1ED019
:1050100001238DF80F3000237A1CCDE90073484638
:10502000BB1C0DF10F0102F022FE36222B7902FB90
:10503000034308333AF8132042F003022AF81320FE
:10504000002E4BD049462879FFF77EFD18B9254838
:1050500004B0BDE8F08700214FF0360C30782B68A3
:10506000820003EB8003C3F81015C3F810152B79E9
:105070001B490CFB0343083331F8137027F46047D6
:1050800027F0200721F8137077783FB32B68B678A4
:105090001A44D2F810E5144B3F040EEA0303C2F899
:1050A000103541F6F07307F4403703EA091336056B
:1050B000D2F810E53B4306F48016334343EA0E036F
:1050C000C2F810352B790CFB0344083431F8143046
:1050D00043EA403343F0200321F814300348B7E794
:1050E000840000200400AD0B0FE0ECFF0000AD0BCE
:1050F00030B56C250479044B05FB0434A1600179BB
:1051000005FB0133DA6030BD8400002070B50679FC
:1051100014463046FFF72AFD68B10846FFF796FCB3
:10512000362303FB0600054B083033F810300448E3
:105130005B0B237070BD0348FCE700BF84000020B8
:105140000000AD0B0400AD0B2DE9F04106460779D8
:105150006C20194D00FB075898F868404CBB40463E
:1051600021464622103002F0BBF921463068D8F8BB
:1051700058608E4213D10023C0F84431D0F8443136
:10518000C0F308300130FEF72DF96C2303FB0755FF
:1051900001230A4885F868302B66BDE8F081CBB260
:1051A0009B0003F58072442B04BF84508358013167
:1051B000DFE70348F1E700BF840000200000AD0BEB
:1051C0000C00AD0B6C210279044B01FB023393F808
:1051D0006800003818BF0120704700BF840000201D
:1051E0006C235C22007913FB002302481844FFF76C
:1051F000BDBA00BF840000206C235C22007913FB41
:10520000002302481844FFF791BA00BF8400002031
:105210002DE9F34103681746D3F81423044692039B
:105220005CBF4FF40032C3F8142306790D463046B4
:10523000FFF79CFC08B33046FFF786FC8046E0B9D8
:105240003046FFF771FC05B22168AD0005F58072AC
:1052500041F802808A5821682944D1F8102542F08B
:105260000102C1F810252FB10122216802FA00F3D2
:10527000C1F8143302B0BDE8F0812846FFF7E6FB21
:10528000362303FB06000F4B083033F81030C3F30E
:105290008203042B11D0052B11D001A80195FFF733
:1052A000C5FB019AC368D34003F00103991C28464B
:1052B00002B0BDE8F04102F023BD0321F7E702216F
:1052C000F5E700BF8400002001490248FFF760BCF9
:1052D0008400002000A00D5001490248FFF758BC8F
:1052E000F000002000C0105070B500236724012694
:1052F000027A94FAA4F1B1FA81F1914203F1010525
:1053000018D100210C24120102F1A04202F5622200
:10531000C2F82C150A4ADBB204FB03230168D960EA
:10532000416819610121007A1875936881400B4327
:10533000936070BD06FA01F12B4624EA0104D8E718
:105340005C010020074B027AD3F8101521F001010F
:105350000A43C3F810250268C3F8A4264268C3F8BC
:10536000AC26704700200E50012303FA00F010F025
:10537000670F0AD0064B5B68DB4303F06703034209
:10538000044B054818BF184670470448704700BFD3
:105390005C0100200000AD0B0400AD0B0800AD0B5C
:1053A000002300222DE9F048C0E90023114BD3F877
:1053B00010359B071CD5EFF31181202383F312884E
:1053C000BFF36F8F4FF0FF356FF040440A4ED6E9C0
:1053D00000BC5D4574EB0C07F9D3CCF31303C0E9B3
:1053E00000B381F31188BFF36F8F0448BDE8F088E4
:1053F0000348FBE700200E5040270E500000AD0B85
:105400000100AD0BF0B53B4D85B02C78002C6DD173
:10541000394A01AB07CA83E8070038491846D1F872
:10542000102522F00202C1F81025FFF78BFF072399
:10543000672202F001012144013BCCB24FEA520243
:10544000F7D1052C54D11A4601272A480024672693
:105450005FFA82FC96FAA6F15FFA84FEE645B1FA9D
:1054600081F13DD30132052A017500F10C00EDD127
:105470000120002422499A0800FA02F212F0670F74
:105480001CBF5C505A580433302BF4D1E420FDF794
:10549000A9FF1A4B1B49D3F8102503F5C07322F05E
:1054A0000202C3F8902340F6FF72C3F8A82100223D
:1054B0001A60A3F5807004338B420260F8D1012496
:1054C0000E4B114A1C66114B5D201B68B3FBF2F3B7
:1054D00058430F4B234398470E482C7005B0F0BD3E
:1054E00007FA01F126EA01060134B3E70A48F5E7B5
:1054F0000A48F3E75C010020D48F000000200E5022
:1055000000210E50B0210E5040420F0080000020BC
:10551000F08F00000000AD0B0C00AD0B0100AD0BD7
:1055200073B52A4C054663680E4603F0010304F187
:10553000140101A80193FFF7F9F8254B98423DD1DA
:1055400000233370636823F001036360A36843F0B2
:105550000103A3601F4BD3F81025960732D4D3F86C
:10556000102542F00202C3F81025C5B1D3F8482730
:1055700012F0010202BFD3F8481741F00101C3F84D
:105580004817144BD3F84017D3F844174C00F9D4FC
:105590002AB9D3F8482722F00102C3F848270E4B56
:1055A0000E4A1B68B3FBF2F30A4A03EB43135BB1E9
:1055B000D2F84017D2F84417490001D402B070BDA8
:1055C000013BF4E70648F9E70648F7E75C010020ED
:1055D0000000AD0B00200E508000002040420F0064
:1055E0000C00AD0B0700AD0B2DE9F0410446007A2D
:1055F0001D46FFF7B9FE1A4B1746984206469DF81E
:10560000188029D12046FFF76FFEEFF31180202389
:1056100083F31288BFF36F8F227A124B92001344E8
:1056200000221A60217AC5F31305090101F1A04196
:1056300001F562211B68C1F82075C1F8245580F37B
:105640001188BFF36F8FB8F1000F05D00123227AC4
:105650009340054AC2F824333046BDE8F08100BFCC
:105660000000AD0B00210E5000200E50F7B5254A6A
:10567000002053689268DB4303F0670313401C4625
:10568000012607460CBB01271F4B1E4DD3F8206394
:105690000640287D07FA00F333420FD0E96869B16C
:1056A0000201D5F810C002F1A04202F56222D2F840
:1056B0002435D2F82025CDF800C088470134052CC8
:1056C00005F10C05E5D103B0F0BD94FAA4F5B5FAE7
:1056D00085F5AA0002F58071920806FA02F21342DB
:1056E0000BD001F1A04101F56221D1F800C0BCF15D
:1056F000000F02D00F600968104306FA05F524EA8E
:105700000504BFE75C01002000200E5070B516466E
:105710001D465A1C036804461344C2689A4205D2C7
:105720000821006A02F013FE002070BD32783DB1FE
:10573000AB1E062B8EBF00230B4AD35C1833DAB2A4
:10574000204602F007FE0028EED03544B54203D1D2
:10575000A3680133A360E8E723685A1C226015F8A8
:10576000012D1A70F2E700BF0097000038B5094B11
:1057700053F82040013053F82050A54200D838BDDE
:10578000636823B1204602F0CBFE0834F5E72368B6
:105790009847FAE720940000012208B5094B03203E
:1057A0001A70FFF7E3FF02F0F7FE02F0D5FE0420C7
:1057B000FFF7DCFFFBF7AAF8034A137B23F0010392
:1057C000137308BD0C260020D001002008B5034843
:1057D000034A0021121A02F0BBFE08BDC8010020D6
:1057E0001026002008B50020FFF7C0FF154B83F3FB
:1057F00008880025E023144C84F82230E5772576CC
:105800006576A576636A43F4E023636284F82350E7
:10581000FDF758FDFDF760FE4FF0FF33A362E36232
:10582000FDF77EFFFDF780FE02F054FE0120FFF73A
:105830009DFF0220FFF79AFF2B462A462946034880
:10584000FDF732FE102E002000ED00E09957000019
:10585000074808B5074A0849121A02F07BFEBDE85E
:1058600008400648064A0749121A02F073BE00BFF4
:1058700000000020C80100200C970000000000205C
:10588000000000200C970000024B1868984208BFE7
:1058900000207047B0010020034B1B680BB9FEF7D6
:1058A00041BD0020704700BF1C1C002030B570B106
:1058B0000B4B5B6898420AD0036843B1D3E90421DB
:1058C000D0E90445121941EB0501C3E90421D0E9EF
:1058D000003213605A600023C0E9003330BD00BFBE
:1058E000B00100202DE9F047EFF31185202383F369
:1058F0001288BFF36F8FDFF89C900026C9F8000074
:105900000027FFF7C1FFDFF89080D9F80030D8E911
:1059100000ECD91750B1D0E90442A34271EB020A5E
:1059200018DAE41A62EB0102C0E90442002413EB26
:105930000E034CEB0101C8E90031C9F8004002F048
:1059400012FE2146FEF704FD85F31188BFF36F8F29
:10595000BDE8F08714EB0E024CEBE473C0E904677A
:10596000C8E90023FFF7A2FF85F31188BFF36F8F0B
:1059700083689847EFF31185202383F31288BFF3E0
:105980006F8FD9F800301B1BC9F80030FFF77CFF80
:10599000BBE700BF1C1C0020500200207047012301
:1059A00003FA01F103691B68194203D022B183682D
:1059B0001B6903E0002AFAD08368DB6818470346B6
:1059C00070B40C46DA88006819792243012405690D
:1059D0008C402B6812F0010F866814BF2343A34349
:1059E0002B60336870BC184708B9086070476FF0C7
:1059F000150070470020704730B5836804468B421D
:105A0000154685B00ED96368C068194401AA01F033
:105A100040FE28B96268019B9B1A2B60029B6B6059
:105A200005B030BD6FF02100FAE770472DE9F7436C
:105A30000E4617469946044628B94FF0FF384046AF
:105A400003B0BDE8F0830029F7D0002AF5D0CB6879
:105A50000D8938461D44042329460DEB030201F04D
:105A600099FB80460028E8D146F60812BDF80410DC
:105A70007389914225D1BDF806109942DDD10423E6
:105A800038460DEB0302294401F084FB0028D4D1F1
:105A900046F60713BDF804209A42CED1C4E9006748
:105AA0009DF82830A4F80890A3727389BDF80620E9
:105AB0002B44E360738913442B44043563612561EF
:105AC000BDE7002BE4D0B8E72DE9F3410E461746B9
:105AD0001D46044620B94FF0FF3002B0BDE8F0810A
:105AE0000368002BF7D04368002BF4D04FF6FF7803
:105AF000D4E904239A4216D223685B8923B1E36870
:105B0000934204BF043323610423216960680DEBD1
:105B1000030201F03FFB0028DDD1A37A2BB1D4E9C9
:105B200003329A4201D30120D7E72389BDF806103A
:105B3000434501F1040203D0BDF804C09C450BD1DC
:105B400015B1BDF804302B802369043333603980EC
:105B5000236913442361C0E7236913442361C7E722
:105B600048B103683BB143682BB1C068884294BF19
:105B70000020012070474FF0FF30704773B50C468E
:105B8000064611460223204601AA00F0CEFA054639
:105B9000E8B9019A1F2A0ED9A2F12001304620222D
:105BA0002368194401F091FC2368019A134423608F
:105BB000284602B070BD0146C2F12002304601F015
:105BC0008FFC019A2168C2F120003044EAE76FF0AF
:105BD0000205EDE701F052BC4FF4407358435030DA
:105BE000704710B5044601F017FB4FF44072A368EC
:105BF000503B02FB103010BD70B50D46044601F05D
:105C00007DFF2A46A0F1100104232046BDE8704024
:105C100001F0C0BA13B50446019101F06FFF0423EF
:105C2000A0F110010DEB0302204601F0AAFF02B023
:105C300010BD13B508460C46FFF7D3FF6A46014670
:105C40002046FFF7D9FE10B9009802B010BD002021
:105C5000FBE7F7B5044600200D461746FAF70AFFA2
:105C60006946C0B2FCF7CEFC30B10125009801F0C6
:105C700090FA284603B0F0BD2C2303FB0544E368EB
:105C8000268900981E44042331460DEB030201F0DF
:105C900081FA05460028E8D146F60813BDF804202D
:105CA00064899A42009819D1BDF806309C4201D00F
:105CB0000325DBE70423A1190DEB030201F06AFAC7
:105CC0000028D2D146F60713BDF804209A42EFD13E
:105CD000BDF80610214431443960C7E7002CF1D0EB
:105CE000E6E770B513460E46154600210246044607
:105CF000FBF7DAFA50B92B460121204604F12C02B9
:105D0000FBF7D2FA10B1002E08BF002070BD37B5E6
:105D10004FF480750446426A01A90220019501F002
:105D2000ABFA58B9019B0520226DA36201A9019528
:105D300001F0A2FA054628B1092500E00125284610
:105D400003B030BD019B206A636501F065FAE06530
:105D5000F5E70123036003F1012343600023C0E959
:105D6000023370474379012B07D10368012B04D11B
:105D70000079431E5842584170470020704770B563
:105D800086B006460D46022001A9FCF73BFC30BB5D
:105D90000198FFF726FFF16D0446284600F013F93D
:105DA0000444019801F038FA0646019801F03BFAE4
:105DB0001022014602A801F093FB2B7921468DF8B1
:105DC00008300198334602AA01F0F9F9041E01983F
:105DD00018BF012401F0DDF9204606B070BD012492
:105DE000FAE701F001BA2DE9F843036A0D468B4248
:105DF00021D0C36C8B4220D101262C2303FB060645
:105E0000C06DB46AFFF7E8FE00278046013C736A64
:105E1000284603EBC40253F83410D2F804901B68F0
:105E20004A46C91A4F44FFF7DCFFB84504F1FF3476
:105E3000EDD8BDE8F8830026DFE70120F9E737B5A4
:105E400015460C46C06C6946FEF722FBE97901292C
:105E500003D00022204601F0ECFE9DF80330012B18
:105E600002D1204601F0C4FEA9682046FFF7D2FE09
:105E70002046FEF7EDFA002003B030BD73B50D46A5
:105E8000064600F0EAF80446E86050B302282DD137
:105E900001A9FCF7B7FB58BB2A463146019800F030
:105EA00044F80446D0B9019801F028FE01230146C8
:105EB0000DF10302019801F06DF90446A0B9012229
:105EC00001980DF1030101F02DFE10B101238DF8B1
