:020000040000FA
:10000000B8610020F13500008B9D0000C53500006F
:10001000C5350000C5350000C535000000000000F2
:100020000000000000000000000000003D32000061
:10003000C535000000000000B9310000C5350000E2
:100040002533000025330000253300002533000050
:100050002533000025330000253300002533000040
:100060002533000025330000253300002533000030
:100070002533000025330000253300002533000020
:100080002533000025330000253300002533000010
:100090002533000025330000253300002533000000
:1000A00025330000253300002533000025330000F0
:1000B00025330000253300002533000025330000E0
:1000C00025330000253300002533000025330000D0
:1000D00025330000253300002533000025330000C0
:1000E00025330000253300002533000025330000B0
:1000F00025330000253300002533000025330000A0
:1001000053B94AB9002908BF00281CBF4FF0FF317E
:100110004FF0FF3000F00CB8ADF1080C6DE904CEE3
:1001200000F008F8DDF804E0DDE9022304B07047D0
:10013000704700BF2DE9F04786468C460846089E6A
:10014000154674461946002B40F0C2808542B2FA2B
:1001500082F245D94AB1C2F1200300FA02FC2EFA1C
:1001600003F3954043EA0C0C94404FEA154EA8B2B5
:10017000BCFBFEF8230C0EFB18CC08FB00F943EA8D
:100180000C43994528D9EB1808F1FF3704D299455B
:1001900002D9A8F102072B44A3EB0903A4B2B3FBD5
:1001A000FEFC0EFB1C330CFB00F044EA0344A042AF
:1001B00014D92C190CF1FF3304D2A04202D9ACF1AE
:1001C00002032C44241A43EA07401EB1D440002302
:1001D00034607360BDE8F0874746DDE76346F1E7CA
:1001E00092BB431B01214FEA154EAFB2B3FBFEFC9D
:1001F000200C0EFB1C330CFB07F840EA0343984528
:1002000062D9EB180CF1FF3004D2984502D9ACF159
:1002100002002B44A3EB0803A4B2B3FBFEFC0EFBCD
:100220001C330CFB07F744EA0344A7424ED92C19B0
:100230000CF1FF3304D2A74202D9ACF102032C44E3
:10024000E41B43EA0040C0E7C2F1200320FA03F1B7
:10025000954090402EFA03F303434FEA154EAFB298
:10026000B1FBFEFC0EFB1C10190C0CFB07F841EA5D
:100270000041884504FA02F422D969180CF1FF30D4
:1002800004D2884502D9ACF102002944A1EB08014F
:100290009BB2B1FBFEFC0EFB1C110CFB07F743EA03
:1002A00001439F420ED9EB180CF1FF3104D29F425B
:1002B00002D9ACF102012B44DB1B41EA004192E779
:1002C0006046E3E76146F7E76046A3E76346B7E7C2
:1002D000834206D916B9002108467BE7C6E900E04B
:1002E000F9E7B3FA83F78FB9834201D3724508D88F
:1002F000BEEB020460EB030301209C461EB9002103
:1003000068E73846FAE7C6E9004CF8E7C7F1200C81
:10031000BB4022FA0CF41C432EFA0CF120FA0CF329
:10032000B84001434FEA14490EFA07F5B3FBF9F858
:100330001FFA84FE09FB18300B0C08FB0EFA43EA87
:1003400000439A4502FA07F240D9E31808F1FF305A
:1003500004D29A4502D9A8F102002344A3EB0A0370
:1003600089B2B3FBF9F809FB183308FB0EFE41EA2A
:1003700003418E452CD9611808F1FF3304D28E4514
:1003800002D9A8F10203214443EA0040A0FB0298ED
:10039000A1EB0E014145CE46434602D306D14D4561
:1003A00004D2B9EB020E68EB04030138002EA6D08C
:1003B000B5EB0E0261EB030101FA0CFC22FA07F324
:1003C0004CEA0303F940C6E9003198E74046C5E727
:1003D0004346D9E7000000002DE9F04F9FB0824668
:1003E000039116461C460025307810B9284600F0C7
:1003F00085BD731C2528069306D00399D047002895
:10040000C0F27C85013527E21822002110A809F0EE
:10041000FCFC7378252B7DD00023701C98469E46EB
:100420009C461F46014610F8012B2B2A00F0A180A4
:1004300000F29880202A00F09F80232A00F09F80FD
:100440002BB19DF8483043F040038DF84830B8F1A7
:10045000000F05D09DF8483043F020038DF8483058
:10046000BEF1000F05D09DF8483043F010038DF821
:100470004830BCF1000F05D09DF8483043F0080328
:100480008DF848302FB19DF8483043F004038DF8C3
:1004900048309DF8483003F04400442803D16FF3FE
:1004A00086138DF848309DF848302A2A43F080039F
:1004B0008DF848307FD19DF8492042F001024B1C55
:1004C0008DF849201A782E2A9DF849200CBF012169
:1004D000002161F341028DF8492078D15A782A2A07
:1004E0006ED0013300224FF00A0C194611F8010BAF
:1004F000A0F13007092F40F2AD809DF8481014920A
:10050000C1F3400040EAD2700A4660F341028DF820
:1005100048205CE0B21C06928DF84B309DF84930C3
:10052000D90740F1508154F8042B0492002A08DACC
:100530009DF8482042F004028DF84820049A524267
:1005400004925A0740F1478154F8047B002F80F24F
:1005500046819DF849306FF341038DF849304FF0E3
:10056000FF373CE12D2A0DD0302A7FF469AF0123FB
:1005700058E74FF0010C55E74FF0010E52E74FF0EE
:1005800001084FE701274DE70EFB0272303A0346A0
:10059000184610F8017BA7F1300CBCF1090FF3D914
:1005A00099428FD09DF848101392D20F62F3410107
:1005B0008DF8481086E70B4600224FF00A0EE7E759
:1005C0009DF8492042F004028DF8492002331A7840
:1005D0006C2A5FD043D8682A49D06A2A63D04C2A53
:1005E00069D013F8012B0693782A8DF84B2000F27E
:1005F000A9806D2A6CD8692A00F2A480572A00F2DB
:100600008480412A04D0A2F14503022B00F29A8093
:100610009DF84A3002F0DF020421A2F1410761F3A4
:1006200002037A429DF849108DF84A307A4162F30C
:10063000C7110A068DF84910CBB200F1C28003F051
:100640007802182A40F0AC806FF3C6038DF8493069
:1006500000239BE00CFB0202303A0B4645E7742A6C
:1006600025D07A2ABDD19DF8492006210CE05A7880
:10067000682A9DF8492006D1012161F3C6028DF850
:1006800049200233ADE7022161F3C6028DF849200B
:100690000133A6E75A786C2A9DF8492001D104213C
:1006A000EBE70321F0E79DF849200521ECE79DF8F1
:1006B00049200721E8E7BDF8482022F4F04222F063
:1006C000020242F4804242F00202ADF84820DFE725
:1006D0006E3AD3B201229A4040F282431A429DF808
:1006E000493036D112F0240F5ED1D1072AD59DF8BA
:1006F0004A2003F07803A3F14000032161F30202D2
:1007000043428DF84A20434140E0A2F15801C9B26A
:10071000012000FA01F111F4624F7FF479AF40F645
:10072000010319429DF8493019D111F4043F09D051
:100730009DF84A2060F3020203F07803402B8DF805
:100740004A2085D19DF8483043F001038DF84830A8
:100750007EE79DF84A20022161F30202ECE79DF852
:100760004A10022003F0780360F30201402B8DF859
:100770004A1002BF9DF8481041F001018DF8481061
:10078000632A7FF465AF003B18BF01239DF8482022
:10079000C2F340010B4363F341028DF84820BDE6EC
:1007A00013F0380FCED153E79DF84A20032113F000
:1007B000780F61F302028DF84A2014BF0123002351
:1007C000E4E70123E2E79DF94820002AB4BF139A29
:1007D0004FF0FF32B4E69F077FF5C1AE149F0023B0
:1007E000CDE913339DF84A3003F00702042A9DF83F
:1007F000492007D1900705D49DF949100029ACBFC5
:1008000006270D2703F00703012BC2F3C30233D1E0
:10081000D31E042B04D8DFE803F021464621210033
:100820002368012A4FEAE371CDE910311CD19DF90B
:100830004030D917CDE9103104349DF84830079382
:10084000990750D0069B03993246504609F075F936
:100850000028C0F253830544069EC5E554F8043BC6
:10086000D917CDE91031E8E7022AE5D119B243F3EF
:10087000C033CDE91013DFE7022B24D1D31E042BA4
:1008800004D8DFE803F0181010181800012A54F8F3
:10089000043B4FF0000114D0022ACDE91031CCD135
:1008A0009BB21093C9E7073424F00704F4E802016F
:1008B000CDE91001C1E754F8043B109300231193D4
:1008C000BBE7DBB2CDE7042B08D1073424F00704E3
:1008D000D4E900010834CDE91001AEE7032BACD117
:1008E00054F8043BDDE79DF84BB0BBF1780FB3D86B
:1008F000BBF1570F49D8BBF1250F00F09180BBF138
:10090000240FA9D9BBF1410F03D0ABF14502022A54
:10091000A2D8DDE91012002AC0F23681079B1E071B
:1009200000F13581C3F300194FEA4919C2F30A50A7
:10093000C2F31302002840F02D8151EA020614BFD1
:1009400001260026D20242EA5152C902BBF1460FEB
:1009500040EA010E42EAE07C08BF4FF0660B5EEA17
:100960000C0CCDE90C1200F09781002E40F0448170
:100970000D9A42F00042A0F2FE380D920020DDE90F
:100980000C1206464FF0050C50E1ABF1580120293E
:100990003FF662AF01A050F821F000BF270B000026
:1009A00059080000590800005908000059080000C3
:1009B00059080000590800005908000059080000B3
:1009C0001309000059080000AB0A0000BF0A00002C
:1009D0001309000013090000130900005908000062
:1009E000BF0A00005908000059080000590800001B
:1009F00059080000610B0000270B00002D0B0000C0
:100A00005908000059080000270A00005908000092
:100A1000270B00005908000059080000270B0000B0
:100A200003995846EAE4002F109E3ADB39463046D7
:100A300009F001FA3718002E3FF40EAF4FF000090D
:100A40009DF84A3013F01002059200F04C820230FB
:100A500013F04003DDF84C80089318BF149BCDF8C9
:100A60001C80404418BFC018049B002B40F35682E2
:100A70009DF848201B1A04935307C2F3800B00F122
:100A80004D82500640F13D82B9F1000F07D0039925
:100A90004846D0470028C0F231820135D94630227D
:100AA00030E2304609F078F9C4E7109B8DF85C30ED
:100AB0004FF000090DF15D0717AE0120C0E7079B5D
:100AC0001A0758BFC3F30019DDE9102354BF4FEADA
:100AD00049194FF02B09002B06DA524263EB43030E
:100AE000CDE910234FF02D090DF175030093DDE9D9
:100AF000100117AB12AA08F0DAFF0646002F0CDB34
:100B00009DF848200DF175039B1B6FF386129F42E1
:100B10008DF8482001D9FB1A1393002E3FF49CAEA8
:100B20000DF1750756E04FF00009DDE71098002839
:100B300000F0D4810DF17503009312AA17AB0021C8
:100B400008F0B5FFBDF84A3003F0EF0343F4F0437B
:100B500043F010030646ADF84A304FF00009CDE7E8
:100B6000109B072A3FF678AEDFE802F00C04060C73
:100B700008080C0C1D706FE61D806DE6EA17C3E9CE
:100B8000005269E61D6067E64FF02D09CEE64FF092
:100B90002B09CBE640F2FF76B0422AD10A43ABF1F3
:100BA00041031ED11A2B35BF492369234E216E21E3
:100BB00034BF462266228DF85C309DF848308DF8AF
:100BC0005D106FF386138DF85E208DF848300DF1BF
:100BD0005F0717AEB81BB9F1000F3FF431AF01301A
:100BE0002EE7192B8BBF6E234E23612141211A461C
:100BF000E1E70026A6E6013849185241002AFADA50
:100C0000CDE90C12B4E6490841EAC2715208B2F1CA
:100C1000333F404608F10108F5D20CFB02FEA1FB70
:100C20000C1200F102087244013E012018F1020F7B
:100C3000E9DB08B1CDE90C12B8F1000FDDE90C21B8
:100C40002DDCC8F10400A0F1200C08F11C08C24002
:100C500001FA08F821FA0CFCC1400BF0DF0042EA6F
:100C60000802472842EA0C023AD1F01C01DBB742E5
:100C70002BDAABF10203002F5FFA83FB7DDD9DF8D9
:100C80004800830607F1FF3777D43B1E18BF0123C6
:100C9000059307F101082DE04FF000086EE60232DF
:100CA00041F100010CA8CDE90C2108F0D1FEDDE9ED
:100CB0000C2108F1FF38013692184941002908F14A
:100CC000FF38F9DACDE90C21B6E79DF848309806EF
:100CD000A7EB06074FD43B1E18BF0123059304E082
:100CE0000023BBF1660F0593D3D117EB06084FF035
:100CF000660B44D4B8F1100FA8BF4FF010089FED59
:100D0000B27B8DED0E7B10200B90DDE90E03B8F168
:100D1000000F37D1121841EB0301B1F1805F41D2CE
:100D2000CDE90C21079BBBF1660F03F0200240F0D8
:100D3000B480002E41DC30218DF85C10002A65D192
:100D4000002F40F3B2812E228DF85D2086B17242D1
:100D5000BA42A8BF3A469DF84A101392002AA7EB60
:100D60000207D4BF0022012262F345118DF84A1018
:100D70000DF15E0839E00023B0E7002388E74FF06B
:100D80000008BCE7400840EAC3705B08CDE90E03E9
:100D90000EA8CDE9082108F1FF3808F059FEDDE979
:100DA0000821B2E7520842EAC1720CA84908CDE90D
:100DB0000C21013608F04CFEB4E70DF15C080B99EC
:100DC000002909DD0BA90CA8079208F059FE013E85
:100DD00008F8010B079AF2D113969AB9002F40F345
:100DE00062812E2108F8011B0026002F17DD0B9AC7
:100DF000002A14DD0BA90CA808F042FE013F08F8F8
:100E0000010BF2E72E2208F8012BEDE72E228DF8D8
:100E10005D20002EACD0002F99DC0DF15E08059B03
:100E2000002B4ED1149747460BF0DF02452A23D101
:100E3000002EBABF76422D232B23632EC8BF642118
:100E40007B70D1BFBA1CB6FBF1F3FA1C03F1300082
:100E5000C8BF01FB13664FF00A01C8BFB87087F81E
:100E600000B0B6FBF1F3174603F1300001FB13634A
:100E7000303307F8020B5370139B002B2CDC149BB0
:100E8000002BD4BF002301239DF84A2063F3861270
:100E900000238DF84A203B709BE60BA90CA8079213
:100EA00008F0EEFD079A8DF85C00302818BF06F1B7
:100EB000FF3612B9002F40F3F8802E228DF85D2006
:100EC00056E7474608F1FF3817F8012C302AF8D0CA
:100ED0002E2A08BF4746A7E70123D5E73C4F8146A6
:100EE0007E1F0520ACE51A0748BF0130B0E510466B
:100EF00009920399D0470028099A05DA1FB0BDE886
:100F0000F08F2022DDF810B0594600290BF1FF3B8D
:100F1000EDDC049BCDF810B02B445D1AB9F1000F45
:100F200005D003994846D0470028E7DB0135089BE8
:100F3000002B7DD09DF94930002B28DBB3469BF870
:100F40000000A0F13003092BD9460BF1010B46D963
:100F50009DF84A30AE1B99064E4407D44246002AFB
:100F600008F1FF3840DC079B33449E1A99F80000D3
:100F70002E280AD10399D0470028BFDBB8F1000F13
:100F800006F1010636DC09F101094D463DE0B146A6
:100F900099F800007028C84609F101091AD1AE1B62
:100FA000149D46443544AB1B002B39DC03993B466A
:100FB0004246504608F0C1FD00289FDB3044049EA5
:100FC000054606446AE000BF00000000000000087B
:100FD00060BC00000399D0470028D9DA8EE7039956
:100FE000D0470028ABDA89E703993020D0470028A2
:100FF000B4DA83E703993020D04708F1FF38BBE724
:101000000399D0470028FFF679AF2878A0F1300384
:10101000092BA84605F10105F2D9A6EB0906BFE7A1
:1010200003993020D0470028FFF668AF0136BAE7B1
:101030009DF84A30DA0601D41B0706D50399302003
:10104000D0470028FFF65AAF0135059B3BB1039905
:101050009DF84B00D0470028FFF650AF0135A8445B
:1010600006E003993020D0470028FFF647AF01354E
:10107000A8EB0503002BF4DC03993B4632465046AF
:1010800008F05BFD0028FFF639AF284497E7039985
:101090002020D0470028FFF631AF0135731B002B0D
:1010A000F5DCFFF7D9BB1646B9E60DF15D08B6E6EB
:1010B0002DE9F0472DED028B9FED498B4A4E84B010
:1010C00004464FF02003EFF3118783F31288BFF338
:1010D0006F8FD4F8C0508DB9022104F1D80009F007
:1010E0009FFF002843D100238DED008B029304F174
:1010F000C80239463D4806F047F9E2E7D4F8C42073
:101100002B68C4F8C030954208BFC4F8C430D4F886
:10111000D83043F00203C4F8D830EB6823F004035E
:1011200043F00103EB606B6887F31188BFF36F8FA7
:10113000284698474FF02003EFF3118983F3128874
:10114000BFF36F8FEB68990723F0010219D4EA60AF
:10115000D4F8D83023F00203C4F8D83089F31188CA
:10116000BFF36F8FDB05ACD406F008F8A9E704F1F4
:10117000D0050022012128460AF054F80028F8D1B1
:10118000B1E7306823F00303EB600028E0D00027CC
:10119000D0F80080BA460028DAD04268954201466D
:1011A0000BD1016897B972683160824200D17160D9
:1011B00040F808AB05F0BEFC3946B8F1000F0BD083
:1011C000D8F8002040460F469046E4E73960726840
:1011D000824208BF7760EBE74246F3E7AFF3008057
:1011E000FFFFFFFFFFFFFFFF90240020753000206E
:1011F00008B5064801220D2107F0E5FE01F0C0FA0E
:10120000BDE80840024801F0C5BE00BFD8B30000E9
:1012100068B6000008B5084809F05CFE58B10748F8
:101220004FF4003107F0DFFEBDE80840024800221D
:101230000D2107F0C8BE08BDD8B3000060B600009D
:101240007FB52F4B2F4AC3F80026C3F80426C3F8F6
:101250000826C3F80C26C3F81026C3F81426C3F8D2
:101260001826C3F81C26FFF7D5FF07F0F2FE264C20
:10127000204609F02FFEC8B124484FF4803107F012
:10128000B2FE2569A36801A95B682046984720B98A
:101290002A68019B53401A0508D54FF08043D3F8C4
:1012A00000340BB1DB0701D5FFF7A2FF01A800F066
:1012B00003FC174B1B68834202D0FFF799FFFEE740
:1012C00069469DF8080007F0A3FE009B039C1C44A0
:1012D000019B1D8903F0F4FE661900F005FE00F085
:1012E000D9FD02F0C1F9635983F30888002383F321
:1012F0001488BFF36F8FBFF36F8F73689847FEE753
:10130000000001403546526ED8B3000058B60000C8
:101310000805002021B1012906D06FF015007047A3
:10132000044B53F830007047024B03EBC00358687E
:10133000704700BF70B600002DE9F04F7E4FDDB062
:10134000DDE9688914461D46DDF8A8B13E6800F065
:101350006BFD7A4B0122C3F800253CA806F072FD14
:10136000B8F1000F07D0B9F1000F04DD4A4641463D
:101370003CA808F035FA23896289D4F80CA01344FC
:101380009A444FF00008C24551D80FA93CA806F076
:10139000CBFD6A4B0022C3F80025C3F80025BBF142
:1013A000000F04D020220FA9584608F023FD002387
:1013B00000932A464FF6FF73214609A807F04AFE1C
:1013C0000390002844D128460E9C07F038FF844241
:1013D0003ED8DFF870B1DFF864914FF0FF340DF1C3
:1013E0001E0307AA08A909A807F082FE00282FDB20
:1013F00040F09B80BDF81EA0BAF1100F31D1BDF8AE
:101400001C80B8F1200F23D1089943463CAA2846F6
:1014100008F0BEFBE0B942463CA90FA807F0E0FE89
:10142000474B1B68834213D101230393D7E7679B84
:10143000669AAAEB0809994528BF99464B4641464A
:10144000284608F0A5FB28B13C4B0022C3F8002534
:101450003E686DE066994A463CA808F0C1F9C84468
:1014600091E7BAF1010F3FD1BDF81C30202BEFD826
:1014700008993CAA284608F08BFB04460028E7D1CF
:101480009DF81C300493202B0AD8DBF80030DFF8DD
:10149000B8800593059B9C4205DB0023C9F8003505
:1014A0004FF0FF349BE700F0BFFCC9F800A51FA870
:1014B00006F0C8FCD8F8042058F8081B12681FA8CA
:1014C00008F08EF917A91FA806F02EFD0022C9F812
:1014D0000025049A3CA917A808F065FC10B9C9F8C2
:1014E00000057CE70134D5E7BAF1220F7FF477AF2E
:1014F000631C3FF474AFDBF80030A342D0DDBDF8CD
:101500001C30802BA4D808993CAA284608F040FB40
:1015100000289DD1E4B2BDF81C3000943CAA2021E3
:101520000FA800F013F80646BAE7039B002B8FD0F4
:1015300030465DB0BDE8F08F0400002000A00250EE
:101540000805002078B600007CB600002DE9F047C1
:1015500096B016461D469DF87820374BDFF8E88098
:1015600053F83210019103EBC20307465B68D8F8C9
:101570000090186802AA0144302301A808F0BEF8C0
:10158000002851D1DDE901431C4403AA06AB2146E2
:1015900001A808F0DBF8002846D1049A072A43D1B5
:1015A0002649059808F0FFFB00283DD1079A082A34
:1015B0003AD12349089808F0F6FBA8BB02AA2146B5
:1015C00001A808F0AFF878BBDDE901A30AEB03023C
:1015D000944229D1412B27D13544302303AA2946EF
:1015E00002A8029608F08AF8E0B9DDE90232134455
:1015F0009D4217D32A4602A906A807F0C5FD88B95F
:101600002A4602A90EA807F0BFFD58B99AF8003083
:10161000042B07D1202306AA0AF10101384600F065
:101620001BFC28B1D8F80090484616B0BDE8F087FA
:10163000044BD3F80090F7E77CB6000027BB00000E
:101640001EBB00000805002004000020094A0B789A
:10165000400052F820108B4209D0013052F820008F
:10166000834214BF4FF0FF304FF4407070474FF487
:101670004070704784B600001FB50F4B13F8300060
:101680000C4600F091FE50B92068816810236A462C
:10169000103908F07DFA28B1206808F078FA4FF088
:1016A000FF3006E005491022684608F07CFB002860
:1016B000F2D104B010BD00BF84B600000EBB000024
:1016C0002DE9F041324B88B0064600200D461C68DB
:1016D000FFF720FE06A9C0B200F066FE002853D135
:1016E0002946FFF717FE2C2407A9C0B204FB0564A6
:1016F00000F05AFE00282ED02C276F4306EB070877
:10170000069BD8F8101011F0100133D14FF48072FD
:101710000192204A0092CDE9031122460291084627
:10172000FFF70AFE04461C4BF25906989A420CD168
:10173000D8F80C20B8F808309B1806D2826893427B
:1017400003D2164B1B68A3421BD0C5B1826800218F
:1017500008F048FA13E0079808F061FA074607987E
:1017600008F015FA631EE21C13F8011FB942C3D139
:101770009342F9D11DB10699304607F032FE084B6D
:101780001C68069808F003FA204608B0BDE8F0810E
:1017900004000020842600203DB8F39608050020B0
:1017A000000000207FB50D46044600212846CDE903
:1017B000021107F0D5FDE8B12368154EB34203D1FD
:1017C00003AA204607F060FDE36AB34204D102AAEF
:1017D0000121204607F058FDDDE90232934288BF1F
:1017E0000393039BAB60039A2946204600F03AFA24
:1017F00004B070BD01A9FFF73FFF019805F1080192
:1018000007F000FDAB680198039308F0C0F9EAE720
:101810003DB8F3962DE9F84FDFF878B01B4C1C4D1E
:10182000884691469A4600260B9B9E4201D3002093
:101830000FE00B9B174A9F1BB7F5806F28BF4FF433
:1018400080673B4606EB0A01404608F0A1F910B15B
:101850000120BDE8F88F0A993B465A467118484660
:1018600008F0ABF90028F3D1C4F800563E44C4F8A0
:101870000456C4F80856C4F80C56C4F81056C4F8F8
:101880001456C4F81856C4F81C56CDE700000140A1
:101890003546526E0C150020F0B5824B43620E4661
:1018A000814B0365002187B004460846FFF732FDEF
:1018B00004F12001C0B200F077FD01210020FFF704
:1018C00029FD04F14C01C0B200F06EFD204607F086
:1018D0001CFD002849D100221146204607F0BEFC1D
:1018E000002859D1204607F078FE002854D002A8DD
:1018F00007F02DFD0146204607F0C7FD00284BD11B
:1019000002A807F02DFD80F0010102AAC9B220460D
:1019100007F0A4FC024600283ED102A807F020FDF3
:101920000546E8BB02A92046FFF73CFF9DF80F30B3
:1019300084F85830033B012B06D8284600F0E2F823
:1019400010B1FF2384F858309DF80F30023B022B72
:1019500006D8002000F0C0F810B1FF2384F85830FA
:1019600094F85830FF2B12D1FEE70123984284F8F7
:101970005830B0D194F858308DF80F30042B37D848
:10198000012B3BD84DD0FF2384F8583049E002AA00
:101990000021204607F062FC012384F85830E9E773
:1019A0009DF80F70012F17D1104603F017FC831E0E
:1019B000022B05460DD839462046FFF781FE3B4BEA
:1019C0001B68984205D03A4B1D68A84214BF0525F4
:1019D000012584F85850CDE701212046FFF770FE1D
:1019E000324B1B6898420CBF9DF80F300523D4E79B
:1019F000052BC8D1002000F085F810E002A9204690
:101A0000FFF7D0FE94F85830DA1E012A0ED80020D5
:101A100000F078F80028B6D1002000F05DF800282A
:101A2000B1D194F85830FF2B03D1FEE7022BF8D147
:101A3000F2E70021012B1F4D019113D002AA20468D
:101A400007F00CFC70B12D681022002102A808F0EC
:101A5000DCF9E06C08F09BF8206A08F098F828465A
:101A600007B0F0BD00212046FFF72AFE0F4F3B686C
:101A70008342E8D12A689A42E5D00D4A12689A4218
:101A8000E1D0019B01330193019B012B00D0FEE7C4
:101A9000206A07F0C3FA3071236A5B6834603D68DE
:101AA000B360D1E70C0D00200C05002008050020D4
:101AB000000000200400002038B5064D04466022D6
:101AC0000021284608F0A1F921462846FFF7E4FE48
:101AD00038BD00BF0C19002013B5094B01A913F83C
:101AE000300000F061FC48B9019808F018FE044687
:101AF000019808F04CF8204602B010BD0124FAE726
:101B00008CB600001FB50F4B01A913F8300000F090
:101B10004BFCA8B9019802A903F00AFB044668B976
:101B20009DF80B30032B03D1019808F0C6FD044645
:101B3000019808F02CF8204604B010BD0124F7E706
:101B40000124F8E78CB600002DE9F34106460C4667
:101B500017461D460BB9002628E0184607F000FC82
:101B60000028F8D16946FFF787FD009838B90124AD
:101B7000009808F00CF8204602B0BDE8F08101A9F9
:101B800007F040FB0028F2D1009808F000F830463A
:101B9000019907F0B7FC736A5E686B79012B21D15C
:101BA000002CD8D12B68834298BF00262146002004
:101BB000FFF7B0FB6946C0B200F0F6FB0028D6D1B3
:101BC000009820233A46314607F0E2FF04460028F9
:101BD000CDD1002DCCD03C680D4BE41A18BF4FF08E
:101BE000FF34C5E7022BB6D12B68012B05D9834200
:101BF000B1D8B4FA84F46409ADE7ACD1002CD5D0E7
:101C0000012CA8D12C79023C18BF0124A3E700BF06
:101C10003DB8F39673B54B681446114A03F0FF23A1
:101C2000934206460D4618D10B68012B15D1694623
:101C3000204603F07DFA9DF80030032B0DD121469C
:101C4000304607F0CEFB204608F037FDA968204655
:101C500007F0E6FA204603F04BFA02B070BD00BF71
:101C6000000100042DE9F04F0C4689B011460546ED
:101C700007F048FC6B6A039020465E6807F070FB33
:101C800090B1E86D07F0AEFAAB6A0022013B324436
:101C9000904201D9013BFAE7039A934204D8012309
:101CA000E37109B0BDE8F08F06A9042000F07CFBC9
:101CB00007A9022000F078FB079A21462846FFF783
:101CC000A9FF6379012B4BD1039FDFF858B141E0A5
:101CD00022680399C2F101030B44BB4239D36B6AFA
:101CE000196853F8370003EBC703012A53F8083C7F
:101CF000A0EB0109A3EB010A11D1079B0493E36850
:101D0000022B08D04146284607F06BFB224641468D
:101D1000284607F09BFB0499284607F062FB3246F1
:101D20004946404607F05BFB534642464146CDE9F3
:101D300000962846FFF76EFD2146284607F01DFB5A
:101D400023680133236020B1DBF800300133CBF886
:101D50000030013FDDF81880002FB9D10123236046
:101D6000022363710127039BDDF818909F4206D977
:101D7000484607F00CFF079807F009FF91E7236832
:101D8000BB424DD86A6ADDF81CA052F83710D2F871
:101D900000B00491FB00083BD1582A6DD05813685D
:101DA000A0EB03082379012B38D1A1EB0B013246BC
:101DB0004846059107F013FB0599009143464A46B2
:101DC000514601962846FFF725FD2146284607F093
:101DD000D4FA0223237118B1124A13680133136035
:101DE00032464146504607F0FAFA049B5246A3EBAE
:101DF0000B034946CDE900862846FFF70BFD214637
:101E0000284607F0BAFA23680133236001232371BF
:101E100030B1044A13680133136001E0022BDFD0B4
:101E20000137A0E76C19002070B5094D2B780BB174
:101E3000002070BD074C0126C4F8006506F0A4F828
:101E400018B92E70C4F80005F2E74FF0FF30F0E744
:101E50008427002000A002502DE9F041DFF83080F7
:101E6000ACB01F4606460C461546FFF7DDFF0123C2
:101E7000C8F800352A4633460097214603A809F0E2
:101E80002EFA0023C8F800352CB0BDE8F08100BF61
:101E900000A00250BFF36F8F72B6124B4FF0FF32AB
:101EA000C3F88020C3F88420C3F88820C3F88C20AE
:101EB000C3F89020C3F89420C3F89820C3F89C205E
:101EC000C3F88021C3F88421C3F88821C3F88C218A
:101ED000C3F89021C3F89421C3F89821C3F89C213A
:101EE000704700BF00E100E0164A4FF0FF330121C8
:101EF0005160C2F84833C2F8083302F5C04251605D
:101F0000C2F84833C2F8083302F598325160C2F87B
:101F10004833C2F80833A2F508320021C2F8001590
:101F2000C2F8083302F51832C2F80015C2F80833B7
:101F3000A2F51042C2F808354FF08042C2F80833CB
:101F4000704700BF00B000402DE9F043079D15B970
:101F50001560002012E00324B5FBF4F404EB440701
:101F6000BD4218BF0134B4F1804F09D2A40001343E
:101F70008C4200D838B914606FF00B00BDE8F083D4
:101F80004FF0FF34F7E7DFF8BCE004460021B94228
:101F900003F1030C04F104062CD3A942274624D2F2
:101FA0001F7801F1010CAC45264938BF5B784FEA38
:101FB000A70E28BF002311F80EE084F800E0AC451E
:101FC00001EB131E3CBF9B0003F03C034FEA0717D5
:101FD00007F0300738BFCB5C1EF80770677028BF6A
:101FE0003D23A3703D23E3703746381A0023106069
:101FF0003B70AEE71CF8034C1CF8023C1CF8018C4B
:102000004FEAA40924011EF8099006F8049C04F084
:1020100030040EEB13199B0019F8044006F8034C2A
:1020200003F03C030EEB981408F03F08E35C06F85D
:10203000023C1EF8083006F8013C03313446634682
:10204000A5E700BF0ABC00002DE9F043DDF81CE065
:10205000DFF82C8100273C463D4675451FD3E4BB85
:1020600014600020BDE8F0830136764533D013F8C4
:1020700006C0BCF1200FF7D0AEEB0609B9F1010F95
:10208000A6EB05050DD0BCF10D0F0AD103EB060937
:1020900099F80190B9F10A0F6ED1751CDDE72E4653
:1020A000E3E7BCF10A0FF8D02DB9BCF13D0F05D123
:1020B0000137022F0DD96FF01500D3E71CF0800F08
:1020C000F9D118F80C507F2DF5D03F2D01D8002FF5
:1020D000F1D10134E1E73546C1E704F007064FF0DE
:1020E000060CE4080CFB06F60CFB04F40736E41BB4
:1020F00004EBD60470B18C420CD80027DFF880E0E6
:10210000DFF880801D44014603263C469D4205D1F0
:102110000C1AA5E714606FF00B00A3E713F8019BFE
:10212000A9F10A0C5FFA8CFCBCF1160F04D848FA2E
:102130000CFC1CF0010FE9D01EF809C00134BCF101
:10214000400F08BF013E0CF03F0C042C4CEA8717EF
:10215000DCD17EB13C0C012E0C7002D10131002487
:10216000D4E7022E4FEA17244C7016BF8F7002314D
:102170000331F4E73446C9E7002DA2D09BE700BF46
:102180008ABB0000F6FFBFFF2DE9F047058B044630
:102190002807904611D4022905F0070540F0CD80AC
:1021A000204607F056FB78B10138218B042811D85E
:1021B000DFE800F0C3106D85950001290CBF45F0E4
:1021C000100545F02005258388F31188BFF36F8F34
:1021D000BDE8F08701F0070AAA4500F0A6800027B5
:1021E000B9463E46A368002B00F0BD8041F00801CF
:1021F000218388F31188BFF36F8FA168002900F055
:10220000BB800D68002900F0B780D1F80480334608
:1022100052462046C047002D76D02B6829461D46E1
:10222000F0E701F007035A1F012A1BD8002221F012
:102230000701062B276889B2C4E9002209D13B4671
:1022400003E0628B013262831B68002BF9D141F0FD
:1022500002012183204607F0FCFA00287BD041F0E0
:10226000200177E0042B0AD121F0070189B22183F4
:10227000204607F0EEFA10B141F020012183218BB6
:1022800001F0070AAA4550D00027B946AAE72369FA
:1022900021F0070141F00601062DD3F800902183BB
:1022A0002DD1B9F1000F40D041F00801218388F30E
:1022B0001188BFF36F8F3A492046C84729E021F0C3
:1022C0000701236941F0040189B2042DD3F8049079
:1022D0002183E6D000273E464FF0040A82E721F032
:1022E0000701236941F0050189B2052DD3F8089053
:1022F0002183D6D000273E464FF0050A72E700271B
:102300003E464FF0060A6DE72B4687E7B9F1000F0E
:10231000D1D14FF02003EFF3118883F31288BFF37C
:102320006F8F238B23F008032383258BEA062ED59A
:1023300025F01003238305F007056669218B002E25
:10234000BFF66FAF00232768C4E9003321F007010F
:1023500041F001012183218B01F0070AAA454FF0CA
:1023600000097FF43FAF002F9BD041F0080121838B
:1023700088F31188BFF36F8F002FC7D03D683946AF
:1023800033465246204607F090FA2F46F4E7AB0654
:102390007FF51AAF25F02003238305F00705FFE63C
:1023A000D798000002F086BF70B5114B1C680D462F
:1023B000DCB1104B196800238B4202DB6FF0010087
:1023C00070BD224612F8106B864202D001331446CB
:1023D000F2E7E06810B96FF01200F1E708F07AFD5B
:1023E0000028F8D02C600020EAE76FF00C00E7E747
:1023F0000800002098B6000070B588B005460C466D
:10240000C0B269461646FFF7CFFF00281BDB0098D5
:10241000C8B143680293836822680195CDE9033609
:102420000023CDE906230593C56807F0B0FB6DB125
:102430002846084901AA07F07DFE079808B9059BC0
:10244000236008B070BD6FF01500FAE76FF012005E
:10245000F7E700BF2D9C0000014805F005BA00BF5A
:102460001CB7000038B5044618B90F4B0F485B681D
:1024700098476168B1F5683F10D0B1F5680F0DD08D
:102480000B4DA9420AD011F46861206807D00146BB
:10249000084808F06DFD00232360656038BD1422F4
:1024A00007F0B3FCF9E700BF7001002061BC000039
:1024B0002C5F5CA9701E002008B520B34368B3F5FB
:1024C000683F10D101220368BFF35B8F53E8001F00
:1024D000002903D143E800200028F7D1BFF35B8F28
:1024E0000DD1002008BD094A93420AD000684FF080
:1024F000FF324FF0FF3304F067FA0028F1D00448B0
:10250000F0E70448EEE76FF4E040EBE72C5F5CA9EE
:10251000E98FFFFFEA8FFFFF08B5D8B14368B3F535
:10252000683F10D100220368BFF35B8F53E8001FA0
:10253000012903D143E800200028F7D1BFF35B8FC6
:102540000BD1002008BD074A934208D0006804F070
:10255000B5FAF6E76FF4E040F4E70348F2E7034822
:10256000F0E700BF2C5F5CA9E98FFFFFEA8FFFFF58
:1025700010B5044618B91D4B1D485B689847636841
:10258000B3F5683F2FD0B3F5680F2CD0194A9342AA
:1025900019D1236803BB18484FF0FF324FF0FF33C7
:1025A000214604F02BF908B923681BB90F4B1348D7
:1025B0005B68984720681422002107F026FC4FF43E
:1025C0006863636008E0B3F5683F0DD83A2B03D029
:1025D00040F6BA629342DED1206808F00EFD6368CF
:1025E00043F03A03636010BD054AF3E77001002031
:1025F00061BC00002C5F5CA9701E002087BC00003D
:102600003A00003A08B5064906484023142208F06B
:10261000A1FCBDE808400449044805F097B900BF93
:1026200070190020701E002024B7000038B7000089
:10263000F7B5224E306883685B6C03B19847306809
:1026400083685B6B002B31D11D4C1E4D3068836855
:102650009B69002B2DD001220DF10701984701281D
:1026600027D1236843B92B681BB369681A682A60AD
:102670008B4208BF6A602360134A9DF807001188E7
:102680007F2904D823680B444F1C178018720A282E
:10269000DCD123681188596000200C4918604D680E
:1026A0004DB9C1E9003310802060CEE7984700287B
:1026B000CAD103B0F0BD2B604B60F4E7E4220020E8
:1026C0008C1E00209C1E002080260020941E0020CE
:1026D00010B5044B044618688368E1B25B689847FC
:1026E000204610BDE42200202DE9F0410546904629
:1026F00008464FF02003EFF3118783F31288BFF3EE
:102700006F8F1C490B684BB11B4C62689A4205D015
:1027100000221A60626872B9C4E90033174A13686C
:1027200063B987F31188BFF36F8F0B601846C8F841
:102730000030BDE8F08113606360EFE756681C6805
:102740001460B34208BF546087F31188BFF36F8FE2
:102750005C680B60A042D8BF00F1FF3403F10801B0
:102760002246284607F046FB00232B55601C012318
:10277000DDE700BF901E00209C1E0020941E00205C
:1027800013B52149214A0023C1E90033C2E90033CE
:102790001F4A1C464868146020BBC1E9002201336F
:1027A000082B02F18802F5D11A4C1B48206008F072
:1027B00091FB28B32068836823B19B6C13B1174940
:1027C00000229847206883685B6B0BB1984760B123
:1027D000206883689B69002BFAD001220DF1070164
:1027E0009847F4E702604A60D9E70D4B2068002261
:1027F0001A8083689B6A03B19847002002B010BD1D
:102800004FF0FF30FAE700BF9C1E0020941E00200E
:10281000A41E0020E422002000B4000031260000A5
:10282000802600202DE9F043EFB041F20443ADF8DB
:10283000083040F60613ADF80C30DFF81C91424B1F
:10284000D9F800101B68414EA3EB06080B785A1C00
:1028500062F302030B7098FA98F34B808B88002583
:102860005BBA8B804D700822284606F0D4FF3146B3
:102870004246ADF8100006F0CEFF1FFA88F440BAC9
:1028800004F10A035BBAADF8100002220DF1120147
:1028900006A80227ADF8123007F0ACFAD9F80010FC
:1028A000ADF8127008220DF11A0007F0A3FABDF876
:1028B0001200083006AB80B23146ADF81200424635
:1028C000184407F097FABDF81230214E1C44A0B20C
:1028D00006AB3A46ADF8120004A9184407F08AFA8C
:1028E000BDF812303B449BB2ADF81230009305AAFC
:1028F00006ABED2132A8FFF727FB164F059BADF87D
:1029000012302C46BDF81230A34202DC6FB0BDE895
:10291000F083336802215B68A4B903A89847BDF827
:10292000125033682D1B7C2DA8BF7C2532AA1019AC
:1029300029465B689847336801215B6838462C4418
:102940009847DFE702A8E9E7002300208527002059
:1029500034230020B4BC000030230020F0B50C6804
:10296000164F174B85B002380D46C4F580610090B4
:1029700003AA38190131FFF767FB0446D0B92B6869
:10298000039A1344022B2B6011D93E8876BAB6B253
:10299000023B9E420BD13246B91C06F03CFF30B9D7
:1029A000022E04D92B689A1E2A60FC54012420466A
:1029B00005B0F0BD4FF0FF34F9E700BF2A28002032
:1029C0002D2C002007B5CDE900016946024808F02A
:1029D00069FA03B05DF804FB0023002038B50B4C06
:1029E00005460A21204608F064FA09480221FFF74B
:1029F000E9FF2946204608F03EFA20460A2108F061
:102A000060FABDE83840FFF70DBF00BF002300208B
:102A1000B6BC00002DE9F047C6B003AE0DF11008BA
:102A200005AD0B464FF0FF34012102463460C8F873
:102A300000402C602EA8002400910421CDE906441A
:102A400007F08FFF402221461EA807F0DEF9894BD0
:102A50001A9305231B93884B8848CDE91C38884B73
:102A60001F93884B219308AB2293874B2493874B6A
:102A70000321CDE92901CDE92635CDE92B36042204
:102A8000259107AB1AA92EA8209207F022F910B3BE
:102A900003240A217E4808F00CFA7E480221FFF741
:102AA00091FF7B48214608F0E6F944B973480321B9
:102AB000FFF788FF784B7648196808F0E6F90A2195
:102AC000734808F0FEF9FFF7ADFE069807F05FF8CF
:102AD00046B0BDE8F08733685A1CDDE90874D7D0EA
:102AE000002FD5D06D4A33B9D8F80010B1F1FF3FAF
:102AF00018BF0B46136000211068FEF70BFC06A9F7
:102B0000C0B2FFF751FC0028C2D13368624E002BDF
:102B10004AD1DDF8188033604046D8F8089006F0B6
:102B200066FB5F4A0146404606F07AFA002840F00C
:102B30009F802B684B45ABD85A4A10605A4A1360A5
:102B40003268584D069829682244013A07F0A2F8E5
:102B5000002828609CDB0698DFF84C9107F058F8B5
:102B6000B4FBF0F303FB10403368C5B2651B1C4493
:102B7000D9F800309C4238BF00205FFA80FA0698EE
:102B800007F046F8012805D9069807F041F8013802
:102B900007424DD1316806982B463A4607F00DF8AA
:102BA00000287FF475AF30E03268934201D00024F2
:102BB0006FE73D4A126823449342C1D968E7A845AC
:102BC000069888BF5FFA85F807F029F84022014689
:102BD0000AA807F01AF9424639460AA807F00AF986
:102BE0003168069843460AAA06F0E7FF0446002823
:102BF0007FF44FAF3368434433604744A5EB080587
:102C0000069807F005F8A842D9D9BAF1000F12D1F9
:102C10003368D9F8002053442B4493423360C6D123
:102C20001F4B06981A68114607F034F8C40F30E7B6
:102C30004FF04008E4E7069806F0F1FF082201464D
:102C40000AA807F0E2F8524679190AA807F0D2F864
:102C5000069F316838466C1806F0DAFF0AAA034668
:102C60002146384606F0A9FF00287FF411AFCFE7D0
:102C700001240EE7B9BC0000C9AB0000C8BC0000CD
:102C8000BFBC0000D3AB0000C4BC0000CFAB000051
:102C900000230020B6BC0000F8220020FC22002007
:102CA000F0220020EC220020E822002007B50023BB
:102CB0000093044A0448A423022108F004F903B055
:102CC0005DF804FB85270020002300202DE9F04358
:102CD0000729B9B004466CD9037813F0050F68D101
:102CE00043885BBAA1F108059BB2AB4261D39D4B0F
:102CF000186083885BBA838000F10806FFF7D6FF6F
:102D0000A088012840F0CE80E37943B1012B00F088
:102D1000C280082039B0BDE8F043FFF75FBE2478D9
:102D200014F00704F5D101468F48904E904FDFF81C
:102D3000608208F0BEF88F480621FFF743FE8A48FC
:102D4000052108F0B2F821460020D6F80090FEF7E1
:102D5000E1FA08A9C0B2FFF727FB0546F0B9202326
:102D6000014610AA089806F013FF109BBB420DD134
:102D70004023019320AB0093CDE90355089B0295B6
:102D800010AA29462846FEF7D7FA8146D8F800301F
:102D9000089D4B4512D0284606F0F9FE64B1052186
:102DA000714808F08AF87048012108F08AF8FFF7A6
:102DB00039FD39B0BDE8F0830124C4E70023009356
:102DC0002A464FF6FF7310A90AA806F043F9002817
:102DD00046D04FF0FF35089806F0D9FE142162481E
:102DE00008F067F864480421FFF7ECFD5E482146CF
:102DF00008F04BF85DB961480421FFF7E3FD18AB1B
:102E00000A93594820230AA90B9308F048F85C4814
:102E10000721FFF7D7FDBDF8563001939DF85530D7
:102E20000093584A9DF85430402120A800F016FD28
:102E3000169B4BB1421E3E2A06D820ADC0F1400180
:102E4000514A284400F00AFD20A806F0A5FF0146DB
:102E500020A8FFF7B7FD1421434808F032F89DE79A
:102E60000DF11E0307AA09A90AA806F041F90028D6
:102E7000AFD1BDF81E30102BF2D1BDF81C30202B85
:102E8000A7D12846099918AA06F082FE051E18BF88
:102E900001256D429FE72946304639B0BDE8F04331
:102EA000FFF7B8BD00287FF434AFE379012B3FF47E
:102EB00031AF052B4CD0002B7FF42BAFCDE9103375
:102EC0000123009320A82B463246042107F049FD38
:102ED00020A807F084FE002838D018A920A807F001
:102EE0007BFE002832D0199B012B23D1189B1B7825
:102EF000642B1FD110A920A807F06EFE30B320A8C4
:102F000007F083FE10B30A21174807F0D2FF1F48CD
:102F100006F042FF01461D48FFF754FD124810A974
:102F200007F0C0FF58B90224FFF7C0FE2046FFF7A4
:102F300055FD3EE7002120A807F07DFECBE70A48BB
:102F40000A2107F0BEFF0028EDD030E70324EBE7AD
:102F5000FFF744FD4FF40050002104F091F90120E7
:102F600006F002FE30230020002300200400002091
:102F70003DB8F396CCBC0000D3BC0000D8BC000028
:102F8000DDBC0000E5BC0000F1BC000085BC000019
:102F9000080500202DE9F341274FDFF8B080274EC8
:102FA00001233B70264B00240546009418603B78B3
:102FB00013B902B0BDE8F081224BC4F58061C3F8BB
:102FC0000086C3F80486C3F80886C3F80C86C3F8E5
:102FD0001086C3F81486C3F81886C3F81C862B68BD
:102FE00001AA0131301998470028019B01DC002B10
:102FF000DDD004442BB940F201439C42D7D10024D8
:10300000D5E73378062B09D17378092B0BD1002330
:1030100000936946A01EFFF7A1FC04E0042B02D137
:103020007378142BF5D00128E9D1009906480239AC
:10303000FFF74CFEE3E700BF292800202B2C0020DF
:1030400034230020000001402C2800203546526E19
:10305000014910220A60704710ED00E072B640404E
:1030600080F31188BFF36F8FBFF34F8F30BF62B60D
:10307000BFF36F8F704700BF72B6494081F311886C
:10308000BFF34F8F20BF80F3118862B6704700BF37
:1030900040B2002807DB044A4109012300F01F0069
:1030A000834042F82130704700E100E040B2002840
:1030B0000CDB4309064900F01F0020330122824047
:1030C00041F82320BFF34F8FBFF36F8F704700BFCE
:1030D00000E100E0054B420900F01F0053F82220F8
:1030E000012303FA00F01040704700BF00E100E048
:1030F00040B20028A8BF00F1604001F10101B8BF53
:10310000064B4FEA4111ACBF00F5614000F00F00E3
:10311000C9B2B4BF195480F80013704714ED00E031
:1031200030BFFFF7FDBF00BF144A08B5144B22F0B3
:103130007F029A60BFF34F8FBFF36F8FD3F8882061
:1031400022F47002C3F88820D3F8882042F4A00249
:10315000C3F888204FF04042C3F83422BFF34F8FAA
:10316000BFF36F8F0023E1EE103A03F079FA04F019
:103170001DF900F031FA03F0C1FA00BF00000000B1
:1031800000ED00E0094A0A4993680968996709490E
:1031900058674B6843F080534B60002383F31188DA
:1031A000BFF36F8F9368986F704700BF682400204B
:1031B00068B9000000ED00E01E498A6882F8BDE0B1
:1031C0004FF030001044EFF3098C80E8F01F1EF040
:1031D000100F03D102F17C0080EC108A202080F3D4
:1031E0001288BFF36F8F144F4FF000668A698A60B0
:1031F0003E6092F9BDE0506F0023536780F3118861
:103200001EF0100F03D00023E1EE103A03E002F1AC
:103210007C0090EC108AEFF3148323F0040383F313
:103220001488BFF36F8F02F1300090E8F01F8CF329
:10323000098870476824002004ED00E01EF0040FA8
:103240000CBFEFF30880EFF30980816911F8021CCD
:103250000229FFD001B506F090FD01BD42F8203CE7
:10326000009B42F81C3C019B42F8183C0A49029B17
:1032700042F8143C4FF0807342F8043C21F0010105
:10328000002342F8081C203A43674FF47D4302654F
:10329000C0F8BC30704700BF3F980000114B9B68DE
:1032A00083421BD1EFF30580C0B94FF02002EFF34A
:1032B000118182F31288BFF36F8F1A7B22F0020212
:1032C0001A73EFF3148323F0040383F31488BFF31A
:1032D0006F8F81F31188BFF36F8F70476FF0150008
:1032E000704700BF682400200023E1EE103AEFF39E
:1032F000148323F0040383F31488BFF36F8FBFF3A9
:103300006F8F074B9860104681F30988002163B6E0
:1033100081F31188BFF36F8F0022002306F08FFA2C
:103320006824002001B5EFF30580A0F110004FEAFA
:10333000C0000449014409C99847BDE80140024959
:103340000847000050B400004D330000044B99685A
:103350009869884203D003494FF080520A60704751
:103360006824002004ED00E0134B9A6A12F0007FFD
:103370009A6A14BF1E201D2012F0807F9A6A18BF1F
:103380001F2012F4002F9A6A18BF212012F4802FF8
:103390009A6A18BF222012F4003F9A6A18BF2320AD
:1033A00012F4803F9A6A6FEA02426FEA12429A620E
:1033B00018BF2420704700BF00ED00E010B5184B87
:1033C0000246986A9C6A10F4805F14BF172016208A
:1033D00014F4006F9C6A18BF1820A40508D5986AD9
:1033E000000404D51AB19A6A22F400429A621920A4
:1033F0000B4B9A6A12F4806F9A6A18BF1A20D20592
:103400000CD49B6A13F4005F18BF1C20044A936A13
:1034100043F47F43936200230B7010BD1B20F5E73C
:1034200000ED00E010B51C4B0246986A9C6A10F053
:10343000100F14BF1120102014F0080F9C6A18BF41
:103440001220A40709D5586B986A000604D51AB152
:103450009A6A22F080029A6213200F4B9A6A12F045
:10346000010F9A6A18BF142012F0200F9A6A18BF31
:103470001520D40658BF9B6A074B9A6A920642BF32
:103480005A6A22F400525A629A6A42F0FF029A6221
:1034900000230B7010BD00BF00ED00E070B5444B81
:1034A0005B689CB00646C3F30803002585F31188CA
:1034B000BFF36F8F02F07F40B0F17F4F11D102F068
:1034C0000C0008280DD010074CBF0E460125002225
:1034D000033B8DF80720032B05D8DFE803F01E5CC3
:1034E00060592E46F3E700249DF807309BB9682207
:1034F000314602A806F07EFC099B002D53D0C3F391
:10350000080222B96FEA53236FEA4323099302A901
:10351000204606F030FC1CB070BD254BDA6A9107DE
:10352000E1D4DA6A002ADEDBDA6A5200DBD55A69B6
:10353000B16942F480725A61BFF34F8FBFF36F8F4E
:103540005A6931F8021C22F480725A61BFF34F8F1E
:10355000BFF36F8F4DF60272914209D09A6AD2B2D0
:1035600042B10DF107010120FFF75CFF0446BBE704
:103570003468B9E79A6A12F47F4F05D00DF107015C
:103580000120FFF71BFFF1E79B6AB3F5803FAAD349
:10359000FFF7EAFEEAE70DF107010020E4E70DF18D
:1035A00007010020EDE723F4FF7323F00103ADE7EB
:1035B00000ED00E0024A536943F010035361704785
:1035C00000ED00E0EFF30880EFF3098101B57246EA
:1035D000FFF764FF01BD00BF044800232021C2188B
:1035E0000133302B82F80013F9D1704700E100E07D
:1035F000002080F31488BFF36F8FFEF7D3FE002006
:103600000D490860BFF34F8F0C4880F3088800F025
:103610003DF8202080F3118809484FF400614018DC
:1036200080F30988EFF314800221084380F31488A3
:10363000BFF36F8FFFF778FD94ED00E0B8610020D5
:1036400078300020BFF34F8F0549064BCA6802F45B
:10365000E0621343CB60BFF34F8F00BFFDE700BFB5
:1036600000ED00E00400FA050749D1F8902000239E
:10367000C2F307221846934200DB7047C1F8983026
:10368000C1F8A0000133F6E700ED00E008B572B61E
:10369000002383F31388FFF7E7FF144B4FF0FF324B
:1036A000C3F88020C3F88420C3F88820C3F88C2096
:1036B000C3F89020C3F89420C3F89820C3F89C2046
:1036C000C3F88021C3F88421C3F88821C3F88C2172
:1036D000C3F89021C3F89421C3F89821C3F89C2122
:1036E00062B6BFF34F8FBFF36F8F08BD00E100E0FC
:1036F000084B9B6883420BD1EFF3058343B1064B24
:103700005A6842F080525A605A6A22F400425A6261
:1037100003F0D6BD6824002000ED00E0024B034A10
:103720000348012100F060B80000042000000020E0
:1037300048B70000F0B5204E00258D4239DA4468C4
:1037400074B353B104F1FF3C14EA0C0F2FD11F2CBA
:103750002DD907681CEA070F29D1202C0768D0F85B
:1037600008C05FFA82FE1ED9B4F1004F1DD8013C9B
:10377000B4FA84F4C4F11F046400BEF1070F4CEAEC
:10378000040C14D827F01F04144344F01004C6F8A6
:103790009820C6F89C404CF00104C6F8A0400132C5
:1037A00001350C30C9E70824E7E73E24E5E76FF070
:1037B00015021046F0BD00BF00ED00E0044B0522ED
:1037C000C3F89420BFF34F8FBFF36F8F704700BFD4
:1037D00000ED00E0BFF35F8F024B0022C3F894209E
:1037E000704700BF00ED00E010B5034C01232278C4
:1037F000FFF7A0FF207010BD2C300020144908688E
:10380000082810B521D8FFF7E5FF124C49680022BF
:10381000904201F10C0105D10F4B1870FFF7CEFF5C
:10382000002010BDC4F8982051F80C3C23F01F0371
:10383000134343F01003C4F89C3051F8043C43F0A8
:103840000103C4F8A0300132E2E74FF0FF30E8E7AF
:1038500054B7000000ED00E02C3000200CB410B58F
:1038600086B009B90DF10B000024CDE9040109ABC4
:10387000089A009404A905480393FCF7ADFD049B46
:103880001C7006B0BDE8104002B070471D9E0000DD
:10389000044A0123C2F840354FF080420020C2F8AC
:1038A0007835704700E0014020B1034B800143F0C0
:1038B00001031847704700BF50B60000084B70B5B1
:1038C000C31A0D4607499B10044659430648402237
:1038D00006F0D6FA2B4601462046BDE87040184750
:1038E0004C230020B76DDBB6B0B3000073B50C4CB1
:1038F0000C4A4023041B00930D460B460A49A410B2
:1039000061430646094806F0E8FA011E05DA30462A
:103910002B4602B0BDE87040184702B070BD00BF32
:103920004C230020479F0000B76DDBB6B0B300000A
:1039300010B54FF02003EFF3118483F31288BFF327
:103940006F8F074A136823F00201DB07116002D46E
:10395000012006F03EFF84F31188BFF36F8F10BD86
:103960009C230020002270B5012104461046FFF779
:10397000BFFB114801F036FE104B984218D1206968
:1039800000F09CF906F0E0FE26690D49304605F08E
:10399000B1FF00280BDB012535642469084904F1D7
:1039A0001C0005F0A7FF002801DBE564002070BDC6
:1039B0006FF00400FBE700BFF93900000000AD0B19
:1039C00074B7000070B501460C2309484B43C41876
:1039D000D4E90E56403300221844A26306F03DFAA3
:1039E0002DB132462B460348BDE87040184770BDE4
:1039F0004C230020B0B30000012810B504460AD0C3
:103A000004280CD078B9084B1B6C5B070BD1BDE8C0
:103A10001040FFF7D7BF00F05FF92046F7E7BDE899
:103A2000104000F067B910BD4C23002008B54FF0DE
:103A30002003EFF3118183F31288BFF36F8F124AD3
:103A4000136843F002001060DA0708D481F311888C
:103A5000BFF36F8F0120BDE8084006F082BE4FF033
:103A60008043D3F80C24D3F80C34DB07EED5074899
:103A700006F0F3F981F31188BFF36F8F0020BDE8E2
:103A80000840FFF79FBF00BF9C2300208C2300202D
:103A90001FB500220123CDE90223094ACDF800D049
:103AA0006B46CDF804D006F047FA002805DB4FF44A
:103AB00080420023684603F061F805B05DF804FB1E
:103AC000619F0000024AC3B21C2003FB0020704724
:103AD0004C230020F8B52849BFF35B8F064601222E
:103AE00051E8003F41E800200028F9D1BFF35B8F87
:103AF00033B9224922484B60CB608A6005F00DFF44
:103B0000731E012B1DD807F059FA0446D0B91D4B7E
:103B10001B78BBB14FF080430222C3F8082305464F
:103B20004FF08047D7F81824D7F81834D20313D5AC
:103B30009B0701D0012E0FD1C4B185F31188BFF3CB
:103B40006F8FF8BD4FF02003EFF3118583F31288D8
:103B5000BFF36F8F0124E3E71CB12846FFF78CFA0F
:103B6000E0E70021212003F08BFBDBE74FF08043EF
:103B70000222C3F80423E4E748230020382300206E
:103B800068230020743000200D4BBFF35B8F0122AF
:103B900053E8001F002903D143E800200028F7D193
:103BA000BFF35B8F0AD107490023CB60064B4B6004
:103BB00003238B60054B186805F0AFBE704700BF4C
:103BC000BC230020A4230020913C0000A02300205F
:103BD00007B500220023CDE9002308484FF4003246
:103BE000002303F0AFFD064B186805F0EEFE054B11
:103BF00000221A6003B05DF804FB00BFE001002062
:103C0000A0230020BC230020F7B51C4E1C4CB76835
:103C10001C4DFB683A213046984740B10023237081
:103C20002B8001F0F1FC0123237003B0F0BD0C21C7
:103C30003B696A46304698470028EFD1124A019BFB
:103C400093FBF2F3009A217803EB82031BB2B5F9E0
:103C500000200029E4D09A1A002AB8BF524212B2BA
:103C6000012ADDDC094A1368013901332170136030
:103C700003B0BDE8F040FFF7ABBF00BF3CB40000AD
:103C80002D3000208226002090D00300B423002095
:103C900008B5074807F01EF928B901F0B5FC054B37
:103CA00001221A7008BDBDE80840034802F0E8BFD1
:103CB0003CB400002D3000202C000020034B044AAF
:103CC000186000231360034A13607047A02300208C
:103CD000B8230020B4230020024B00221A70FFF703
:103CE00053BF00BF2D300020014807F0DABA00BFF3
:103CF000E0010020024A136801331360FFF768BF38
:103D0000B823002000F1744000F5A6000A289ABFED
:103D1000024B33F910006FF00F007047F8BA000043
:103D2000024B0B6001231360704700BF28B80000EE
:103D300000487047ACB70000054B994206D14FF0E0
:103D4000FF324FF0FF33203002F018BF704700BF42
:103D50000000AD0B38B5056995F840300446FBB955
:103D6000284606F010F90022002305F1300002F089
:103D700005FFAB6B4BB90B4D02F002FBA84209D11A
:103D800002F020FB084B00221A702069BDE8384081
:103D900006F006B9002140F2676003F071FAEBE724
:103DA00038BD00BF0000AD0B2E300020F8B506690D
:103DB00096F840400546D4B9304606F0E4F80D4F79
:103DC00006F1300002F0B6FE3B785BB90A4968683C
:103DD000324602F05DFAFFF795FFB0FA80F35B0917
:103DE00004463B70286906F0DBF82046F8BD002445
:103DF000FBE700BF2E3000207B9F00002DE9F84F2D
:103E00000D1ED0F804900646904669DBD9F828309C
:103E1000AA189A4264D8C5F30B02B8F1000F5FD01C
:103E2000C8F30B0313435BD1FFF7C0FF044660BB2D
:103E3000306906F0AFF82146304606F0EFF8044648
:103E400000BB3069DFF8A4A006F09DF8D9F828304F
:103E5000434520D106F02EFDC3460746306939465A
:103E6000FFF76AFF57452BD1B8EB0B085D44EDD146
:103E7000306906F095F80121304606F0CFF8002CA5
:103E800008BF0446306902F055FE3046FFF762FF76
:103E90002046BDE8F88FB8F5803F09D3ABB2A3B98F
:103EA0002946012002F0E4FA4FF4803B0746D5E7AB
:103EB000B8F5805F09D20C4930690B4FFFF73CFF22
:103EC0003846FFF71FFF0446D2E7C5F30B00002872
:103ED000F1D1294602F0CCFA4FF4805B0746BDE7EA
:103EE0006FF01504D4E700BF0400AD0B0000AD0B6C
:103EF00070B543681D6B86B0044603AA00212846AE
:103F000006F099F900285EDB039B2A681979186886
:103F100000F002FC002856DB002201212920FFF7D7
:103F2000E7F8656822693C49284602F0B1F9FFF7D5
:103F3000E9FE002847DB0022AB2303A92046CDE998
:103F4000032205928DF80C3006F02DF800283ADB9C
:103F5000142006F0BAFF6B7F023B012B35D92D7F71
:103F6000033D012D8CBF00250125204606F06BF88E
:103F7000002828DBC2B2C0F38010854201AD26D1F3
:103F80002046FFF7E7FE03260023CDE902630493F2
:103F900020469F23CDF804D08DF80C300595FFF70F
:103FA00005FF024688BB03A9204605F0FCFF054635
:103FB0002046FFF7CFFE5DBB6068324669462C3075
:103FC00005F0F1FE20BB06B070BD0125CDE7002352
:103FD00082F04002ADF8003003A98DF800202046A1
:103FE0000122CDE90223CDF804D005938DF80C20F1
:103FF000049505F0D8FF0028E5D1204606F023F807
:104000000028E0DBC307F8D4BAE72046FFF7A2FE9A
:104010006FF01200D7E700BF7B9F00002DE9FF473C
:1040200005460F461E469046002A00F08480002B6D
:1040300000F08180042B01D99A077CD1BB077AD18B
:10404000002F6A6877DB926ABB19934273D82846BF
:10405000FFF7ACFE0446002862D1286905F09AFFFC
:104060002146284605F0DAFF0446286905F08BFF53
:10407000002C43D1032E1CD83A460421684606F092
:1040800016FC044601462869FFF756FE2B4B9C425E
:1040900034D132464146684605F0ACFE3A4604212A
:1040A000684606F001FC044601462869FFF744FE15
:1040B00024E008F06043B3F1005F02D118F0030F71
:1040C00035D0DFF878A0102EB14628BF4FF0100988
:1040D0004A464146684605F08DFE3A4649466846DE
:1040E00006F0E2FB044601462869FFF725FE544529
:1040F00004D1B6EB0906C8444F44E4D1286905F061
:104100004FFF0121284605F089FF0646286902F085
:1041100011FD002C14BF20463046FFF7F3FD044686
:104120002846FFF717FE204604B0BDE8F0873A4660
:1041300031464046B5E76FF01504F4E70000AD0BDB
:104140002DE9F04F074685B088461C461646002AE2
:1041500000F09980002B00F0948000294268C0F2A2
:104160009280926ACB18934200F28D80FFF71EFE78
:10417000054600287ED1C8F1000505F00305386921
:1041800005F001FFA54228BF2546734203F0030353
:1041900006F0030958BFC3F10009C9F1000909F08D
:1041A0000309A14528BFA146631BA4EB090424F021
:1041B000030423F0030AA245C8BFA24603F0030B81
:1041C000C8BFA3EB040BBAF1000F18D006EB09032C
:1041D00008EB050251461846019306F068FB0446B9
:1041E00001463869FFF7A8FD284A94423BD14D4566
:1041F00005D0019B52461946701905F0E4FDBDB18A
:10420000C5F10409A8EB0902042102A806F04FFB3E
:10421000044601463869FFF78FFD1C4B9C4222D1B2
:1042200009F108032A460DEB0301304605F0E2FDD3
:10423000BBF1000F16D0082108EB050252440DEB2C
:10424000010006F034FB044601463869FFF774FDAF
:104250000E4B9C4207D10AEB05005A4602A9304496
:1042600005F0C8FD094C386905F09AFE2046FFF7B5
:1042700049FD05463846FFF76DFD284605B0BDE807
:10428000F08F1D46F9E76FF01505F6E70000AD0B5E
:10429000024B0B6001231360704700BFC023002056
:1042A0000048704744B8000010B501221146064886
:1042B000064C06F0A9FE06F0F0FA206006F0E9FAD6
:1042C0006060002010BD00BFC8230020C023002074
:1042D0004FF08042D2F81015D2F8103501F01E01CF
:1042E00023F01F030B4343F00103C2F81035024BC8
:1042F00000221A70704700BF2F3000204FF080530B
:10430000D3F83031082B20D14FF08042D2F810156D
:10431000CB071AD5D2F8103501F01E0123F01F0388
:104320000B43C2F81035D2F808315BB1D2F8103522
:1043300023F01F030B4343F00103C2F810356FF065
:104340008B007047024B01221A700020704700BF9B
:104350002F3000202DE9F0410D46164606F099FA5F
:1043600031460746284605F089FE78B3B5FBF7F3DA
:1043700007FB135353BBB6FBF7F407FB14642CBBCA
:10438000B7421DD84FF0FF324FF0FF331148DFF82E
:10439000488002F0F3FB06F07CFA0746FFF7AEFF19
:1043A000044680B9284601F07DFD98F800300BB135
:1043B000FFF78EFFF61B3D44F0D1064802F0BAFB32
:1043C0002046BDE8F0816FF08B04F6E76FF015042E
:1043D000F6E700BFC82300202F3000202DE9F84366
:1043E0000E463046194617461C4605F047FE88B370
:1043F00044EA060515F003052CD1BCB11748DFF8D7
:1044000064904FF0FF324FF0FF3302F0B7FB24F01F
:104410000304AC4206EB05080BD1114AD2F8003474
:10442000DB07FBD500240D4802F084FB2046BDE8E5
:10443000F883FFF763FF50B97959404601F052FD08
:1044400099F800300BB1FFF743FF0435E1E76FF057
:104450008B04E8E76FF01504E8E700BFC8230020ED
:1044600000E001402F30002030B54068057B01F0AE
:104470001F04B2F5001F85B044EA451405D120465B
:1044800001F0CAFB002005B030BD0025B2F5800F59
:10449000CDE9025514D1B3F1007F0CBF04230523ED
:1044A0008DF808300023194602AA204601F0D0F901
:1044B000234B98423DD10121204601F05FFBE1E70B
:1044C000B3F1C06F27D0B3F1007F14BF01230223E3
:1044D0008DF80830836823FA01F111F00101E1D170
:1044E000B2F1A07FDED104F01F03620903F5E0738F
:1044F00013D0012A20D1134A52F82330DB07D1D43C
:104500000DF107052946204601F0E2FA0E4B9842CC
:1045100006D00395C6E70323DAE74FF0A042EBE7A6
:10452000284601F025FB064B9842F2D06FF00B00B5
:10453000A9E76FF01500A6E751F82330FFDE00BFB2
:104540000000AD0B000300500400AD0B10B501F0EE
:10455000FFFA044668B901F0D3FA084B98420AD131
:104560000748214601F0AEFA224605210620FEF753
:10457000BFFD002010BD6FF00400FBE70000AD0B95
:1045800085450000420970B5034602D0012A17D0C4
:1045900070BD0D4E326951680029F9D003F01F0338
:1045A00001250C689D400029F2D08A682A4002D07B
:1045B0004B68304698472CB1236821461C46F2E7E9
:1045C000024EE7E72346F8E7D8B30000C4B3000083
:1045D0002DE9FF4147683B7B01F01F0545EA431584
:1045E0000E4628460DF10701144601F071FA14F445
:1045F000403F80460DD1284601F034FB3D4B9845A5
:1046000003D19DF8070001F0ADFA002004B0BDE829
:10461000F0810023194602AA2846CDE9023301F0B1
:1046200017F9344B984214D1804503D19DF8070007
:1046300001F098FAA3034ED540F206332340B3F5B8
:10464000837F1AD00DD8062B18D005D8B3B1022B12
:1046500033D06FF01500D9E7B3F5807FF9D101238E
:104660000CE040F20222934229D0B3F5407F28D0DB
:10467000B3F5007FEDD1022300E007238DF8083069
:1046800084F48033C3F30043E0068DF8093054BF4F
:10469000C4F34013032321038DF80A3013D57A683D
:1046A0000123B340C2F80835002202A9284601F0D0
:1046B0008FF9104B9842A8D0CBE70423DEE70523FF
:1046C000DCE70323DAE7620341BF01237A68B340E2
:1046D000C2F80C35E8E7E3064FF0000354BFC4F31B
:1046E000401403241A4602A928468DF8084001F018
:1046F000AFF8DEE70000AD0B036803F01F025B09B3
:10470000026004D0012B034818BF002070474FF00F
:10471000A0407047000300502DE9F04FDFF884916E
:1047200085B01546824600EB81014FF001085145E6
:1047300003D1002005B0BDE8F08FDAF8003003F0B7
:104740007F04C3F343277F2C4FEA134308BF4FF086
:10475000FF34222B00F2A380DFE803F012232B4466
:104760002E3544A1A1A1A14773A1A1A1A1A1A1A1FD
:10477000A1A176818487A1A1A18A909396999C009A
:10478000C5F80C45601C1BD003A80394FFF7B4FFC9
:10479000039B08FA03F3C0F8083501264FF0010B1C
:1047A0002CE0C5F81445631C0AD000264FF0000B1E
:1047B00024E0C5F80845E5E7621CC5F808456CD15A
:1047C0000AF1040AB3E7631CC5F80C45F8D00126CA
:1047D00003A80394FFF790FF039B08FA03F3C0F8C4
:1047E0000C35DBE7C5F81045DDE7C5F80845002FB7
:1047F000D9D1671CE4D00026B3460627DAF800308A
:10480000019303F40052002A03A81CBF01264FF0B5
:10481000000B0394FFF770FF039A019B00EB8200EB
:10482000C3F3C114D0F800273B0243EA840343EAF0
:104830000B0302EA0902134343EA4603C0F80037B8
:10484000BEE7C5F80C45D2E7C5F86045661CDAF846
:104850000030B5D0C3F38033002BB8D094E7C5F84F
:104860006445F3E7C5F86845F0E7C5F86C45EDE742
:10487000C5F82445621CA3D0012697E7C5F8284552
:1048800080E7C5F83045F5E7C5F83445F2E7C5F8E7
:104890003845EFE7C5F83C45ECE7002698E76FF0B0
:1048A000850047E7F0F8FCFF014B01221A607047D2
:1048B00000C000400C2903690BD15B6A0649074818
:1048C0004B4393FBF0F100FB113311605360002068
:1048D00070476FF08500704790D0030040420F0092
:1048E000044B00690022C3F80021D3F8003102F024
:1048F00021B900BF00C000407FB50569AB6A63B352
:104900003A2901D00C292BD105F110064FF0FF32C6
:104910004FF0FF33304602F057F8134B0193A86A6B
:104920000323002469460394029304F0F6FF4FF03A
:10493000FF324FF0FF33284602F020F9A86A05F055
:1049400044F80A4BD3F808256A6201225A603046BF
:1049500002F0B4F8204604B070BD6FF00A00FAE728
:104960006FF08500F7E700BFA948000000C00040D5
:1049700010B504690020FFF7A5F8A0624FF0FF32E0
:104980000021204606F040FB04F1100006F035FB44
:10499000002201210C20FEF7ABFB0C20FEF778FB78
:1049A000024B0122C3F80423002010BD00C00040C8
:1049B000F0B54B79012B26D0032B21D110258B7913
:1049C000032B1DD1CE790EB1012E19D10A7912B166
:1049D000022A15D10E220B684468B3F5164F2768DA
:1049E00067D02DD8B3F5165F66D016D8B3F5966F9D
:1049F00064D00AD8B3F5967F63D0B3F5167F63D041
:104A00006FF0850054E00025D9E7B3F5166F5ED04E
:104A1000B3F5965FF4D1384B3CE0B3F5E14F59D094
:104A200007D8B3F5615F57D0B3F5964FE8D1334B54
:104A300030E047F61224A342E2D14FF4000329E00C
:104A4000B3F5613F4AD013D8B3F5963F49D009D8A2
:104A50004DF6C024A34246D0B3F5614FD0D14FF4F8
:104A60006B0317E0B3F5E13FCAD14FF0EB7311E0F0
:104A7000B3F5612F3AD008D8214CA34239D0B3F511
:104A8000E12FBDD14FF0E86304E01E4CA342B7D143
:104A90004FF080530469C7F82435436835431B68D9
:104AA0002A43C3F86C2503C9231D83E803000020B3
:104AB000F0BD4FF41D03EDE7134BEBE74FF49E23DE
:104AC000E8E74FF4A033E5E74FF41C33E2E74FF497
:104AD0001D23DFE70D4BDDE70D4BDBE74FF06C737C
:104AE000D8E70C4BD6E74FF46503D3E74FF070637C
:104AF000D0E74FF08063CDE700B0130000A04E0078
:104B000090D0030040420F000050270000C0750005
:104B100000F03A0000903A012DE9F7434768066932
:104B20003C680021C4F800153060D7F80C8081463D
:104B300001AA404605F07FFB051E4CDB019BD8F81F
:104B4000002019791868FFF7E7FD051E43DB311DCA
:104B50004846FFF72DFF054600283CD17B689907A2
:104B600012D506F11C0001F0CBF91E4B984236D14C
:104B7000307F04F10C0204F5907105F0DBFD337F0A
:104B80000120984000F0C6FC0823C4F800353B7AA9
:104B900053B9C4F81031D4F81031B369C4F83435BE
:104BA0000123C4F8383523607B689A075CBF4FF453
:104BB0008073C4F804337B68DB0644BF4FF4800382
:104BC000C4F804337369C4F844350023C4F8483585
:104BD0000123A360E360284603B0BDE8F0836FF0D3
:104BE0000405F8E70000AD0BF8B5044607690D466B
:104BF00006F0E4F9B0B9214B1B789BB164266068DC
:104C000005F0FBFB00BB012005F092FD013EF6D153
:104C10000021212002F034FBF0E781F31188BFF37B
:104C20006F8FF5E74FF02003EFF3118183F31288C4
:104C3000BFF36F8F60680E4605F0DFFB90B981F31C
:104C40001188BFF36F8FEDE74FF02003EFF3118171
:104C500083F31288BFF36F8F60680E4605F0CDFBBB
:104C60000028DAD07B691D7079690122204605F0A1
:104C700004FB86F31188BFF36F8FF8BD74300020FA
:104C800070B5012383400E4ABFF35B8FDC4352E8CB
:104C9000001F01EA040542E80056002EF7D1BFF3D9
:104CA0005B8F4FF4803282400648C0F80823BFF380
:104CB0005F8FBFF36F8F0B4214BF0120002070BDC8
:104CC000202400200010014070B40E49D1E90034C6
:104CD000D01AC31844F1000422F07F46C1E9003421
:104CE000A6F50013B3F5400F09D2074B1B681A0A4B
:104CF0001B069C19054B42F10005C3E9004570BC39
:104D000002F02ABC78020020242400208002002027
:104D100011B3BFF35B8F0123104A834052E800CFE9
:104D20004CEA030C42E800C10029F7D1BFF35B8FC6
:104D30000B4A4FF480338340C2F80433094BBFF36E
:104D40005B8F1B68BFF35B8FC340DB0742BF064B23
:104D50004FF40032C3F80021704700BF2024002028
:104D6000001001401C24002000E100E00D4B1868F9
:104D7000010A0006BFF35F8F0B4BD3F804351818F8
:104D800041F10001B3F5801F0AD2084BD3E900239B
:104D9000904271EB030303D210F1807041F10001E6
:104DA000704700BF24240020001001408002002032
:104DB0002DE9F04F85B016461F469DF840A00446E9
:104DC000FFF75EFF0190FFF7D1FFB04271EB0703E1
:104DD00054D23E4B301A67EB0101984271F1000149
:104DE0004FD23B4B03EB0413D3E902239F4208BF8E
:104DF00096425ED037494FF4803804F1500508FAE6
:104E000004F8AD00C1F848832046ADB205F0C1FBFF
:104E100026F07F4B05F1804504F5A87305F588352C
:104E2000DC464FF003090293029A2CF07F4341F8CD
:104E30002230C1F84483D1F80435274A6FF00200CC
:104E4000C01A604420F07F40904232D9286868B18F
:104E5000D1F804350393A3EB0B0020F07F40B0F5AD
:104E6000000F26D9204605F094FB039BBAF1000FF2
:104E700007D109EB030C09F10109D5E7BAF1000FDD
:104E800009D06FF0150520460199FFF741FF28462C
:104E900005B0BDE8F08F0123104ABFF35B8FA3403C
:104EA00052E8000F184342E800010029F8D1BFF38F
:104EB0005B8F07490E98230101EB0412C8500F9B2A
:104EC0005360C2E902670025DDE700BF01008000F2
:104ED0006802002000100140FDFF7F001C2400201C
:104EE0007FB51C4C1C4BC4F80833C4F848331B4B2B
:104EF00000254FF0FF304FF0FF31C4F80855C3E9EB
:104F000002014FF48033C4F80433154B02264FF4EA
:104F100000320121C4F804631120C3F880212A461D
:104F2000FEF7E6F81120FEF7B3F80E4A0123A3605E
:104F3000236013600C4B0D4A0093CDE9015500230B
:104F40002846FFF735FF3046FEF7C4FD284604B07B
:104F500070BD00BF0010014003000F006802002078
:104F600000E100E020240020C94C0000FFFF7F008A
:104F70002DE9F7432F4CD4F8043399070BD5D4F817
:104F8000043143B12C4A0023C4F80431D4F804316D
:104F9000136801331360D4F80433DA032AD5BFF35E
:104FA0005B8F264B53E8002F22F0010143E80010ED
:104FB0000028F7D1BFF35B8FD30702D4D4F8403178
:104FC000C3B10025C4F84051D4F84031FFF7CEFEFC
:104FD0004FF02003EFF3118283F31288BFF36F8F3A
:104FE000174BD3E90267B042B94106D282F3118868
:104FF000BFF36F8F03B0BDE8F0834FF0FF384FF081
:10500000FF39C3E90289D3E900101D604FF48033F2
:10501000C4F84833C4F84051D4F8403182F31188C1
:10502000BFF36F8F0029E5D0009032463B462846FB
:105030008847DFE700100140242400201C240020C2
:10504000680200201FB5431C23D0012823DD134A2A
:10505000134B9042D4BF04461C46FFF787FE114B0A
:105060000F49D3E90023801AB0F5000F28BF0024B0
:1050700004448C4228BF0C46A2180B4900914FF003
:105080000000CDE9010043F10003FFF791FE04B0F9
:1050900010BD034CE1E70124DFE700BFFEFF7F0006
:1050A000FFFF7F0078020020C94C000008B5FFF721
:1050B0005DFE024B1B68C01A08BD00BF78020020CD
:1050C00010B5084C012363601120FDF7EFFF064B7C
:1050D000C4F80833C4F84833044B4FF40032C3F823
:1050E000802110BD0010014003000F0000E100E02E
:1050F00030B5816885B0103921F00704054604F009
:105100008EFD10220146684604F07FFE07491022FA
:10511000684604F06FFE10236A462146284604F0D4
:105120004CFD003818BF012005B030BD0EBB00009B
:1051300030B50D46816887B0102302AA10390446A5
:1051400004F026FD002802DA012007B030BD10224D
:1051500002A9204605F04CFA00283AD11E49102237
:1051600002A804F020FE00280CBF012302232B70AC
:10517000204605F029FA012301460DF107022046D9
:1051800004F006FD0028DFDB9DF8073003F00F0276
:105190001B096A702B7101220DF10701204605F0F1
:1051A00027FA10B96B78042B03D901236B70002305
:1051B0002B71A268183A22F00702083AA91C20466F
:1051C00005F029FA0028BFD1E91C204605F07CFA39
:1051D000BBE70323CBE700BF0EBB00007FB5264D26
:1051E0004400694655F8240005F074FA002835D1CA
:1051F000013402A955F8240005F06CFA01282BD1DE
:1052000003238DF808308DF80B309DF800509DF881
:1052100008601A4A00241078294605F0DBF918B313
:105220005078314605F0D6F9F0B19378042B03D0CD
:105230009DF80310994217D1D378042B03D09DF821
:105240000B10994210D11379042B09D15079831E88
:10525000022B03D804B070BD0028D6D0FF20F9E798
:105260009DF802109942F1D00134032C02F106029C
:10527000D1D10120EEE700BF60B90000CCBD000035
:105280004FF08053D3F83021082A06D1D3F83431B7
:10529000052B02D8024AD05C70470020704700BF3F
:1052A000E4BD0000024AD2F80034002BFBD0704766
:1052B00000E0014010B54FF08053D3F83021082AA8
:1052C0004ED14FF080420021C2F80C11C2F81011EB
:1052D000C2F8381502F54042D3F80414C2F820157C
:1052E000D3F80814C2F82415D3F80C14C2F8281502
:1052F000D3F81014C2F82C15D3F81414C2F83015D2
:10530000D3F81814C2F83415D3F81C14C2F8401599
:10531000D3F82014C2F84415D3F82414C2F8481561
:10532000D3F82814C2F84C15D3F82C14C2F8501531
:10533000D3F83014C2F85415D3F83414C2F86015F9
:10534000D3F83814C2F86415D3F83C14C2F86815C1
:10535000D3F84014C2F86C15D3F84434C2F8703551
:10536000FFF78EFF18B1414B414AC3F88C26FFF777
:1053700087FF18B13F4BFB22C3F81825FFF780FFCA
:1053800070B14FF080414FF08053D1F8E42ED3F844
:10539000583222F00F0203F00F031343C1F8E43E2A
:1053A000FFF76EFF20B1344B4FF40072C3F8402674
:1053B0004FF08053D3F83031082B09D14FF08043A0
:1053C000D3F80024D20744BF6FF00102C3F80024D1
:1053D0002A4AD2F8883043F47003C2F88830BFF309
:1053E0004F8FBFF36F8F4FF08053D3F83021082ACF
:1053F0000ED1D3F83431052B02D8214AD35C3BB10E
:105400004FF01023D3F808224FF08043C3F85825FB
:105410004FF01023D3F80022002A03DBD3F8043224
:10542000002B22DA174901234FF01020C1F8043570
:105430001224FFF737FFC0F80042FFF733FFC0F830
:105440000442FFF72FFF0023C1F80435FFF72AFFBE
:10545000BFF34F8F09490C4BCA6802F4E062134353
:10546000CB60BFF34F8F00BFFDE710BD0050004081
:105470004881030000F000400090024000ED00E091
:10548000DEBD000000E001400400FA0530B504680C
:10549000CCB1BFF35B8FB4FA84F3C3F11F03DBB26B
:1054A00001229A4024EA020250E8005FA54204D19A
:1054B00040E8002CBCF1000FF6D1BFF35B8FE6D1C2
:1054C00002480B7030BD0248FCE700BF0000AD0B86
:1054D0000200AD0B10B50368CB40DB0714D40123E9
:1054E0008B400268BFF35B8F43EA020150E8004F34
:1054F000944204D140E8001CBCF1000FF6D1BFF388
:105500005B8FEED1014810BD0148FCE70000AD0BF8
:105510000400AD0B014BC3F80405704700F00140D7
:10552000F7B5044618B1012823D003B0F0BD4FF001
:1055300080430222C3F80823C3F80401D3F80421EE
:105540000122DA60064601238DF8073042F2107519
:105550004FF08047D4B1012CE7D1D7F80C3403F4D5
:105560008033AEBB83B3012005F0E2F8013DF4D1F6
:105570002AE04FF080430022C3F80803C3F800215B
:10558000D3F8002158600DF10706DCE7D7F818348E
:1055900003F480333EB9002BC7D0012005F0C8F8D2
:1055A000013DF3D1C1E7D7F8182402F003023260BD
:1055B000002BBAD09DF80700012803D105F0B8F8F8
:1055C000013DC7D1012CB0D1054B00225A71ACE787
:1055D000D7F80C2402F001023270002BEAD1F3E775
:1055E00028240020054B1A792AB99A7101221860E3
:1055F0009A80034870470348704700BF2824002062
:105600000000AD0B0C00AD0B4FF08043D3F80C1431
:10561000D3F80C24C80319D5D10717D5D3F818240B
:10562000D20313D50B498A7902F0FF0082B9C3F87F
:105630000C01D3F80C2108480822C3F804230122E6
:105640008A710221C3F8341C1A61704703487047FD
:1056500003487047282400200000AD0B0500AD0B67
:105660000B00AD0B10B54FF08043D3F800216AB1A9
:105670000022C3F80021D3F800210122C3F8082337
:10568000184B587910B95A711B6898474FF08043EE
:10569000D3F804215AB10022C3F80421D3F804211D
:1056A0000222C3F808230F4B01201B6898474FF0D4
:1056B0008043D3F80C21A2B1D3F80423120710D5EC
:1056C0000022C3F8342CC3F80C21D3F80C110821A4
:1056D000C3F80813034B9A71BDE810401B680420FF
:1056E000184710BD28240020036803F01F025B093F
:1056F000026004D0012B034818BF002070474FF010
:10570000A040704700030050034A430900F01F0007
:10571000D35C1844C0B27047F5BD000008B5FFF770
:10572000F3FF034B083033F81000C0F3401008BDFE
:10573000E800002008B5FFF7E7FF034B083033F817
:105740001000C0F3400008BDE800002008B5FFF7D6
:10575000DBFF034B083033F81000400B08BD00BFDF
:10576000E800002070B50546FFF7CEFF0C4C08306E
:105770000E4634F81030DA0508D5C3F3432304EBA2
:10578000C302284654F8333052689847A3682BB1B7
:10579000E26831462846BDE87040184770BD00BF3A
:1057A000E800002010B5FFF7AFFF124A083032F8CA
:1057B0001030D9051CD5C3F3432123F4F85322F844
:1057C000103002F10E04002034F8023F13F4807F01
:1057D00003D0C3F3432399420AD001303028F3D1D8
:1057E000002342F831300448BDE81040FFF772BE94
:1057F00010BD00BFE80000205C010020F0B50146AC
:10580000104A114C00200125064602F14043A3F541
:10581000C2439B0805FA03F3194204D0176817B175
:105820001660176818430432A242EED1074BD3F832
:105830007C2132B10022C3F87C21D3F87C3140F0C6
:105840000040F0BD00610040206100400060004069
:105850002DE9F04385B0054690461E46FFF754FFFC
:10586000044609B32846FFF765FF18B12846FFF73D
:1058700055FF38BB0023CDE900338DF80E308DF88D
:105880000F300DF10F020B4628460DF10E0104F00A
:10589000A2FF4A4A04F1080132F8113023F0020352
:1058A00043F0010322F81130B8F1000F31D028463F
:1058B00098F80070D8F80490FFF73CFF20B1B9F1D8
:1058C000000F1BD03E4826E03C4B04F1080C33F897
:1058D0001C1021F02001C904C90C23F81C10B9F1D7
:1058E000000F0BD0032FEDD8D8F8042092F800E079
:1058F000A7B9344B0EF5A27E43F82E702F4A04F15F
:10590000080132F8113023F01C0343EA870322F820
:1059100011304EBB2C4805B0BDE8F0834FEA8E0233
:1059200002F1804202F5C04241EA4E31D2F8100540
:1059300020F00300C2F81005D2F8100520F44F3013
:1059400020F44070C2F81005D2F81085280200F447
:105950007C5040EA080040EA074041F0200123F86B
:105960001C10C2F81005C9E7D6E900762846FFF7F3
:1059700019FF002FCED0114DD5E90023974201D158
:105980009E4218D011480DF10F01FFF77FFD0E4B1D
:105990009842C0D19DF80F2045F8327005EBC20344
:1059A00008345E6035F8143043EA422343F48073D0
:1059B00025F81430AEE70022EEE700BFE800002033
:1059C0000400AD0B006000400000AD0B5C01002046
:1059D0002DE9FF4104461646FFF796FE054631B312
:1059E0002046FFF7A7FE20B92046FFF797FE0028C4
:1059F00060D1314F05F1080837F8183013F01C0F4B
:105A000002D04B78012B55D001238DF80F300023A5
:105A1000CDE900134A1C8B1C20460DF10F0104F048
:105A2000DAFE37F8183043F0030327F818301EB9B0
:105A3000224804B0BDE8F0812046FFF77BFEC8B3E2
:105A40001D4F96F800C005F10800614637F8105068
:105A5000890025F0200501F18041ED0401F5C041E8
:105A6000ED0C27F810500023C1F810357278002A89
:105A7000DED0D1F81035B67823F4991323F4F85317
:105A8000C1F8103512042302D1F810E502F44032B7
:105A900003F47C531343320543EA0E0302F48012ED
:105AA00045EA4C35134345F0200527F81050C1F85E
:105AB0001035BDE70248BCE7E80000200000AD0B50
:105AC0000400AD0B014BC3E902017047E800002060
:105AD00010B50446FFF722FE50B12046FFF714FE32
