:020000040800F2
:1000000000100020F91F00088D9100088D91000854
:1000100031A100088D9100088D9100088D91000894
:100020008D9100088D9100088D91000861020008F3
:100030008D9100088D910008F1010008EDA10008E4
:100040008D9100088D9100088D9100088D91000818
:100050008D9100088D9100088D9100088D91000808
:100060008D9100088D9100088D91000809120008FB
:100070008D910008351200088D9100088D910008BF
:100080008D9100088D9100088D9100088D910008D8
:100090008D9100081D2500088D9100088D910008A4
:1000A0008D910008ED250008C92500088D910008F4
:1000B0008D9100088D9100088D9100088D910008A8
:1000C0008D9100088D9100088D9100088D91000898
:1000D0008D9100088D9100088D9100088D91000888
:1000E0008D9100088D9100088D9100088D91000878
:1000F0008D9100088D9100088D9100088D91000868
:100100008D9100088D9100088D9100088D91000857
:100110008D9100088D9100088D9100088D91000847
:100120008D9100088D9100088D9100088D91000837
:100130008D9100088D9100088D9100088D91000827
:100140008D910008B53600088D9100089BA100082C
:100150008D9100088D9100088D9100088D91000807
:100160008D9100088D9100088D9100088D910008F7
:10017000013800D0FCE770470000000000000000DC
:100180000B4A1168086806C881F30B88022181F3C5
:100190001488203080F30988BFF36F8F4FF0000080
:1001A00080F31188104700BFAFF30080AFF30080E9
:1001B000FC20002000000000000000000000000003
:1001C00007480068006880F3088862B661B6BFF32C
:1001D0004F8FBFF36F8F02DF00BF00BFAFF3008010
:1001E00008ED00E00000000000000000000000003A
:1001F000EFF309801EF0100F08BF20ED108AEFF317
:100200000B82734620E9FC0F114A116808604FF019
:10021000300080F31188BFF34F8FBFF36F8F05F06D
:10022000A5FD4FF0000080F31188094A11680868A5
:10023000B0E8FC0F13F0100F08BFB0EC108A82F387
:100240000B8880F309881847AFF30080AFF3008074
:10025000FC20002000000000000000000000000062
:100260001EF0040F0CBFEFF30880EFF30980044980
:10027000084700BFAFF30080AFF30080AFF300800A
:10028000C5A200080348044B834202D0034B03B1CC
:1002900018477047181100201811002000000000B6
:1002A000064B0749C91A891048BF0131491003D0CC
:1002B000044B0BB101481847704700BF18110020CC
:1002C000181100200000000010B5064C237843B937
:1002D000FFF7D8FF044B13B10448AFF300800123AC
:1002E000237010BD8E40002000000000A4C900084B
:1002F00008B5054B1BB105490548AFF30080BDE8C3
:100300000840FFF7CDBF00BF000000002011002013
:10031000A4C90008A3F5803A704700BF174B002B13
:1003200008BF134B9D46FFF7F5FF00218B460F4694
:100330001348144A121A0BF004FC0E4B002B00D089
:1003400098470D4B002B00D0984700200021040057
:100350000D000D48002802D00C48AFF3008008F0D3
:1003600081F82000290000F05DF808F069F800BF6E
:100370000000080000000000000000000010002045
:10038000181100203C420020000000000000000086
:100390000F4BD3F89010C1F30721BFF35F8F5A6A58
:1003A00022F480325A62D3F8942022F00102C3F87A
:1003B0009420BFF34F8FBFF36F8F002210468A4205
:1003C00000DB7047C3F89820C3F8A0000132F6E7BD
:1003D00000ED00E07FB501A807F042F80446D0B96F
:1003E000019B039A19898B188E584FF0E0225D68A3
:1003F00023F00703C2F8083DFFF7CAFF84F30B8818
:1004000084F30A8886F3088884F31488BFF36F8F17
:10041000BFF36F8FA847024808F089FA04B070BD97
:1004200080BC000813B5002409F0D1FE08F076FA6C
:1004300000F038F8074B4FF400620749019300942D
:10044000234606480AF067FB09F0CEFE204602B0BC
:1004500010BD00BF38110020A8BC0008D50300085B
:1004600010B5C0B002460B686846FD2108F01EF8C2
:100470000D230A220DF800300DEB00035A70002303
:10048000074C821C694620680DF8023008F05EFEB9
:100490004FF0FF31206808F060FE40B010BD00BF93
:1004A0003C11002070B5012300268CB0134D05AC23
:1004B000CDE900360FCD0FC495E80700CDE90266FF
:1004C00084E80700049608F025FE08F01BF90C4CA0
:1004D0000546206008F01EFE3146024628460BF015
:1004E00030FB206840B1694605AA08F018FE18B133
:1004F000206808F00FF926600CB070BDF8C4000841
:100500003C1100200246002310B5054951F8040BA8
:100510000478944203D00133052BF7D1002010BD9D
:1005200020C50008F8B50F46FFF7ECFF054610B3ED
:10053000124E33681BB901200AF0A2F830604FF068
:10054000FF3130680AF071F96B7863B900F08AFA0C
:10055000044600B93D60002330681A46194609F088
:10056000F7FF2046F8BD012B02D100F0F7F8EFE7C6
:100570004FF0FF34EFE74FF0FF34F2E7481100206F
:1005800070B50546E0B10F4C23681BB901200AF095
:1005900077F820604FF0FF3120680AF046F96B7859
:1005A0004BB900F06DFA002320681A46BDE8704090
:1005B000194609F0CDBF012BF5D100F02FF9F2E774
:1005C00070BD00BF4811002001290A4608B508D0B7
:1005D000022911D049B9002808BF012018BFFF2007
:1005E00008BD002808BF0220F8E70146034808F0CC
:1005F0009EF94FF0FF30F3E70320F1E7B0BC0008AD
:1006000070B50A4D4678044655F8263023B90420C3
:100610000AF036F845F8260063784FF0FF3155F8B8
:100620002300BDE870400AF080B900BF40110020EF
:100630004278024B53F822000AF00DB84011002016
:10064000024B0021186808F021BD00BF54110020A2
:10065000024B0121186808F019BD00BF5411002099
:10066000062313B58DF80030FFF7EAFF0848012391
:10067000694601AA006808F027FD0446FFF7E8FF75
:10068000002C0CBF20466FF0040002B010BD00BF6C
:10069000581100201FB5AB23009300238DF80430C0
:1006A000FFF7CEFFFFF7D4FF642004F013FEFFF73F
:1006B000C7FF0C4805236946006802AA08F004FD3C
:1006C0000446FFF7C5FF24B16FF00404204604B0D0
:1006D00010BD642004F0FEFD9DF80C30163B012B8C
:1006E000F4D9F1E758110020052313B50D4C8DF80E
:1006F0000430FFF7A5FF01230022206801A908F0BC
:10070000E3FC0123002120680DF1070208F0DCFC66
:1007100028B99DF80730DB07F3D4FFF799FF02B043
:1007200010BD00BF5811002013B50A4C23787BB1CF
:10073000B9238DF80430FFF783FF07480123002217
:1007400001A9006808F0C0FCFFF782FF00232370B6
:1007500002B010BD8F40002058110020F7B5264D83
:100760002C68002C30D0254E336843BB08F081FC48
:1007700008F065FC224A106060B3224908F07BFC57
:100780000446002832D1FFF763FF08F085FC08F02B
:1007900056FC1D4F3860E8B122461C4908F07EFC2B
:1007A00020BB1B49386808F088FCF8B9FFF772FFD6
:1007B000F8B9286808F0A2FC0122164B1A703368B9
:1007C00000200133336007E008F089FC08F037FCB3
:1007D000286018B96FF00B0003B0F0BD2246642109
:1007E0000D4B009408F07DFC0028BCD06FF0150084
:1007F000F2E76FF00400EFE74C11002050110020E9
:100800005411002004100020581100202410002052
:10081000141000208F400020290700080A4B10B553
:10082000196800290EDD0139196059B9074C0846CD
:10083000FFF77AFF206808F03AFC2068BDE8104016
:1008400008F001BC10BD00BF50110020581100205D
:100850002DE9F743DFF888801F4698F8003081467D
:100860000D46164633B9FFF715FF044640BB01237A
:1008700088F80030DFF86C80184CD8F8000008F0D9
:1008800043FC0323D9F804108DF8043029440B0CE1
:1008900049BA8DF80530ADF80610FFF7D1FE0423F4
:1008A00000220DEB0301206808F00EFC014658B150
:1008B0006FF00404FFF7CCFED8F8000008F01EFC2F
:1008C000204603B0BDE8F08320683B46324608F07E
:1008D000FBFB04460028EDD0EAE700BF58110020DA
:1008E0008F4000204C1100202DE9F04FDFF8B09030
:1008F0001D4699F8003080460E46174685B03BB934
:10090000FFF7C8FE0446002846D1012389F80030CD
:10091000DFF890904FF0020BD9F8000008F0F4FBDC
:10092000DFF884A00DB92C4632E0D8F80430F4B2D8
:10093000C4F5807433441A0CAC425BBA28BF2C4611
:100940008DF80CB08DF80D20ADF80E30FFF788FE55
:100950000190D8B9FFF774FE019A0423DAF8000079
:1009600003A908F0B1FB024670B923463946DAF80C
:10097000000008F0A9FB38B9FFF76AFE2644FFF72C
:10098000B3FE27442D1BCDE7FFF762FE6FF0040492
:10099000D9F8000008F0B2FB204605B0BDE8F08FA2
:1009A0008F4000204C1100205811002041EA020322
:1009B000C3F30B032DE9F74F07460E461546002BF0
:1009C00046D1DFF8948098F8003033B9FFF762FE23
:1009D000044620BB012388F80030DFF880802C46D5
:1009E000D8F8000008F090FB4FF02009DFF870A065
:1009F0008CB17B688DF804902B4433441B1B1A0C7C
:100A00005BBA8DF80520ADF80630FFF729FE834666
:100A100048B16FF00404D8F8000008F06FFB2046DE
:100A200003B0BDE8F08FFFF70BFE04235A46DAF857
:100A300000000DEB030108F047FB8346FFF708FEBB
:100A4000BBF1000FE5D1FFF74FFEA4F58054CFE7CF
:100A50006FF01504E3E700BF8F4000204C11002029
:100A60005811002010B5054C23680BB902F080FC2A
:100A7000236800200133236010BD00BF5C110020FB
:100A8000034A1368002BC4BF03F1FF3313607047A0
:100A90005C11002070B506460D461C46B368104632
:100AA00071682A199A42294407D906482A462146DC
:100AB00007F03DFF4FF0FF3070BD22460BF00AF803
:100AC0000020F9E7FDBC000870B506460D461C463F
:100AD000B368114640682A199A42284407D9064843
:100AE0002A46214607F023FF4FF0FF3070BD224613
:100AF0000BF0A6F8FAE700BFFDBC00082DE9F843AB
:100B0000074610B90020BDE8F8830E4E0025344694
:100B100007F0D2FFA842F5D9B1464FF0000808E02F
:100B200038460AF022FF10B904EB4510EBE708F154
:100B3000010859F8041F11B1B8F1050FF0D10135C2
:100B40002036E5E770C500082DE9F843044668B192
:100B50000F4D0026A946A84600270DE020460AF0C2
:100B600004FF30B909EB0619D9F80C402046BDE85E
:100B7000F88308F104080137D8F8001009B1022FF2
:100B8000ECD10136042E05F11005E4D10024EDE787
:100B900050C700082DE9F04F85B004460D4608F017
:100BA0009CFA3D4E804633683CB99BB1284605F01F
:100BB000C9F8002005B0BDE8F08F13B9374B1B68AA
:100BC0007BB92946204609F030FE0128F1D06FF0AC
:100BD0000300EFE7314B1B68012B02D1304B1C683F
:100BE000EFE705F0A1F9DFF8B4A0DFF8B4903060CA
:100BF0006B1C20D008F071FAA0EB08039D4202D8CC
:100C000000233360E3E705EB08073F1A002108469D
:100C100005F072FB04F0DAFD84B3204609F0CAFE49
:100C200060B300222046114609F096FE002333608F
:100C300004F0DAFDBDE72F46E8E759F8330009EB89
:100C4000C30B28B90133DAF800209A42F5DC09E039
:100C5000039309F0AFFE039B0028F3D0DAF80020DD
:100C60009A420DDC04F0C0FD002300971A46194695
:100C7000184605F01FFA0028BAD1C1E70023E2E7C1
:100C8000002259F83300114609F066FE04F0ACFD6D
:100C9000DBF804309847ABE76011002064110020B6
:100CA0006811002013B50C4689B1002109F02CFD14
:100CB000012809D10E4B186830B100231A46194695
:100CC000CDE9003305F0A2FA002002B010BD0B46BA
:100CD0000A4609F03DFC0128F6D1054B18680028AA
:100CE000F2D0234622462146009405F02FFAEBE786
:100CF00060110020012210B530240368187F5B7F4B
:100D00009A40064B04FB003321B903F50153002040
:100D10001A6010BD03F58253F9E700BF00C003500D
:100D200038B50446114B0068984207D102F030FBF9
:100D30000021292001F0A2FE002038BD0C4DA84260
:100D400002D00C4B98420DD101F0A6FF2368AB42B4
:100D500002D100215620EDE7064A9342ECD1002152
:100D60005720E7E74FF0FF30E7E700BF00C005502E
:100D70000000015B00000A50F0B5304B07680D46DB
:100D80009F428FB029D12E4E06AC0FCE0FC496E8ED
:100D90000700EB6884E80700012B1CBF01238DF8D6
:100DA00026306B681BB14FF48073ADF82830AB6808
:100DB0002BB1BDF8283043F40073ADF828301F4C38
:100DC0002B68204606A9089302F004FBA36843F4AD
:100DD0008053A36000200FB0F0BD1A4B9F4202D099
:100DE000194B9F4227D1194C01AE0FCC0FC60434CA
:100DF00006AE0FCC0FC694E80F0086E80F00EB6834
:100E0000012B1CBF01238DF81D306B6813B1022329
:100E10008DF81230AB682BB19DF8123043F004030B
:100E20008DF812302B683846039301A906AB059361
:100E300002F0E8F8CEE74FF0FF30CCE700C00550F5
:100E4000A0C700080000015B00000A50BCC70008F2
:100E5000F0B50D46044601213A2089B0164601F04E
:100E60000DFE2868FFF770FE2060002800F0C780A4
:100E70006868002800F0C380AB68002B00F0BF80DA
:100E8000EB68002B00F0BB80FFF738FE60600028A5
:100E900000F0B580417F00230422007F02F066F954
:100EA000A868FFF72BFEA060002800F0A880417F13
:100EB00000230422007F02F059F9E868FFF71EFEC4
:100EC000E060002800F09B80417F00230122007F2A
:100ED00002F04CF9002E38D1266127684A4B01AD4B
:100EE0009F424CD1494E0FCE0FC596E8070085E8CA
:100EF00007000121292001F0C1FD63682068597FA6
:100F00001A7F434B42EA0142C3F83427A268517F5B
:100F1000127F42EA0142C3F83827E268517F127F0C
:100F200042EA0142C3F830271C2201A9C3F8202756
:100F300002F050FABB6843F48053BB602046354949
:100F400009B0BDE8F040FFF717BF306898B107F06F
:100F500020FE0146002852D0F3682061002B14BF08
:100F600001220022227518BF01230422007F497F3D
:100F700002F0FCF8B1E77068FFF7C0FDE9E7264E24
:100F80000FCE0FC533682B60244B9F422FD1012118
:100F9000562001F073FD636820685A7F197F1F4B4C
:100FA00041EA0241984228D01D4B984214BF4FF0AD
:100FB000FF3301235B0103F1A04202F57032C2F856
:100FC000A814A16813464D7F097F41EA0541C2F884
:100FD000AC14E1684D7F097F41EA0541C2F8A414D1
:100FE0001C2201A9C3F8942402F00CF8A6E70C4BCC
:100FF0009F42D0D101215720CBE70023DAE74FF001
:10100000FF3009B0F0BD00BF00C00550A0C7000808
:1010100000C0035090C70008BCC700080000015B77
:1010200000000A502DE9F0411F46036906460C46B0
:1010300015467BB15A7F197F012390F814C03020E8
:1010400093402F4A00FB0122BCF1000F20D002F593
:101050000152136033682B4A934232D1DCB114F849
:10106000011B3B46274AC3B9C7B9002033696BB19E
:1010700001223024197F5B7F357D9A40204B04FB91
:101080000133002D38D003F582531A60BDE8F0819A
:1010900002F58252DDE72146E3E74FB19069400651
:1010A00004D5D1630CB114F8011B013F002BDBD038
:1010B00090690006D7D5506A0DB105F8010B013BC8
:1010C000D1E7114A93420FD14FF000084745CCD0E9
:1010D00084B114F80810306808F0F7F80DB105F87D
:1010E000080008F10108F1E7084A9342ECD04FF0FC
:1010F000FF30BBE72146EEE703F50153C5E700BF2C
:1011000000C0035000C005500000015B00000A5001
:101110001FB5044607F06AFD10B1204603F0D2FE69
:1011200094F82430206A53B100230146CDE90033FE
:10113000204623460A4A03F029FF30B103E003A901
:1011400003F006FF18B16FF0010004B010BDCDE947
:10115000000023462046024A039908F0EDFFECE721
:101160009D8B000873B500F14006044630460D46DD
:1011700007F05DFFA8420BD8A28C01A904F1F00092
:1011800007F0E5FE034B02460199304600F03CFEB5
:1011900002B070BD898C0008052910B413DC0C0165
:1011A00000EB011191F84031F3B9012304F59C746F
:1011B000044481F8403140226168124B5DF8044BD1
:1011C000104400F0FDBD002300EB031292F8401123
:1011D0001C0131B9012304F59C74044482F84031A8
:1011E000E9E70133062BEFD1002300EB031292F85D
:1011F00040111C010029EDD00133062BF5D15DF81B
:10120000044B7047B38C0008094B10B55C6874B18F
:10121000236CDB6C9B010AD5022104F1400000F035
:1012200031FE4FF00072236C03F50053DA6410BDF9
:1012300078110020094B10B59C6874B1236CDB6CED
:101240009B010AD5022104F1400000F01BFE4FF083
:101250000072236C03F50053DA6410BD781100208E
:101260002DE9F04190F8307004460E46154657B906
:101270001C22394614300AF064FC142239462046F8
:101280000AF05FFC6763D4F83480B8F1000F12D025
:10129000002E00F096811422314620460AF027FCE9
:1012A000002800F08E81226833689A4203D04FF004
:1012B000FF30BDE8F0813368022BF8DC2C22534369
:1012C0009B4FFA18FB5C002BF1D051680029EED03F
:1012D000B8FA88F884F83830706893684FEA58187C
:1012E0006163E363002867D1D368C4F8CC30136925
:1012F000B068C4F8D030002865D12C22336802FBD6
:1013000003735A699B69C4F8D4203069C4F8D83093
:1013100000285FD12C22336802FB0373DA691B6A51
:10132000C4F8DC20F068C4F8E030002859D12C2241
:10133000336802FB03777B6AC4F8E430BB6AC4F805
:10134000E830234606F1140256F8041B964243F88F
:10135000041BF9D1002D4DD1B8F1000F00F03481FC
:101360000025062326462F46A4F89C51A4F89E315A
:10137000C4F89851A4F81E32C4F81852A4F81C52AC
:10138000402007F058FEC6F83C01002800F08D8090
:1013900005F1140301351B01062DE75406F1100673
:1013A000C6F83471C6F82871EAD10021012007F08F
:1013B0004EFEC4F8EC001EE1FFF7A0FB037FC4F86B
:1013C000CC30437F94E7FFF799FB037FC4F8D43018
:1013D000437F9AE7FFF792FB037FC4F8DC30437F3B
:1013E000A0E7FFF78BFB037FC4F8E430437FA6E759
:1013F0004FF000081C22294604F114000AF077FB84
:101400000028A9D094F83820012A51D1636BC4F880
:10141000A0302B68C4F8A4300023A4F8B230AB7914
:10142000012B62D14FF48053A4F8AE306B79002BBE
:1014300067D1A4F8B030EB7913B1032B7FF437AF49
:10144000022A14BF84F8B43084F8BC302B79082BFE
:101450007FF42DAF2A68237662616B796376AB796E
:10146000A376EB79E376AB68E361EB6823626B69A3
:101470002BB1A26A93421EBFA362AB69E3626B8A7F
:10148000002B3FF414AFE28C9A4262D0D4F83401BE
:1014900020B107F0D2FD0023C4F83431688A07F088
:1014A000CAFDC4F83401002844D16FF0020000E7FF
:1014B000022A7FF4FCAE636BC4F8A030E36B84F8BF
:1014C000B0302B68C4F8A8300023C4F8B83084F8D2
:1014D000B630AB79012B0ED14FF48053A4F8B23063
:1014E0006B79CBB9A4F8B430A5E7022B7FF4DFAE5B
:1014F0004FF4405398E7022B7FF4D9AE4FF440539A
:10150000ECE7022B02D14FF4007392E7012B7FF43A
:10151000CEAE4FF440738CE7022B02D14FF4007330
:10152000E0E7012B7FF4C3AE4FF44073DAE700BF6E
:10153000F0C7000800236A8AC4E94733C4E94A3384
:10154000C4F83021C4F81401C4F81831C4F82431A7
:10155000E2842B8A002B3FF4AAAEA28C9A423FF47D
:10156000FBAED4F8100120B107F067FD0023C4F8EA
:101570001031288A07F05FFDC4F81001002894D0CC
:1015800000232A8AC4E93E33C4E94133C4F80C215C
:10159000C4F8F000C4F8F430C4F80031A284DBE6EB
:1015A000022B08D10D2002F059FF0D20082102F076
:1015B00063FF0D202EE0204607F03DFB6FF0010099
:1015C00077E6002D7FF414AF94F83830022B02D167
:1015D000204607F0DBFB00232246194603F11400E6
:1015E00001330001062B215402F11002C2F834111C
:1015F000C2F82811F2D194F83830022BDBD12368DD
:10160000012BCDD10B2002F029FF0B20082102F085
:1016100033FF0B2002F006FFD4F8CC3084F8AD3055
:10162000D4F8D03084F8AF30D4F8D43084F8AC306B
:10163000D4F8D83084F8AE3094F8BC307BB1D4F80C
:10164000DC3084F8BF30D4F8E03084F8C030D4F80F
:10165000E43084F8BD30D4F8E83084F8BE3004F5C6
:10166000CC73C4F8C43004F50673C4F8C83004F170
:10167000A00104F1400000F007FA0021206C07F0FF
:101680001FFE7022236C062503F58053DA604FF0AD
:1016900000721A6506212046FFF77EFD013DF9D153
:1016A0002268024B284643F8224002E678110020C7
:1016B00038B141B1013AB2F5006F044838BF00209B
:1016C0007047034870470148704700BF037000F03F
:1016D000027000F038B504460D4607F04DFDA388B2
:1016E0009BB223B92B6007F04DFD064838BD14228C
:1016F00063889BB202FB034408342C6007F042FD70
:101700000020F3E70B7000F010B5044600F090FEE7
:10171000002104F1080000F013FE014608B104485E
:1017200010BD04F10C0000F00BFE0028F8D0F6E725
:101730000E7000F0F8B5044616460F4607F01CFD83
:10174000A388E2889BB29A42054605D800233360FD
:1017500007F018FD1748F8BD1422238807F1100C74
:101760009BB202FB03433A460833174603CF674553
:10177000186059603A4603F10803F6D1142238681C
:101780001860238828469BB202FB0343083333606A
:101790002388E2889BB20133B3FBF2F102FB1133E1
:1017A0009BB22380A38801339BB2A38007F0EAFC9D
:1017B0000020D0E70A7000F07FB5012380F83030B8
:1017C00090F836309BB903682433826B0132826310
:1017D0000C4A04900392002202924A68019201226C
:1017E00000920A684169C06807F0FDFC07E0022B1F
:1017F00002D103683C33E8E7002380F8303007B0BB
:101800005DF804FB911900087FB5012380F83130A1
:1018100090F836309BB902683C32836B01338363A6
:101820000C4B04900393002302934B680193012314
:1018300000930B680169806807F0BBFC07E0022B8E
:1018400002D102684432E8E7002380F8313007B063
:101850005DF804FB1D19000890F8363053B90421D7
:1018600003790A4A03F239135B01D150022203685B
:101870005A617047022B07D10068816C11F0020198
:1018800018BF062107F01CBD704700BF00C0035001
:1018900090F8363063B9012203685A619A69D20719
:1018A000FCD504210379084AB9335B01D150704754
:1018B000022B07D10068836C9B074CBF05210921CF
:1018C00007F0FEBC704700BF00C0035010B590F891
:1018D0003630044663B9042203685A619A69920754
:1018E000FCD523790C4AB9335B011021995010BD06
:1018F000022BFCD10068836CDB074CBF052106215D
:1019000007F0DEFC237941F294425B0103F1A0432E
:1019100003F57033E9E700BF00C003502DE9F34140
:101920001446D06A01A9FFF7D5FEA36BA36B013B58
:10193000A363164B984222D00027019D2F61AF6010
:1019400007F01AFCD5F80C800646B8F1000F04D059
:10195000D5E9002339462046C047E06A01A907F0CF
:1019600037FBE06A83889BB26BB101A9FFF7B2FE37
:1019700020460199FFF748FF304607F003FC01209D
:1019800002B0BDE8F08184F83130F5E70B7000F06B
:10199000F7B51446906A01A9FFF79CFEA36BA36BF1
:1019A000013BA363354B984230D094F83610019D2B
:1019B000002939D123689A6C12F4007229D0304A78
:1019C000A9602A614FF4007203F500539A6407F08E
:1019D000D3FBEF68064637B16A68AB682046D31A76
:1019E00029692A68B847A06A01A907F0F1FAA06A34
:1019F00083889BB2002B37D001A9FFF76BFE2046EE
:101A00000199FFF7D9FE304607F0BCFB012003B077
:101A1000F0BD996CC80523D51A49AA6029614FF415
:101A2000807203F50053D1E7022919D12368DA6CDB
:101A300012F4007209D0124A03F500532A61002201
:101A4000AA604FF40072DA64C1E7D96CC90507D502
:101A50000C49AA6029614FF4807203F50053F2E744
:101A600000232B61AB60B2E784F8303094F8353056
:101A7000032BC8D02046FFF7EFFEC4E70B7000F041
:101A80000D7000F00C7000F0F0B504468FB0534FAD
:101A900006AE0D460FCF0FC697E80F0086E80F0081
:101AA0001822002168460AF04CF8002C00F09480BF
:101AB0001DB94B4C20460FB0F0BD602200212046DE
:101AC0000AF03FF802222B6884F8362023602A7C33
:101AD0002271444A934277D0434A9342E9D14FF46A
:101AE00080134249424AC4E904230023616284F816
:101AF0003130D5E9091284F83030A1623D480B80BD
:101B00004B808B8084F83030E26213805380938066
:101B100084F8313084F8333008F01EFA636A98682C
:101B200008F01AFA10202A7C334B03EB4211C1F85B
:101B30009404AE7B2F7B253247EA0640C1F8AC0403
:101B4000E97B687B03EB421340EA014CC3F804C015
:101B500084F82010E6772077E7766B7F204663775E
:101B6000AB7F84F82130EB7FA37795F8203084F8A1
:101B7000223007F01CFA02238DF82530AB68CDF82F
:101B800034D008936B8AADF82830AB8AADF8263094
:101B9000AB7D8DF82430AB690B930123ADF8063093
:101BA00007F0EAFA06238DF818302B79064606A9C5
:101BB000286873B107F097FB2046FFF7A5FD0446A0
:101BC000304607F0DFFA75E74FF470230B490C4AF3
:101BD00089E707F084FBEFE70A4C6BE790C8000841
:101BE000037000F00000015B00000A5000C900080B
:101BF00001001000E8C8000800C003500CC900082C
:101C000001000F00027000F0F7B50D4604460028F1
:101C100000F0898007F0B0FA012D064644D1E36A4E
:101C20009B889BB2002B46D0A06800F035FC0023B7
:101C3000E06A84F8313083889BB27BB101A9FFF759
:101C400049FD019FA06807F1080100F045FC374BF2
:101C50003B61E06A83889BB2002B3AD1204607F0B3
:101C6000DAF98304FAD5032D11D1E06800F014FCF1
:101C70000023A06A84F8303083889BB2002B35D1D2
:101C800094F83530032B02D02046FFF7E5FDA36B17
:101C90003046002BC1BFA36BA36B03F1FF33A363DB
:101CA00007F070FA002009E0022D09D1A36A9B8891
:101CB0009BB2002BD9D107F065FA1D4803B0F0BDE7
:101CC000032DE4D1E36A9B889BB2002BACD1A36ABD
:101CD000A6E701A907F07CF9019BDF68002FB8D0C7
:101CE000002220469B681149B847B2E76946FFF7D2
:101CF000F1FC009DE06805F1080100F0EDFB0B4BE5
:101D00002B61A06A83889BB2002BB9D0694607F08B
:101D10005FF9009BDD68002DF3D0002220469B6810
:101D20000249A847EDE70348C8E700BF097000F083
:101D3000087000F0027000F010B5044600283BD097
:101D40000321FFF761FF0023E17F1A46E07E01F0E7
:101D50000DFA002394F820101A46207F01F006FAAD
:101D600094F8363013BB0A2223685A61636A986874
:101D700008F0F5F8A06800F035FBE06800F032FBF1
:101D800000F00EFB0023A26A138053809380E26A66
:101D9000138053809380A36B002B05DD0123A36385
:101DA000A36BA36B013BA363002010BD022BDDD10D
:101DB000206800F071FFD9E70048F6E7027000F0F4
:101DC000F0B587B005461646FFF772FC0446B0B979
:101DD00004930C4BCDE901166A46A86A01A9039643
:101DE0000593FFF7A7FC044648B995F8303033B99E
:101DF0002846FFF74DFD28460099FFF7DDFC2046F9
:101E000007B0F0BD017000F0F0B587B0044616468B
:101E1000FFF74EFC054658BB0493194BCDE901165C
:101E2000059394F8363003962BBB23689B6903F027
:101E3000020313B92046FFF749FD6A46E06A01A98B
:101E4000FFF778FC054698B994F8313083B907F06C
:101E500093F9E36A06469B889BB233B1204600990A
:101E6000FFF7D2FC012384F83430304607F08AF9BA
:101E7000284607B0F0BD022BDCD123689B6CD6E767
:101E8000017000F02DE9FF410D460446002800F0E6
:101E90008F8007F071F9012D06466BD1E36A9B88AC
:101EA0009BB2002B6DD04FF00008A06800F0F4FA50
:101EB000E06A84F8318083889BB20BB302A9FFF7F4
:101EC00009FC029FA06807F1080100F005FBE06A29
:101ED000C7F8108002A907F07BF8E06A83889BB2FC
:101EE00033B103A9FFF7F6FB20460399FFF78CFCFB
:101EF000029AD76827B1D2E9002300212046B847CB
:101F0000204607F088F88304FAD5032D2DD1002749
:101F1000E06800F0C1FAA06A84F8307083889BB250
:101F20001BB301A9FFF7D6FB019DE06805F108018D
:101F300000F0D2FAA06A2F6101A907F049F8A06A5F
:101F400083889BB2002B2BD003A9FFF7C3FB20464D
:101F50000399FFF731FC019AD56835B15168936850
:101F60002046CB1A12680021A847304607F00AF92C
:101F7000002009E0022D0AD1A36A9B889BB2002BA6
:101F8000C5D107F0FFF80B4804B0BDE8F081032D80
:101F9000EBD1E36A9B889BB2002B84D1A36A7EE7D6
:101FA00094F83530032BD6D02046FFF755FCD2E706
:101FB0000148E9E7087000F0027000F008B5034836
:101FC00007F0CAFFBDE8084009F040B9E8C80008BA
:101FD000014807F0C1BF00BFE8C800080348044A31
:101FE0000449121A921007F0D2B800BFD0CA0008F4
:101FF0007CCC00083C42002008B500F02FF8FFF729
:10200000EDFF124B12498B4212D30020114B1249A3
:102010008B4218D3FEF782F9186850F822405868AE
:1020200040F82240013298688242F5D30C33EAE747
:102030000022F8E71C6844F8220001325C68A242E2
:10204000F8D30833E4E70022F8E700BFACC9000882
:10205000B8C90008B8C90008B8C900084FF48041E1
:10206000124B134A70B59A60D3F88820114D42F490
:102070007002C3F88820104A05F5005491664FF0AD
:10208000FF3222660D4A62660222C3F8D020BFF3F7
:102090004F8FBFF36F8F4FF44036002002F0DEF910
:1020A0000020E66002F0BEF92E6170BD00ED00E098
:1020B000000000080080004400900050F7FF370047
:1020C000014B1868704700BF38100020084B1B6F89
:1020D00003F00703022B04D0032B05D0012B05D0FE
:1020E000FEE7044B18687047034BFBE70348704753
:1020F000008000503810002040100020002D3101D9
:1021000008B5FFF7E3FF054B1B6FC3F30333013340
:10211000B0FBF3F0024B186008BD00BF0080005018
:1021200034100020014B1868704700BF4010002099
:1021300000487047002D31014FF0B4429368C3F35B
:1021400004430C2B0AD8DFE803F00B09090909093D
:10215000072119091B1D1F000F48704700207047F9
:10216000936803F04073B3F1807F11D0B3F1007F27
:1021700010D0002B094818BF00207047084870474E
:102180000848704708487047084870470848704733
:102190000848704708487047405DC60000093D0088
:1021A000C0EA210180BA8C010048E801005A6202AD
:1021B0000024F40080841E0040420F00014B186888
:1021C000704700BF3C1000202DE9F04F9A46554B58
:1021D00085B01B7806460F461546DDF83C909DF805
:1021E00044B0DDF85080002B00F08C80072A00F20C
:1021F0008B800E9B002B00F08780B9F1000F00F060
:102200008380129BB3F5006F7EDC012802D1109B06
:10221000002B79D0444B03EB05131B7B002B75D0AF
:10222000424C10220021684609F08BFC04EB451457
:102230001022002F58D13946204609F082FC43F283
:1022400010036380BBF1000F03D1E37843F0030375
:10225000E370364A0E9B02EB451CCCE90193129BBE
:102260006901581E9DF84C30C0F30A0003F00303C7
:102270009B0643EA001E53582D48012E00EA030036
:102280004EEA0003CDF800A0535041D113230CF1C6
:10229000100ECCF80C309CE80F008EE80F006FF0A9
:1022A0000301DCF81C20109B61F39F02012FCCF886
:1022B0001C20CCF8143003D1CCF81890CCF80430A2
:1022C0000027194A290102EB051342F80180159AEB
:1022D00028465A60694622469F605E7300F0CCFF34
:1022E000384605B0BDE8F08F0021204609F029FCF2
:1022F0004FF444736380BBF1000FAAD1E37843F03D
:102300003003A5E70B48ECE70B48EAE70B48E8E7A2
:10231000B8F1000FD4D19CF8023068F304138CF8A4
:102320000230CDE79040002084120020841100206C
:102330000F80FFF3028000F0018000F0078000F0C2
:1023400038B5124B05461B78DBB1E0B106F014FF3F
:102350000F4A00231146147B54B92B6001251A0142
:1023600001EB03131D738C5006F00CFF204638BDA3
:102370000133082B02F11002EDD106F003FF0548EE
:10238000F5E70548F3E70548F1E700BF9040002076
:1023900084120020048000F0028000F0018000F030
:1023A00038B506F0E9FE002305460B4A147B6CB9EC
:1023B0000133082B02F11002F8D100F017FF074B90
:1023C00028461C7006F0DEFE204603E0284606F094
:1023D000D9FE034838BD00BF841200209040002081
:1023E000058000F00D4B10B51B78044693B107280B
:1023F00012D806F0C1FE0A4B03EB04131A7B2AB174
:1024000000241C7306F0BEFE204610BD06F0BAFE86
:102410000448FAE70448F8E70448F6E7904000204B
:1024200084120020068000F0028000F0018000F09D
:10243000154B13B51868002301908DF8043006F091
:102440009BFE124B1C7824B106F09CFE104802B093
:1024500010BD01221A7006F095FE0E4B01A81C73E8
:102460001C7783F82C4083F83C4083F84C4083F879
:102470005C4083F86C4083F87C4008238DF807307B
:1024800000F0CAFE2046E2E7B0C8000890400020F5
:10249000038000F0841200200A4A08B5127852B175
:1024A00007280AD8084A02EB00131B7B3BB100F057
:1024B0002FFF002008BD0548FCE70548FAE705485E
:1024C000F8E700BF9040002084120020028000F056
:1024D000018000F0078000F00B4A10B512780C461E
:1024E00062B107280CD859B1084A02EB00131B7BD4
:1024F00043B100F01FFF2060002010BD0448FCE73E
:102500000448FAE70448F8E79040002084120020CD
:10251000028000F0018000F0078000F0184B2DE9E8
:10252000F0411F6D5B6D1F4000D5FEE701260025C1
:10253000144CDFF85880374218D02368C8F8506030
:10254000A3B1A168284601316268A1609847637B06
:10255000012B0BD150B90C4B03EB45131A7B60F3E5
:1025600041021A731A7F60F341021A770135082D70
:102570004FEA460604F11004DDD1BDE8F08100BF4A
:102580000000045084120020841100200020045018
:1025900070B5044601250B4E04B970BD94FAA4F041
:1025A000B0FA80F005FA00F306EB001224EA030407
:1025B0005368002BF0D0117B11B191689847EBE77D
:1025C0009847E9E704130020074BD3F82404D3F815
:1025D000202403F50053104000F0553020F0502027
:1025E000C3F82004FFF7D4BF00C00350074BD3F853
:1025F0002404D3F8202403F50053104000F0AA303F
:1026000020F0A020C3F82004FFF7C2BF00C0035091
:1026100038B5104B0546D3F880300C4603F0030361
:10262000022B0BD0032B0DD0012B0FD1FFF74EFD4A
:102630000E2305B1286004B1236038BDFFF77CFD8F
:102640000723F6E7FFF73CFD0623F2E700231846D1
:10265000EFE700BF0080005038B5184B0546D3F8AF
:1026600020010C4600F00700062823D8DFE800F020
:10267000040A0E16121A1E00012305B1286004B1C7
:10268000236038BDFFF71CFD0523F6E7FFF74AFD81
:102690000323F2E7FFF750FD0723EEE7FFF748FDBE
:1026A0000223EAE7FFF70CFD0623E6E7FFF73AFD12
:1026B0000423E2E700231846DFE700BF0080005054
:1026C00038B5174B0546D3F828310C4603F00703FD
:1026D000013B052B20D8DFE803F003131B0F0B177A
:1026E000FFF7EEFC052305B1286004B1236038BD77
:1026F000FFF7E6FC0623F6E7FFF71EFD0723F2E7E8
:10270000FFF710FD0323EEE7FFF70CFD0423EAE7D4
:10271000FFF70EFD0223E6E700231846E3E700BFBC
:102720000080005073B50D460021114B0191D3F884
:102730008041064604F00304022C13D0032C0CD075
:10274000012C13D101A8FFF787FF10240EB1019BC4
:10275000336005B12C6002B070BDFFF7EDFC0724BB
:102760000190F3E7FFF7E4FC0190EFE70C46EDE79B
:1027700000800050002337B50193164B0546D3F86F
:1027800020320C4603F00703042B21D8DFE803F0C6
:10279000030B11161B0001230DB1019A2A6004B12D
:1027A000236003B030BD002101A8FFF789FF122389
:1027B000F2E7FFF7C1FC07230190EDE706F0F3FC19
:1027C0000A230190E8E7FFF7F9FC09230190E3E70A
:1027D0000023E1E70080005038B5104B0546D3F8E0
:1027E00040310C4603F00303022B0BD0032B0DD01A
:1027F000012B0FD106F0D7FC0A2305B1286004B1E4
:10280000236038BDFFF7DAFC0923F6E706F0CEFCBB
:102810000C23F2E701230020EFE700BF0080005007
:10282000002337B50193164B0546D3F860320C46AA
:1028300003F00703013B032B1FD8DFE803F0020E70
:102840001914002101A8FFF707FF10230DB1019A09
:102850002A6004B1236003B030BD002101A8FFF756
:10286000BBFF1123F2E7FFF767FC07230190EDE7B9
:10287000FFF75EFC02230190E8E70023E6E700BFD4
:1028800000800050002337B50193164B0546D3F85E
:1028900094320C4603F00703013B032B1FD8DFE8FB
:1028A00003F0020E1914002101A8FFF7D5FE102332
:1028B0000DB1019A2A6004B1236003B030BD00213C
:1028C00001A8FFF789FF1123F2E7FFF735FC072383
:1028D0000190EDE7FFF72CFC02230190E8E70023CD
:1028E000E6E700BF0080005038B5144B0546D3F82A
:1028F00000020C4600F0070004281BD8DFE800F0B7
:1029000003090D111500012305B1286004B12360EE
:1029100038BD06F048FC0A23F6E7FFF74FFC092311
:10292000F2E706F043FC0C23EEE7FFF7E9FB0F2389
:10293000800AE9E700231846E6E700BF0080005060
:1029400038B5144B0546D3F808020C4600F00700D2
:1029500004281BD8DFE800F003090D11150001233E
:1029600005B1286004B1236038BD06F01CFC0A23C1
:10297000F6E7FFF723FC0923F2E706F017FC0C2328
:10298000EEE7FFF7BDFB0F23800AE9E700231846B7
:10299000E6E700BF0080005038B5104B0546D3F87D
:1029A00040320C4603F00303022B0BD0032B0DD057
:1029B000012B0FD106F0F7FB0A2305B1286004B103
:1029C000236038BDFFF7FAFB0923F6E706F0EEFBBC
:1029D0000C23F2E701230020EFE700BF0080005046
:1029E00038B5104B0546D3F860310C4603F00303AD
:1029F000022B0BD0032B0DD0012B0FD106F0D3FBF4
:102A00000A2305B1286004B1236038BDFFF7D6FB67
:102A10000923F6E706F0CAFB0C23F2E701230020A6
:102A2000EFE700BF00800050B0F5207F1FD009D82D
:102A3000B0F5007F15D003D868B1B0F5C07F0AD0DB
:102A400000200CE0B0F5607FFAD10B4BD3F880008A
:102A5000C0F3011003E0084B186FC0F303300130DE
:102A60007047054BD3F89000C0F30460F7E7024BC2
:102A7000186FC0F38020F2E700800050430905D0B2
:102A8000012B0CD0022B084B18BF002300F01F00B5
:102A900039B103F58053012282401A607047034B1D
:102AA000F4E703F50053F6E76880005064800050B7
:102AB0001FB5002180280446CDE9001100F099805F
:102AC00029D8002800F09980A0F120043D2C35D8A9
:102AD0003D2C33D8DFE804F091999199A9A9A9A9CF
:102AE000A999B33CC9603C99999932323232323259
:102AF000323299999968D399323232323232323243
:102B00003232323232A9919191CE3C3CD8774DAEDF
:102B1000323232323288B0F5B06F00F090802DD86A
:102B2000B0F5207F71D00CD8B0F5C07F65D0B0F57E
:102B3000007F65D0B0F5807F00F08680009804B0FB
:102B400010BDB0F5607F6BD00DD8B0F5407FF5D1EA
:102B5000FFF7D6FA02464FF42070FFF765FFB2FB8D
:102B6000F0F252085AE0B0F5806F5ED0B0F5A06F79
:102B7000E4D100216846FFF7FDFDDFE7B0F5106FF7
:102B800078D016D8B0F5E06F79D00AD8B0F5C06F1C
:102B90006BD0B0F5D06FD1D100216846FFF7A4FE0D
:102BA000CCE7B0F5F06FC9D100216846FFF718FFF8
:102BB000C4E7B0F5406F3DD013D8B0F5206F63D0B7
:102BC000B0F5286FBAD10021324B0391D3F870329F
:102BD00003F00303012B02D103A8FFF7FDFD039BC4
:102BE0003CE0B0F5486FA9D100216846FFF74AFEE6
:102BF000A4E7FFF76BFA0090A0E7FFF781FAFAE786
:102C0000FFF764FA0246204604E0FFF779FA02462D
:102C10004FF42070FFF708FFB2FBF0F200928DE74F
:102C200001A8FFF7F5FC019AEDE700216846FFF7E0
:102C300013FD83E700216846FFF742FD7EE7002190
:102C40006846FFF76FFD79E74FF0E02302911B69BB
:102C50005B0705D5FFF754FA0290029B00936DE7DE
:102C600003A902A8FFF7B8FDF7E700216846FFF7C0
:102C7000B3FD63E700216846FFF762FE5EE70021CF
:102C80006846FFF789FE59E700216846FFF7C8FD4F
:102C900054E700BF0080005010B506F0DAFA0423B4
:102CA00000F5805100F500520B6113610B61136157
:102CB0000B6113610B611361202341F20201036177
:102CC0000023C360836041614FF4A0218361836569
:102CD00041620549C36103628362C3624363036562
:102CE000D164036310BD00BFFF3F0D03F8B5054677
:102CF0001446084641B9334B9D4230D0324B9D4279
:102D000008BF5720FFF7D4FEAB68DE072FD5B0FB16
:102D1000F4F46E68013C16F0010626D028212846FE
:102D200006F093FAAB6C99071BD1AB6CDA071AD497
:102D3000AB6C13F0020F14BF06270027284606F0DD
:102D400088FA2B6923F07F4343EA04632B61002E4A
:102D500037D039462846BDE8F84006F0B1BA5620CB
:102D6000D0E70527EAE70927E8E73746E9E76B6890
:102D7000AB6DDB07AB6848BF640003F0E003402B9A
:102D80001BD014D8002B0CBF102308236343410130
:102D9000B1FBF3F20D4B203A03EAC20228460121AF
:102DA00006F053FA2A63BDE8F84006F04EBA602BED
:102DB00005D0802B05D10123E8E70623E6E70423AD
:102DC000E4E7F8BD0000015B00000A50F8FF7F0057
:102DD0002DE9F8439846436804460E4617461BB152
:102DE00040F6FF7106F031FA2046FFF755FFF189F2
:102DF000737B62690B43318A22F44C520B4322F0FD
:102E00000F0213436361A268317E337B22F080425C
:102E100022F0E2020B4313437269D6F80890134381
:102E2000A360B9F1000F03D1A36843F00043A3608E
:102E3000F069002862D0857A037A6D04A26845EAB9
:102E40008355684B13401D43838803F4C0431D43DF
:102E5000437845EA8305437B45EAC305837B45EA1E
:102E60000315837845EA8325A560E568D0E9043237
:102E700013435D4A2A401343827943EA8223C2798D
:102E800043EA4223E360037803F0FD02012A08BF0E
:102E9000E268A3F1020304BF42F00402E260012BE6
:102EA000524A534B76D8944272D0524A944214BF3D
:102EB0004FF0FF32012203EB421341F2944202250C
:102EC0009D50437A04F5805293621BB1E36843F44A
:102ED0000063E360C37A5BB1E36843F40043E360FB
:102EE000424B9C4265D1037B434A03F00F03536777
:102EF000636AC27B23F00303134363623FB197F815
:102F0000203004F58050002B5DD001230362B8F11E
:102F1000000F27D004F5805011B14FF400438365B2
:102F2000324BB8F822109C4298F8213058D0314AE0
:102F300094420DD10122112B34BF012702272F4DBE
:102F4000B1F5006FAF5494BF012702272C4DAF5449
:102F5000A26D0B4322F4F95222F01E021343A36523
:102F6000012383650521204606F08DF9B9F1000F94
:102F700003D04A467168FFF7B9FE2046317806F063
:102F80009FF9A36CDB4313F4405FFAD1BDE8F883EB
:102F9000002290E794420AD0164A944214BF4FF0A0
:102FA000FF32012203EB421342F2944287E70022F0
:102FB000F8E7104B9C4201BF037B0F4A03F00F035D
:102FC000C2F8803094E7E26997F8223097F82150F0
:102FD00022F009022B43134343F00103C36196E738
:102FE0000022A8E7E39BBDFFFFF9F0870000015B2B
:102FF00000C0035000000A5000900350934000208E
:1030000091400020436870B504460E460D691BB11F
:1030100040F6FF7106F019F92046FFF73DFE2269E0
:10302000737BB17B22F087020B43134343F0800391
:1030300023610DB323692A7F23F0F80343EAC21307
:103040002A7813432A7943EA42136A7A43EA02133D
:10305000EA7B43EA82132361E268D5E9053122F075
:10306000F04222F470220B4313432A7B43EA82236B
:103070006A7B43EAC233E360A368F27B23F0030375
:10308000134343F00103A36025B36B88A26803F4E4
:10309000C0431343A360A3686A7943EA8223A36011
:1030A000AB79E979626A1B01090203F0700301F44C
:1030B000E06122F4772222F4EE620B4313432A7A72
:1030C000120302F4E04213436A7F120402F47022F6
:1030D000134363626369327B23F00F03134363611D
:1030E000ADB16B89A3616B7B3BB11D4B9C4224D17D
:1030F000AB7B1C4A03F00F035367EB7B3BB1184BD0
:103100009C4224D12B7C174A03F00F031367D6E9A6
:1031100001122046FFF7EAFD0521204606F0B3F82C
:10312000282106F092F83378A36306F08EF8A36C9A
:10313000DB4313F4405FFAD170BD0B4B9C4201BFDF
:10314000AB7B084A03F00F03C2F88030D5E7064B8B
:103150009C4201BF2B7C034A03F00F03D367D6E7E1
:103160000000015B0090035000000A502DE9F0417F
:1031700005460F461E4690464AB101233022194C9F
:103180008B4002FB004436B304F5825423600F21C8
:10319000072F05EB450388BFA7F108044FEA031387
:1031A000114895BFBC00A40004330C3308FA04F2A4
:1031B000A140184406F099F8B8F1000F09D1012395
:1031C0003021084ABB4001FB05223EB102F5825284
:1031D0001360BDE8F08104F50154D7E702F5015210
:1031E000F6E700BF00C0035030C0035010B51520F3
:1031F00001F006F90024FF22064B21465C652020E1
:103200009A625C60FFF73AFC2146BDE8104021203D
:10321000FFF734BC0000045010B501210446202003
:10322000FFF72CFC01212120FFF728FC0122114B84
:1032300015205A60227812069A606178A27842EAD4
:1032400001429A61FF229A6200229A631A644FF047
:1032500000425A654FF0FF3203F500531A6501F042
:10326000FDF81520E17801F007F9BDE810401520C0
:1032700001F0D8B800000450F8B50125C3B2D1F868
:1032800000E091F80AC00F7B0C469D40CB7A1D49A7
:103290001D4E0D65810001F1A04101F58821C1F8A5
:1032A00004E04FF0300E0EFB00601B05617B43EA2B
:1032B0000C4343EA475322F003020166C3650267E9
:1032C00005F05AFF114B5D65237A13B1336C2B4324
:1032D0003364637A13B1B36B2B43B3632279A3795D
:1032E00043EA0243074A93616179E37943EA014380
:1032F00006498B61044B55639D64BDE8F84005F0B9
:1033000041BF00BF002004500000045000100450D2
:1033100010B50124C0B2844005F02EFF044B5A6D55
:1033200022EA04025A659C62BDE8104005F02ABFFB
:1033300000000450F8B50125C3B204469D4005F0D5
:103340001BFF3022094B1E6D5F6B02FB04335C6E6A
:1033500005F018FF3D4206D1C4F30A1008B9354202
:1033600000D10130F8BD0020FCE700BF0000045090
:103370004FF48032054B9A6641F6713203F51C33E7
:10338000DA63012203F50053DA60704700900050C1
:10339000012100F5805310B5596040F6AA6341F24F
:1033A000050243610023094C8360C365C26000F5D8
:1033B00000520361C361C3649464054C8365A042F9
:1033C00004BF03654365516010BD00BFFFFF0100EE
:1033D00000C0055038B50D46FFF7DAFF012200F5B1
:1033E00080535A602B8AA97B826843F0010343EA29
:1033F00081231343836083682A7D044643EA427332
:103400008360AB7C5BB1194B984202BFEA7CA3F5A9
:103410001033C3F8C821C36D43F08003C3652B7B11
:103420002046D5E9011243F48053E36005F06CFFB8
:103430006B7B0BB1102363616B7D1BB1A36843F4FD
:103440008033A360AB7D1BB1A36843F40043A3604A
:10345000EB7D2A7E1B07120503F0E04302F4E00235
:103460001343A3652B78636138BD00BF00C00550CE
:10347000034B5A68D20702D5DA69002AF9D170479E
:1034800000800A50054B9A689107FCD45A6892074D
:10349000F9D4DA69002AF6D1704700BF00800A50DB
:1034A00008B5FFF7E5FF0222014B1A6108BD00BF16
:1034B00000800A5008B5FFF7E5FF0122024B03F533
:1034C00080514A601A6108BD00800A5008B5044B5B
:1034D0005968012903D1FFF7E3FF024B596008BD8A
:1034E00000800A5000A00A5010B5064CFFF7CAFF32
:1034F0006368012B03D1FFF7E9FFFFF7C3FF0378F0
:10350000E36010BD00800A50B8B94A680B7812B168
:10351000127843EAC2034A7843EA42038A6812B146
:10352000127843EA82138A7843EA8203CA6812B1A6
:10353000127843EA4223014A9364704700800A509C
:1035400008B9014B5964704700900A5008B9014B03
:103550005964704700A00A5008B9014B19647047BC
:1035600000A00A5010B9024B186C70470020704739
:1035700000800A5048B911B1012903D07047044BAB
:10358000D86C7047024B186D70470020704700BF21
:1035900000800A5040B911B1012903D07047034B94
:1035A000DA647047014B1A65704700BF00800A500B
:1035B0002DE9F84301F0CAFE0128074607D901F0BA
:1035C000F9FE051E04DA01242046BDE8F883002533
:1035D000DFF8788098F8003003F0FF0683BB4FF0E7
:1035E0005009184C04F110032046C4E90066A3609A
:1035F000C4F80C9001F02EFF206640B90124012F81
:10360000E2D9284601F0F8FE0028DDDADBE70E4CAF
:10361000314604F1100322460120C4E90066C4E9E2
:10362000023901F0D9FF20660028E7D003214120AC
:1036300000F022FF412000F0F5FE012388F8003061
:103640000024DCE7681500200415002095400020C8
:1036500008B501F07BFE022805D04FF480620020FF
:10366000064B9A6608BD064B4FF0FF31186E01F00D
:1036700033FF0028F1D00120F4E700BF0090005094
:10368000681500204FF4806208B5084B9A6601F077
:103690005DFE022807D1064B186E01F04DFF003881
:1036A00018BF012008BD0020F9E700BF00A00050AE
:1036B0006815002008B54FF098435B6CD90208D517
:1036C00001F044FE0238012803D8094B186E02F0BD
:1036D00011F84FF098435A6CD202FCD55B6D054A45
:1036E00003F4702313604120BDE8084000F0B6BE2B
:1036F000041500204410002038B5054600283AD0B3
:10370000FFF7A6FF0446002836D1284606F0D4F875
:1037100095F8203043B94FF098435A6CD202FCD54B
:103720005D6D05F470251BE04FF09842936D43F0FA
:103730000203936501F00AFE02281AD1104B4FF0E4
:10374000FF31186E01F0A0FF4FF09842936D23F007
:103750000203936590B94FF4A0220A4B1D681A60CA
:10376000FFF790FF04463DB12846BDE8384005F01C
:10377000DBBD2046E8E72124204638BD0124FBE7D5
:1037800004150020441000202DE9F0410F46017877
:103790000446013990468AB0042947D8DFE801F091
:1037A0000332373C41004025142621490C340022C5
:1037B0005D43C7E90122FA6138463960294606F0BF
:1037C00072F80123384646F0005604A945F000552A
:1037D000CDF804800293039504940593069607940C
:1037E0000893099606F04BF8384601A906F047F809
:1037F000384607A906F04DF83846FFF77DFF0AB0B6
:10380000BDE8F081402520260A490C34CFE7402549
:10381000202609490C34CAE780254026074914347C
:10382000C5E78025402606491434C0E72120E6E795
:10383000000201030003010300040103000501036A
:103840000006010310B591B188B10023C0E901332E
:10385000084B00F10C0203F1200153F8044B8B429A
:1038600042F8044BF9D103230370002010BD21203E
:10387000FCE700BF93BE00082DE9F04F0D469046CF
:1038800004468BB000287DD000297BD0002A79D057
:103890000278013A042A75D8DFE802F0030C586078
:1038A0006B001427394A00F10C0B00F1040A2C3488
:1038B000B94608E020274FF01C09354A00F10C0BEF
:1038C00000F1040A2C34402199455BD80AF1040325
:1038D0000AEBD10653F8040B002855D1B342F9D1B5
:1038E000DAF80030013901EA0306C5E90020314663
:1038F000A860E861284605F0D6FF2846DAF80010EF
:1039000005F0D1FF012249F00053284601A947F0F4
:10391000005746F00056CDF804B002920397049485
:1039200005920696CDF81C800892099305F0A7FF32
:10393000284604A905F0A3FF284607A905F0A9FF1A
:103940002846FFF7D9FE0BB0BDE8F08F2027114ABB
:1039500000F10C0B00F1040A2C34A9E740274FF0CA
:1039600030090D4A00F1140B00F1040A543480218F
:10397000AAE74027094AB94600F1140B00F1040AEE
:103980005434F4E72120DEE70F20DCE700020303D4
:1039900000030303000403030005030300060303FD
:1039A0002DE9F04387B00D4691461E460446DDF8EA
:1039B0003880002836D0B8F1000F33D002B98BBB65
:1039C0006B1EDBB2042B2DD8174AD75C0F9B9F428E
:1039D00028D80023280200F1407000F5807031469D
:1039E000C4E901332060E361204605F05CFF012358
:1039F0006946204646F0005647F00057CDF8009043
:103A000001930296CDF80C800493059705F037FFDB
:103A1000204603A905F03DFF2046FFF76DFE07B0E5
:103A2000BDE8F0832120FAE7B4C80008F0B50F46DE
:103A300016461D46044693B010B9212013B0F0BDC0
:103A40000029FAD0002AF8D0002BF6D00023314606
:103A50001A46384605F088FD0028EFD1304602A905
:103A600005F01BFD0028E9D1EB68022B0AD039686C
:103A70003F48029A81426B6902D01830814270D16E
:103A80009A42DAD82B68002BD7D14FF060623846C3
:103A9000C4E90023A360E36101A905F0BBFD002890
:103AA000CCD10199204621F4F061019105F0FBFE93
:103AB0006946284605F0AEFD0028BFD12046009992
:103AC00005F0F1FE384609A900F054F80028B5D1F8
:103AD000204609A905F0D3FE38460CA905F05EFE84
:103AE0000028ABD120460CA905F0C9FEEB684BB10C
:103AF000284606A900F03EF800289FD1204606A9D6
:103B000005F0BDFE304603A905F048FE002895D11A
:103B1000B368DA040CD59B0427D50621F369326912
:103B20001B6801FB03225B0043F0005303920593E3
:103B3000204603A905F0A3FE28460FA905F02EFE96
:103B400000287FF47BAF20460FA905F0A2FE0325D5
:103B50002046FFF7D1FD01287FF470AF013DF7D17A
:103B60006CE7B3EB420F8DD267E7292066E700BF11
:103B7000200000B090B189B101234B60C368013BC4
:103B8000012B08D88269064B1AB10A6000208B60AD
:103B90007047044AF9E74FF00053F7E721207047D8
:103BA00008000020BCC8000870B50E461546044643
:103BB0008AB000285BD0002959D0002A57D00123B1
:103BC00029461A46304605F0CFFC00284DD1B3688F
:103BD00013F4C04F4BD0AB6803F4C043B3F5005FA0
:103BE00045D1254BA060C4E90030E06107A930460B
:103BF00005F010FD002838D12046079905F053FE46
:103C0000304601A9FFF7B6FF78BB204605F037FE26
:103C1000304604A905F0C2FD38BB204604A905F0D2
:103C20002EFEEB681BBBAB6803F4C043B3F5005F2B
:103C30001DD16946284605F05BFCB0B9009B6A6956
:103C40009A4216D32A6943F0005307920122204674
:103C500007A908920325099305F01BFE2046FFF7EC
:103C60004BFD012801D1013DF8D10AB070BD2120E2
:103C7000FBE71D20F9E700BF000001022DE9F0413C
:103C80008CB00D46DDE912860446149F002867D0EB
:103C9000002965D0B8F1000F62D0002F60D089688C
:103CA00089045DD5296801F07041B1F1404F4DD0D4
:103CB000002B4DD1531E042B52D82A4B03EB02226A
:103CC00000232846C4E901332260E36109A905F015
:103CD000A1FC002837D12046099905F0E4FD3146C2
:103CE000204605F0E0FD69462846FFF743FF50BB3C
:103CF0006946204605F0C3FD284603A905F04EFDA0
:103D000008BB204603A905F0BAFD012346F0005682
:103D1000CDF818800793089609970A93159B43F0EE
:103D200000530B932B6803F07043B3F1404F11D154
:103D300009A9204605F0A3FD06A9204605F09FFD30
:103D40002046FFF7D9FC0CB0BDE8F081064AB7E782
:103D5000064AB5E706A9204605F091FD09A9ECE75A
:103D60002120F0E700010106000003060000010623
:103D700038B5134DFFF71CFC124B134A1349144876
:103D800003F0F0F82B7803F0FF04BBB901F0DEFA82
:103D9000012802D901F00EFB04462B782BB90D4BFC
:103DA0000D481B68984701232B7001F0CFFA0128BA
:103DB00004D92046BDE8384001F01EBB38BD00BF25
:103DC00096400020F39800081999000859990008B6
:103DD0004399000858100020782200202DE9F04176
:103DE0000F4614461E46C4B010B96FF086000DE0B1
:103DF0000029FAD0002AF8D0002BF6D0038803F46B
:103E00004F42B2F5824F04D06FF0850044B0BDE858
:103E1000F081DAB2122AF7D123F0FF03B3F5E24FB3
:103E200024D143883360E3B9E30033603368B3F5EA
:103E3000807FE9D1002318463D493D19214415F8FA
:103E4000012D11F8014D1043121B18BF0023AF4282
:103E500043EA0203F3D10028C7D0002BC5DA0020C3
:103E6000D4E70733B4EBD30FE0D0BEE7B3F5824F0E
:103E70005BD10B78042BB8D12422002119A807F0BC
:103E800060FE19A805F080FA00284BD14FF0880891
:103E900022AD42460021284607F053FE012320228E
:103EA0000021013C01A88DF88830013707F049FE58
:103EB00020220021069409A8E4006408059707F071
:103EC00040FE2022002111A8CDE90D5807F039FE4F
:103ED000E02CCDE91558346002D0B4F5807F84D150
:103EE000144B0734019309934FF4005303934FF499
:103EF0008043E4080B9301AA11AB640009A919A837
:103F00001294FFF793FD33680733DB085A0033B18F
:103F10000021531E013B297005F10105FAD200284A
:103F20009DD062E76FF0920070E76FF096006DE74A
:103F3000C4C8000820000080F8B5134642880E4629
:103F40000732072A4FEAD20104D0B14202D06FF003
:103F50008600F8BD45680488C768202218460021FD
:103F600007F0EFFD2D0A034615B1012D42D1C560C2
:103F7000002EECD041F20102944205D0B4F5885FE6
:103F800002D0B4F5905F08D15E6025B1B90707F0A3
:103F9000010207D44AB30020DBE704F44F42B2F534
:103FA000824F02D06FF08500D3E7E2B2122AF9D136
:103FB000202EF7D1114A24F0FF04B4F5E24F1A6025
:103FC0000CD0B4F5824FC2D14FF4005217F4705F99
:103FD00009D017F4864F04D09A60E3E74FF480428B
:103FE000F4E742F480629A60CFE79A6842F0807208
:103FF0009A60D0E76FF08B00ABE700BF2000008035
:104000002DE9F041174600221C4643688CB01B0A7C
:1040100080460D46009204D0012B56D06FF08B00E5
:104020008EE0008820F0FF03B3F5824F15D1B8F879
:1040300002200732D208009205F09EFC002800F012
:10404000E1800B78042B05D1013FB7EB420F05F15E
:10405000010503D06FF0860072E00097009E2246B3
:1040600031464046FFF768FF002869D1FA1CC4E9D1
:10407000030522F003026261002E00F0A4802022DA
:10408000002101A807F05DFD3146404601AAFFF777
:1040900053FF002840F097802368019A9A4240F02D
:1040A00092806368029A9A4240F08D80A368039AD6
:1040B0009A4240F08880A369079A9A4240F0838030
:1040C000E369089A9A423BD07DE0032FC2D90B786E
:1040D000012B40F09A80497800294BD0F739082904
:1040E0009CD801A353F821F0514100080D4100086C
:1040F0001D400008474100081D4000086B410008B2
:104100001D4000085B410008634100084FF4105651
:10411000F8253F4F1C22002102A807F012FD0323BF
:104120000197CDE90435039601AA09AD134603CBE7
:10413000AB42206061601A4604F10804F6D1002009
:104140000CB0BDE8F08110274FF08076FA25E1E74A
:1041500020274FF00076F725DCE7FE252C4F2D4E6B
:10416000D8E7FF252A4F2C4ED4E74FF41056FC25F4
:10417000274FCFE72B2F7FF66DAF2022204607F089
:10418000E0FC05F110032361AB070DD001AB05F195
:1041900028061A4628686968083503C2B5421346DE
:1041A000F7D1286801AD10606B68103F2360AB68E1
:1041B00069466360EB682046A36001236761E360A2
:1041C00005F06BF928B120220021204607F0B9FC48
:1041D00040E7B8F80030009E03F44F42B2F5824F3A
:1041E0000ED1DAB2122A0BD123F0FF03B3F5824FBE
:1041F00006D1730062691C339A42BFF43DAFE2E717
:104200003346F7E76FF085009AE76FF0910097E784
:10421000200000800044000200440003038810B521
:1042200003F44F42B2F5824F18BF00230E4C21F029
:10423000FF026FF30801A142DBB20FD00B498A42A3
:104240000CD0122B0DD14388B3F5807F09D1B2F188
:10425000062F14BF6FF08500002010BD6FF08600A0
:10426000FBE76FF08500F8E7000200060013000688
:10427000124B20F4FF7222F001029A4210D0104A31
:1042800020F0FF0393420BD020F47F7121F0030153
:10429000A2F57062914203D002F5A06293420AD166
:1042A00010F0FF0008D0074B40F0007098420CBFA0
:1042B0000320002070470020704700BF0002000666
:1042C00000130006090000022DE9F0438DB01746E7
:1042D000DDE9149498460E4601B94ABBB8F1000FC7
:1042E00002D1B9F1000F23D114B3144B984222D15B
:1042F0002023B9F11F0F236006D800236FF0890037
:1043000023600DB0BDE8F08303A805F03DF8054635
:1043100010B16FF09200F4E73B4632460321CDE93D
:10432000008903A8FFF73CFB0028EAD02560F0E7EE
:104330006FF08600E5E76FF08500E2E70900000214
:1043400030B50D4604468BB0A0B1031DD422002128
:10435000184607F0F6FB0A4A95420ED1032201A93E
:104360002270FFF76FFA002814BF6FF09200002050
:104370000BB030BD6FF08600FAE76FF08500F7E70D
:1043800009000002B8B1036813F4E07F03F03F00B6
:10439000C3F382120AD0012A0DD1084B41B103F5B3
:1043A0008053012282401A6000207047044BF5E7D9
:1043B00003F50053F5E70E20704700BF68800050FA
:1043C000648000506FF00403502110B50A480B4C74
:1043D00013F0800F03F1010206D123444C2A83F825
:1043E00000131346F4D110BD03F00F03043B034444
:1043F00019761346ECE700BF00ED00E000E100E0B5
:1044000000280CDB01220649430900F01F0082400E
:10441000203341F82320BFF34F8FBFF36F8F7047D6
:1044200000E100E0002807DB01234109034A00F016
:104430001F00834042F82130704700BF00E100E0D8
:10444000054B421153F8223000F01F0023FA00F010
:10445000C04300F00100704700E100E0002808DBE5
:1044600001224309034900F01F008240603341F8F4
:104470002320704700E100E00028ACBF00F160405D
:10448000064B4FEA0111C9B2ABBF00F5614000F025
:104490000F0080F800131954704700BF14ED00E0BE
:1044A00073B50024684600F0D5FA0C4B00981C60E8
:1044B0000B4B0C4D1C600C4E0C4B306018602C608C
:1044C00005F030FE2046019B3268013BDB0853803B
:1044D0002B6801332B6002B070BD00BFD0150020E7
:1044E000CC150020D4150020DC150020D8150020A4
:1044F0002DE9F04F0027924687B04A1C0E4614BFA4
:104500000C46082499460597002B00F0B0801F60E8
:10451000002800F0AE80073020F0070504F02CFEE4
:1045200005AB31460290009352463B46284600F0C8
:104530009BFA059E804606B130B9029804F022FE2F
:10454000192007B0BDE8F08FDFF83CB17788DBF8C1
:104550000010FB00C0EBC7070139272FCBF8001074
:104560006CD9BAF1000F48D1854205F1080740D057
:104570002146304605F054FD04460590059B1F4436
:10458000384605F0CFFD059905F10F034A88C3F3BE
:10459000CF03D21A7A80CA88BB8062B3D31A9BB287
:1045A00001EBC202FB8093808B88ED08A380BB885F
:1045B0000022314638466580E38000F0C7FA237850
:1045C00043F001032370DBF800300133CBF80030F7
:1045D0002B4A02981368083443441360294A11682F
:1045E0008B4288BF136004F0CDFD0020C9F8004065
:1045F000A7E73446C2E7FA80D6E7F41920460393CA
:1046000005F090FD08F10702D20805996280FA1DB5
:10461000D208A280CA887AB1D200039BD01DC31AE7
:104620004344C3F3CF030A44E3809380A388013F4C
:10463000FF084F80CB80C2E7E280F7E7BAF1010FB5
:1046400019D106F10803B3FBF4F204FB1233A3B152
:104650002146304605F0E4FC04462378012243F06D
:10466000010331462046237000F070FAB0E72220A3
:1046700067E7212065E78542EAD13446EDE700BFD0
:10468000D0150020CC150020D41500202DE9F74FBF
:104690000446684600F0DEF9002C00F0A68004F025
:1046A0006BFD14F8087C8346FB0702D534F8065CE2
:1046B00035B9584604F066FD012003B0BDE8F08F1F
:1046C000DFF838C134F8042CDCF80080691C08F1EC
:1046D0000103A4F1080689B2CCF80030002A7CD08E
:1046E000A6EBC20393F800A0B3F806901AF0010FEE
:1046F000B3F802E007F0020763D1002F62D1A9EB03
:104700000E02012A69D8AA1C96441FFA8EF1CCF831
:10471000008034F8027C002F63D0DDE9002006EB36
:10472000C70802EB000EF0455BD216F83760424630
:1047300016F0010614D17D1B012D11D8B8F80250D6
:10474000A8F8026001352944B8F8065089B2002D56
:1047500045D008EBC502DCF80050013DCCF8005014
:1047600014F8085C25F0010504F8085C002524F81D
:10477000065C4C1E5C801C7865F300041C70002AEB
:1047800031D0C3F107041444C4F3CF04DC80948017
:10479000174C22681AB19A4201D8528802B9236094
:1047A000144C22681AB19A4201D3528802B923608C
:1047B000114A584613685B1A136004F0E3FC0020AA
:1047C0007BE757B10A4491B214F8082C22F0020298
:1047D00004F8082C00229A809BE7334699E72A4682
:1047E000B9E70022BCE7DA80D2E7222065E700BF04
:1047F000DC150020D8150020D0150020D41500208D
:104800002DE9F84F04460D469146002A00F0178125
:104810000023136040B9002900F0138101462846A7
:10482000BDE8F84F05F03CBC19B9BDE8F84FFFF7FB
:104830002DBF04F0A1FC34F8063C07354FEAC3084D
:1048400025F00705A8450746A4F1080080F08480FC
:1048500034F8022C002A65D000EBC20A10F832208E
:10486000D2075FD4BAF80210A8EB050616EBC10612
:1048700058D41F2E3DDDC5F3CF0304EB050B24F800
:10488000063C013324F8023C584605F04BFC34F852
:10489000023CC6F3CF06ABF80430BAF80630ABF8EA
:1048A00002601BB3BAF802209A1A1644B6B20AEB99
:1048B000C303ABF806609E8000225146584600F0C4
:1048C00045F9504605F02EFCC9F800405E4A1368D1
:1048D0002B44A3EB080313605C4A11688B4200D998
:1048E0001360384604F04EFC002625E0ABF8063095
:1048F000E2E7574E0B4432689BB2013A32605A1CD1
:1049000024F8062CBAF806204AB102339BB20AEB0F
:10491000C20224F8023C938001225146CFE724F8DA
:10492000022CF9E74A460021284605F0B9FB064665
:1049300028B1384604F026FC3046BDE8F88F4246E0
:104940002146D9F8000007F0C5F82046FFF79EFE83
:1049500006460028BAD0ECE76ED934F8023CA8EB42
:10496000050B002B38D000EBC30610F83330DB0703
:1049700033D4C5F3CF0304EB050A24F8063C013316
:1049800024F8023C504605F0CDFB738834F8022C25
:1049900003EBDB03AAF80420F2889BB2AAF80230EA
:1049A000BAB101339BB206EBC202AAF8063093807B
:1049B00050460022314600F0C9F8304605F0B2FBFF
:1049C000214BC9F800401A681544A5EB08051D6085
:1049D00087E7AAF80620EBE71E46BBF1270FEFD9C1
:1049E000C5F3CF0304EB050A24F8063C013324F891
:1049F000023C504605F096FB34F8022CCBF3CF0373
:104A0000AAF80230AAF8042096B1F28882B10133E4
:104A10009BB206EBC206AAF80630B3800C4A00210E
:104A20001368504601331360012200F08FF8C7E786
:104A30000023AAF80630F1E7C9F8004051E7222622
:104A40007AE7212678E700BFD0150020CC1500209A
:104A5000D41500200249034A0160521A426070478F
:104A6000E843002000000420F0B506460020059F22
:104A70004C1C08BF08213860BAB91F480568002DD2
:104A800038D0B5F802E0DB0003EBCE0EC1F1000C2C
:104A90002878C0070BD52ABBE888B0B105EBC00564
:104AA000B5F802E003EBCE0EF2E71448E6E7B645B0
:104AB000F1D35AB905F10804B4FBF1F001FB10443D
:104AC000A0190CB17045E7D83D60F0BD08290FD0A2
:104AD0006C88013405EBC404A01B00EA0C00201A0A
:104AE0008645F1D2A8880028EFD0A5EBC005D7E70E
:104AF0003046E9E72846E8E7DC150020D815002015
:104B0000104B13B51B6804460846C3B121B968466B
:104B1000FFF7A0FF4CB900980378DB0710D53CB92C
:104B2000C38863B100EBC300F6E7074B1868F3E7EF
:104B3000012C04D1838813B1A0EBC300ECE7002063
:104B400002B010BDD4150020D8150020F8B5104FC4
:104B500005460C463B680F4E8AB1994200D021B9F8
:104B600029460020FFF7CCFF38603368A34200D00D
:104B700024B929460120FFF7C3FF3060F8BD9942F0
:104B8000336808BF38608B4208BF3060F6E700BF6B
:104B9000DC150020D8150020BFF35F8F074B5A6A41
:104BA00022F480325A62D3F8942022F00102C3F832
:104BB0009420BFF34F8FBFF36F8F704700ED00E07D
:104BC00070B5FFF7E9FF234A234DD2F8C030234CDC
:104BD00023F0FF0343F0A003A5422149C2F8C030EF
:104BE00028D024F01F03203BB3F1005F23D21D4BDC
:104BF0000A68184823F01F0343F00303C0F8982005
:104C0000C0F89C30184B0132C0F8A0300A60BFF3E6
:104C10005F8F05220F4BC3F894205A6A42F480320A
:104C20005A62BFF34F8FBFF36F8FBFF34F8FBFF346
:104C30006F8F70BD0D4B08680D4EC2F8980043F0A1
:104C400001030130A542C2F89C60C2F8A0300860A0
:104C5000DDD0CCE700ED00E0E84300203C4200203E
:104C6000E015002007440020E1FF0320000004209D
:104C700003000020BFF34F8F0549064BCA6802F4BA
:104C8000E0621343CB60BFF34F8F00BFFDE700BF6F
:104C900000ED00E00400FA050E4A30B513684161EA
:104CA0009BB9106083600FE0491B9D681C46416101
:104CB0002B461DB15D698D42F6D944B1A060836079
:104CC00013B15A69521A5A6130BD0024F2E71060DC
:104CD000F5E700BFEC15002010B500F091FA0A4C82
:104CE0000A4B19682368C31A09B9206010BD002B4C
:104CF000FBD04A699A423ABF9B1A0022D21A4A61F3
:104D000028BF00238968EFE7E8150020EC15002094
:104D100038B5134D2B685B6993B1124A02201468B1
:104D20001C4405F031FA204600F072FA00230E49C7
:104D30002A680B70D088800709D501230B7038BD15
:104D4000022005F021FA022000F0B0FAEEE79268A6
:104D5000002AF4D050690344012BEBD9EFE700BFE0
:104D6000EC150020E81500209840002070B516468C
:104D70009DF81420C0E903360271049ABDF818307A
:104D80000260002204460D468260C38006BB00F02C
:104D900037FA2844A0613DB9E368656113B1204644
:104DA0002168984796B1354604F0DFF90646FFF7CB
:104DB00093FF29462046FFF76FFF074B1B68A3426E
:104DC00001D1FFF7A5FF304604F0D3F9002070BDF4
:104DD00000F016FA3044DDE7EC15002000220C4903
:104DE0000B687BB183420AD183687AB19360836890
:104DF0001BB15A6941690A445A61002070471A463A
:104E00009B68EEE70028EFD0022070470B60EEE7CA
:104E1000EC150020F8B504F0AFF9204F06463C78B9
:104E2000002C35D11E4B1C601E4B1C601E4B1C8081
:104E300000F0B2F9012005F0A7F900F03FFA1B4B92
:104E40000546186020B9304604F09CF92320F8BDCF
:104E500000200021164B2A46C3E90001234600200A
:104E6000012103F053F9134B00201A6001212A4657
:104E7000234603F04BF9104B2A46186040F2E73105
:104E800023460E4803F042F90D4B186001233B7096
:104E9000304604F077F90020D9E700BF99400020A0
:104EA000EC150020E81500208C400020F0150020B3
:104EB00018110020F8150020F415002018FCFFFF41
:104EC000E41500202DE9F0410546F8B104F04DF954
:104ED0000F4F0646FFF700FF2846D7F80080FFF780
:104EE0007DFF044628B1304604F043F92046BDE872
:104EF000F081A8453B6803D123B1FFF709FFF2E732
:104F0000002BF0D1022000F0BBF9ECE72224EDE702
:104F1000EC15002038B50C460546A8B1A1B1002318
:104F20000B7004F029F90121084B1B6833B904F018
:104F300029F9002038BD9D4204D121702278002A31
:104F4000F9D0F4E79B68F1E72220F3E7EC150020A5
:104F5000F8B50C4B05461B680E4683420FD3002460
:104F600040F2E7302146084B4FF47A721F68002365
:104F7000E5FB070103F0CAF830602046F8BD2120A8
:104F8000FCE700BFE4150020F0150020F0B51F4637
:104F9000002387B00C46164605468DF8133050B3F3
:104FA0000DF11301FFF7B6FF9DF813302BBB204620
:104FB00005A9FFF7CDFFE0B9114BE8831B68284630
:104FC0005C434FF47A73B4FBF3F203FB1244191BF6
:104FD00089B2994208BF0021BDF83430A983059AEF
:104FE00002939DF830301146CDE900733346FFF748
:104FF000BDFE07B0F0BD2220FBE70220F9E700BFAD
:10500000F0150020C2072DE9F04704462AD55A4B77
:105010005A491D685A4B09681A680A441A601A6886
:10502000AA42584A09D3D2E90001461C41F10007BF
:10503000C2E900671968491B1960534BD2E9006740
:105040001B68981947F10001C2E900014F4A138813
:1050500001339BB21380FFF73FFE4D4B1B680BB132
:10506000FFF756FEA30740F1858004F085F84FF066
:10507000000980464D46FFF72FFE4F46444E3468E8
:105080000CB163698BB10022424B012D1A7003D120
:1050900019F0020F18BF1D70002C5BD0FFF738FE0F
:1050A0004046BDE8F04704F06DB823465A693AB966
:1050B0001A792179914288BF1C469B68002BF5D153
:1050C000404604F05FF8D4F81090B9F1000F45D0D5
:1050D00000F096F8A269A0EB02084FEAE873C14518
:1050E00077EB03033BDA23691344A36101232269AD
:1050F000CAB1C3B9A38BB9EB080933B1E28B13442E
:105100009BB2B3F57A7F1CD2E38304F035F8804676
:1051100049462046FFF7C0FDA36922694046134473
:10512000A36104F02FF8E368B4F80690013513B1D9
:1051300020462168984704F01FF88046FFF7CCFD11
:105140009DE7A3F57A73E383A36919F1FF39013B66
:10515000A361DAE7022000F093F8A1E7C84604F063
:105160000BF882462046FFF739FE504604F00AF855
:105170000023BCE7BDE8F087F0150020F8150020FB
:10518000FC15002018110020F41500208C40002090
:10519000EC1500209740002010B50123002486B0B4
:1051A0001548ADF80830CDE903448DF804408DF87A
:1051B0000A40059404F0D0FE01A8FEF795F92046B8
:1051C00002A98DF80840FEF79FF920460F21FEF74F
:1051D000BDF90F212046FEF7BFF9FEF76BF9FEF788
:1051E00047F9064B43209C61FFF738F94320FFF74E
:1051F00019F906B010BD00BFE4C8000800800A50CD
:1052000008B5FEF735F9014B986908BD00800A50D2
:10521000F8B5044603F0A9FF0746FEF729F9164B37
:105220009D6904F0ADFF06460020FEF79BF9830759
:1052300004D4731B032B01D8AE420FD10021631B92
:10524000022B98BFEC1C0846B4F1FF3F2CBF22464E
:10525000621EFEF79FF9022004F096FF384603F025
:1052600088FF064A137833B103498B6C43F001037E
:105270008B6400231370F8BD00800A500F110020CA
:10528000830700F0010109D50122064B41F002011C
:105290001A70054A936C23F0010393640020FEF713
:1052A00055B900BF0F11002000800A50830742BF8C
:1052B0000222014B1A64704700900A5007B5044B54
:1052C00001A9187904F043FE019803B05DF804FBCE
:1052D000F4C8000810B50446FCF712FF0C4BA0F50B
:1052E0007A729A4212D84FF47A73B0FBF3F05C43AF
:1052F000084BB3FBF0F3B4FBF3F0022806D9BDE88A
:1053000010400323B0FBF3F0FAF732BF10BD00BF2B
:10531000FFC99A3B40420F00EFF3058373B9EFF3E7
:105320001082094B12B9EFF3118212B11A68022AE6
:1053300004D0186828B901221A6070476FF0050080
:1053400070474FF0FF307047B01B002008B500F0E9
:10535000F1FD38B1022804D0034B1868431E5842AF
:10536000584108BD0320FCE7B01B002010B5EFF347
:105370000583BBB9EFF310830D4C13B9EFF3118321
:1053800013B12368022B0DD02368012B0DD16FF0D0
:1053900004000021FFF770F80223236000F09EFB59
:1053A000002010BD6FF00500FBE74FF0FF30F8E77D
:1053B000B01B002008B5EFF3058393B9EFF310831A
:1053C00013B9EFF311831BB10A4B1B68022B08D0F2
:1053D00000F0B0FD40B1022808D100F0B7FB00207A
:1053E00008BD6FF00500FBE70120F9E74FF0FF3043
:1053F000F6E700BFB01B002010B50446EFF30583AD
:1054000003BBEFF3108313B9EFF311831BB1104B00
:105410001B68022B16D000F08DFD30F0020314D172
:10542000012C03D100F092FB204610BD6CB900F0B6
:1054300027FC0128F8D000F07DFD841E18BF4FF036
:10544000FF34F1E76FF00504EEE74FF0FF34EBE7D0
:10545000B01B002070B50546EFF3058616B1002499
:10546000204670BDEFF3108212B9EFF311821AB12A
:10547000184A1268022AF2D015B16E683307EED4CA
:1054800006F001067DB1D5E9021351B14F2BE6D9E3
:10549000DEB1042005F0CAF804460028DFD02D68EC
:1054A0000AE0002BDBD196B1042005F0E9F80446B0
:1054B0000028D4D0002DF2D12946204600F0F6F97C
:1054C000002ECDD044F00104CAE70120E2E701201C
:1054D000EBE700BFB01B0020034610B520F0010031
:1054E0000C4603F00102EFF30581E9B9EFF31081F7
:1054F00011B9EFF3118119B10E490968022913D0CE
:10550000012B14D9214662B105F00FFA012801D10F
:10551000002010BD002C14BF6FF001006FF00200DE
:10552000F7E705F082F9F1E76FF00500F1E76FF0BA
:105530000300EEE7B01B0020024608B520F0010092
:1055400002F00103EFF30581C9B9EFF3108111B93E
:10555000EFF3118119B10D49096802290FD0012A11
:1055600010D93BB105F077F801280CBF00206FF08F
:10557000020008BD1A46194604F0EAFFF4E76FF08E
:105580000500F6E76FF00300F3E700BFB01B002053
:1055900010B5034620F00104EFF305829AB9EFF34A
:1055A000108212B9EFF311821AB10A4A1268022A64
:1055B00009D0012B0AD9204600F08AF9204605F0CF
:1055C00002FA002010BD6FF00500FBE76FF003004A
:1055D000F8E700BFB01B002073B50E461546EFF389
:1055E000058393B9EFF3108313B9EFF311831BB164
:1055F000244B1B68022B08D038B1B04205D355B1FB
:10560000D5E902322BB14F2A23D80024204602B01C
:1056100070BD002AF9D101280ED1032200210120FA
:1056200004F063FF1DE01A46314604F07BFF044698
:105630000028EAD02D6807E0314604F080FF0446D8
:105640000028E2D0002DF5D12946204600F02EF9A1
:10565000DCE70128E7D1032200920022114604F082
:1056600029FF04460028D0D0002EEBD000231A4694
:10567000194604F06DFF0128E4D0204605F0A3F997
:10568000C3E700BFB01B002013B50C4668B3EFF3AF
:1056900005834BB9EFF3108313B9EFF31183D3B143
:1056A000134B1B68022B16D1FCB9214601AA0194A9
:1056B00005F052F9012803D06FF0020002B010BDCE
:1056C000019B0BB90020F9E74FF0E0234FF0805227
:1056D000C3F8042DF6E7214605F0A7F80128F1D01C
:1056E000002CE9D06FF00100E8E76FF00300E5E778
:1056F000B01B002007B550B3EFF305834BB9EFF3B0
:10570000108313B9EFF31183CBB1124B1B68022B3B
:1057100015D1002301A9019304F0F6FF012804D05C
:105720006FF0020003B05DF804FB019B2BB14FF05A
:10573000E0234FF08052C3F8042D0020F2E700234D
:105740001A46194604F004FF0128F6D0E8E76FF086
:105750000300E7E7B01B0020034B0360034B0B6023
:10576000A0231360704700BF581B0020D8180020EA
:10577000034B0360034B0B60A0231360704700BF13
:105780008018002000160020002307B50193054B68
:105790001B6804F0ADFD019B002BFCD003B05DF84D
:1057A00004FB00BF481000204FF0E02200234FF41C
:1057B0007A7113619361044B1B68B3FBF1F3013BF6
:1057C00053610723136170473410002008B504F0BB
:1057D0008FFD044A136801331360BFF34F8FBFF38B
:1057E0006F8F08BD48100020044B1A681A68013AF0
:1057F0001A60186808B904F086BD70474810002088
:1058000010B54FF0807440E90224184A4FF012346A
:1058100040F80C2C4FF003324FF0023C40E90524D5
:105820004FF0013240F8203C40E9072C4FF0103394
:105830004FF011324FF0093440E90A324FF008338B
:105840004FF0073C40E90C344FF006334FF005327F
:1058500040E90E3C4FF0043340E910326FF0020390
:1058600040F8443C40F8481D10BD00BF895700086F
:105870004FF0E02310B50024D3F8202D42F47F022E
:10588000C3F8202DD3F8202D42F07F42C3F8202DFD
:10589000FFF78AFF044B1C60FAF792FC00F066FAEF
:1058A000FFF772FF204610BD48100020002330B5DE
:1058B000064A52F8335002EBC3041DB942F83310C4
:1058C000606030BD01330A2BF3D1FAE7B41B00202E
:1058D000002310B5084A52F83310DC00814206D18B
:1058E0000021064A42F833102244516010BD0133B2
:1058F0000A2BF0D1FAE700BFB81B0020B41B002030
:105900002DE9F0410446FFF761FF2D4B2D4E1A683B
:105910002D4F01321A603568002D43D134601B6869
:10592000012B1FD1B8464046013504F06EFC382DDE
:1059300008F11408F7D1DFF8B880244D404604F090
:1059400064FC284604F061FC214804F05EFC214818
:1059500004F05BFC204804F058FC204BC3F80080A6
:105960001F4B1D6014201F4A1368013313601E4A29
:1059700023641168E36A8B4200FB037004F10401A5
:1059800088BF136004F04FFCFFF72EFF174B1B6816
:105990009BB13368DA6AE36A9A420ED2BDE8F041FD
:1059A00004F073BC114B1A68E36A002ADAD132683A
:1059B000D26A9A4298BF3460D4E7BDE8F08100BF54
:1059C000281C0020FC2000209C1C0020741C0020AF
:1059D000581C0020441C00202C1C0020701C00209F
:1059E0006C1C00200C1C0020201C00201C1C002013
:1059F000881C0020F8B50646144B154D1C68286815
:105A00000F46043004F031FC731C07D137B129680C
:105A100010480431BDE8F84004F005BC2B68A41917
:105A20005C6007D30C4B18682968BDE8F840043166
:105A300004F004BC094B18682968043104F0FEFB2B
:105A4000074B1A68A24288BF1C60F8BD241C0020C6
:105A5000FC2000202C1C00206C1C0020701C00204E
:105A6000081C0020064A13681968064B19B94FF044
:105A7000FF321A6070471268D2681268F9E700BFF7
:105A8000701C0020081C002080B5104C104F114DD8
:105A9000236843B9104B1B68012B01D904F0F5FBB7
:105AA00004F0B1FBF3E7FFF791FEFB68DE68301D01
:105AB00004F0DBFB2B68013B2B602368013B236078
:105AC000FFF792FE304604F0ACFFE1E7401C0020F7
:105AD000441C0020281C00209C1C002030B5002401
