:020000040000FA
:1000000068EB0020494A02009B860500354A020041
:10001000354A0200354A0200354A0200000000005D
:10002000000000000000000000000000F94B02008A
:10003000354A020000000000614B0200354A020010
:100040000D4E02008BE905000D4E02000D4E020020
:100050000D4E0200B5E905000D4E02000D4E0200E6
:1000600041E905000D4E02000D4E020075E9050044
:100070000D4E02000D4E02000D4E02000D4E02000C
:100080000D4E02000D4E02000D4E02000D4E0200FC
:100090000D4E02008D4203000D4E02000D4E020077
:1000A0000D4E02000D4E02000D4E02000D4E0200DC
:1000B0000D4E02000D4E02000D4E02000D4E0200CC
:1000C0000D4E02000D4E02000D4E02000D4E0200BC
:1000D0000D4E02000D4E02000D4E02000D4E0200AC
:1000E0000D4E02000D4E02000D4E02000D4E02009C
:1000F0000D4E02000D4E02000D4E02000D4E02008C
:1001000001F0FF01102A2BDB10F0070F08D010F8C8
:10011000013B013A8B422DD010F0070F42B3F6D1CC
:10012000F0B441EA012141EA014122F007047FF0E5
:1001300000070023F0E80256083C85EA010586EA3C
:10014000010685FA47F5A3FA87F586FA47F6A5FA78
:1001500087F68EB9EED1F0BC01F0FF0102F0070284
:1001600032B110F8013B013A83EA010313B1F8D12F
:100170000020704701387047002D06BF3546033810
:10018000073815F0010F07D1013015F4807F02BF49
:10019000013015F4C03F0130F0BC0138704700BF9A
:1001A0002DE9F14F03F11C0402EB840C4FEA930B91
:1001B0008A68CB680868496800F046F93CE9F000B5
:1001C0006040694072407B400BF1060E4EE083EACE
:1001D000134480EA134582EA134746BA96EA344448
:1001E000604000F00F1684EA063420F00F1684EA0F
:1001F000161054BA94EA0106724002F00F1486EA0F
:10020000043622F00F1486EA14124CBA6540694095
:1002100001F00F1485EA043521F00F1485EA14115A
:100220005CBA67407B4003F00F1487EA043723F081
:100230000F1487EA141344BA44404DBA4D4056BADD
:1002400056405FBA5F4087EA174886EA174B84EA50
:1002500017464FEA38488BEA1B4485EA1B4788EA71
:100260001B4580EA3440694072407B4000F07034A6
:1002700000F0803500F00F3040EA440040EAD5003D
:1002800080EA900404F0332480EA8400604001F0A6
:10029000703401F0803501F00F3141EA440141EA48
:1002A000D50181EA910404F0332481EA840161409C
:1002B00002F0703402F0803502F00F3242EA44025C
:1002C00042EAD50282EA920404F0332482EA8402EC
:1002D000624003F0703403F0803503F00F3343EADB
:1002E000440343EAD50383EA930404F0332483EA06
:1002F00084036340C943DB4381EA000483EA044684
:1003000086EA020183EA014382EA334583EA144321
:100310005C4084EA00077FEA040A8AEA024A8AEA21
:10032000010B87EA11488AEA374A80EA060181EA26
:100330001A418AEA030A04EA0A00454088EA0407E7
:1003400007EA0B0041408AEA0B0608EA060084EA45
:1003500034428AEA3A4602EA0603584045404140A0
:1003600087EA37438BEA3B4003EA000985EA09053F
:1003700082EA0309464006EA0906714085EA01005F
:1003800005EA3546464006EA314181EA304181EAD4
:10039000364606EA304686EA354634400F4086EA5D
:1003A000010508EA050886EA3640024088EA0208A4
:1003B00081EA314213405C4080EA020309EA030902
:1003C00087EA0907674088EA040806EA0A0601EA9C
:1003D0000B018AEA0B0425408AEA3A442040454052
:1003E0008BEA3B4B02EA0B02564084EA0B042340A3
:1003F00059406E40694087EA364080EA384080EADA
:10040000060380EA104481EA134585EA344585EA0B
:1004100017427D4082EA354180EA05403CE9F00020
:100420006040694072407B40BEF1010E3FF6CFAEA6
:1004300020BC00F05FF828606960AA60EB60BDE84E
:10044000F08F00BF00F000BA80EA101404F0F0143E
:1004500080EA0410604081EA111404F0F01481EA8B
:100460000411614082EA121404F0F01482EA0412CA
:10047000624083EA131404F0F01483EA0413634027
:1004800080EA102404F47F4480EA0420604081EA7A
:10049000112404F47F4481EA0421614082EA122499
:1004A00004F47F4482EA0422624083EA132404F4C1
:1004B0007F4483EA0423634081EA500404F0553406
:1004C00080EA4400614083EA520404F0553482EA31
:1004D0004402634082EA900404F0333480EA8400EA
:1004E000624083EA910404F0333481EA840163407A
:1004F000704700BF82EA900404F0333480EA84003D
:10050000624083EA910404F0333481EA8401634059
:1005100081EA500404F0553480EA4400614083EAE3
:10052000520404F0553482EA4402634080EA102405
:1005300004F47F4480EA0420604081EA112404F43A
:100540007F4481EA0421614082EA122404F47F445A
:1005500082EA0422624083EA132404F47F4483EA9B
:100560000423634080EA101404F0F01480EA0410BD
:10057000604081EA111404F0F01481EA0411614032
:1005800082EA121404F0F01482EA0412624083EA50
:10059000131404F0F01483EA04136340704700BF9F
:1005A0002DE9F14F94464FEA930B8A68CB680868AF
:1005B0004968FFF749FF0BF1060E33E083EA134465
:1005C00080EA134582EA134746BA96EA344460400B
:1005D00000F00F1684EA063420F00F1684EA161095
:1005E00054BA94EA0106724002F00F1486EA043607
:1005F00022F00F1486EA14124CBA6540694001F0EB
:100600000F1485EA043521F00F1485EA14115CBA41
:1006100067407B4003F00F1487EA043723F00F1480
:1006200087EA1413BCE8F0006040694072407B40E8
:1006300000F0E03400F0103500F00F3040EA5400D4
:1006400040EAC50080EA900404F0332480EA840084
:10065000604001F0E03401F0103501F00F3141EA63
:10066000540141EAC50181EA910404F0332481EA8E
:100670008401614002F0E03402F0103502F00F32E4
:1006800042EA540242EAC50282EA920404F03324A8
:1006900082EA8402624003F0E03403F0103503F094
:1006A0000F3343EA540343EAC50383EA930404F097
:1006B000332483EA8403634081EA324787EA13459F
:1006C00081EA354690EA060484EA034B82EA1B423B
:1006D00080EA044484EA054483EA144A85EA14441F
:1006E0008BEA044B84EA374481EA0B4181EA1641E4
:1006F00004EA0A00454082EA04082BEA0800414067
:100700008AEA0B0602EA060084EA34438AEA3A4699
:1007100003EA060778404540414088EA38478BEABB
:100720003B4007EA000985EA090583EA07094640D4
:1007300006EA0906714085EA010005EA35464640A9
:1007400006EA314181EA304181EA364606EA30461E
:1007500086EA3546344008EA010886EA01052A405F
:1007600086EA364003405A4081EA31431F407C40CC
:1007700080EA030709EA070988EA0908544088EA79
:10078000020806EA0A0601EA0B018AEA0B02154092
:100790008AEA3A42104045408BEA3B4003405E40C3
:1007A0004240174079404D404E40E443F64386EACC
:1007B00018435D4085EA054083EA134386EA034116
:1007C00083EA384284EA114383EA04435FEA33430D
:1007D000BEF1010E3FF6F2AE1ED4BCE8F000604060
:1007E000694072407B4020BCFFF784FE286069604E
:1007F000AA60EB60BDE8F08F2DE9E0414FF2F00216
:1008000080EA1031114080EA0130484041088208F6
:10081000C3084FF0000E4FE700F0113001F0113126
:1008200002F0113203F0113340EA410040EA820045
:1008300040EAC3004FF2F00280EA1031114080EA32
:1008400001304840BDE8E0812DE9F04F02F11C0580
:100850000646074600EB850851F8040B043A46F8B3
:10086000040BF9D14FF0010CFFF7C6FF5FEA30200F
:1008700080EA0C001ECF41404A4053405C401EC6F7
:100880002000464517D04FEA4C0C1CF4807F18BF5F
:10089000ACF1E50C2C2DE7D03C2D06D1FFF7ACFFD9
:1008A00006CF41404A4006C6100006CF41404A40AC
:1008B00006C61000D8E736E90F00FFF7C5FD043D76
:1008C00086E80F00F7D1BDE8F08F00BF2DE9F007F3
:1008D00091E8F807B2E802105B1854EB0C04B2E898
:1008E00002104D4156EB0C06B2E802104F4158EB96
:1008F0000C08B2E8021059EB01095AEB0C0A80E827
:10090000F80780410130BDE8F00770472DE9F00796
:1009100091E8F807B2E802105B1A74EB0C04B2E835
:1009200002108D4176EB0C06B2E802108F4178EB95
:100930000C08B2E8021079EB01097AEB0C0A80E8A6
:10094000F80780414042BDE8F00770472DE9F00705
:10095000524290E87800B1E880071740DB1918EAA6
:10096000020854EB080419EA020955EB09051AEAD2
:10097000020A56EB0A0678C090E87800B1E88007D2
:1009800017407B4118EA020854EB080419EA0209EF
:1009900055EB09051AEA020A56EB0A0678C08041AF
:1009A0000130BDE8F00770472DE9F007524290E8AA
:1009B0007800B1E880071740DB1B18EA020874EBE7
:1009C000080419EA020975EB09051AEA020A76EB2E
:1009D0000A0678C090E87800B1E880071740BB416C
:1009E00018EA020874EB080419EA020975EB090514
:1009F0001AEA020A76EB0A0678C080414042BDE856
:100A0000F00770472DE9F00152424FF0040890E8DA
:100A1000300091E8C000A31B1340E41AF618EB1B4A
:100A20001340ED1AFF1830C0C0C1B8F10108EED173
:100A3000BDE8F001704700BF00B592EC080AB1E8CC
:100A4000805707EE101A53EC102A56EC114AA7FBF8
:100A50000251A8FB020BE7FB6310E9FB62B041EC1B
:100A6000145AA8FB0351EAFB6201E7FB64B5E7FBFC
:100A70006605E8FB661505EE10BAA9FB03B6EAFBAE
:100A80006316ECFB6356E8FB640BE9FB641BEAFBB3
:100A9000645BECFB646B05EE900AACFB023012EE7B
:100AA000104AEEFB6250E9FB6460EAFB64B0E7FBCE
:100AB0006431E8FB645112EE904AE8FB6461E9FBA3
:100AC00064B1EAFB640106EE103AA7FB043213EEB0
:100AD000104AE7FB6462E8FB64B2E9FB6402EAFBEC
:100AE000641211EE904AE9FB6453EAFB646313EE6F
:100AF000904AE7FB64B3E8FB6403E9FB6413EAFB99
:100B0000642306EE905A17EE109A99E8000610EE4C
:100B1000108AA9FB0854EAFB68B412EE108AECFBB9
:100B20006804EEFB6814E9FB6824EAFB683410EE05
:100B3000908AEEFB6865E9FB68B5EAFB680512EE92
:100B4000908AECFB6815EEFB6825E9FB6835EAFB4B
:100B5000684507EE106A11EE108AAEFB0876E9FBD5
:100B60006806EAFB681613EE108AECFB6826EEFBBB
:100B70006836E9FB6846EAFB685611EE908AECFBA2
:100B800068B7EEFB6807E9FB6817EAFB682713EE16
:100B9000908AECFB6837EEFB6847E9FB6857EAFB95
:100BA000686700BD2DE9F04F07EE900AFFF744FF9C
:100BB00017EE908A07EE90BAA8EC084A88E8FF0082
:100BC000BDE8F08F00B591E89857A3FB0352A3FB53
:100BD0000401E3FB6420E3FB671042EC145AA3FB1F
:100BE0000752E3FB6802E4FB6415E3FB6805E3FBE3
:100BF0006925A4FB07B6E3FB6926E3FB6A56E4FB21
:100C0000670BE4FB682BE3FB6A5BE3FB6C6B40EC7C
:100C1000151AA4FB0810E4FB6950E3FB6C60E3FBCE
:100C20006EB0E7FB6721E4FB6951E4FB6A61E3FB1B
:100C30006EB1E4FB6E0106EE102AA7FB0832E4FB5E
:100C40006A62E4FB6CB2E4FB6E02E7FB6E12E7FB48
:100C50006853E7FB6963E4FB6CB3E7FB6C03E7FBFA
:100C60006E13E8FB6E2306EE905AA7FB0954E7FBD0
:100C70006AB4E7FB6C04E8FB6C14E8FB6E24E9FB48
:100C80006E34E8FB6865E7FB6AB5E8FB6A05E8FBDC
:100C90006C15E9FB6C25E9FB6E35EAFB6E4507EE4A
:100CA000106AA8FB0976E8FB6A06E9FB6A16E9FB0D
:100CB0006C26EAFB6C36EAFB6E46ECFB6E56E8FBF4
:100CC00069B7E9FB6907E9FB6A17EAFB6A27EAFBF0
:100CD0006C37ECFB6C47ECFB6E57EEFB6E6700BDB0
:100CE0002DE9F04F07EE900AFFF76CFF17EE908AA0
:100CF00007EE90BAA8EC084A88E8FF00BDE8F08F3C
:100D000030B44FF0000310F8014B11F8015B013AC9
:100D100084EA050443EA0403F5D1A3F101034FEA91
:100D2000D37030BC704700BF4FF0000310F8012BA8
:100D3000013943EA0203F9D1A3F101034FEAD37069
:100D4000704700BF30B411F8014B12F8015B6C40E2
:100D500000F8014B013BF6D130BC70472DE9F04F54
:100D600090E8F00F00F140004FF0040E59E0F0B4AD
:100D7000826BC36B04680525242687593C444FEADF
:100D8000724787EAF24787EA92273C4442684FEA73
:100D9000F21787EAB24787EAD2073C4440F8044B8F
:100DA000032D08BF6FF01B0687593A444FEA73477B
:100DB00087EAF34787EA93273A4443684FEAF317F1
:100DC00087EAB34787EAD3073A4440F8042B8759A8
:100DD0003B444FEA744787EAF44787EA94273B4449
:100DE00044684FEAF41787EAB44787EAD4073B44DC
:100DF00040F8043B013DC0D1A0F13C00076A3C44EF
:100E00004FEA724787EAF24787EA92273C44026832
:100E10004FEAF21787EAB24787EAD2073C44C46335
:100E2000F0BC4FF0020288EA781C8CEAF84C0BEB1D
:100E3000BC1C8AEA090303EA080383EA0A039C4408
:100E400050F8043B9C4451F8043B9C44674444EAFA
:100E5000050B0BEA060B04EA05034BEA030BE3441C
:100E600084EAF42383EA34530BEBB30B87EA771C51
:100E70008CEAF74C0AEBBC1C89EA080303EA070377
:100E800083EA09039C4450F8043B9C4451F8043B1A
:100E90009C4466444BEA040A0AEA050A0BEA040386
:100EA0004AEA030AE2448BEAFB2383EA3B530AEB58
:100EB000B30A86EA761C8CEAF64C09EBBC1C88EA7D
:100EC000070303EA060383EA08039C4450F8043B43
:100ED0009C4451F8043B9C4465444AEA0B0909EAE6
:100EE00004090AEA0B0349EA0309E1448AEAFA23FE
:100EF00083EA3A5309EBB30985EA751C8CEAF54C91
:100F000008EBBC1C87EA060303EA050383EA070330
:100F10009C4450F8043B9C4451F8043B9C4464447A
:100F200049EA0A0808EA0B0809EA0A0348EA03083A
:100F3000E04489EAF92383EA395308EBB30884EAE9
:100F4000741C8CEAF44C07EBBC1C86EA050303EA2C
:100F5000040383EA06039C4450F8043B9C4451F884
:100F6000043B9C44E34448EA090707EA0A0708EA05
:100F7000090347EA0307674488EAF82383EA3853FA
:100F800007EBB3078BEA7B1C8CEAFB4C06EBBC1C23
:100F900085EA040303EA0B0383EA05039C4450F843
:100FA000043B9C4451F8043B9C44E24447EA080655
:100FB00006EA090607EA080346EA0306664487EAE2
:100FC000F72383EA375306EBB3068AEA7A1C8CEAE6
:100FD000FA4C05EBBC1C84EA0B0303EA0A0383EA20
:100FE00004039C4450F8043B9C4451F8043B9C444B
:100FF000E14446EA070505EA080506EA070345EA6B
:101000000305654486EAF62383EA365305EBB30508
:1010100089EA791C8CEAF94C04EBBC1C8BEA0A03C4
:1010200003EA090383EA0B039C4450F8043B9C4405
:1010300051F8043B9C44E04445EA060404EA0704F2
:1010400005EA060344EA0304644485EAF52383EAD7
:10105000355304EBB304013A7FF4E5AEA0F1400050
:10106000BEF1010E7FF483AEA0F1400C9CE80F00AE
:10107000001949199219DB19ACE80F009CE80F0020
:101080004044494452445B44ACE80F00BDE8F08F53
:101090002DE9F00791E8F807B2E802105B1854EB6D
:1010A0000C04B2E802104D4156EB0C06B2E80210F7
:1010B0004F4158EB0C08B2E8021059EB01095AEB0A
:1010C0000C0A8941B3F1FF3374F1FF3475F1FF3538
:1010D00076F1000677F1000778F1000879F101094F
:1010E0007AF1FF3A51F100015B184C414D4156F144
:1010F000000657F1000758F1000859EBD1795AEB77
:10110000010A80E8F807BDE8F00770472DE9F0070D
:1011100091E8F807B2E802105B1A74EB0C04B2E82D
:1011200002108D4176EB0C06B2E802108F4178EB8D
:101130000C08B2E8021079EB01097AEB0C0A89413C
:101140005B184C414D4156F1000657F1000758F12C
:10115000000859EBD1795AEB010A80E8F807BDE89D
:10116000F007704718EB040859EB05095AEB060A1B
:101170005BEB070B5FF0000C4CF1000C18EB050863
:1011800059EB06095AEB070A5BEB070B50EB0C0017
:101190005FF0000C51EB0C0152EB0C0263414CF17F
:1011A000000CB8EB070879F100097AF1000A7BEB33
:1011B000040BA841B141A241B3416CF1000CBBEB5F
:1011C000050BB041B941AA41BB416CF1000C4CF098
:1011D00001068CF0020718EB060859EB6C095AEB74
:1011E0006C0A7BEB6C0B70EB6C0471EB6C0572EBB7
:1011F000670653EB6C076CEB6C0C18EB0C0059EBAF
:101200000C015AEB0C025BF1000354F1000455F1A0
:10121000000556EBDC7657EB0C0770472DE9F04FD5
:1012200007EE900AFFF708FC59EC168A17EE10AA91
:10123000FFF798FF59EC148A5BEC15AAFFF792FFB1
:1012400017EE908A88E8FF00BDE8F08F2DE9F04F97
:1012500007EE900AFFF7B6FC59EC168A17EE10AAB3
:10126000FFF780FF59EC148A5BEC15AAFFF77AFFB1
:1012700017EE908A88E8FF00BDE8F08F074B1B78D7
:10128000002B4FF0000383600360054B436014BFE5
:1012900002220122FF23C2710372704760180020EE
:1012A00028010800064B074A9B7802604FF412722F
:1012B0008280C3710822002382710372704700BFCD
:1012C00060180020CBE40100064B074ADB7802607F
:1012D0004FF432728280C37108220023827103723C
:1012E000704700BF60180020DFE20100064B074A8C
:1012F0001B7902604FF4B4728280C3710822FF230D
:1013000082710372704700BF6018002013DE010075
:101310002DE9F743C41D002824F00704064614BF36
:101320002046002000F054FD071E04DA6FF00B0089
:1013300003B0BDE8F0830EB9FC42F7D4364D69899D
:1013400028896B7B2A7B0331033089B280B218F085
:10135000F9FE011EEADBAB78EA783C440334002E48
:10136000134424F0030403FB01F114BF20460020C2
:1013700000F0C4FE20440EB90028D7DB2B790446C8
:10138000B3B1697D19446B791944FF29CEDC033070
:10139000002E20F0030714BF384600202A8AC9B265
:1013A00000F01CFF041EC1DB3C440EB9002CBDDB69
:1013B000012000F003FDC8B1A97BB9B195F82C302C
:1013C0000734002B15BF402325234FF481722822B8
:1013D00024F00707002E14BF3846002006F0ECFC6E
:1013E000041EA3DB3C440EB9002C9FDBAB7CE3B1B5
:1013F0002B799BB10734002E24F0070714BF384621
:101400000020A97C0DF0E8F9041E8FDB3C4466B98E
:10141000002C0ADA8AE700BF60180020012000F0E3
:10142000CDFC10B1AB7B002BE4D1744B1B6893B1A6
:10143000A97981B10334002E24F0030714BF384684
:101440000020EA7C9847041EFFF670AF3C4416B9B2
:10145000002CFFF66BAF6A4B1B688BB1297D79B10D
:101460000334002E24F0030714BF384600209847A9
:10147000041EFFF65BAF3C4416B9002CFFF656AFD6
:10148000604BD3F80080B8F1000F15D0697D99B199
:101490000334002E2B7E009324F0030714BF38463C
:1014A0000020EB7DAA7DC047041EFFF63FAF3C4401
:1014B00016B9002CFFF63AAF072000F07FFC98B178
:1014C000A97989B10334002E24F0030714BF3846EC
:1014D0000020AA7E00F070FF041EFFF627AF3C44F8
:1014E00016B9002CFFF622AF95F82500B6FA86F85B
:1014F0004FEA5818A0B1EB7F297FE71C27F00707B8
:10150000194447F0040743463A46C9B200F096FF33
:10151000041EFFF60BAF3C4416B9002CFFF606AFD5
:1015200095F82610002959D00734002E24F007071B
:1015300014BF384600202A8D18F019FE041EFFF64D
:10154000F5AE3C4416B9002CFFF6F0AE1EB1298D65
:10155000384613F02BFC95F82010002940D095F860
:101560002430002B3CD06A8C0734002E02F1240278
:1015700024F0070914BF4846002092B218F0F7FD86
:10158000071EFFF6D3AE4F4416B9002FFFF6CEAEBE
:10159000AB7F297F95F82400033727F0070719440C
:1015A00047F0040743463A46C9B200F039FF041E2B
:1015B000FFF6BCAE3C4416B9002CFFF6B7AE3EB108
:1015C0006A8C95F82010083292B2484613F0F4FB6A
:1015D0002B6B5BB176B12C630020A9E60F46B5E713
:1015E000002EF5D0002211461046EFE7002EF3D171
:1015F00020469DE62834FBD598E600BF5C0000201D
:1016000064000020600000201FB572B6184B5D6BAF
:10161000E5B9BFF34F8F1749174BCA6802F4E06270
:101620001343CB60BFF34F8F00BFFDE7B2FBF6F271
:10163000DCB20133002AF9D104F110036B4403F842
:101640000C2C0A2234B901A8A847E2E7024600237D
:101650000A26EDE7631E04AEDCB256FA83F3B0FB54
:10166000F2F602FB1600303003F80C0C3046E9E7C6
:101670006018002000ED00E00400FA0513B5114CDD
:10168000637B8DF80130237B8DF800306389ADF8E2
:10169000043068462389ADF802300AF0EFFD18B136
:1016A000DB210320FFF7B0FF207E0AF04BFE08B1DC
:1016B000DE21F6E7E07D0AF03FFE08B1DF21F0E72A
:1016C00002B010BD6018002038B5054600283ED095
:1016D00016F012FF10B94FF0FF3038BD13F0D0FFF5
:1016E000B0F5FA7FF7D81C4C1C486563002500F064
:1016F000DDFA2A222946A01C84F83850257084F887
:101700002C50256317F0B6FA1B222281628140F229
:10171000032240F20113A28103226380A2730123FA
:101720001F2223712282A3764FF40272F723628272
:10173000638444F60112FB23E2822385EFF31084D5
:1017400072B600F08BFE2CB962B62046C5E76FF08A
:101750001500C2E72846C0E7601800207D1600008B
:1017600038B51446002840F0B9805E4D95F8383001
:10177000032B00F0B080B1B112B96FF0150038BD85
:101780000139142900F2AA80DFE801F00B1C1F3494
:101790005E67853A6A6D7F404654598B8E9C9FA246
:1017A00094001378AB700020FFF7B2FD0028B7BF9C
:1017B0000123022385F838306FF00B00A8BF85F8AD
:1017C0003830DCE71378EB70EDE71379002BD4D0D9
:1017D0005379002BD1D01288FB2ACED81A2A6388DD
:1017E000CBD91B3BE02BC8D82368AB603E4BA2880B
:1017F0009A80D8E713786A799342BED32B71D2E7E7
:1018000013782A799342B8D86B71CCE713782A7988
:101810009342B2D86B75C6E71378002BADD05378DE
:10182000013BDBB2F82BA8D81388EB822F4B9278C0
:101830009A70B8E71078687611F006FBB3E7137872
:10184000002B9AD0AB76AEE7012000F0B7FA2378F0
:1018500008B1012B91D9AB73A5E713882B82A2E7BE
:101860001378AB719FE7072000F0A8FA10B923782E
:10187000012B82D9072000F0A1FA18B12378002BA0
:101880003FF47BAF2378EB748DE71378082B3FF69A
:1018900074AF2B7587E71388FF2B3FF66EAFAB74E1
:1018A00081E71378EB767EE713780E2B3FF665AF72
:1018B0002B7778E723680E4A2B626368536023898D
:1018C000138170E713786B776DE71378EB776AE72E
:1018D0001378AB7767E74FF0FF3050E76FF02C00DD
:1018E0004DE700BF6018002068180020761800201F
:1018F00080180020F8B50D46064630B329B311F024
:10190000070422D1124F97F83830012B02D16FF023
:101910000B00F8BD032B02D14FF0FF30F9E700F0C8
:10192000F5F80028F8D02846FFF7F2FC0028EEDB97
:101930001CF0B6FE3046396B0AF0C6FDFFF79EFE7E
:10194000032387F838302046E3E76FF01500E0E71F
:101950006018002010B5074C94F83830032B03D1E1
:101960000AF0CEFD0BF05CFF18F047FD002084F874
:10197000380010BD6018002050B1074B03F114026D
:1019800053F8041B40F8041B9342F9D10020704720
:101990006FF01500704700BFD747070010B5074B21
:1019A00093F838403CB90AF03DFD0320044900F0AB
:1019B000FDF9204610BD4FF0FF30FBE76018002016
:1019C000ED12000010B5074B93F838403CB90AF00F
:1019D0003DFD0220044900F0E9F9204610BD4FF01A
:1019E000FF30FBE760180020C912000038B50B4D2E
:1019F00095F8384074B90AF04BFD0949012000F010
:101A0000D5F92046074900F0D1F9012385F82C309B
:101A1000204638BD4FF0FF30FBE700BF60180020C4
:101A20007D120000A512000010B5054B93F8384058
:101A30001CB90AF0A3FC204610BD4FF0FF30FBE7B5
:101A40006018002010B5054B93F838401CB90AF017
:101A500087FC204610BD4FF0FF30FBE760180020E8
:101A600010B5054B93F838401CB91AF00AF8204617
:101A700010BD4FF0FF30FBE76018002010B5054B9C
:101A800093F838401CB919F0FFFF204610BD4FF005
:101A9000FF30FBE76018002010B5054B93F8384085
:101AA0001CB919F0F4FF204610BD4FF0FF30FBE7E2
:101AB0006018002010B5054B93F838401CB919F098
:101AC000E8FF204610BD4FF0FF30FBE76018002014
:101AD00010B5064B93F838402CB9012018700AF065
:101AE0005BFC204610BD4FF0FF30FBE76018002084
:101AF000024B02681A600020704700BF9C1800204B
:101B0000014B1B68184700BF9C180020024B186847
:101B1000003818BF012070479C180020F7B52E4EE2
:101B20000446071D2C4837600BF09AFE0228054634
:101B300006D12949204617F06EFC284603B0F0BDB7
:101B4000042842D13378092B0AD0262B1ED03146E7
:101B5000204617F0C7FCB0F5817F2DD3722112E02B
:101B600005213E2017F02AFC0028F0D1F3783279C5
:101B700001A943EA02236846ADF8003018F082F864
:101B80000028CFD053210820FFF73EFD1A213E2028
:101B900017F014FC0028DAD17368C3F30F23ADF8F3
:101BA00004306946112301A88DF8063018F0AAF810
:101BB0000028B7D06521E6E70028B3D0A1782078C7
:101BC00017F0FCFB0028B8D1ACE70828B5D10249D2
:101BD000204617F04FFCB0E7A0180020074B4FF04D
:101BE000FF3141F6FF72C3E9001205490022C1E945
:101BF00000221F21C3E90212704700BF000000202D
:101C0000A41900203F280CD801380B4BC0F3421216
:101C100000F01F0053F8223023FA00F000F001001A
:101C20007047FF2806D04038C0F34212034B00F043
:101C30001F00EFE70120704700000020A4190020DA
:101C40000146074B006849681A4603C240F48C22DB
:101C50001A6041F0107242F4FF625A60704700BF90
:101C6000000000200246024B0068516803C3704721
:101C7000A41900200246024B0068516803C3704754
:101C800008000020FD281ABF00F1FF30C0B23F203D
:101C9000054B420903EB820300F01F009B6823FA07
:101CA00000F000F00100704700000020014B1860B8
:101CB000704700BFAC19002007B5FFF78FFF18F081
:101CC0005DFF044B1B6813B101909847019803B066
:101CD0005DF804FBAC1900200B880288F0B5C3F353
:101CE0000E049EB204F11803C57CC35A02352A447F
:101CF0002B4497B213FA82F3013B4288B3FBF7F30C
:101D000013FB07439BB29A42044A93BF22EA06039D
:101D1000324013439BB20B80F0BD00BF0080FFFF39
:101D200008B54B1E062B04D84FF4D1711520FFF7D0
:101D30006BFC0A4B994202D940F2A311F6E719B99C
:101D400000B10160084608BD28B103680022C3E95C
:101D500001211A1D1A600431F4E700BFFAFFFF7F6A
:101D600010B5114B00EB41041A786389B3FBF2F311
:101D700003FB0223013A1A44B2F5706F027928BFBF
:101D800000231A448378B2FBF3F0194403FB1020BC
:101D9000091AB1FBF3F003FB101313446FEA43433A
:101DA0006FEA5343638110BDB0190020024B03EB6F
:101DB00080004160704700BFB0190020034B03EB67
:101DC00080004068003818BF01207047B01900201B
:101DD0002DE9F04F10F0070A85B0054604D040F217
:101DE00061111720FFF710FC554F07F14006B1466F
:101DF0000446B0464FF0010B57F8043B8DF80BA09A
:101E00003BB101A898479DF80A30082B01D9E82179
:101E1000E7E79DF80B1081BB05B13160B94506F1CC
:101E20000406E9D12DB3DFF81CE100238EF8003061
:101E30001E460F2258F82200013A60B190F804A023
:101E40008178BAF1FF0F66D14FF000078E4207711B
:101E50003CBFCEB20123511CECD10BB18EF8006017
:101E60000F2640F6FF6A58F82670002F65D1013E14
:101E7000F9D2601B05B0BDE8F08F9DF80AC0BCF137
:101E8000020FE64601F1050238BF4FF0020E0EF1D7
:101E9000FF3004EB42040444CEF100002040BDF8C2
:101EA00008406444013CCCF1000C04EA0C04B4F595
:101EB000803F4FEA420301D3F82192E775B1C31A7C
:101EC000336099701C8083F803B09DF80C201A7160
:101ED000019A1A814FEA124CA3F806C004FB0104D0
:101EE0009CE758F82C90B9F1000F06D099F804B08F
:101EF000D34504BF99F802904F440CF1FF3CBCF16C
:101F0000000FEEDA3944FF29A0D90BB18EF800603A
:101F100040F2271165E794460027F0E707EB4103FD
:101F20003846A3F80AA0FFF71BFF09F10109BB78A7
:101F30005FFA89F18B42F1D899E74FF00009F6E793
:101F4000B4190020B0190020034B03EB8000406C53
:101F500000B18078704700BFB0190020F8B54FF687
:101F6000FF730380184B03EB81010546486CB8B141
:101F700086780379B3FBF6F206FB1233DBB219461F
:101F80000A1D00EB4202B2F902705488002F09DBEF
:101F90000131B1FBF6F206FB1211C9B28B42EFD14F
:101FA0000020F8BDFF29FBD0C4F30E03C4782B80BA
:101FB00024B94FF4D5711720FFF726FB5380BDE8F5
:101FC000F84018F09EB800BFB01900201D4B03EB7D
:101FD000810170B54C6C054644B3030404D54FF43D
:101FE000DC711720FFF710FB0146204618F06BF854
:101FF000FF28014604D02046BDE8704018F081B8A3
:10200000A078B5FBF0F300FB1353DBB219460A1DB1
:1020100004EB4206B6F90260002E09DB0131B1FB88
:10202000F0F200FB1211C9B28B42F0D1002070BD5A
:10203000FF29FBD08B4204EB42021CBF0023E3705C
:102040005580D8E7B0190020094B03EB810110B58A
:102050004C6C0146204618F036F8FF28014604D0A3
:102060002046BDE8104018F04CB8002010BD00BF5D
:10207000B0190020F8B5104B03EB810107464C6CFA
:102080000146204618F01FF8FF28054611D0E688C3
:10209000238953EA064606D00146204618F031F857
:1020A00001463846B04720462946FFF759FE002032
:1020B000F8BD0520FCE700BFB019002038B50E4B75
:1020C000827903EB82030446586C08B9052038BDB9
:1020D0008278E1799142F9D24B1CE37100EB410324
:1020E0005D89B3F90A30002BF3DBA58018F009F8FD
:1020F00020600020EBE700BFB019002070B5044657
:1021000010F003000E4603D04F211820FFF77CFA91
:10211000FFF706FE054624B1034831460460FFF789
:10212000FFFD284670BD00BF341A00202DE9F3479B
:102130001C4C9DF82CA0904622681E4607469DF830
:1021400028300D461AB961211820FFF75DFA1A46AA
:1021500009214046019317F026FE52461FFA80F9E6
:102160000921304617F01FFE19FA80F1206817F098
:102170007FFF019B386018B9286002B0BDE8F08786
:1021800000EB09042C6038684146092217F0C4FDB1
:10219000286853460922314602B0BDE8F04717F0DF
:1021A000BBBD00BF341A002070B50E46044617F0C0
:1021B0000DFE0546304617F009FE044B2A1821464D
:1021C0001868BDE8704017F077BF00BF341A0020D0
:1021D000014B186817F040BF341A00201F2AF8B5C9
:1021E00004460ED89200033222F00303B3F5803F79
:1021F0002ED2194DB4B1A00711D05F210920FFF7ED
:1022000003FAFF2A4FEA420304D9FF329A42A8BFD9
:102210001A46E8E77C2BB8BF7C231A46E3E729700F
:102220006C602B8122F0030201EB81031204D800C1
:1022300001276B68120C0025EEB28E4200D3F8BD68
:1022400014B126181F705E60104401352833F3E77F
:102250004FF0FF30F3E700BF381A002038B5144ABA
:10226000147853680021C8B2844203D8AB210920F6
:10227000FFF7CAF91846013105782833002DF2D04E
:102280000021817001241289447044688161C16118
:10229000920800F12001051D21F8022B994245F812
:1022A000044B1444F8D100234361037038BD00BFD0
:1022B000381A00200A4B1B89B3F5FF7F4FEA9300C1
:1022C00006D25A089B1A9BB2984238BF18467047EC
:1022D000B3F5EE6F01D8FF22F4E740F27263F3E743
:1022E000381A00202DE9F8434B7880460C4602F05E
:1022F000040602F0FB07D3B1DFB12E4BD4F80490F3
:102300001D89B7BB01236370AD08A761E76104F1C4
:1023100020034A46211D04F1280023F8025B98425D
:1023200041F8042B2A44F8D10023636101E0002F17
:10233000E3D0FF23A370002E18BF0226A3191B7D34
:10234000032B03D1022F1CBF0136F6B2A3190122C1
:102350001A7506F10C0204EB8606002324F81230ED
:102360007268A370C8F80020A8F804304046BDE8A1
:10237000F883002114226170A01816F07BFCB5F5DB
:10238000FF7F0FD26B08ED1AADB209EB0502C4F85E
:1023900004902584A2606384C4F80C90A584226113
:1023A000E384C6E7B5F5EE6F4FF0FF03EBD940F2DB
:1023B0007265EAE7381A00202DE9F84305460C4615
:1023C000F7200521914617F0EEFC061E22DB1DB911
:1023D00014FB06F0BDE8F88315F0030703D098213D
:1023E0001920FFF711F9DFF83480C8F81050A8F869
:1023F0001460A5B2BBB29D42EAD9B8F814C0D8F8AF
:1024000010004B4607FB0C000522F72117F084FC57
:102410000137EFE74FF0FF30DCE700BF4C1A002038
:1024200007B5CDE900230B4603490246081D17F006
:10243000BEFF03B05DF804FB641A002013B5064C20
:10244000CDE900230B46024604F1080104F10C001B
:1024500017F0ADFF02B010BD641A0020134B01222B
:1024600000214FF0FF309A60C3F80012C3F8080350
:10247000C3F80015C3F804259A60C3F80803C3F82D
:102480000015C3F804250A490A4A03F580334FF4BE
:102490000040C3F80825C1F88000BFF34F8FBFF399
:1024A0006F8FC1F88001C3F80825704700F0004025
:1024B00000E100E00000F63F8C46322300B50CF846
:1024C000033B054B8E4607CBCEF80300CCF8041037
:1024D000CCF808205DF804FB801A002010B5154CDC
:1024E00011F07CFD10F054FE636A608C0021984767
:1024F000237E9BB9104B628C93E803000CF0F4F937
:10250000E36A18880CF01CF9636B94F8301094F8A7
:1025100031009847002384F8383010BD94E8070054
:1025200004F10C0383E80700044904F119001AF0D0
:10253000D0FBDFE7741A00209C1A0020B9240000A9
:10254000034B93F8383003B97047FFF7C7BF00BF9C
:10255000741A002008B540F267410620FFF754F8CE
:1025600008B5094B93F83820022A07D1DA7A42F0ED
:102570000102DA72BDE80840FFF7B0BF40F22D213A
:102580002720FFF741F800BF741A002070B5364EBF
:1025900096F8283005460BB1012825D001292AD804
:1025A000336C28469847044628B396F8303013BB5E
:1025B00096F8283013B31DBB96F84420D106C2F319
:1025C00000152DD4F26C316D1278C2F3001201B3F4
:1025D00082F00104BBB1738F9A0715D5F36BDC78D9
:1025E000023C18BF012407E0738F1807D6D5F36BA0
:1025F000DB78022BD2D10124204670BD012DDBD027
:102600000024204670BD738F002BF4D1002DF3D031
:10261000F6E7B6F854100029DAD0002BF3D0DAE749
:10262000F16B0A7802F00302032A02D1CA78022A67
:1026300018D0B06C17F053FC48B9F36B1B7803F05B
:102640000303032B06D196F828300546BAE796F81F
:102650002830B7E70AF06EF980F0010096F82830CC
:10266000C5B2AFE70025ADE7741A002070B5264C5F
:10267000E56AE26C95F88C30A265064694F85C0039
:102680000BB10430C0B295F86D100EB9FF2831D0EF
:1026900011F0D2F995F88C3033B3206E11F0B8FDFB
:1026A00094F82830D5F8E820216EA06D6267003BD1
:1026B00018BF012384F87C30D5F8EC30A36710F004
:1026C0000BFD46B995F86D30033B012B94BF2820D4
:1026D000002011F047FE95F86C10002011F0AAFEC2
:1026E000022384F8383070BDA06D11F091FD10F018
:1026F0004FFDE6E795F86C208A42CDD011F09CF9A9
:1027000095F88C30C8E700BF741A00202DE9F0411D
:102710003C4C94F83830E56A012B82B06BD15FFAFB
:1027200083F895F87C3006460F4673B1638F00211D
:1027300043F00403638785F87C10636A042098479C
:1027400094F828300BB185F87E80E16B0B7803F0AC
:102750000303032B30D04B7853B3022385F8823028
:1027600095F88C30EBB1E36A94F8282093F86D303B
:10277000003A18BF0122013BDBB284F87C20D5F877
:10278000E8206267032BD5F8EC20A26794F85C2060
:1027900036D81D490020CB5C00901C49012010F068
:1027A00023FC06B9E7B902B0BDE8F041FFF796BED9
:1027B000012385F88230D3E795F8823063B9638FBF
:1027C00043F0020363870220636A9847E16B0B784A
:1027D00003F00303032BBED1032385F88230BFE748
:1027E00031463046FFF7D2FE0028DCD102B0BDE80A
:1027F000F041FFF73BBF40F29D412720FEF704FF69
:10280000FFF7A8FE741A002058AA0600D81A002064
:1028100070B5824CE56A94F85C3095F88C2082B0F3
:1028200000218DF805100AB10433DBB295F86C1065
:1028300010B9FF2B00F0B180FF2011F0FDF895F8E2
:102840008230032B00F2E580DFE803F0021C807089
:1028500094F8BA30ADF806307148A5F85C300AF04B
:1028600043F8002840F09F80A06C0DF105020DF1A7
:10287000060117F0D3FAE06320B195F8C730002BBA
:1028800000F0A9806748E06395F883200378D200C0
:1028900002F0080203F0F303134395F8842092003A
:1028A00002F00402134303F0EF0203F00303032BCF
:1028B000027002D1C378022B11D0A06C17F00FFB6D
:1028C00048B9E06B027802F00303032B07D00AF04B
:1028D00031F8002878D1E06B027842F010020270E3
:1028E00095F88B3013B14378002B41D111F090FC57
:1028F00010F04EFCE66B0BF0AFF820B1337803F02C
:102900000303032B63D095F86D10012011F092FDA5
:10291000E36B454A18889978A4F84400012384F8A9
:10292000BC30917084F8383002B070BD3C4809F07A
:10293000DBFF002863D0E06BC3781B2B14D101218F
:1029400005F1100011F0AAF8E06B0DE0B5F85C306D
:10295000A06CADF806300DF105020DF1060117F07F
:102960005DFAE06300284FD0012384F8BB308BE789
:10297000206E11F04DFC94F82830D5F8E010D5F811
:10298000E4206167B3FA83F35B09E16B206E84F89E
:102990007C30A26710F0A0FBACE795F86D308B425D
:1029A0007FF44AAF4BE7638FE16B626A43F4807355
:1029B0004FF4807063879047E06B012185F87D10AC
:1029C000C3781B2BD0D1BBE7E06B027887E70120EF
:1029D00013F06AF997E79DF8053043B1BDF806108A
:1029E0001AF01EF90123E06B84F8BB304CE703803A
:1029F0008370E06B01211AF000F8E06BEEE740F223
:102A0000D7212720FEF700FE40F2CD212720FEF738
:102A1000FBFD40F2E5212720FEF7F6FD741A0020A9
:102A2000B01A0020FC1A0020B81A00202DE9F04F3F
:102A3000B84C94F83830E76A87B00022022B049231
:102A400040F01482638C0D4613F04001804606D19D
:102A5000636A40209847638C43F040036384B8F175
:102A6000000F5CD097F88C30002B40F05B81D4F8DD
:102A700058A09AF8013099B2A4F85410002940F0F7
:102A80006781002323659AF80060638C97F88310B0
:102A9000C6F3800243F400739142638400F0F78030
:102AA000D4F82C9099F88220FAB1022A00F0B8816B
:102AB00094F82830002189F8821023B199F87E30EB
:102AC000002B40F0A38199F87D30002B40F08081ED
:102AD00099F88330D4F858A0012B0CBF00230123B0
:102AE00089F883309AF80060638C97F88410C6F3F5
:102AF000C00243F40063914263844FF0000900F088
:102B0000CE8000260AF0A8FF30B39AF8003003F018
:102B10000303032B20D1012013F0C6F81CE097F823
:102B20008C20002A40F01C8143F48063638497F872
:102B30006D3094F8C620033B0132012B84F8C62087
:102B400005D90AF089FF8146002800F0D6800120CF
:102B500013F0AAF80026B14697F88B3013B394F817
:102B6000283097F87620B3FA83F35B0984F87C3039
:102B700097F86C30013B002ADBB2D7F8E02062679F
:102B800018BF0420D7F8E420A26708BF0020032B59
:102B900000F27181604A6149D35C00220092FB22FD
:102BA00010F022FA45B994F8C6100120FFF7EEFCA8
:102BB0000546002800F0D88011F090FC0125002E79
:102BC0003BD1B9F1000F09D094F82830002B40F028
:102BD0009680B4F809300133A4F80930B8F1000F39
:102BE0004AD0B4F8053000220133A4F8053084F847
:102BF000C6204B480BF092FD049830B117F00CFA48
:102C0000E16A002202720AF06FFE36B1E16A002327
:102C100033720C2230460AF035FE002D32D1638C1F
:102C20001B0607D4636A294680209847638C43F0CB
:102C30008003638407B0BDE8F08FA16D236D4E78EB
:102C4000002B00F01A81B4F854201846033216F015
:102C50007DF80DF10E0205A9A065D4F8C00017F0AB
:102C6000F1F9059817F0D8F9314601220646D4F853
:102C7000C00017F07EF9A4E7B4F807300133A4F8D8
:102C80000730B6E7FFF72AFC07B0BDE8F08F97F8EA
:102C90008410C6F3C0029142C1467FF432AF06F001
:102CA0000306032ED4F82CB064D143F4805363841C
:102CB000638F012043F00103514663878BF87C004A
:102CC000636A9847D4F858A000269BF88430013BEB
:102CD00018BF01238BF884309AF80130002B3FF4A1
:102CE00011AFDBF8E8300133CBF8E830DBF8EC303B
:102CF00043F10003CBF8EC3004E706462CE7B4F8C8
:102D00000530B4F80710B7F880200B4313433FF4A5
:102D100065AF5EE7741A002058AA0600D81A002092
:102D20009C1A002010F050FAD4F858A09AF80130FC
:102D300000287FF4A0AE002B65D09AF8002097F809
:102D40008410C2F3C00291427BD099B2A4F854100F
:102D5000D4F8C00017F0E4F8D4F858A0206592E643
:102D600010F072FA638CDFE6FFF752FD002E3FF49D
:102D700028AF62E7002EA8D09AF80160002EA4D0F8
:102D800043F4805363849BF88C6010F0E1FD0428C9
:102D900094F8C43006D1002E14BF1B221F22934288
:102DA00028BF1346D4F858A09AF801209A424ED86A
:102DB000266D002E3FF4A6AE94F8C530002B53D0FC
:102DC000636A0021202098470026D4F858A099E68D
:102DD000002689F87D6009F097FD002852D0638FA6
:102DE00043F0080363873146636A08209847D9F89F
:102DF000E0300133C9F8E030D9F8E43043F10003A2
:102E0000C9F8E43064E6A4F854303AE6638F89F8F0
:102E10007E1043F0100363871020636A984752E6E0
:102E2000A06C04A917F01DF888B3D9F8E03001337D
:102E3000C9F8E030D9F8E43043F10003C9F8E430D0
:102E400036E6012384F83130FFF748FBF2E694F8C8
:102E50003030012043F0100384F83030002612F0A7
:102E600023FFD4F858A04DE646462EE740F2115114
:102E70002720FEF7C9FBFFF76DFB40F28E412720AC
:102E8000FEF7C2FB40F21C412720FEF7BDFB40F2DB
:102E900005412720FEF7B8FB70B50D4B0D4C0E4ACF
:102EA0001A6094F838301BB1DE212720FEF7ACFB06
:102EB00003F0FF0206460D4622760BF00DFD0121C0
:102EC00004F1880019F099FDE664256670BD00BF25
:102ED00068000020741A00208433000010B5074AEF
:102EE00092F8383013B10C24204610BD03F0FF04D3
:102EF00014760BF0F1FC204610BD00BF741A0020C0
:102F0000024B012283F8C520704700BF741A0020CD
:102F1000F0B5C24C85B002AD85E8030094F83800E6
:102F20000A9E002840F09781002A00F09481002B2F
:102F300000F09181002E00F08E8100F0FF0184F8F6
:102F4000C51084F8301084F8C61084F8311084F865
:102F5000BC1084F8BB106187618495E8030023648A
:102F600004F1280383E80300E56A6262666310F0F7
:102F7000F5FD10F00DF995F9740010F0E9FEA86A5E
:102F800011F02AF9286A10F0E9FE95F89C0010F07B
:102F9000EFFE95F87630002B40F0B380962010F0CD
:102FA000C1FC94F82800002800F0B380E36A93F88D
:102FB000B831002B40F0028195F86D209D21012051
:102FC00010F0B4FF964B974E186811F00BF96B692F
:102FD000D5F8F410D5F8F820D5F8F000A364D5F8AA
:102FE000FC30AF69C4F8C0700FC6E36AD5F80011B1
:102FF00093F88620C4F87D10D5F80411C6F80D109A
:10300000A2F12601012940F2948093F88710262925
:1030100000F08F80213A012A40F2F080242900F04C
:10302000D08093F86C60032E08BF042605F13407A6
:103030003146384619F00CFF314619F02FF9B5F832
:10304000402095F86D100346934228BF134638463A
:1030500084F8BA3019F0C2FE95F86D1095F88C70AE
:10306000B5F84860042908BF032119F017F90FB912
:10307000043080B2B04228BF3046C6B284F8C46083
:103080000AF0EAFC002840F08B8094F8280084F8CD
:103090005C60002866D195F88B30EBB195F86C3008
:1030A00095F87610D5F8E0206267013B0029DBB285
:1030B000D5F8E420A2674FF0010118BF0420032BCC
:1030C00084F87C1000F2CC80574A0021D35C009138
:1030D000FB2254490FF088FF0120FFF799FB0023E2
:1030E000C4E90033A3602B6F2988B5F8800095F8F8
:1030F0009C206080218022710BB101221A6005B0F2
:10310000F0BD4D2010F00EFC94F8280000287FF44C
:103110004DAF95F86C20444B03EB42039988434B29
:1031200001F5FA71A3FB013189096E3110F0FEFE41
:1031300048E794F82820002A39D193F8FA2193F827
:103140006C60002A3FF472AFF31E012B63D9D31ECB
:10315000012B60D9012E3FF469AF012A14BF02266A
:10316000012663E795F88C30B3B195F86D30D5F84A
:10317000E820D5F8EC10A167013BDBB20120032B5E
:10318000626784F87C006BD82749CB5C00210091F2
:10319000324624490FF028FF0120FFF767FA9EE727
:1031A0000AF060FCB04238BF3046C6B26DE793F813
:1031B000922293F86C60002AC6D137E710F0BCFC6D
:1031C000FAE694F82820002A3FF42BAF93F8262142
:1031D00093F8651093F86C6002EA01035A071AD459
:1031E00013F001022BD19B077FF520AFF31EDBB25A
:1031F000012B10D9012E18BF022617E72429E0D091
:1032000094F82820002A3FF40CAF93F8262193F875
:103210006C6050070CD5042608E700BF741A002024
:1032200068000020D81A002058AA0600D34D62106A
:1032300012F0010309D191077FF5F8AED6E7033EFE
:10324000012E8CBF16460426F0E6033E012E8CBFED
:103250001E460426EAE640F26D112720FEF7D4F957
:10326000FFF778F908B5124B93F8382092B193F82C
:10327000282022B993F83830012B14D108BD93F8D7
:103280003820022A0AD1DB6AD3F8D001BDE8084011
:1032900011F034B8BDE80840FFF720B940F20F2123
:1032A0002720FEF7B1F940F20B212720FEF7ACF9F9
:1032B000741A0020FFF712B9014B1876704700BF4F
:1032C000741A0020014B93F8BC007047741A002058
:1032D000034B93F8BB0010B9588CC0F30030704713
:1032E000741A0020024B588CC0F3C020704700BFF6
:1032F000741A0020014B93F8C6007047741A00201E
:103300002DE9F0411E4F8207FE6A82B0044613D4B5
:10331000E3070ED5D6E93A3296F88410013342F12C
:1033200000020129C6E93A320CBF0023012386F8C6
:10333000843002B0BDE8F0813B6DE3B1B7F85420B2
:103340000D46B96D1846033291F8018015F0FEFC68
:103350000DF1020201A9B865D7F8C00016F072FE9F
:10336000019816F059FE012228604146D7F8C000A6
:1033700016F0FFFDCCE740F28E412720FEF744F91E
:10338000741A0020612500002D2A00000D2700007E
:103390004125000008B540F2F2310620FEF734F96D
:1033A0002DE9F843002800F0E1800446072900F2E7
:1033B000D380DFE801F0AB2424A7D11F9ECD0146C6
:1033C00020461AF030FDD4F8443100F1E5059D4265
:1033D00040F2C780E81A322838BF3220032114F0A7
:1033E00005FDC4F84451064620461AF0E6FD002EBD
:1033F00000F09D802046BDE8F8431AF0DFBD1AF0CA
:1034000061FDD4F81421002305460E4684F84031AE
:1034100084F84931BAB150EA010314D0CA00C3009C
:103420001B1A42EA507262EB0102D4F830115B18A9
:10343000D4F8341142EB0102D4E95401834272EB17
:103440000103C0F09180022304F5A07784F848318D
:10345000384613F01DFF002800F08C8094F860318E
:1034600003F0FF01002B6BD1D4E956026FF000434B
:103470009A4208BFB0F1FF3F13D02046D4E95498D8
:103480001AF0D1FCD4F85831D4F85C21B3EB09031D
:1034900000F1E50062EB08021B1A62F10002002A4B
:1034A0004BDB94F81001394613F0E4FF00286BD091
:1034B000D4E95401D4E94A32834272EB01071FD2A6
:1034C00055EA06071CD0C01A61EB020133462A46B2
:1034D00015F014FB05FB01F100FB0616D4E94A21A7
:1034E000A5FB00535519334443EB0103C4E94A5388
:1034F00006E090F8100113F0A5FE002384F838319F
:10350000BDE8F883BDE8F84310F0FABF0DF082F88B
:10351000D4F84401CB3814F0D7FB80B320461AF01E
:1035200010FD00283FF44BAF20461AF046FDD4E9C9
:103530005423C4E94C23BDE8F88320460DF072F80B
:1035400094F8100113F07EFE002384F83831AFE7C1
:10355000FD213020FEF758F840F201113020FEF72F
:1035600053F8C4F84451DFE701236DE7E021302030
:10357000FEF74AF84FF4D3613020FEF745F840F2E9
:103580005A213020FEF740F840F29C613020FEF7CF
:103590003BF800BF2DE9F04F04468BB04FF0000917
:1035A000029390F86DB0CDF818900E46904618F042
:1035B0002BFB94F8B9310B2B00F20084BE4F37F887
:1035C000135094F887302844442B85B215D094F8D2
:1035D0008620442A11D0A3F10E02B2FA82F25209D7
:1035E0000392B8F1000F40F0BB8294F8FC21032A4B
:1035F00000F005830123049307E0B8F1000F00F009
:103600008E800123CDF810900393B4F848A2B4F84B
:103610008090A6EB0A0A0FFA8AFAA6EB0909BAF11A
:10362000000F0FFA89F904F50678C0F28F82029B29
:10363000A24A127802F0FF005AB9074694F8FC211A
:10364000032A00F2D783DFE812F03F01FE00C30136
:103650007300059311F0FAFF059B0028EDD0B4F834
:10366000E821012A40F2158394F8FC21022A00F097
:10367000108394F81202002840F00B8394F876200F
:10368000002ADAD194F8B9210B2A00F2978337F88F
:10369000125094F8FC2105F5C865012AADB240F03E
:1036A000538394F88A20032A40F07B83D4F8F401F2
:1036B000E76A07442946059311F08CFF0246384615
:1036C000D4F8F071C4F8F021D21BD4F8F87129466F
:1036D00002FB07F711F07EFFD4F80022C4F80002C5
:1036E000801A07442946E06911F074FF94F87620A7
:1036F000059B02B10230B4F8D421D4F8F8114A4441
:10370000C943A2EB0A020A44D4F80412C4F8040222
:10371000401A00FB0277012284F812228EE794F807
:10372000FC31032B00F071820123CDE903336CE7F8
:10373000E169029801FB0AF2002800F01482B4F853
:10374000D451002D40F00F8284F81352D4F80402B3
:1037500000FB1A2A94F88620CDF818A0262A00F03B
:103760009A8294F88720262A00F09582C3B3BDBBC5
:10377000D4E98C23D4F838C2D4F83C1262458B418A
:1037800080F02D8394F86D30DA1E012A40F2CE824B
:10379000184611F017FA4A4DD4F8381200F52340B4
:1037A000A130A5FB003ED4E98C2394F86D00843948
:1037B000A0F1030C8A1A9244BCF1010FAAEB9E1AE5
:1037C00040F2128311F0FEF900F2E731A5FB01315E
:1037D000D4F80402B4F8D45189095144103906913F
:1037E00005EB090AABF1030300FB0AFADBB20AF1AD
:1037F000300A012B4FEA4A0A40F29582584611F0EE
:10380000E1F92F4B00F52340A130A3FB00304FEA34
:103810009019584611F0CEF90AF174039944274BD8
:103820004844586094F87630002B42D0254AE0692D
:10383000514606AB18F077FD204B84F81302069A28
:103840005868E1692AE1D4F80402E269B4F8D43195
:10385000D4F8F81194F86DB0258E121A99440AFB29
:1038600002F2D4F800320692D4F8F021303302FB91
:103870000133C943894400FB0939ABF10303012B30
:103880004FEA490905F1740540F2B381584611F039
:1038900099F90B4B00F52340A130A3FB00304FEA10
:1038A000901A584611F086F9A944044BD144484473
:1038B0005860069A8AE000BF68AA06003C1B0020F8
:1038C000D34D6210401B002094F86D1094F8CE0187
:1038D00018F00CFD8146E06A2946484411F07AFE52
:1038E0002946C4F80002E06911F074FE94F87630BD
:1038F000002B40F0CC81C4F8040207A908A810F0FE
:10390000F5FD079B0093D4E99001DDE9082314F04D
:10391000D7FC94F86D3005930546184611F052F91E
:10392000059BDFF8D8A3033B00F55F40012B00F1B6
:10393000410094BF28210021AAFB003001EB901127
:103940008031204619F0E6FAD4F84C32E26A94F855
:103950006D000693059211F035F94AF2A13B5844E7
:10396000AAFB0031069B059AD4F80002943B13444D
:103970001B1A4B445B1BA3EB9113069394F86D3019
:10398000B4F83090DA1E00F13005012A4FEA4505FF
:1039900009F1960940F22A811846059311F012F9AF
:1039A0005844AAFB003A059B4FEA9A1A184611F0B0
:1039B00001F9A944D04B069AD14448445860D4F840
:1039C0004C32D31AB3F5917FC0F0FF81E16965E015
:1039D000E36AD4F8F4012946184411F0FBFD2946A6
:1039E000C4F80002E06911F0F5FD94F87630002B80
:1039F00040F04B8194F86D50C4F80402284611F051
:103A0000E1F8DFF8F89200F55F40033D012D00F189
:103A10004100A9FB003094BF2821002101EB901147
:103A20008031204619F076FAB4F8D431002B00F03A
:103A3000A280D4F8F431E26AD4F8000294F86D5010
:103A400013441B1AE91E0693C9B2D4F8F031D4F816
:103A5000F821B4F830B002FB030A0AF1300A012958
:103A60004FEA4A0A0BF1740B40F2C680284611F067
:103A7000A9F8A24B00F52340A130A3FB00304FEA88
:103A80009019284611F096F8DA449B4B069AE169A2
:103A9000CA4450445860012384F8FC31D4F80452DD
:103AA0006FF4AD734D1B1D44D21BD4F84072D4F893
:103AB00044320692854228BF0546BA1843F10003F6
:103AC000C4F82C320023C4F8282284F81832C4F831
:103AD000D05104F1340019F07FF9D4E98A23284445
:103AE000C4E99023C4F81C02A4F848620DF034FA2B
:103AF00020B1D4F81C321E33C4F81C32B4F8C01103
:103B0000039A8E1B002336B29E4284F82032C4BF33
:103B1000022384F82032002A40F0C980029A002A49
:103B200040F0C98094F8FC31002B40F0E98094F813
:103B30001402414613F09EFC002800F04181049BD2
:103B400084F8103200200BB0BDE8F08FD4E98C016E
:103B5000002384F81332C4E99001CA46012367E5C3
:103B6000CDF8109051E594F81302002800F0D880A9
:103B7000614B586892E7029B002B3FF45AAFD4F890
:103B8000F431E56A94F86D001D4411F01BF800F55E
:103B90002340A130A9FB00304FEA901BD4F800026B
:103BA000D4F83822A5F1940A94F86D50AAEB000AD3
:103BB0009244E91ED4E98C23C9B20129AAEB020A76
:103BC00040F2BD80284610F0FDFF94F86D5000F2E1
:103BD000E730A9FB0039E91ED4F800024FEA991931
:103BE000C9B2AAEB0B024A4406922EE74FF0650ACF
:103BF000DCE64FF0650A54E64FF0650941E70E2B0D
:103C000018BFCDF80C807FF4F5ACB4F89032B34215
:103C10007FF48AADB4F8D421B4F84A321344C4F81E
:103C2000F831D4F80432C4F8F031E369C4F8F4315F
:103C300020460DF00DFFD4F8982294F8A43241F6F6
:103C40004B5842458CBF4FF000084FF00108002B45
:103C500040F09180E3699A4204D020881AF0FCFC7D
:103C6000D4F89832E361D4F89432E362B4F8923233
:103C70002386D4F89C326362022384F8FC3101234A
:103C8000CDE9033384F87680BFE40230B2E6023037
:103C900031E60027D2E4B4F89022B21A12043FF5BC
:103CA00065AD94F89322002A18BF93465EE5029A08
:103CB000002A3FF43CAFB4F8E821D2B1B4F8EA01ED
:103CC00094F8EC1100FB01118A4200F101007FF72A
:103CD0002EAF002B3FF42BAF002384F82032A4F842
:103CE000EA0109F0C5FE00F00700013084F8EC019C
:103CF0001DE7A4F8EA211AE73C1B0020D34D62100F
:103D0000E169D4F804324046C91A18F096FA80B234
:103D100000283FF40CAF149BA3B11880012012E7D8
:103D2000B4F8D45112E54FF0650972E5D4E98C235B
:103D3000ACF1E90CACEB020C3C21E2444DE54FF058
:103D40003C094EE70120FEE6E0690593294611F0A3
:103D500041FC94F87620059B02B10230B4F8D4718E
:103D6000D4F80422C4F804024F44A7EB0A07801ACF
:103D700000FB07F7CFE420881AF06BFC50B3B4F8CF
:103D80009032B4F8A02262864FF00008B4F8A22264
:103D90004381013B03828281D4F89832A0F80E80DF
:103DA00060E794F86D1094F8CE01E76A059318F077
:103DB0009DFA059B0744D4F8F4017BE4FFF7EAFA87
:103DC00040F287513020FDF71FFC40F2D2413020F5
:103DD000FDF71AFC40F232713020FDF715FC40F27D
:103DE00026513020FDF710FCB4F8D451D4F8040269
:103DF0003C21F2E440F23E513020FDF705FC00BFCB
:103E0000F0B585B0002800F010810446072900F2C3
:103E1000F380DFE811F09500080008007E00F10053
:103E200083008B00ED001AF016FED4E98C23801A73
:103E300061EB0301012871F10003C0F2FF806FF014
:103E40000102002382428B41C0F20181E3690BB180
:103E5000B0FBF3F394F88720442A00F09B800E2AED
:103E600094F8861000F096804339012940F2928040
:103E7000B4F88010B4F80E220B449BB2D11A090496
:103E800000F1C880531C9BB2A4F80E3294F8113292
:103E9000B4F80E12002B00F0B380B4F8BA00B4F8F6
:103EA00080306D4FB4F84A220344B4F8B800013BA7
:103EB0001B1A9EB23B680132A4F84A2202AD53B1EC
:103EC000013989B2002220469847B4F80E120844FE
:103ED00081B2A4F80E12731A1B0462D40023009559
:103EE0001A462046FFF756FB40B3012840F0A18058
:103EF000B4F80E12B4F8C031CA1A10046ED4BDF86A
:103F00000830194489B23B68A4F80E12002BD7D1AF
:103F1000E1E705B0BDE8F04010F0F2BA012011F081
:103F2000C3FE05B0BDE8F040FFF7C4B990F8FC311E
:103F3000042B40F08880002380F8FC3105B0F0BDF0
:103F400090F81032D3B1B0F80E22B0F880309A4217
:103F500063D0D31AA0F8C631A0F88020D4E98A2310
:103F60002046C4E98C230DF093FC94F8CB31002B50
:103F7000E4D005B0BDE8F0401AF0D6B9B0F80C3284
:103F8000B0F88010B0F80C22A0F880205B1AA0F8DE
:103F9000C631E3E7B4F80E12013189B2A4F80E126B
:103FA0007BE794F88A200394002A0CBF3E22082263
:103FB000012384F8A92028468DF808300AF03EF93C
:103FC00020461AF0B3F9002384F8FC3194F8140267
:103FD00013F038F9202384F81432AFE7BDF8082035
:103FE000114489B2721A12F4004F18BF19468AE7B9
:103FF000D4213020FDF708FBD8213020FDF704FB49
:10400000B4F8C4318B427FF448AF013189B2A4F8CF
:104010000E1242E701339BB236E7B0F8C431A0F884
:1040200080309B1AA0F8C63198E7A8213020FDF710
:10403000EBFA40F26A613020FDF7E6FA40F21261D5
:104040003020FDF7E1FACE213020FDF7DDFA40F215
:1040500013613020FDF7D8FA6C0000202DE9F04301
:10406000D0F814310026D0E9548983B080F8186163
:1040700005460F4683F8CE2180F838610121D0F83B
:10408000140109F081F8D5F81441C4E98C8995F838
:10409000103184F81432C4E99089C4F84C7284F861
:1040A000FC61A4F848623346009632463146204609
:1040B000FFF770FAD0B9012384F8FC31C4F8F80195
:1040C000C4F8F001A4F80E02A4F80C0284F811025E
:1040D000B4F88030A4F84A02013BA4F8803010F014
:1040E00025F803B0BDE8F04312F01CBF4FF4FE7199
:1040F0003020FDF789FA00BFD0F81401704700BFE7
:104100002DE9F04385B000230322CDE90033FF26DB
:104110008DF806206846FDF7D1FF044620BB009DC0
:1041200095F83831002BF5D085F8606101212846DB
:1041300019F046FF95F83831002BEBD095F81001B7
:1041400013F0FAFB95F8100113F078FF95F81001C1
:1041500013F078F800283CD085F838416846FDF720
:10416000ADFF04460028DAD0DFF87C80012388F810
:104170000830002502264FF6FF771AE0029BE3B1D4
:1041800093F81422202A18D01888B8421BD0022194
:10419000FDF75AFF814608B390F8140213F04EFF62
:1041A00099F8140289F8FC4113F04CF8202389F89F
:1041B0001432CDE902558DF80E6002A8FDF77EFF9E
:1041C00004460028DAD0002388F8083005B0BDE89E
:1041D000F0834FF4F4713020FDF716FA4FF49A7122
:1041E0003020FDF711FA00BF3C1B0020054B0022D8
:1041F000012142F210705A72588119701A72FFF739
:104200007FBF00BF3C1B00202DE9F84390F83831F8
:10421000002B76D10446884601465648154603F0E1
:10422000FF0712F0DBFF202806466AD058223946E5
:1042300004F5887014F01EFD84F81061C4F8148130
:10424000FF2384F83831B8F1000F06D009F028FCBC
:1042500000F00700013088F8EC0102234FF000085D
:10426000A4F8483184F8408111F014FA9E3086B2E7
:10427000204619F066FE002847D017F0C5FC00F56F
:10428000CD6081B2284611F0A5F92844C4F8440154
:104290001AF0E1FB301841F100014FF00109C4F8B8
:1042A0005001A4F82680C4F8541184F818912046CF
:1042B00019F05DFE002846D04946204619F0B3FDAE
:1042C0006FF49C631D442D1AC4F81C514FF0FF324B
:1042D0006FF00043C4E9562394F8100104F5A0716F
:1042E00013F0C8F800283FD0D4E954232046C4E98D
:1042F0004A23C4E94C23002119F062FE3846BDE888
:10430000F8830C273846BDE8F8830146204619F0AB
:104310008AFDDFF86480E530C4F84401B8F80A008B
:1043200008B1E08CB8B906441AF095FB361841F193
:104330000001C4E95461002DC8D0AE1941F100015B
:10434000C4E95661C8E7484619F012FFE53D2D1A49
:10435000C4F81C51BAE709F0A3FBB8F80A30B0FB67
:10436000F3F202FB1300DEE74FF4E5713020FDF7B6
:104370004BF900BFA13300003C1B002090F83831FE
:104380000BB90020704710B50446FF2380F8603158
:10439000012119F015FE94F838310BB9002010BD39
:1043A00094F8100113F0C8FA94F8100113F046FEC7
:1043B00094F8100112F046FF20B1002384F8383140
:1043C000002010BD4FF4F4713020FDF71DF900BF3F
:1043D000014B5872704700BF3C1B002090F86021D1
:1043E00082B910B502F0FF0490F8182112B9012229
:1043F000104610BDD0E947319942F9D90CF012F9B5
:104400002246F5E700221046704700BF08B50FF0BE
:10441000C5FA044BDA6882422ABF187A002080F07D
:10442000010008BD3C1B002008B540F2FF1118F048
:1044300079FDB0F5296F28BF4FF4296080B208BD1F
:1044400090F8CB31002B75D1F0B503F0FF0590F853
:10445000FC31032B85B0044601D005B0F0BD1AF045
:10446000FAFAD4E98C23801A61EB0301012871F177
:104470000003F2DB6FF00103834275EB01035CDBA9
:10448000E369B4F88020002B55D0B0FBF3F080B284
:10449000531C184480B2A4F80C02B4F80C22B4F8EF
:1044A000C4319B1A1BB2002BD7DD94F8140213F011
:1044B00043FA0028D1D0FF2384F81132B4F8805099
:1044C000B4F8BA20B4F8B830214F1544013DED1AC4
:1044D0003B68ADB20DF10E066BB1B4F80C120139A8
:1044E00089B2002220469847B4F80C3210FA83F3C0
:1044F0009BB2A4F80C32B4F80C32EB1A1B04ACD407
:10450000B4F80C12009689B2002301222046FFF76E
:1045100041F80028A1D0012814D1B4F80C32BDF81C
:104520000E2012FA83F39BB2A4F80C323B68002BE6
:10453000D3D1E0E770471846AAE740F2BB513020DC
:10454000FDF762F840F202613020FDF75DF800BF30
:104550006C0000202DE9F043044685B0062900F2E6
:10456000FF80DFE801F0042512222B327700D0E92A
:104570008C23D0E98E0182428B41C0F094807B4B2A
:104580001B7A03F0FF02002B7ED0042384F8FC3159
:104590000FF0CCFD12F0C6FCB4F88020A4F80E2277
:1045A0000023A4F84A3284F8113205B0BDE8F08344
:1045B000032380F8FC3105B0BDE8F0830FF01CFA4E
:1045C000C4E98E0105B0BDE8F08390F86D30DFF8E6
:1045D0009C81D0F80462C569033B40F26D1040F243
:1045E0004512012B98BF024698F80930B5428CBF9E
:1045F000AE1B00261BB9636B9E4228BF1E4604F10A
:1046000034000392D4F8D07118F0E6FB074402207E
:1046100013F098FBF61B26EAE676864228BF06468C
:104620000221304613F0E2FB039A00B937443946C1
:10463000204618F05DFCE269D4F8D031C8F80C00CF
:10464000D01813F041FB0028AFD140F27E3130206A
:10465000FCF7DAFF90F86D50284610F0B3FA033DEE
:10466000434900F55F40012D00F14100A1FB0030FE
:1046700094BF2821002101EB90118031204605B024
:10468000BDE8F04318F046BCB4F8C4110092012311
:104690002046FEF77FFF00283FF47AAF4FF4DA613F
:1046A0003020FCF7B1FF94F81232002B3FF467AFD3
:1046B00094F8FC31032B7FF462AF94F86D8017F00F
:1046C000A3FA94F8B9310B2B48D82A4AD4F83862A7
:1046D00032F81330D4F8D091C51803F5C8639FB2EF
:1046E000D4E98C234046B61A10F064FAA8F103020C
:1046F000012AADB2A9EB00092ED9404610F062FAAA
:104700001B4B00F52342A132A3FB02239B09A9EB1B
:104710000303A3F174025208D43B9D3205FB03F35B
:10472000B3FBF7F36033A2EB53018E424FEA53031E
:1047300002D313449E4201D910F08EFFE06929464E
:1047400010F048FF94F8763003B102300023C4F82B
:10475000040284F8123212E76523D8E7FEF71AFE46
:1047600040F284713020FCF74FFF00BF3C1B00205B
:10477000D34D621068AA0600012A70B5064609D01A
:10478000022A14460D461ED04AB140F2AE713020C6
:10479000FCF73AFF0FF002F9C6F84C0270BD0FF0BB
:1047A000FDF8224601462846FFF758FC0F4995F8C8
:1047B0001001324611F068FA0028EFD140F29771EB
:1047C0003020FCF721FFD0F84C1201222846FFF7D9
:1047D00045FC064995F81001324611F055FA0028BB
:1047E000DCD14FF4F5613020FCF70EFF013E0000F4
:1047F000F8B5044651B101295BD1002380F8183186
:104800000FF094FCBDE8F84012F08CBBC58C002D75
:1048100047D12046D4E94A7619F054FB401941F1BA
:104820000001C01946EB010100220223C4E9540132
:10483000C4E94A0184F84021A4F8483194F8603171
:1048400003F0FF01002BDBD1D4E956026FF00043E7
:104850009A4208BFB0F1FF3F0CD194F8100104F563
:10486000A07112F007FE0028CAD140F2EF6130209B
:10487000FCF7CAFE2046D4E9545619F0D4FAD4F80D
:104880005831D4F85C215B1B00F1E50062EB0602B5
:104890001B1A62F10002002ADFDA20460BF0C2FE8A
:1048A000AEE709F0E5F8E58CB0FBF5F303FB150581
:1048B000AFE740F2BE713020FCF7A6FE90F8380159
:1048C000003818BF01207047014B5881704700BF66
:1048D0003C1B00200B46062203F8032BB0F809C04E
:1048E000C27AA1F803C09A70704700BF08B540F2C1
:1048F000C3213220FCF788FE10B582B090F8DE307C
:1049000073B903F0FF02ADF804209DF804209DF870
:104910000530002062F3070063F30F2002B010BDE2
:104920000C46363804F0BCF8182204232270ADF887
:104930000430EAE770B5002860D0437A0D4604469B
:10494000002B3AD040890021FDF77EFB0646002867
:1049500059D0008807F08AFF30880021FDF78AFBD4
:10496000002855D194F8546094F8A6302BB194F8EF
:10497000A7301E43002384F8A630204604F090F8A8
:10498000B3072BD12B46132203F8032B04F10902A2
:104990002934166850689168D2F80CC0C3F80CC06E
:1049A0001032A2421E605860996003F11003F0D1EA
:1049B000117819700022AA7170BD036DD0F80E2015
:1049C000C3F80320428AA3F80720427B036D12F04C
:1049D000FD0F14BF012200229A70C3E7002226F0C7
:1049E000040684F854601146204604F0E5FE0028D1
:1049F000C8D14FF44B713220FCF706FE4FF44371DF
:104A00003220FCF701FE4FF446713220FCF7FCFD2A
:104A10004FF447713220FCF7F7FD00BF044B1B68D1
:104A20000022A3F8212183F8232183F87020704706
:104A30004C1B002008B508F087FC034B18700FF0E2
:104A4000CDFA032008BD00BF1000002008B508F013
:104A50007BFC024B02461A70012008BD10000020AA
:104A60002DE9F041064615461C46A1B1B3681BB1BD
:104A70002DB12846BDE8F0810120BDE8F081002C71
:104A8000F7D01749B27C0968BDE8F04191F84100C0
:104A9000423117F048BB124F396891F85A2091F80B
:104AA0007E0001F15B03783117F03DFB7B683A68CB
:104AB0005B79082B03D092F84E1099420DD000215B
:104AC00092F85630012BD1D023B90028CED100293D
:104AD000CCD1D2E70020BDE8F0810121F0E700BF92
:104AE0004C1B002038B5114C20686C3003F0D6F90F
:104AF000656803F083F963682860186858B103F0AB
:104B0000ABF968B10FF084FB00200FF02BFC636859
:104B100004221A7138BD40F2F7413220FCF774FDCF
:104B200040F2F9413220FCF76FFD00BF4C1B002022
:104B300008B508F009FC0449044B024648681A709D
:104B400003F01EFA012008BD4C1B002010000020BD
:104B5000F0B5524C236800221F6D5A72FA690E4656
:104B600039885981054641F27071A2F57A70884200
:104B700083B040F286804A49A1FB0212C2F38F2221
:104B80001A84BA8C5A84FA8C9A844FF47F42DA845D
:104B90004FF6FF721A85002D69D00121304617F0BB
:104BA0000FFE3278D209236893F8481009B1002A21
:104BB0003DD1207B002108285961198343D003F19E
:104BC0000E0203F10D0108F049F9002861D02368B5
:104BD0005A7B42F002025A7303F11A07002D40D1AA
:104BE00003F1780002683A608288BA8093F958101D
:104BF000186D08F079FB20682A4918F061F82368DD
:104C000029491A6D1088A3F8330092F88E2083F892
:104C1000352003F12A0018F05CF82068022104F026
:104C200079FF20686C3003F039F903B0F0BD4279A8
:104C300002F0C002402ABCD102685A618288207BFF
:104C40001A830828BBD193F87E00996F5873C3F874
:104C50000E10B3F87C0058820021C3F81A10D983D3
:104C6000C4E70021304617F0ABFD2368BAE7A0681F
:104C7000694617F061FCA3681A786846C2F380128F
:104C800091E70A49A1FB0212920902F5506292B221
:104C900076E741F2EA313220FCF7B6FC4C1B0020EB
:104CA0005917B7D135490000D5480000D34D6210DF
:104CB00008B540F29D313220FCF7A6FC10B504780F
:104CC0008CB004F00F04224602A903F0F7FB08F0B1
:104CD0003BFB234A042C107002D003200CB010BD03
:104CE000204C0399236891F800E093F878C0E645DA
:104CF000F3D191F801E093F879C0E645EDD191F850
:104D000002E093F87AC0E645E7D191F803E093F822
:104D10007BC0E645E1D191F804E093F87CC0E6451C
:104D2000DBD191F805C093F87D108C45D5D193F86F
:104D30007E309DF819109942CFD17F280DD0009078
:104D40004FF07F0C606882F800C0237C227B02A9B0
:104D500003F020FB03200CB010BDFFF7A9FF00BF3C
:104D6000100000204C1B00202DE9F04F044687B0B6
:104D700006290BD8DFE801F0B030100A0A0A040057
:104D8000AC4D68688379002B40F0BD800FF026F9A8
:104D9000032007B0BDE8F08F0FF020F9A54A136893
:104DA00093F854108F07F3D0506881790029EFD021
:104DB000A14D95F900107F2900F0E6810291127B48
:104DC00001922146FF227F240092423302222C705E
:104DD00003F038FA0320DCE7964DA27C2968686866
:104DE00091F8483090F806A090F80790012A83F0D7
:104DF000010B00F0B480002691F8542012F0040357
:104E000000F0B78091F84D70002F00F0B28091F85B
:104E10004E70082F40F0AF8091F841704FF00008BD
:104E200038467BB3626891F85BC092F800E0E645D3
:104E300000F04581002305936A685279082A06D05C
:104E4000059B91F84EC0944508BF01230593B8F126
:104E5000000F40F0ED80BBF1000F40F02A8140468A
:104E6000B9F1000F09D02B6893F85630012B02D00E
:104E70001BB9059B0BB1002843D10FF0AFF82B688D
:104E800093F85420930783D00FF0A8F8BAF1000FDD
:104E90003FF47EAF2968A36891F84100A27C4231BB
:104EA00017F041F918B9B8F1000F00F04581624ED2
:104EB00096F900307F2B00F0678102932B7BCDE9C0
:104EC0000073D5E9003021467F240122423334703B
:104ED00003F0B8F903205CE7564D2B68686893F837
:104EE0005420570734D5C279002A57D0626893F806
:104EF0005B1016788E4200F0B78093F85620012A96
:104F00001CD10A2045E72B6893F85420960773D5E7
:104F1000494A92F900107F2900F03681029121461A
:104F20002C7B0194FF2400947F24423314700622CA
:104F300003F088F900232B7409202AE793F84E30F8
:104F4000082B02D042799A42DBD00FF047F868680C
:104F500083793BBBC379002B7FF41AAF16E7A268B5
:104F6000567906F0C006A6F14006B6FA86F676092E
:104F700042E747794DE7384607F07CFE002818BF26
:104F80008346002E40F0C680296891F8417091F860
:104F90005420B046384602F0040342E78379002BE0
:104FA0003FF4F4AE2B6893F85420960746D4D0070C
:104FB0007FF5EEAE510700F1E0801F4B93F9002022
:104FC0007F2A00F0E18002922A7B0192FF22009268
:104FD0007F2018702B68686821464233002203F056
:104FE00031F903206B68DA79002A7FF4D2AE9B791D
:104FF000002B7FF4CEAEC9E6D1077FF5C7AE5307CD
:1050000000F1B8800C4B93F900207F2A00F0BC809F
:1050100002922A7B0192FF2200927F201870D5E92C
:10502000003021464233062203F00CF90320B0E69B
:10503000012015E74C1B002010000020534A92F974
:1050400000107F2900F0A080029121462C7B019462
:10505000FF2400947F2442331470002203F0F2F8FE
:1050600001232B740920BDE7567893F85C108E421B
:105070007FF443AF967893F85D108E427FF43DAF96
:10508000D67893F85E108E427FF437AF167993F896
:105090005F108E427FF431AF517993F860209142D6
:1050A0007FF42BAF617C93F85A2091427FF425AFB7
:1050B00027E7A368A27C423117F035F8D0E692F8D2
:1050C00001E091F85CC0E6457FF4B4AE92F802E0EE
:1050D00091F85DC0E6457FF4ADAE92F803E091F83B
:1050E0005EC0E6457FF4A6AE92F804E091F85FC09A
:1050F000E6457FF49FAE92F805C091F86020944594
:105100007FF498AE637C91F85A209A1A5342534127
:10511000059391E6A168384607F090FF296880461C
:1051200091F8542091F84100B8F1000F28D040F0D8
:10513000020702F0040374E62B6893F85520023A44
:10514000012A3FF625AE002E3FF422AE0F4E96F90F
:1051500000207F2A18D002922A7B6868019221469B
:10516000FE227F24009242330122347003F06AF859
:1051700003200EE60EF032FF44E70EF02FFF1CE78F
:10518000074602F004034CE6FFF792FD10000020F2
:1051900010B50E4A5368197902290DD919790829D1
:1051A0000FD81B79526903F180439268033BBDE835
:1051B000104052F82330184741F293413220FCF757
:1051C00023FA41F294413220FCF71EFA4C1B0020D6
:1051D00038B5194D6B681B79022B28D82B68027CD7
:1051E00083F8A420C16899661A44044692F82421E1
:1051F00083F820214268C3F88820037A022B0ED05E
:105200000EF0ACFC0FF0FCF80DF064FE0B480EF055
:10521000E9FF0B480EF0E0FF0A480EF09FFD637CAB
:1052200023B12B685B6E0BB101221A6038BD40F6CA
:10523000EA013220FCF7E8F94C1B00201C01002099
:1052400055555500D6BE898E70B53B4C63681A79AA
:10525000032A064631D01A79042A2ED0226892F801
:10526000542092072ED1A568002D42D0236893F8D0
:105270005430002B42D03EB1284617F087FB30BB9C
:10528000284617F09EFB10BB63681A79022A3FD9A3
:105290001A79082A41D81B79626903F1804352695F
:1052A000033B52F8233098470C282CD86369DB68FD
:1052B000BDE8704053F820301847186802F0CCFD64
:1052C0000546D1E7186802F0C9FD0546CCE76368DA
:1052D0001A79022A26D91A79082A28D81B796269EC
:1052E00003F180431269033B284652F82330984764
:1052F000DAE741F29B313220FCF786F941F2A13125
:105300003220FCF781F941F2B4313220FCF77CF90C
:1053100041F281313220FCF777F941F282313220BB
:10532000FCF772F941F221313220FCF76DF941F2BC
:1053300022313220FCF768F94C1B00202DE9F043A4
:105340001A4B93F90080B8F17F0F87B02CD0184C1E
:1053500066687F221A703379032B07460D461AD0F0
:105360003379062B0CBF4FF003094FF00109236876
:10537000423305930EF0ECFA2A46257B0090CDE9E6
:105380000289059B01953946304602F049FE28B94D
:1053900007B0BDE8F0834FF00009E8E7606807B0A8
:1053A000BDE8F04302F0ACBDFFF782FC1000002026
:1053B0004C1B002038B505460C4607F0EBF84207B9
:1053C00004D4A37803F0E003402B0DD007F0E2F8FB
:1053D000830704D4A37803F0E003202B04D02378C0
:1053E00003F03F03242B01D9002038BD0EF0B6FA9C
:1053F00094F9003094F802C06278002B0CF01F037F
:10540000ACBF1E214FF4967142EA032301FB03F364
:105410001A1AB2F5877FE7D39842E5D8054A238860
:105420001068A0F8213180F823C12946BDE8384032
:1054300003F0BCBB4C1B00202DE9F047344E7568CF
:10544000AB7984B06BB3D6F800A09AF895300446D7
:10545000894633B90378002B0CBF012302238AF855
:10546000953028790628C3B23ED0072B14BF4FF0E1
:1054700001084FF00208274890F900707F2F45D0AF
:105480007F2303700EF064FA317B00900191CDE927
:1054900002780AF142034A462846214602F0C0FD3E
:1054A00020B90025284604B0BDE8F087657815F0DE
:1054B00010051CD0A1690220FFF77CFF0546E8B16A
:1054C0003268002382F896306369DBB15978C1F302
:1054D000031182F8971059781B7801F00F0143EA05
:1054E0000123A2F89830DDE74FF00308C3E77068A6
:1054F00002F006FD284604B0BDE8F087706802F0AF
:105500003FFDCFE7FF2382F89730CBE7FFF7D0FBD3
:105510004C1B00201000002010B504468AB007F094
:1055200013FF2378184A03F00F03072B107002D0E3
:1055300001200AB010BD6946204603F059F86846BC
:1055400003F046F99DF80030002BF1D19DF80130B1
:10555000DB07EDD50D4C019923689DF8110093F8F8
:105560007E20783316F0DFFD0028E1D0206801218D
:10557000A03016F018FBFF216846FFF75DFF0028FA
:10558000D6D00220D5E700BF100000204C1B002021
:105590002DE9F04304468BB007F0D6FE2378424A4B
:1055A00003F00F03082B107004D0012528460BB020
:1055B000BDE8F0836946204602F0B2FF9DF8005036
:1055C000002DF2D19DF8013003F00303032BECD141
:1055D000364F3E6896F84D306BB396F84E807B7B25
:1055E0006BBB96F87E2001999DF8110006F17803B7
:1055F00016F099FD0028D8D096F848203E6896F815
:1056000041904236002A3ED19DF8120002990128AD
:1056100027D033464A4616F086FD0028C5D03868A4
:105620000121A03016F0BFFA7B7BABBB21460120E5
:10563000FFF78EFABAE77B6893F80580CFE716F09C
:10564000B6FD08288146CCD0387396F87E200199A3
:105650009DF8110006F1780316F065FDC145CBD029
:10566000C8E74B7903F0C003402BD2D133464A46FA
:1056700016F059FD0028D2D10299404607F0DEFC11
:105680000028CCD191E7404607F012FD00281CBF4E
:1056900006464FF00109B7E70EF0B2FE0DF01AFC16
:1056A00000237B73C2E700BF100000204C1B0020CA
:1056B0002DE9F04FDFF8E8A0847C9346DAF800206B
:1056C00092F84870012C83B006468946984687F0C8
:1056D000010738D000249AF80D502346E5B192F81E
:1056E0005410490721D47268A2B3DAF8042055791E
:1056F000082D22D02846019307F0BCFA019B002810
:1057000018BF0746EBB19AF80F307BB316F059FD7E
:10571000002305468AF80F308BF8005089F80040C6
:1057200088F8007003B0BDE8F08F92F84D100029A2
:10573000D9D092F84E50082DDCD113B19AF80E1042
:10574000D1B10025E8E783685B7903F0C003402B03
:10575000C0D1C0E7DAF804200193106802F090FE8F
:10576000019B0028C1D1002BEBD0E7E72846B168A8
:1057700007F064FC0546CFE7B068019107F086FBAF
:1057800005468AF80D000028C6D016F010FD08283E
:10579000019903D0DAF804305871BDE70D46BBE734
:1057A0004C1B002008B5054B586802F0A9FB07F018
:1057B000CBFD034B02461A70012008BD4C1B002094
:1057C000100000202DE9F843764C0546A068D4F877
:1057D0000080002303800F460EF054FD064600288B
:1057E0003CD0032D4DD0052D55D0A06808F178018F
:1057F00016F0A9FE98F87E10A06816F0B8FE23688F
:1058000093F8482093F8418003F1420792B9A068C9
:10581000394616F08AFEA068414616F09BFE624BA0
:10582000D3F80431002B40F0B880052D1CD0304651
:10583000BDE8F88393F85420520705D593F84D201E
:1058400012B193F84E0001E06368587907F030FC1C
:1058500000281CBF07464FF00108D8E7032008F0D6
:1058600031F83046BDE8F883236839681A6DC2F80C
:105870000A10B988D1811B6D83F809803046BDE8D4
:10588000F883A0680C234370037823F00F0343F0E0
:1058900003030370AAE7D4F80890226899F800106F
:1058A00021F02F0141EA471141F00501222389F837
:1058B000001089F80130136D1B6AC9F80F30116DA3
:1058C0008B6A89F81330180A1B0C89F8140089F8C0
:1058D000153091F87630088E002B4BD1334FA7FB53
:1058E0000030CB6AA7FB0373800AC3F38F2389F8C8
:1058F00017301B0A89F8160089F81830CB6941F275
:105900007070A3F57A7787423FD92848A0FB03033C
:10591000C3F38F2389F819301B0A89F81A308B8C4E
:1059200089F81B301B0A89F81C30CB8C89F81D3094
:105930001B0A89F81E30D1F88F30C9F81F3091F852
:10594000933089F82330136D99F8242093F89A3016
:1059500022F01F0203F01F03134389F8243006F0DE
:105960003FFE99F8243003F01F0343EA401089F802
:1059700024003AE70E4FA7FB0030CB6AA7FB037366
:10598000C0F34710C3F34F13B1E70A48A0FB03036A
:105990009B0903F550639BB2BCE740F23F613220A4
:1059A000FBF732FE4C1B0020001000405917B7D106
:1059B0001F85EB51D34D621038B5154C236893F811
:1059C00054309B0718D1A568E5B12368FF2093F8F0
:1059D00020110EF031F828460EF01AFC236893F8D7
:1059E0002031033B012B94BF282000200EF0BAFC8D
:1059F000636807221A7138BD6368186802F02EFACE
:105A00000546E1E740F21E513220FBF7FDFD00BFE5
:105A10004C1B002030B51F4C236883B093F8201135
:105A20000E200EF009F8236893F854309B0726D116
:105A3000A56855B328460EF0EBFB236893F8203198
:105A4000033B012B94BF282000200EF08BFC236821
:105A5000681D93F8205107F047FA607350B1033D79
:105A6000012D94BF5520502001900DF015FA01989A
:105A70000EF0BAFC636808221A7103B030BD636887
:105A8000186802F0EBF90546D3E740F20B513220DB
:105A9000FBF7BAFD4C1B002070B50D4DD5E9000396
:105AA00002221A7103F0B0FE00B170BD2E680446E8
:105AB00006F16C0002F064FAA6F8214186F8234151
:105AC00086F870402868BDE8704003F0F9BF00BF59
:105AD0004C1B002010B50A4C07F036FC094A637BCA
