:020000040000FA
:10000000104E0020DD3200000B820000C9320000DB
:10001000C9320000C9320000C932000000000000EF
:10002000000000000000000000000000B9330000E4
:10003000C932000000000000C9320000C9320000CF
:100040002D3500002D350000214400002D35000025
:100050002D3500002D3500002D3500002D35000018
:100060002D3500002D3500002D3500002D35000008
:100070002D3500002D3500002D3500002D350000F8
:100080002D3500002D3500002D3500002D350000E8
:100090002D3500002D3500002D3500002D350000D8
:1000A0002D3500002D3500002D3500002D350000C8
:1000B0002D3500002D3500002D3500002D350000B8
:1000C0002D3500002D3500002D3500002D350000A8
:1000D0002D3500002D3500002D3500002D35000098
:1000E000414400002D3500002D3500002D35000065
:1000F0002D3500002D3500002D3500002D35000078
:1001000053B94AB9002908BF00281CBF4FF0FF317E
:100110004FF0FF3000F00CB8ADF1080C6DE904CEE3
:1001200000F008F8DDF804E0DDE9022304B07047D0
:10013000704700BF2DE9F04786468C460846089E6A
:10014000154674461946002B40F0C2808542B2FA2B
:1001500082F245D94AB1C2F1200300FA02FC2EFA1C
:1001600003F3954043EA0C0C94404FEA154EA8B2B5
:10017000BCFBFEF8230C0EFB18CC08FB00F943EA8D
:100180000C43994528D9EB1808F1FF3704D299455B
:1001900002D9A8F102072B44A3EB0903A4B2B3FBD5
:1001A000FEFC0EFB1C330CFB00F044EA0344A042AF
:1001B00014D92C190CF1FF3304D2A04202D9ACF1AE
:1001C00002032C44241A43EA07401EB1D440002302
:1001D00034607360BDE8F0874746DDE76346F1E7CA
:1001E00092BB431B01214FEA154EAFB2B3FBFEFC9D
:1001F000200C0EFB1C330CFB07F840EA0343984528
:1002000062D9EB180CF1FF3004D2984502D9ACF159
:1002100002002B44A3EB0803A4B2B3FBFEFC0EFBCD
:100220001C330CFB07F744EA0344A7424ED92C19B0
:100230000CF1FF3304D2A74202D9ACF102032C44E3
:10024000E41B43EA0040C0E7C2F1200320FA03F1B7
:10025000954090402EFA03F303434FEA154EAFB298
:10026000B1FBFEFC0EFB1C10190C0CFB07F841EA5D
:100270000041884504FA02F422D969180CF1FF30D4
:1002800004D2884502D9ACF102002944A1EB08014F
:100290009BB2B1FBFEFC0EFB1C110CFB07F743EA03
:1002A00001439F420ED9EB180CF1FF3104D29F425B
:1002B00002D9ACF102012B44DB1B41EA004192E779
:1002C0006046E3E76146F7E76046A3E76346B7E7C2
:1002D000834206D916B9002108467BE7C6E900E04B
:1002E000F9E7B3FA83F78FB9834201D3724508D88F
:1002F000BEEB020460EB030301209C461EB9002103
:1003000068E73846FAE7C6E9004CF8E7C7F1200C81
:10031000BB4022FA0CF41C432EFA0CF120FA0CF329
:10032000B84001434FEA14490EFA07F5B3FBF9F858
:100330001FFA84FE09FB18300B0C08FB0EFA43EA87
:1003400000439A4502FA07F240D9E31808F1FF305A
:1003500004D29A4502D9A8F102002344A3EB0A0370
:1003600089B2B3FBF9F809FB183308FB0EFE41EA2A
:1003700003418E452CD9611808F1FF3304D28E4514
:1003800002D9A8F10203214443EA0040A0FB0298ED
:10039000A1EB0E014145CE46434602D306D14D4561
:1003A00004D2B9EB020E68EB04030138002EA6D08C
:1003B000B5EB0E0261EB030101FA0CFC22FA07F324
:1003C0004CEA0303F940C6E9003198E74046C5E727
:1003D0004346D9E7000000002DE9F04F9FB0824668
:1003E000039116461C460025307810B9284600F0C7
:1003F000A6BD252809D00399D0470028C0F29F85C3
:10040000731C01350593059EEEE71822002110A804
:1004100007F07BFF7378252B7ED00023701C984655
:100420009E469C461F46014610F8012B2B2A00F0E1
:10043000A68000F29D80202A00F0A480232A00F0EC
:10044000A4802BB19DF8483043F040038DF848302C
:10045000B8F1000F05D09DF8483043F020038DF827
:100460004830BEF1000F05D09DF8483043F010032E
:100470008DF84830BCF1000F05D09DF8483043F0AE
:1004800008038DF848302FB19DF8483043F004033D
:100490008DF848309DF8483003F04400442803D1DB
:1004A0006FF386138DF848309DF848302A2A43F0C0
:1004B00080038DF8483040F084809DF8492042F058
:1004C00001024B1C8DF849201A782E2A9DF84920EC
:1004D0000CBF0121002161F341028DF849207CD13C
:1004E0005A782A2A72D0013300224FF00A0C19469A
:1004F00011F8010BA0F13007092F40F2B3809DF8ED
:1005000048101492C1F3400040EAD2700A4660F3EA
:1005100041028DF8482060E08DF84B30B31C059304
:100520009DF849309DF84A20DF0702F0070040F1AE
:10053000548154F8041B0491002908DA9DF84810EE
:1005400041F004018DF8481004994942049159077B
:1005500040F14B8154F8047B002F80F24A819DF8D2
:1005600049306FF341038DF849304FF0FF3740E1D8
:100570002D2A0DD0302A7FF464AF012353E74FF0CA
:10058000010C50E74FF0010E4DE74FF001084AE72C
:10059000012748E70EFB0272303A0346184610F86E
:1005A000017BA7F1300CBCF1090FF3D999428BD034
:1005B0009DF848101392D20F62F341018DF8481054
:1005C00082E70B4600224FF00A0EE7E79DF849202C
:1005D00042F004028DF8492002331A786C2A61D067
:1005E00045D8682A4BD06A2A65D04C2A6BD013F8BC
:1005F000012B0593782A8DF84B2000F2AD806D2AEF
:100600006ED8692A00F2A880572A00F28880412A11
:1006100004D0A2F14503022B00F29E809DF84A30DF
:1006200002F0DF020421A2F1410961F30203D9F1D2
:1006300000029DF849108DF84A3042EB090262F33E
:10064000C7110A068DF84910CBB200F1C48003F03F
:100650007802182A40F0AE806FF3C6038DF8493057
:1006600000239DE00CFB0202303A0B463FE7742A60
:1006700025D07A2ABBD19DF8492006210CE05A7872
:10068000682A9DF8492006D1012161F3C6028DF840
:1006900049200233ABE7022161F3C6028DF84920FD
:1006A0000133A4E75A786C2A9DF8492001D104212E
:1006B000EBE70321F0E79DF849200521ECE79DF8E1
:1006C00049200721E8E7BDF8482022F4F04222F053
:1006D000020242F4804242F00202ADF84820DFE715
:1006E0006E3AD3B201229A4040F282431A429DF8F8
:1006F000493038D112F0240F60D1D1072CD59DF8A4
:100700004A2003F07803A3F14008032161F30202B9
:10071000D8F100038DF84A2043EB080340E0A2F132
:100720005801C9B2012000FA01F111F4624F7FF4BF
:1007300075AF40F6010319429DF8493019D111F403
:10074000043F09D09DF84A2060F3020203F07803C9
:10075000402B8DF84A2083D19DF8483043F00103A7
:100760008DF848307CE79DF84A20022161F30202AF
:10077000ECE79DF84A10022003F0780360F30201D1
:10078000402B8DF84A1002BF9DF8481041F001013E
:100790008DF84810632A7FF463AF003B18BF012334
:1007A0009DF84820C2F340010B4363F341028DF8EA
:1007B0004820B5E613F0380FCED151E79DF84A2016
:1007C000032113F0780F61F302028DF84A2014BF61
:1007D00001230023E4E70123E2E79DF94810002903
:1007E000B4BF13994FF0FF31B0E69F077FF5BDAE60
:1007F000149F00230428CDE913339DF8493007D115
:10080000990705D49DF949100029ACBF06270D278B
:1008100002F00702012AC3F3C30332D1DA1E042A0D
:1008200004D8DFE802F02045452020002268012B93
:100830004FEAE271CDE910211BD19DF94020D1177B
:10084000CDE9102104349DF84820069292074FD03C
:10085000059B03993246504607F0ADFA0028C0F2D6
:100860006E830544CFE554F8042BD117CDE9102150
:10087000E9E7022BE6D111B242F3C032CDE9101202
:10088000E0E7022A24D1DA1E042A04D8DFE802F0C5
:10089000181010181800012B54F8042B4FF0000109
:1008A00014D0022BCDE91021CDD192B21092CAE71B
:1008B000073424F00704F4E80201CDE91001C2E78F
:1008C00054F8042B109200221192BCE7D2B2CDE76B
:1008D000042A08D1073424F00704D4E900010834BD
:1008E000CDE91001AFE7032AADD154F8042BDDE7C1
:1008F0009DF84B80B8F1780F3FF685ADB8F1570FF2
:100900005CD8B8F1250F00F0A380B8F1240F7FF672
:100910007AADB8F1410F04D0A8F14503022B3FF6A0
:1009200072ADDDE91023002BC0F24B810699080758
:1009300000F14A81C1F300194FEA4919C3F30A5182
:10094000C3F31303002940F0428152EA030014BFAD
:100950004FF0010C4FF0000CD80240EA5250D60282
:10096000CDE90C60B8F1460F46EA010640EAE170B5
:1009700008BF4FF06608304300F0B181BCF1000FB2
:1009800010D01B0343EA12531603324618464FF0A9
:10099000000C002880F24F81BCF1000F40F0528122
:1009A000CDE90C630D9B43F00043A1F2FE3B0D9398
:1009B0000021DDE90C230E46052059E1A8F158027B
:1009C000202A3FF620AD01A151F822F0950B00003E
:1009D00007040000070400000704000007040000EB
:1009E00007040000070400000704000007040000DB
:1009F0002309000007040000410B0000550B000014
:100A00002309000023090000230900000704000057
:100A1000550B000007040000070400000704000055
:100A2000070400009B0B0000950B0000E50A000086
:100A30000704000007040000610A0000070400002A
:100A4000950B00000704000007040000950B000050
:100A500003994046D0470028C0F271820135D2E4A4
:100A6000002F109E3ADB3946304607F064FC3718F9
:100A7000002E3FF4C8AC4FF000099DF84A3013F047
:100A80001002069200F05082023013F04003DDF8AD
:100A90004C80089318BF149BCDF81C80404418BFAD
:100AA000C018049B002B40F35A829DF848201B1A63
:100AB00004935307C2F3800B00F15182500640F1BA
:100AC0004182B9F1000F07D003994846D04700286A
:100AD000C0F235820135D946302234E2304607F083
:100AE000DBFBC4E71098002800F019820DF17503B4
:100AF000009312AA17AB002107F015F9BDF84A3090
:100B000003F0EF0343F4F04343F010030646ADF85F
:100B10004A304FF00009002F0CDB9DF848200DF102
:100B200075039B1B6FF386129F428DF8482001D9F5
:100B3000FB1A1393002E3FF466AC0DF1750767E0C6
:100B4000109B8DF85C304FF000090DF15D0717AE7A
:100B5000012092E7069B1E0758BFC3F30019DDE989
:100B6000102354BF4FEA49194FF02B09002B06DA26
:100B7000524263EB4303CDE910234FF02D090DF1F1
:100B800075030093DDE9100117AB12AA07F0CBF84B
:100B90000646C0E74FF00009F1E7109A072B3FF631
:100BA00032ACDFE803F00C04060C08080C0C1570DE
:100BB00029E4158027E4EB17C2E9005323E415600C
:100BC00021E44FF02D09B9E64FF02B09B6E640F2CB
:100BD000FF7081422CD11343A8F141081FD1B8F115
:100BE0001A0F35BF492369234E216E2134BF462297
:100BF00066228DF85C309DF848308DF85D106FF3FB
:100C000086138DF85E208DF848300DF15F0717AE22
:100C1000B81BB9F1000F3FF430AF01302DE7B8F148
:100C2000190F8BBF6E234E23612141211A46E0E745
:100C30004FF0000C90E6921801F1FF3140414FF067
:100C4000010CA6E6CDE90C20ACE6520842EAC372DC
:100C50005B08B3F1333F59460BF1010BF5D200FBB2
:100C600003FCA2FB002301F1020B6344013E0121BE
:100C70001BF1020FE9DB09B1CDE90C23BBF1000F39
:100C8000DDE90C322EDCCBF10401A1F120000BF1E7
:100C90001C0B02FA0BFB22FA00F0CA40CB40079271
:100CA00008F0DF0243EA0B03472A43EA00037DD141
:100CB000F21C01DBB7422BDAA8F10208002F5FFA21
:100CC00088F87CDD9DF84820900607F1FF3776D440
:100CD000B7F1000B18BF4FF0010B7A1C27E04FF063
:100CE000000B65E6023342F100020CA8CDE90C329C
:100CF00006F0EAFFDDE90C320BF1FF3B0136DB18B1
:100D00005241002A0BF1FF3BF9DACDE90C32B5E78D
:100D10009DF848209106A7EB06074DD4B7F1000BCC
:100D200018BF4FF0010BBA194FF066084AD4102AC9
:100D3000A8BF10229FEDA67B8DED0E7B10200B909F
:100D4000DDE90E01002A3FD1079A1B1842EB010191
:100D5000B1F1805F47D2CDE90C31069BB8F1660F47
:100D600003F0200240F0BB80002E47DC30238DF8DA
:100D70005C30002A6ED1002F40F3B7812E238DF80E
:100D80005D3086B17342BB42A8BF3B469DF84A2006
:100D90001393002BA7EB0307D4BF0023012363F3B6
:100DA00045128DF84A200DF15E0340E0B8F1660F60
:100DB0004FF0000BB7D090E74FF0000BB3E74FF0C8
:100DC000000B8AE70022B5E7400840EAC1704908F5
:100DD000CDE90E010EA8CDE9082306F075FF089AAB
:100DE000099B013AACE75B0843EAC1730CA84908C8
:100DF000CDE90C31013606F067FFAEE717AB0B9972
:100E000000290BDD0BA90CA8CDE9063206F074FF12
:100E1000069B079A03F8010B013EF0D11396AAB97D
:100E2000002F40F360812E2103F8011B0026002FC4
:100E300019DD0B9A002A16DD0BA90CA8069306F003
:100E40005BFF069B013F03F8010BF0E72E2203F83E
:100E5000012BEBE72E238DF85D30002EA3D0002F61
:100E600090DC0DF15E03BBF1000F4CD114971F46CF
:100E700008F0DF03452B21D1002EBABF76422D2387
:100E80002B23632EC8BF64227B70C2BFB6FBF2F374
:100E900003F1300102FB13664FF00A0287F800806D
:100EA000CABFB97002370337B6FBF2F303F1300162
:100EB00002FB1363303339707B700237139B002BB6
:100EC0002BDC149B002BD4BF002301239DF84A2068
:100ED00063F3861200238DF84A203B7097E60BA936
:100EE0000CA8069206F008FF069A8DF85C003028E0
:100EF00018BF06F1FF3612B9002F40F3F6802E23FB
:100F00008DF85D304FE71F46013B17F8012C302A62
:100F1000F9D02E2A08BF1F46AAE70123D6E72E4F95
:100F200081467E1F0520A8E51A0748BF0130ACE5C1
:100F3000104609920399D0470028099A05DA1FB094
:100F4000BDE8F08F2022DDF810B0594600290BF1E2
:100F5000FF3BEDDC049BCDF810B02B445D1AB9F1DA
:100F6000000F05D003994846D0470028E7DB01353C
:100F7000089B002B7CD09DF94930002B2EDBB3461B
:100F80009BF80000A0F13003092BD9460BF1010BAF
:100F900045D99DF84A30AE1B99064E4407D44246C7
:100FA000002A08F1FF383FDC079B33449E1A99F86A
:100FB00000002E280AD10399D0470028BFDBB8F1E2
:100FC000000F06F1010635DC09F101094D463CE050
:100FD00000000000000000081BA70000B14699F8BF
:100FE00000007028C84609F1010913D1AE1B149DF9
:100FF00046443544AB1B002B32DC03993B4642464A
:10100000504606F0D8FE002899DB3044049E054681
:10101000064463E00399D0470028E0DA8FE703999C
:10102000D0470028ACDA8AE703993020D04700285F
:10103000B5DA84E703993020D04708F1FF38BCE7E0
:101040000399D0470028FFF67AAF2878A0F1300343
:10105000092BA84605F10105F2D9A6EB0906C6E75A
:1010600003993020D0470028FFF669AF0136C1E769
:101070009DF84A30DA0601D41B0706D503993020C3
:10108000D0470028FFF65BAF0135069B3BB10399C3
:101090009DF84B00D0470028FFF651AF0135A8441A
:1010A00006E003993020D0470028FFF648AF01350D
:1010B000A8EB0503002BF4DC03993B46324650466F
:1010C00006F079FE0028FFF63AAF28449EE7039920
:1010D0002020D0470028FFF632AF0135731B002BCC
:1010E000F5DCFFF790B91646BDE60DF15D03BAE6F3
:1010F0001FB52C4B2C4AC3F80026C3F80426C3F8AE
:101100000826C3F80C26C3F81026C3F81426C3F823
:101110001826C3F81C2600F063F806F057F900F013
:101120007DF870B14FF08043D3F800340BB1DB078A
:1011300007D5012000F06AF801F0D8FA1B4801F049
:10114000F9FE01A800F006FD194B1B68834208D088
:10115000012000F05BF801F0C9FA144801F0EAFE42
:10116000FEE74FF48031002007F0A7FE00B1FEE754
:1011700069469DF808000F4C06F005F9009A039B9C
:101180001344019A12891344236003F083FB00F097
:10119000E1FE00F0B5FE02F0CBF82068064B984760
:1011A000FEE700BF000001403546526ED8A20000A5
:1011B000D4090020500200200100002021B10129A3
:1011C00006D06FF015007047044B53F8300070479D
:1011D000024B03EBC0035868704700BFE0A2000059
:1011E00008B5084808F02CFE58B107484FF4003104
:1011F00006F011F9BDE80840024800220D2106F072
:10120000FAB808BDCC9F0000FCA2000002460D21E8
:10121000014806F0F0B800BFCC9F00002DE9F04176
:101220001D4808F00DFEA8B31C484FF4803106F0AD
:10123000F2F819480B2106F0CAF838B34CF25030D6
:1012400008F0E2FD08F03EFE4FF47A78A0FB0803B8
:1012500008FB0133C70B104E47EA434745460B21B5
:10126000304606F0B4F8044608F02CFEA0FB053228
:1012700008FB0122DB0B43EA4243DB1B312B06D880
:1012800024B14FF47A7008F0BFFDE8E70024201E77
:1012900018BF0120BDE8F081CC9F0000F4A200003F
:1012A0002DE9F04FB5B0544E409F346803973F9FEF
:1012B00002970DF1300B3E9FCDF804B00097DDF89A
:1012C00004A180468946154600F0DCF820B1346858
:1012D000204635B0BDE8F08FBAF1000F04D02022CF
:1012E0005946504607F006F80023009349464FF64A
:1012F000FF732A4606A806F0A3F881460028E6D127
:10130000294640460B9F06F097F9B842DFD3DFF835
:10131000F080DFF8F0A04FF0FF370DF1120304AAC0
:1013200005A906A806F0DAF80028D0DB5FD10599F8
:1013300006A806F01FF9BDF8123040B92F494FF644
:10134000FF7031F8022B8242C1D09342F9D1102BA9
:1013500015D0222B2CD0012BDFD1BDF81030202B43
:10136000B5D8059914AA284606F034FE0028AED157
:101370009DF8101014A800F047F80746CDE7BDF817
:101380001090B9F1200FA2D105994B4614AA284616
:1013900006F020FE00289AD14A4614A9584606F0C5
:1013A00023F9D8F80030834291D14FF00109B4E716
:1013B000002F19DBDAF80030BB4215DDBDF8103024
:1013C000802B84D8059914AA284606F003FE00282D
:1013D0007FF47DAFFFB2BDF81030009714AA202132
:1013E000584600F097F804464FF0FF3795E7B9F1FB
:1013F000000F7FF46DAF6AE7440000207CA6000078
:10140000D4090020E8A200002DE9F0452029A9B068
:1014100080460D4605D94FF0FF34204629B0BDE87F
:10142000F085154B154E1B68154F019300244FF0A6
:10143000010A019BA342EEDD00F02CFDC7F800A5D8
:101440000BA804F0DFFE736856F8081B1A680BA897
:1014500006F0FAFB03A90BA804F046FF0023C7F827
:1014600000352A46C7F80035414603A806F01BFFA1
:101470000028D2D00134DCE7E8A20000ECA2000092
:1014800000A002502DE9F0439FB0DDE928679146A6
:101490009846269D0C4600F0FDFC1D4B0122C3F82A
:1014A000002501A804F0AEFE36B1002F04DD3A4657
:1014B000314601A806F0C8FB63892289E768134416
:1014C0001F440024BC420AD3279901A804F00CFF52
:1014D0000F4B0020C3F80005C3F800050EE03E1BCB
:1014E000AE4228BF2E46334642462146484606F0C5
:1014F00071FD30B1064B0022C3F800251FB0BDE8D6
:10150000F0833246414601A806F09EFB3444D9E7F9
:1015100000A002502DE9F04796B016461D469DF8F2
:101520007820374BDFF8E88053F83210019103EB55
:10153000C20307465B68D8F80090186802AA014405
:10154000302301A806F00EFB002851D1DDE901434C
:101550001C4403AA06AB214601A806F02BFB002879
:1015600046D1049A072A43D12649059806F09BFEE6
:1015700000283DD1079A082A3AD12349089806F055
:1015800092FEA8BB02AA214601A806F0FFFA78BB8A
:10159000DDE901A30AEB0302944229D1412B27D1B3
:1015A0003544302303AA294602A8029606F0DAFA47
:1015B000E0B9DDE9023213449D4217D32A4602A95D
:1015C00006A805F0E5FF88B92A4602A90EA805F08D
:1015D000DFFF58B99AF80030042B07D1202306AA60
:1015E0000AF10101384600F06DFC28B1D8F80090EE
:1015F000484616B0BDE8F087044BD3F80090F7E7F3
:10160000ECA20000B3A60000AAA60000D4090020A6
:1016100044000020094A0B78400052F820108B4209
:1016200009D0013052F82000834214BF4FF0FF3040
:101630004FF4B47070474FF4B470704704A30000C7
:101640001FB5582303FB01006A46046AA1681023F2
:101650001039204606F0BEFC38B90549102268460C
:1016600006F021FE204604B010BD0024FAE700BFBA
:101670009AA6000038B50E4B002918BF0B464362EE
:1016800003F5707303650221044606F015F858B996
:101690000321204606F010F8054638B9206A06F006
:1016A000D8FCE065284638BD0125FBE70925F9E7A8
:1016B000540200202DE9F3471E46836899420546EF
:1016C0000C46174644D25B1A934241D38EB36A4606
:1016D00005F061FE00283DDB013FDDF800803C4461
:1016E0001E4FDFF87C906A462146284605F053FEDF
:1016F00000282FDBDDE900A428462246514606F0EB
:1017000093FC002826DBC7F80096C7F80496C7F8B4
:101710000896C7F80C96C7F81096C7F81496C7F83D
:101720001896C7F81C9676B1D04513D20AF1FF344B
:10173000D9E7511E21446A4605F02DFE002809DB39
:10174000DDF80080CCE75444444503D80134CAE7AF
:101750004FF0FF3002B0BDE8F08700BF000001404D
:101760003546526E2C23594342180C4B415899422E
:1017700006D1D16813895B1802D25189C91801D3E7
:1017800000207047136A9B689942F9D2136940F6AA
:101790000C621A420CBF0120002070473DB8F3963E
:1017A0001FB52C2303FB02010023CDE90233019373
:1017B0004FF4807300930A6A024BFFF771FD05B086
:1017C0005DF804FB1E1400202DE9F0412C2707FBD7
:1017D00001070446D7F820800D46164605F0C1FFE4
:1017E00010B93B69DB0615D555B14146204606F0D8
:1017F0003DF8F379042B07D1216A204606F036F82C
:10180000104B1868BDE8F081002003F0EFF80428C1
:10181000F6D1F1E729462046FFF7A4FF60B90A4B4D
:1018200018680A4B1B688342ECD0002DE8D00121D8
:10183000404605F091FFE3E72A4631462046FFF790
:10184000AFFFEEE74000002044000020D409002054
:1018500000487047D80D002073B50D46044600219E
:101860002846CDE9001105F0CDFFE8B12368164EFA
:10187000B34203D101AA204605F0E0FEE36AB34279
:1018800004D16A460121204605F0D8FEDDE9003288
:10189000934288BF0193019BAB60019A2946204681
:1018A00000F01AFA02B070BD01462046FFF7C8FEEC
:1018B00005F10801064605F0A2FEAB68019330462B
:1018C00006F087FBE9E700BF3DB8F3962DE9F84F36
:1018D000DFF878B01B4C1C4D884691469A4600268E
:1018E0000B9B9E4201D300200FE00B9B174A9F1BCE
:1018F000B7F5806F28BF4FF480673B4606EB0A01BF
:10190000404606F067FB10B10120BDE8F88F0A9948
:101910003B465A467118484606F071FB0028F3D141
:10192000C4F800563E44C4F80456C4F80856C4F837
:101930000C56C4F81056C4F81456C4F81856C4F817
:101940001C56CDE7000001403546526ED8090020F4
:10195000F0B587B00E46044605F02FFF014600B1F2
:10196000FEE72046FFF786FE002849D100221146F7
:10197000204605F0FDFE002859D1204606F046F825
:10198000002854D002A805F034FF0146204605F097
:10199000A1FF00284BD102A805F034FF80F001011F
:1019A00002AAC9B2204605F0E3FE024600283ED155
:1019B00002A805F027FF0546E8BB02A92046FFF76D
:1019C0004BFF9DF80F3084F85830033B012B06D8AD
:1019D000284600F0E1F810B1FF2384F858309DF854
:1019E0000F30023B022B06D8002000F0BFF810B1E8
:1019F000FF2384F8583094F85830FF2B12D1FEE7BB
:101A00000123984284F85830B0D194F858308DF8BA
:101A10000F30042B39D8012B3DD84FD0FF2384F849
:101A200058304BE000221146204605F0A1FE01236C
:101A300084F85830E9E79DF80F70012F18D110464F
:101A400002F0D4FF831E022B05460ED802AA3946A7
:101A50002046FFF7B9FE3C4B1B68984205D03B4B34
:101A60001D68A84214BF0525012584F85850CCE70D
:101A7000012102AA2046FFF7A7FE334B1B689842BC
:101A80000CBF9DF80F300523D2E7052BC6D10020EF
:101A900000F082F810E002A92046FFF7DDFE94F87E
:101AA0005830DA1E012A0ED8002000F075F8002800
:101AB000B4D1002000F05AF80028AFD194F8583083
:101AC000FF2B03D1FEE7022BF8D1F2E70022012B16
:101AD0001F4D019210D01146204605F049FE58B125
:101AE0002D681022002102A806F00FFC204605F008
:101AF00057FE284607B0F0BD002211462046FFF7EA
:101B000063FE114F3B689842EAD12B689842E7D0B8
:101B10000E4B1B689842E3D00021204605F03EFEA4
:101B20000028DDD1019B01330193019B012B00D0E3
:101B3000FEE7206A05F02DFC3071236A5B68346093
:101B40003D68B360CDE700BFD4090020400000200D
:101B50004400002010B50446002005F0C7FD0248EF
:101B60002146FFF7F5FE10BDD80D002013B5094B37
:101B700001A913F8300000F0A9FC48B9019807F05A
:101B800055FA0446019806F024FA204602B010BD2A
:101B90000124FAE70CA300001FB50F4B01A913F8AD
:101BA000300000F093FCA8B9019802A902F0C8FE29
:101BB000044668B99DF80B30032B03D1019807F058
:101BC00003FA0446019806F004FA204604B010BD5A
:101BD0000124F7E70124F8E70CA300002DE9F34105
:101BE00006460C4617461D460BB9002121E0184653
:101BF00005F008FE01460028F7D13046FFF720FD2A
:101C000018B9012002B0BDE8F08101A905F0F7FC88
:101C10000028F6D10199304605F08DFE736A5968A7
:101C20006B79012B18D1002CDFD12B68834298BF30
:101C300000212C2303FB04663A46306A202306F079
:101C4000C9F90028DDD1002DDCD038680D4BC01A51
:101C500018BF4FF0FF30D5E7022BC6D12B68012B00
:101C600005D98342C1D8B4FA84F46409BDE7BCD174
:101C7000002CDED0012CB8D12C79023C18BF0124F5
:101C8000B3E700BF3DB8F39673B54B681446114AED
:101C900003F0FF23934206460D4618D10B68012B33
:101CA00015D16946204602F04BFE9DF80030032B0B
:101CB0000DD12146304605F0D9FD204607F084F9C4
:101CC000A968204605F0A9FC204602F019FE02B0E2
:101CD00070BD00BF000100042DE9F04F0C4687B035
:101CE0001146054605F027FE6B6A824620465F686E
:101CF00005F088FD88B1E86D05F003FDAB6A0022B0
:101D0000013B3A44904201D9013BFAE7534504D8DC
:101D10000123E37107B0BDE8F08FEB6C03931A4623
:101D2000214628462E6AFFF7AFFF6379012B4AD17F
:101D3000DFF848B1D04641E02268C2F101035344C4
:101D4000434539D36B6A196853F8380003EBC8036D
:101D5000012A53F8083CA3EB0103A0EB010904930B
:101D60000FD1E368022B08D03146284605F07EFDEE
:101D700022463146284605F08EFD0399284605F097
:101D800075FD00233A4649463046FFF793FC049B15
:101D900032463146CDE900972846FFF797FD2146A8
:101DA000284605F03CFD23680133236020B1DBF8B1
:101DB00000300133CBF8003008F1FF38B8F1000FE4
:101DC000BAD101232360022363714FF00108D0458B
:101DD000A0D8236843454ED86A6A4FEAC803083B37
:101DE00052F83810D2F800B00491D1582A6DD0586A
:101DF0001368A0EB03092379012B3AD1A1EB0B0166
:101E000000233A4630460591FFF754FC05990091AE
:101E10004B460399019732462846FFF757FD214666
:101E2000284605F0FCFC0223237118B1134A1368FD
:101E30000133136000233A4649460398FFF73AFC02
:101E4000049B039AA3EB0B033146CDE90097284688
:101E5000FFF73CFD2146284605F0E1FC23680133ED
:101E600023600123237130B1044A136801331360E6
:101E700001E0022BDED008F10108A8E7380E0020AF
:101E80000A4619B1024B00211B681847704700BF72
:101E90004800002070B5094D2B780BB1002070BDB3
:101EA000074C0126C4F8006504F04EFA18B92E70EC
:101EB000C4F80005F2E74FF0FF30F0E71E150020F0
:101EC00000A002502DE9F041DFF83080ACB01F4691
:101ED00006460C461546FFF7DDFF0123C8F800351E
:101EE0002A4633460097214603A807F0EEFF002359
:101EF000C8F800352CB0BDE8F08100BF00A002504A
:101F0000BFF36F8F72B6124B4FF0FF32C3F88020D1
:101F1000C3F88420C3F88820C3F88C20C3F890202D
:101F2000C3F89420C3F89820C3F89C20C3F88021FC
:101F3000C3F88421C3F88821C3F88C21C3F8902109
:101F4000C3F89421C3F89821C3F89C21704700BFBF
:101F500000E100E03E4A2DE9F0434FF0FF3301215C
:101F60005160C2F84833C2F8083302F5C042394E16
:101F70005160C2F84833C2F8083302F59832364F40
:101F8000DFF8DC80516085B0C2F848330025C2F824
:101F9000083356F8044B4FF0FF3944F30730C4F8C8
:101FA000089301F029FA012363600023C4F84C313F
:101FB000D4F84C21C4F81031D4F81021C4F84431BD
:101FC000D4F84421C4F80035D4F80C250092D4F894
:101FD00014250192D4F808250292D4F81025039212
:101FE000C4F80C956846C4F81495C4F80895C4F86C
:101FF000109550F8042B511C0FD002F01F0152090C
:102000001DD0012A1ED1424602EB8102D2F80017F0
:10201000394041F00201C2F800170133042BE8D126
:102020005DB10E4A4FF0FF33C2F808354FF08042E1
:10203000C2F8083305B0BDE8F0830125A9E74FF0E9
:10204000A042E1E701F5E071002353F82130FFDE03
:1020500000B0004018A30000F0F8FCFF00F00140C1
:10206000000300502DE9F043079D15B915600020CD
:1020700012E00324B5FBF4F404EB4407BD4218BF9F
:102080000134B4F1804F09D2A40001348C4200D84D
:1020900038B914606FF00B00BDE8F0834FF0FF34E7
:1020A000F7E7DFF8BCE004460021B94203F1030C76
:1020B00004F104062CD3A942274624D21F7801F14B
:1020C000010CAC45264938BF5B784FEAA70E28BF04
:1020D000002311F80EE084F800E0AC4501EB131E7C
:1020E0003CBF9B0003F03C034FEA071707F03007A3
:1020F00038BFCB5C1EF80770677028BF3D23A37004
:102100003D23E3703746381A002310603B70AEE77A
:102110001CF8034C1CF8023C1CF8018C4FEAA40983
:1021200024011EF8099006F8049C04F030040EEB1C
:1021300013199B0019F8044006F8034C03F03C0304
:102140000EEB981408F03F08E35C06F8023C1EF81A
:10215000083006F8013C033134466346A5E700BF6A
:102160009CA700002DE9F043DDF81CE0DFF82C818E
:1021700000273C463D4675451FD3E4BB1460002054
:10218000BDE8F0830136764533D013F806C0BCF1C4
:10219000200FF7D0AEEB0609B9F1010FA6EB05054C
:1021A0000DD0BCF10D0F0AD103EB060999F801908F
:1021B000B9F10A0F6ED1751CDDE72E46E3E7BCF1DD
:1021C0000A0FF8D02DB9BCF13D0F05D10137022F10
:1021D0000DD96FF01500D3E71CF0800FF9D118F876
:1021E0000C507F2DF5D03F2D01D8002FF1D10134B7
:1021F000E1E73546C1E704F007064FF0060CE408B6
:102200000CFB06F60CFB04F40736E41B04EBD604C7
:1022100070B18C420CD80027DFF880E0DFF88080B6
:102220001D44014603263C469D4205D10C1AA5E7F4
:1022300014606FF00B00A3E713F8019BA9F10A0CDF
:102240005FFA8CFCBCF1160F04D848FA0CFC1CF0A9
:10225000010FE9D01EF809C00134BCF1400F08BFDE
:10226000013E0CF03F0C042C4CEA8717DCD17EB108
:102270003C0C012E0C7002D101310024D4E7022E57
:102280004FEA17244C7016BF8F7002310331F4E708
:102290003446C9E7002DA2D09BE700BF1CA7000071
:1022A000F6FFBFFF2DE9F047058B0446280790464F
:1022B00011D4022905F0070540F0CC80204605F036
:1022C000A2FD78B10138218B042811D8DFE800F095
:1022D000C2106D85950001290CBF45F0100545F031
:1022E0002005258388F31188BFF36F8FBDE8F08741
:1022F00001F0070AAA4500F0A5800027B9463E462E
:10230000A368002B00F0BC8041F00801218388F312
:102310001188BFF36F8FA168002900F0BA800D68A3
:10232000002900F0B680D1F804803346524620469A
:10233000C047002D76D02B6829461D46F0E701F0F6
:1023400007035A1F012A1BD8002221F00701062B80
:10235000276889B2C4E9002209D13B4603E0628BB9
:10236000013262831B68002BF9D141F00201218305
:10237000204605F048FD00287AD041F0200176E0A3
:10238000042B0AD121F0070189B22183204605F0F0
:102390003AFD10B141F020012183218B01F0070AA1
:1023A000AA454FD00027B946AAE7236921F00701C3
:1023B00041F00601062DD3F8009021832DD1B9F10B
:1023C000000F3FD041F00801218388F31188BFF34B
:1023D0006F8F3A492046C84729E021F00701236959
:1023E00041F0040189B2042DD3F804902183E6D092
:1023F00000273E464FF0040A82E721F007012369D7
:1024000041F0050189B2052DD3F808902183D6D07B
:1024100000273E464FF0050A72E700273E464FF080
:10242000060A6DE72B4687E7B9F1000FD1D1EFF32C
:102430001188202383F31288BFF36F8F238B23F03F
:1024400008032383258BEA062ED525F0100323836A
:1024500005F007056669218B002EBFF670AF0023DB
:102460002768C4E9003321F0070141F0010121830D
:10247000218B01F0070AAA454FF000097FF440AF15
:10248000002F9CD041F00801218388F31188BFF30D
:102490006F8F002FC8D03D683946334652462046DC
:1024A00005F0DDFC2F46F4E7AB067FF51BAF25F00A
:1024B0002003238305F0070500E700BF8B7E0000A3
:1024C000014B03600020704720A3000070B5104B43
:1024D0001C680D46B4B10F4B196800238B4202DB18
:1024E0006FF0010070BD224612F8106B864202D0D8
:1024F00001331446F2E7E06807F0A2FC28B12C6033
:102500000020EFE76FF00C00ECE76FF01200E9E756
:102510004C00002020A3000010B588B0436802934F
:102520008368C068CDE903320A680023CDE9062339
:102530000C4601AA0449059305F0CCFF079808B999
:10254000059B236008B010BD6F80000008B54FF0F8
:102550001022D2F8100210F47F4018D00C4B012149
:10256000C3F80415BFF34F8FBFF36F8F6FF47F4134
:10257000C2F81012D3F80024002AFBD00020C3F8C0
:102580000405BFF34F8FBFF36F8F05F02BFC08BD21
:1025900000E00140014803F087BB00BF64A30000D6
:1025A000F7B5224E30688368DB6B03B1984730681B
:1025B0008368DB6A002B31D11D4C1E4D3068836867
:1025C0001B69002B2DD001220DF10701984701282E
:1025D00027D1236843B92B681BB369681A682A603E
:1025E0008B4208BF6A602360134A9DF80700118878
:1025F0007F2904D823680B444F1C178018720A28BF
:10260000DCD123681188596000200C4918604D689E
:102610004DB9C1E9003310802060CEE7984700280B
:10262000CAD103B0F0BD2B604B60F4E794120020D8
:102630003C0E00204C0E00201C140020440E0020F4
:1026400010B5044B044618688368E1B25B6898478C
:10265000204610BD941200202DE9F0410546904619
:102660000846EFF31187202383F31288BFF36F8F9F
:102670001B490B684BB11B4C62689A4205D0002283
:102680001A60626872B9C4E90033174A136863B903
:1026900087F31188BFF36F8F0B601846C8F80030BE
:1026A000BDE8F08113606360EFE756681C68146052
:1026B000B34208BF546087F31188BFF36F8F5C6823
:1026C0000B60A042D8BF00F1FF3403F1080122469D
:1026D000284605F00FFE00232B55601C0123DDE783
:1026E000400E00204C0E0020440E002013B521495E
:1026F000214A0023C1E90033C2E900331F4A1C46C6
:102700004868146020BBC1E900220133082B02F1A4
:102710008802F5D11A4C1B48206007F091FB28B3C2
:102720002068836823B11B6C13B1174900229847B6
:1027300020688368DB6A0BB1984760B120688368C2
:102740001B69002BFAD001220DF107019847F4E72D
:1027500002604A60D9E70D4B206800221A80836826
:102760001B6A03B19847002002B010BD4FF0FF3044
:10277000FAE700BF4C0E0020440E0020540E00204B
:102780009412002004A00000A12500001C140020C9
:102790002DE9F043EFB041F20443ADF8083040F6C4
:1027A0000613ADF80C30DFF81C91424BD9F800103D
:1027B0001B68414EA3EB06080B785A1C62F3020318
:1027C0000B7098FA98F34B808B8800255BBA8B804E
:1027D0004D700822284605F0B7FD31464246ADF857
:1027E000100005F0B1FD1FFA88F440BA04F10A03A5
:1027F0005BBAADF8100002220DF1120106A8022703
:10280000ADF8123005F076FDD9F80010ADF8127071
:1028100008220DF11A0005F06DFDBDF81200083018
:1028200006AB80B23146ADF812004246184405F0BE
:1028300061FDBDF81230214E1C44A0B206AB3A46F1
:10284000ADF8120004A9184405F054FDBDF812308B
:102850003B449BB2ADF81230009305AA06ABED21C4
:1028600032A8FFF7FFFB164F059BADF812302C4640
:10287000BDF81230A34202DC6FB0BDE8F0833368CC
:1028800002215B68A4B903A89847BDF812503368C9
:102890002D1B7C2DA8BF7C2532AA101929465B6808
:1028A0009847336801215B6838462C449847DFE736
:1028B00002A8E9E7B01200201F150020FC1200203A
:1028C000DCA70000F812002038B50B4C05460A21A1
:1028D000204607F085FA02220849204607F073FADD
:1028E0002946204607F04CFA20460A2107F080FAD4
:1028F000BDE83840FFF74CBFB0120020DEA7000053
:102900002DE9F047D4B005AF0DF1180907AE4FF02F
:10291000FF340B463C60C9F8004034600AAD002427
:102920000121C5E900440246009130A80421CDE907
:1029300001440894099407F09AF94022214620A8FE
:1029400005F0E3FC884B1C9305231D93874B8848B7
:10295000CDE91E39874B2193874BCDE92335874B32
:102960002693874B0321CDE92B01CDE92836CDE90C
:102970002D370422279109AB1CA930A8229205F01B
:10298000E4FB20B303240A217E4807F029FA7E499C
:102990007C48022207F017FA7A48214607F0F0F93E
:1029A0004CB973497748032207F00DFA774B754805
:1029B000196807F0EFF90A21724807F019FAFFF7D2
:1029C000E7FE089805F005FB54B0BDE8F0873B68CA
:1029D0005A1CD5E90084D5D0B8F1000FD2D06C4A8A
:1029E00033B9D9F80010B1F1FF3F18BF0B4613609F
:1029F00000211068FEF7E2FB08A9C0B2FFF766FDF0
:102A00000028BFD13B68614D002B47D1089F2B6048
:102A10003846D7F8089004F0E9FD5E4A014638468A
:102A200004F0B9FC002840F09C8033684B45A9D8DD
:102A3000594A1060594A13602A68574E08983168FD
:102A40002244013A05F061FB002830609ADB0898C7
:102A5000DFF8489105F0FDFAB4FBF0F303FB1046F4
:102A60002B680898A71B1C44D9F800309C4238BF3B
:102A7000002605F0EEFA012806D9089805F0E9FAD3
:102A8000013818EA000F4AD1296808983B464246A7
:102A900005F0B5FA00287FF475AF2FE02A6893425D
:102AA00001D000246FE73D4A126823449342C3D902
:102AB00068E7BA45089828BFBA4605F0D1FA40221F
:102AC00001460CA805F021FC524641460CA805F031
:102AD00011FC2968089853460CAA05F090FA0446A0
:102AE00000287FF450AF2B6853442B60D044A7EBF1
:102AF0000A07089805F0ADFAB842DAD996B92B68FA
:102B0000D9F8002033443B4493422B60C9D1214B78
:102B100008981A68114605F0F8FAC40F33E74FF029
:102B2000400AE6E7089805F09BFA082201460CA83F
:102B300005F0EBFB324608EB07010CA805F0DAFBC9
:102B4000DDF82080296840467C1805F082FA0CAA3E
:102B500003462146404605F052FA00287FF412AFA2
:102B6000CDE701240FE700BFE1A70000D39A0000E2
:102B7000F0A70000E7A70000DD9A0000ECA7000026
:102B8000D99A0000B0120020DEA70000A812002091
:102B9000AC120020A01200209C12002098120020ED
:102BA000F0B50C68164F174B85B002380D46C4F5CA
:102BB0008061009003AA38190131FFF7D3FA044667
:102BC000D0B92B68039A1344022B2B6011D93E888D
:102BD00076BAB6B2023B9E420BD13246B91C05F022
:102BE000B3FB30B9022E04D92B689A1E2A60FC541C
:102BF0000124204605B0F0BD4FF0FF34F9E700BFD7
:102C0000C4150020C719002007B500230093044A0B
:102C10000448A423022107F0EDF803B05DF804FB9B
:102C20001F150020B01200202DE9F0410729C0B087
:102C3000044640F25181037813F0050F40F04C81B7
:102C400043885BBAA1F108059BB2AB42C0F0448156
:102C5000AB4B186083885BBA838000F10806FFF7EE
:102C6000D3FFA788012F40F0E380E37923B1012B44
:102C700000F0D780082035E12678FEF7E9FD04460C
:102C800004F034FD204604F098FD06F007060146E6
:102C9000002840F0C4802046FEF7ECFC002840F0FD
:102CA000BB80002E40F0B18039469648964F07F021
:102CB00097F896499348062207F085F89148052130
:102CC00007F08AF8256AD7F80080002D6AD0202303
:102CD0000CAA0021284605F07DF98D4B0C9A9A42EA
:102CE0000CD10023CDE902330193402300932A46FF
:102CF0001CAB0CA92046FEF7D3FA8046854B1B6817
:102D000043454ED1002300932A464FF6FF730CA98A
:102D100006A804F095FB00285CD04FF0FF35142185
:102D2000784807F05DF87C497648042207F04BF8B4
:102D30007448314607F02EF84DB97849714804229D
:102D400007F041F86F48202214A907F033F87449BE
:102D50006C48072207F037F8BDF8463001939DF81C
:102D6000453000936F4A9DF8443040211CA800F084
:102D700029FD129B4BB1421E3E2A06D81CADC0F164
:102D80004001694A284400F01DFD1CA805F084FAA2
:102D90001CA902465B4807F016F85A48142107F0B0
:102DA00027F81EB9E56CD7F800808DB90521554884
:102DB00007F01AF80121534807F01AF8FFF7E8FC6A
:102DC000204604F0EDFC40B0BDE8F041FFF71CBF29
:102DD00001267CE70DF1120304AA05A906A804F058
:102DE0007DFB002899D1BDF81230102BF2D1BDF82F
:102DF0001030202B91D12846059914AA05F0EAF845
:102E0000051E18BF01256D4289E7204604F0C8FC65
:102E10000820FFF759FDD6E7204604F0C1FC012049
:102E2000F7E72946304640B0BDE8F041FFF768BDFE
:102E3000002F7FF41FAFE379012B52D0052B56D022
:102E4000002B7FF417AFCDE90C33CDE9013301231B
:102E500000931CA82B463246042106F008FF1CA84C
:102E600006F042FE00283AD014A91CA806F039FE4C
:102E7000002834D0159C012C21D1149B1B78642B85
:102E80001DD10CA91CA806F02CFE40B31CA806F00E
:102E900054FE20B30A211B4806F0A2FF234919481B
:102EA000224606F090FF17480CA906F080FF58B99B
:102EB0000224FFF7A9FE2046FFF706FD0CE00021E3
:102EC0001CA806F051FECDE70E480A2106F090FF3F
:102ED0000028EDD0FFF75CFC40B0BDE8F081032492
:102EE000E7E7384640B0BDE8F041FFF7EDBC3846B3
:102EF000FFF7EAFC0E4806F087FF012004F072FF9E
:102F0000F8120020B012002044000020F4A70000B6
:102F10003DB8F396D4090020FBA7000000A80000EC
:102F200005A800000DA8000019A800001DA80000B9
:102F300090D003002DE9F7432E4E2F4DDFF8C480CB
:102F4000012333702D4B002407460094186005F0D0
:102F500077F9DFF8B490C9F80056C4F58061C9F874
:102F60000456C9F80856C9F80C56C9F81056C9F8DD
:102F70001456C9F81856C9F81C563B6801AA013105
:102F800008EB040098470028019B00DC6BB3044465
:102F900053B940F201439C4223D1337813B903B0B3
:102FA000BDE8F0830024D6E798F80030062B0AD15C
:102FB00098F80130092B0CD1002300936946A01E1C
:102FC000FFF7EEFD05E0042B03D198F80130142B38
:102FD000F4D00128E1D1009909480239FFF724FE15
:102FE000DBE73378002BB6D1D9E73378002BAED1AD
:102FF000D5E700BFC31500203546526EFC120020F5
:10300000C6150020C51900200000014008B503487E
:10301000034A0021121A05F0EAF808BDA8010020B1
:10302000101E00200748084A084908B5121A05F082
:10303000E0F80748074A0849BDE80840121A05F0B9
:10304000D8B800BF40000020A801002028A9000037
:103050000000002040000020E8A8000030BFFFF77B
:10306000FDBF00BF134B9A6A12F0007F9A6A14BF2B
:103070001E201D2012F0807F9A6A18BF1F2012F4B4
:10308000002F9A6A18BF212012F4802F9A6A18BF65
:10309000222012F4003F9A6A18BF232012F4803FC6
:1030A0009A6A6FEA02426FEA12429A6218BF2420BB
:1030B000704700BF00ED00E010B5184B0246986A5B
:1030C0009C6A10F4805F14BF1720162014F4006F60
:1030D0009C6A18BF1820A40508D5986A000404D576
:1030E0001AB19A6A22F400429A6219200B4B9A6A2A
:1030F00012F4806F9A6A18BF1A20D2050CD49B6A0A
:1031000013F4005F18BF1C20044A936A43F47F4302
:10311000936200230B7010BD1B20F5E700ED00E06B
:1031200010B51C4B0246986A9C6A10F0100F14BF31
:103130001120102014F0080F9C6A18BF1220A40759
:1031400009D5586B986A000604D51AB19A6A22F01C
:1031500080029A6213200F4B9A6A12F0010F9A6A4A
:1031600018BF142012F0200F9A6A18BF1520D40639
:1031700058BF9B6A074B9A6A920642BF5A6A22F46A
:1031800000525A629A6A42F0FF029A6200230B7060
:1031900010BD00BF00ED00E070B5444B5B688AB025
:1031A0000646C3F30803002585F31188BFF36F8F2C
:1031B00002F07F40B0F17F4F11D102F00C000828DF
:1031C0000DD010074CBF0E4601250022033B8DF8A1
:1031D0000720032B05D8DFE803F01E5C60592E465C
:1031E000F3E700249DF807309BB92022314602A85E
:1031F00005F080F8099B002D53D0C3F3080222B9D3
:103200006FEA53236FEA4323099302A9204604F08F
:10321000F2FF0AB070BD254BDA6A9107E1D4DA6A91
:10322000002ADEDBDA6A5200DBD55A69B16942F462
:1032300080725A61BFF34F8FBFF36F8F5A6931F8B5
:10324000021C22F480725A61BFF34F8FBFF36F8F5D
:103250004DF60272914209D09A6AD2B242B10DF192
:1032600007010120FFF75CFF0446BBE73468B9E7BC
:103270009A6A12F47F4F05D00DF107010120FFF784
:103280001BFFF1E79B6AB3F5803FAAD3FFF7EAFE85
:10329000EAE70DF107010020E4E70DF10701002046
:1032A000EDE723F4FF7323F00103ADE700ED00E049
:1032B000044B5A6942F010025A615A6922F008021E
:1032C0005A61704700ED00E0EFF30880EFF30981E9
:1032D00001B57246FFF760FF01BD00BF002080F31B
:1032E0001488BFF36F8F0F4880F3088801F0EAFB62
:1032F00000200D490860BFF34F8F00F02BF820200D
:1033000080F3118809484FF40061401880F3098860
:10331000EFF314800221084380F31488BFF36F8F0A
:1033200000F0B2F8104E002094ED00E0101E0020D6
:103330000749D1F890200023C2F307221846934290
:1033400000DB7047C1F89830C1F8A0000133F6E700
:1033500000ED00E008B572B6002383F31388FFF791
:10336000E7FF144B4FF0FF32C3F88020C3F88420EE
:10337000C3F88820C3F88C20C3F89020C3F89420A9
:10338000C3F89820C3F89C20C3F88021C3F8842197
:10339000C3F88821C3F88C21C3F89021C3F8942185
:1033A000C3F89821C3F89C2162B6BFF34F8FBFF3D7
:1033B0006F8F08BD00E100E01EF0040F0CBFEFF3BB
:1033C0000880EFF30980816911F8021C0229FFD0FF
:1033D00001B5724604F015FF01BD00BF40B20028E0
:1033E00007DB044A4109012300F01F00834042F833
:1033F0002130704700E100E040B200280CDB4309B7
:10340000064900F01F0020330122824041F82320AA
:10341000BFF34F8FBFF36F8F704700BF00E100E035
:10342000054B420900F01F0053F82220012303FA44
:1034300000F01040704700BF00E100E040B20028FB
:10344000A8BF00F1604001F10101B8BF064B4FEA8F
:103450004111ACBF00F5614000F00F00C9B2B4BF2C
:10346000195480F80013704714ED00E0044B054A2E
:1034700023F07F039360BFF34F8FBFF36F8F7047CD
:103480000000000000ED00E008B5FFF7EFFF104B73
:10349000D3F8882022F47002C3F88820D3F888205B
:1034A00042F4A002C3F888204FF04042C3F834220F
:1034B000BFF34F8FBFF36F8F0023E1EE103AFFF79A
:1034C000A5FDFFF7AFFD00F025F802F0CBFA00BF35
:1034D00000ED00E080B5154606460C460022E1EE00
:1034E000102A084F87F3098800200449884720469E
:1034F00029461A46B04702488047FEE7238200006B
:1035000031820000104E0020014B10221A617047DA
:1035100000ED00E0044800232021C2180133302BC5
:1035200082F80013F9D1704700E100E008B5EFF32D
:103530000583064A103B02EBC30152F83300496889
:103540008847BDE8084004F067BE00BF58A00000EF
:10355000024B034A0348012100F066B80000042032
:10356000000000206CA30000084AC2F898000B6815
:1035700023F01F03034343F01003C2F89C308B6811
:1035800043F00103C2F8A030704700BF00ED00E037
:103590002DE9F043DFF8608085B00E461F460446F3
:1035A0004FF00009B14523DA6068D8B13FB1411E40
:1035B00008421BD11F2819D92368194216D1236844
:1035C000019304F059FEA36803430393D8F8905085
:1035D000C5F30725D0B2013DA84207D801A9FFF7DE
:1035E000C3FF421C09F101090C34DBE76FF015023F
:1035F000104605B0BDE8F08300ED00E0044B052265
:10360000C3F89420BFF34F8FBFF36F8F704700BF95
:1036100000ED00E0BFF35F8F024B0022C3F894205F
:10362000704700BF00ED00E010B5034C0123227885
:10363000FFF7AEFF207010BDC61D00202DE9F0433E
:103640005B4B5C4CD3F890302568C3F307239D4255
:1036500085B000F2A980FFF7DDFF00200C2685422F
:103660001BD1554C554F25706846FEF729FFDFF8F2
:103670004081DFF84C9106460025AE4214D12378F4
:103680004B490020D1F89020C2F307229342C0F2A8
:103690008580FFF7B3FF002045E0616806FB00115D
:1036A000FFF762FF0130DAE7009800EB05114FEAFF
:1036B000051CCB683B40B3F5000F4DD00AD8B3F5DD
:1036C000001F33D0B3F5800F3BD0B3F5801F13D06C
:1036D0000135D2E7B3F1007F47D0B3F1805F4DD021
:1036E000B3F1807FF4D150F80C3088684A6804F058
:1036F000C3FD40F0887009E050F80C3088684A68D3
:1037000004F0BAFD40F0885040F43020CDE90123A8
:103710000390D8F890302078C3F30723013B9842F8
:1037200035D96FF0150005B0BDE8F08350F80C30C6
:1037300088684A6804F0A0FD40F0885040F40020FA
:10374000E4E750F80C3088684A6804F095FD40F0D2
:10375000007040F40030D9E750F80C3088684A68AF
:1037600004F08AFD40F08270D0E750F80C30886891
:103770004A6804F081FD40F48020C7E750F80C301F
:1037800088684A6804F078FD40EA0900BEE701A9AC
:10379000FFF7EAFE23780133237099E7C1F89830E8
:1037A000C1F8A00001336DE74FF0FF30BBE700BF69
:1037B00000ED00E078A30000C61D00200000F0FF2F
:1037C000000002110CB410B586B009B90DF10B0060
:1037D0000024CDE9040109AB089A009404A9054826
:1037E0000393FCF7F9FD049B1C7006B0BDE8104084
:1037F00002B070471D830000044A0123C2F840351F
:103800004FF080420020C2F87835704700E0014058
:1038100048B1054B054A1B68B3FBF2F35843044B10
:1038200043F00103184770472801002040420F0071
:10383000D0A20000BFF34F8F0549064BCA6802F4BF
:10384000E0621343CB60BFF34F8F00BFFDE700BFC3
:1038500000ED00E00400FA0508B50448044A3F23DF
:10386000C0E9002301F01AFA002008BD001300206F
:10387000FFFF0F00084B70B5C31A0D4607499B1098
:10388000044659430648402204F07BFD2B4601467E
:103890002046BDE8704018471C130020B76DDBB60A
:1038A000949F000073B50C4C0C4A4023041B0093FA
:1038B0000D460B460A49A41061430646094804F028
:1038C0008CFD011E05DA30462B4602B0BDE8704083
:1038D000184702B070BD00BF1C1300204B840000CD
:1038E000B76DDBB6949F00000022F8B501210546B4
:1038F0001046FFF7A3FD104801F0F8F90446B8B9E7
:1039000001F014FA2F690D49384604F0CCFA031E71
:1039100009DB01263E642D69084905F11C0004F00D
:10392000C2FA031E02DA1C462046F8BDEE64FBE72D
:103930006FF00404F8E700BF3D3A000098A30000D0
:1039400010B5EFF31184202383F31288BFF36F8F38
:10395000074A136823F00201DB07116002D401203B
:1039600005F0CAFB84F31188BFF36F8F10BD00BF51
:103970006C13002030B4104B0C2202FB00330146C4
:103980000020D3E90E529863EFF31180202484F3D2
:103990001288BFF36F8F1C6C04F0C00444F0020463
:1039A0001C6480F31188BFF36F8F1DB12B46034851
:1039B00030BC184730BC70471C130020949F000097
:1039C00010B4EFF31182202383F31288BFF36F8FBB
:1039D0001848016841F002040460C80708D482F363
:1039E0001188BFF36F8F01205DF8044B05F07CBB9D
:1039F0004FF08041D1F80C04D1F80C14C907EED572
:103A0000EFF3118083F31288BFF36F8F0A490B6CB9
:103A100003F0C00343F002030B6480F31188BFF38B
:103A20006F8F82F31188BFF36F8F00205DF8044B16
:103A3000FFF7A0BF6C1300201C13002010B1012859
:103A400004D07047034B1B6C5B0701D1FFF792BF9B
:103A5000704700BF1C130020F8B52549BFF35B8FEA
:103A60000646012251E8003F41E800200028F9D134
:103A7000BFF35B8F33B91F491F484B60CB608A602F
:103A800004F024FA731E012B1DD806F0FEF904463B
:103A9000D0B91A4B1B78BBB14FF080430222C3F858
:103AA000082305464FF08047D7F81824D7F8183474
:103AB000D20312D59B0701D0012E0ED18CB185F314
:103AC0001188BFF36F8FF8BDEFF31185202383F3C7
:103AD0001288BFF36F8F0124E4E7284604F0BDFB92
:103AE000E2E74FF080430222C3F80423EBE700BF74
:103AF0001813002008130020381300200C1E00208B
:103B0000024B0B6001231360704700BF20A400002C
:103B100000487047B4A300000268154BFF2A08BF95
:103B20004FF0FF32C3F824254268FF2A08BF4FF048
:103B3000FF32C3F828258268FF2A08BF4FF0FF3202
:103B4000C3F83025C268FF2A08BF4FF0FF32C3F820
:103B500034250269FF2A08BF4FF0FF32C3F8382529
:103B60004269FF2A08BF4FF0FF32C3F83C25704777
:103B7000009002402DE9F04743685D6B90B0074626
:103B80000AAA0021284604F055FF041E6BDB0A9B9D
:103B90002A681979186800F019FB041E63DB0022FB
:103BA00001212920FFF74AFCD7F804803A695349DC
:103BB000404601F0CFFD041E50DB514D0FCD0AAC45
:103BC0000FC495E8030000230DF10409019384E874
:103BD0000300C9E90133AB238DF80430494BD3F816
:103BE0002425D2B20492D3F82825D2B20592D3F874
:103BF0003025D2B20692D3F83425D2B20792D3F848
:103C00003825D2B20892D3F83C350AA8DBB2099322
:103C1000FFF782FF012001F00DFE04AD06462846A5
:103C2000FFF77AFF1EBB3146484604F08AFC041EAB
:103C300014DB232006F0E8F84FF0030A9F233146F7
:103C40000AA8CDE90A66CDF81090CDF814A08DF839
:103C500028300C9504F075FC041E0BDA01F006FE0A
:103C600008B101F0F3FD204610B0BDE8F0876FF019
:103C70000404F3E75246494608F1300004F013FB10
:103C80000446002834D17A68537F023B012B2DD99A
:103C9000167F023E022E8CBF0026012604F07EFC19
:103CA000002828DBC2B2C0F380108642D6D00023A1
:103CB000012182F040020AA8ADF800300A938DF885
:103CC0000020CDF810D005910C938DF828100B959D
:103CD00004F037FC04460028C0D104F05FFC041E49
:103CE00001DBE307F9D404EAE474B7E70126D5E77A
:103CF0006FF01204B2E70446B0E700BF2D85000064
:103D000090A2000000900240024B0B600123136060
:103D1000704700BF781300200048704728A40000B7
:103D200010B505F0EBFC034C206005F0E3FC60608F
:103D3000002010BD781300204FF08042D2F81015FB
:103D4000D2F8103501F01E0123F01F030B4343F09E
:103D50000103C2F81035024B00221A70704700BFF1
:103D6000C71D00204FF08053D3F83031082B20D1ED
:103D70004FF08042D2F81015CB071AD5D2F8103583
:103D800001F01E0123F01F030B43C2F81035D2F8D7
:103D900008315BB1D2F8103523F01F030B4343F019
:103DA0000103C2F810356FF08B007047024B0122FF
:103DB0001A700020704700BFC71D00202DE9F04198
:103DC0000D46164605F096FC31460746284604F097
:103DD000B5FD28B3B5FBF7F307FB135303BBB6FBE5
:103DE000F7F407FB1464DCB9B74213D805F082FC82
:103DF000DFF834800746FFF7B5FF044668B9284668
:103E000001F050FA98F800300BB1FFF795FFF61B60
:103E10003D44F0D12046BDE8F0816FF08B04F9E716
:103E20006FF01504F6E700BFC71D00202DE9F84329
:103E30000E463046194617461C4604F07FFD30B347
:103E400044EA060515F0030521D11CB3DFF84C90B8
:103E50006319032BA6EB050807D80F4AD2F80034E4
:103E6000DB07FBD50020BDE8F883FFF77BFF58B9DF
:103E70007B1B4046196801F031FA99F800300BB10C
:103E8000FFF75AFF043DE3E76FF08B00EBE76FF0BD
:103E90001500E8E72046E6E700E00140C71D0020E6
:103EA000F0B544681646A068227C01F01F0587B073
:103EB00045EA421500286DD0B6F5001F04D1294609
:103EC00005F010FC002056E06268607CC2F8240512
:103ED00001AA0020B6F5800F0190506037D1B3F1F0
:103EE000007F14BF052304238DF804300023CDE99F
:103EF00004230393E36823FA01F111F001010DF1AA
:103F000003073AD1B6F1A07F37D105F01F036A0944
:103F100003F5E07326D0012A3FD1214A52F823301D
:103F2000DB072AD4A0683A46294605F051FB163033
:103F30001BD00297A06803AA294605F015FA0028AD
:103F400019DBA0680122294605F079FBBAE7B3F135
:103F5000C06F05D0B3F1007F14BF01230223C3E774
:103F60000323C1E74FF0A042D8E7A068394601F02B
:103F700099F80028DDDA07B0F0BDA0683A46294676
:103F800005F026FB0028D5D19DF80310A06801F0AC
:103F900083F8CFE76FF08500EDE751F82330FFDEBF
:103FA00000030050420970B5034602D0012A17D021
:103FB00070BD0D4E326951680029F9D003F01F031E
:103FC00001250C689D400029F2D08A682A4002D061
:103FD0004B68304698472CB1236821461C46F2E7CF
:103FE000024EE7E72346F8E7CC9F0000B09F0000B1
:103FF00038B54568A86890B105F019FB014670B95D
:10400000A86805F0F8FA044658B902460649A868B7
:1040100005F0DBFA224605210620FFF70FFA002003
:1040200038BD6FF00400FBE7A53F00002DE9F04329
:10403000476840F20636D0063B7C87B002EA0606A7
:1040400054BFC2F3401C4FF0030C01F01F05B6F53E
:10405000837F144645EA43158DF803C045D00DD83B
:10406000062E16D005D8A6B1022E40D06FF015004E
:1040700038E0B6F5807FF9D101260AE040F202224D
:10408000964236D0B6F5407F35D0B6F5007FEDD1FB
:1040900002260123220303FA01F12ED57B68C3F81F
:1040A0000815B86890BB05F01F036D092BD0012DD2
:1040B00075D13D4A02EB830284F48033D2F80017B5
:1040C000C3F30043C4F3404444EA430421F4E161F0
:1040D00044EA8C0421F0070144EA06230B43C2F8AA
:1040E0000037002007B0BDE8F0830726D1E704269B
:1040F000CFE70526CDE70326CBE7630344BF7B6804
:10410000C3F80C15CDE74FF0A042D3E70DF1020242
:10411000294605F05DFA14F4403F80460CD1B8689A
:10412000294605F08AFAB8F1000FDAD19DF802109D
:10413000B86800F0B1FFD4E74FF0000901ABCDE95A
:104140000199CDE90439CDF80C90B86803AA294645
:1041500005F00AF94845C4DB14F4003314D084F4A4
:1041600080349DF803308DF80E30C4F300448DF890
:104170000C608DF80D40B8684B4603AA294605F03F
:10418000ABF90028CFDAACE7CDE904330DF1030336
:104190000393B86803AA294605F0E6F8F1E703F5AA
:1041A000E07350F82330FFDE00030050036803F093
:1041B0001F025B09026004D0012B034818BF0020D6
:1041C00070474FF0A0407047000300502DE9F04FBA
:1041D000DFF89491DFF894A185B01546834600EB93
:1041E000810140F2FF18594503D1002005B0BDE818
:1041F000F08FDBF800305E04C3F3C322C3F308047E
:1042000000F1AC801B0E19F80270444508BF4FF056
:10421000FF34222B00F2A580DFE803F012191F22E1
:10422000252B22A3A3A3A33B68A3A3A3A3A3A3A378
:10423000A3A36B818487A3A3A38A9194979A9D00DB
:10424000C5F80C45601C5ED10BF1040BCBE7C5F83B
:104250001445621CF8D000265FE0C5F80845F1E778
:10426000C5F81045F5E7631CC5F80845ECD00026F5
:1042700004E0661CC5F80C45E6D0012603A80394AB
:10428000FFF794FF039B012202FA03F3C0F80C35F9
:1042900008E0C5F80845002FDBD1631CD4D0002608
:1042A00032460627DBF80030019303F40040002873
:1042B00018BF002203A8009218BF01260394FFF73D
:1042C00075FF039C019B009A00EB8400C3F3412C13
:1042D000D0F800473B0243EA8C03134304EA0A0484
:1042E000234343EA4603C0F80037ADE7C5F80C4561
:1042F000D1E7C5F86045601CDBF80030A4D0C3F3FB
:104300000043002BB9D003A80394FFF74FFF039B92
:10431000012606FA03F3C0F808353246C2E7C5F8AD
:104320006445E8E7C5F86845E5E7C5F86C45E2E7A8
:10433000C5F82445621C87D000220126B2E7C5F8E3
:1043400028457FE7C5F83045F4E7C5F83445F1E77F
:10435000C5F83845EEE7C5F83C4573E76FF0150042
:1043600044E76FF0850041E780A80000F0F8FCFF0B
:104370002DE9F041044647680D4605F086FD88B1F9
:104380004FF02008EFF31186314688F31288BFF30F
:104390006F8F606804F010FC30BB86F31188BFF3A8
:1043A0006F8FEFE71D4B1B78002BE9D04FF02008F3
:1043B0006426606804F000FC50B9012004F041FE5E
:1043C000013EF6D1F4E786F31188BFF36F8FEFE774
:1043D000EFF31186314688F31288BFF36F8F606860
:1043E00004F0EAFB0028EED0BB691D706368BA696F
:1043F0001B680020C3F844250122C3F84825C3F8F0
:104400002001D3F82041C3F85801D3F858019A602D
:1044100081F31188BFF36F8FBDE8F0810C1E00207F
:10442000684620F007018D4601B5044804F0D4FB2E
:1044300003F0F2FEBDE801408546704704A000008D
:10444000684620F007018D4601B5044804F0C4FB1E
:1044500003F0E2FEBDE8014085467047E89F00009A
:1044600070B5012383400E4ABFF35B8FDC4352E8F3
:10447000001F01EA040542E80056002EF7D1BFF301
:104480005B8F4FF4803282400648C0F80823BFF3A8
:104490005F8FBFF36F8F0B4214BF0120002070BDF0
:1044A0009C1300200010014070B40E49D1E9003483
:1044B000D01AC31844F1000422F07F46C1E9003449
:1044C000A6F50013B3F5400F09D2074B1B681A0A73
:1044D0001B069C19054B42F10005C3E9004570BC61
:1044E00001F028BBB8010020A0130020C00100206B
:1044F00011B3BFF35B8F0123104A834052E800CF12
:104500004CEA030C42E800C10029F7D1BFF35B8FEE
:104510000B4A4FF480338340C2F80433094BBFF396
:104520005B8F1B68BFF35B8FC340DB0742BF064B4B
:104530004FF40032C3F80021704700BF9C130020E5
:10454000001001409813002000E100E00D4B1868B6
:10455000010A0006BFF35F8F0B4BD3F80435181820
:1045600041F10001B3F5801F0AD2084BD3E90023C3
:10457000904271EB030303D210F1807041F100010E
:10458000704700BFA013002000100140C0010020B0
:104590002DE9F04F85B016461F469DF840A0044611
:1045A000FFF75EFF0190FFF7D1FFB04271EB070309
:1045B00054D23E4B301A67EB0101984271F1000171
:1045C0004FD23B4B03EB0413D3E902239F4208BFB6
:1045D00096425ED037494FF4803804F1500508FA0E
:1045E00004F8AD00C1F848832046ADB204F01AFCCF
:1045F00026F07F4B05F1804504F5A87305F5883555
:10460000DC464FF003090293029A2CF07F4341F8F5
:104610002230C1F84483D1F80435274A6FF00200F4
:10462000C01A604420F07F40904232D9286868B1B7
:10463000D1F804350393A3EB0B0020F07F40B0F5D5
:10464000000F26D9204604F0EDFB039BBAF1000FC2
:1046500007D109EB030C09F10109D5E7BAF1000F05
:1046600009D06FF0150520460199FFF741FF284654
:1046700005B0BDE8F08F0123104ABFF35B8FA34064
:1046800052E8000F184342E800010029F8D1BFF3B7
:104690005B8F07490E98230101EB0412C8500F9B52
:1046A0005360C2E902670025DDE700BF010080001A
:1046B000A801002000100140FDFF7F00981300209A
:1046C0007FB51C4C1C4BC4F80833C4F848331B4B53
:1046D00000254FF0FF304FF0FF31C4F80855C3E913
:1046E00002014FF48033C4F80433154B02264FF413
:1046F00000320121C4F804631120C3F880212A4646
:10470000FEF79CFE1120FEF769FE0E4A0123A3600E
:10471000236013600C4B0D4A0093CDE90155002333
:104720002846FFF735FF3046FFF796F9284604B0D4
:1047300070BD00BF0010014003000F00A801002061
:1047400000E100E09C130020A9440000FFFF7F006F
:104750002DE9F7432F4CD4F8043399070BD5D4F83F
:10476000043143B12C4A0023C4F80431D4F8043195
:10477000136801331360D4F80433DA0329D5BFF387
:104780005B8F264B53E8002F22F0010143E8001015
:104790000028F7D1BFF35B8FD30702D4D4F84031A0
:1047A000BBB10025C4F84051D4F84031FFF7CEFE2C
:1047B000EFF31182202383F31288BFF36F8F184B1E
:1047C000D3E90267B042B94106D282F31188BFF340
:1047D0006F8F03B0BDE8F0834FF0FF384FF0FF3923
:1047E000C3E90289D3E900101D604FF48033C4F897
:1047F0004833C4F84051D4F8403182F31188BFF3F4
:104800006F8F0029E5D0009032463B462846884706
:10481000DFE700BF00100140A01300209813002024
:10482000A801002030B5431C124C85B005D084424D
:10483000A8BF0446012CB8BF0124FFF787FE0E4B2A
:104840000C4DD3E90013401AB0F5000F10D2221816
:10485000AA4228BF2A4652184FF00000074900918B
:10486000CDE9010043F10003FFF792FE05B030BD32
:104870002A46F0E7FFFF7F00B8010020A9440000AE
:1048800008B5FFF763FE024B1B68C01A08BD00BFE6
:10489000B801002010B5084C012363601120FEF719
:1048A000ABFD064BC4F80833C4F84833044B4FF44F
:1048B0000032C3F8802110BD0010014003000F003A
:1048C00000E100E030B50C490C4D0B6802460024B5
:1048D00005EB0310D0F80808C0B218B904B10B609A
:1048E000002007E00133072B4FF00104F0D90B60E3
:1048F0006FF01B00136030BDA413002000E00140E6
:1049000030B5816885B0103921F00704054603F001
:10491000A7FB10220146684603F0F7FC0749102266
:10492000684603F0E7FC10236A462146284603F058
:1049300066FB003818BF012005B030BD9AA6000004
:1049400030B50D46816887B0102302AA103904469D
:1049500003F040FB002802DA012007B030BD10222E
:1049600002A9204604F0CBFA00283AD11E491022B1
:1049700002A803F098FC00280CBF012302232B702F
:10498000204604F0A8FA012301460DF10702204653
:1049900003F020FB0028DFDB9DF8073003F00F0257
:1049A0001B096A702B7101220DF10701204604F0EA
:1049B000A6FA10B96B78042B03D901236B7000237E
:1049C0002B71A268183A22F00702083AA91C204667
:1049D00004F0A8FA0028BFD1E91C204604F0FBFA35
:1049E000BBE70323CBE700BF9AA600007FB5264DA7
:1049F0004400694655F8240004F0F3FA002835D144
:104A0000013402A955F8240004F0EBFA01282BD157
:104A100003238DF808308DF80B309DF800509DF879
:104A200008601A4A00241078294604F05AFA18B38C
:104A30005078314604F055FAF0B19378042B03D046
:104A40009DF80310994217D1D378042B03D09DF819
:104A50000B10994210D11379042B09D15079831E80
:104A6000022B03D804B070BD0028D6D0FF20F9E790
:104A70009DF802109942F1D00134032C02F1060294
:104A8000D1D10120EEE700BFE0A40000A4A80000FF
:104A90004FF08053D3F83021082A06D1D3F83431AF
:104AA000052B02D8024AD05C70470020704700BF37
:104AB000BCA80000024AD2F80034002BFBD070479B
:104AC00000E0014010B54FF08053D3F83021082AA0
:104AD0004ED14FF080420021C2F80C11C2F81011E3
:104AE000C2F8381502F54042D3F80414C2F8201574
:104AF000D3F80814C2F82415D3F80C14C2F82815FA
:104B0000D3F81014C2F82C15D3F81414C2F83015C9
:104B1000D3F81814C2F83415D3F81C14C2F8401591
:104B2000D3F82014C2F84415D3F82414C2F8481559
:104B3000D3F82814C2F84C15D3F82C14C2F8501529
:104B4000D3F83014C2F85415D3F83414C2F86015F1
:104B5000D3F83814C2F86415D3F83C14C2F86815B9
:104B6000D3F84014C2F86C15D3F84434C2F8703549
:104B7000FFF78EFF18B1414B414AC3F88C26FFF76F
:104B800087FF18B13F4BFB22C3F81825FFF780FFC2
:104B900070B14FF080414FF08053D1F8E42ED3F83C
:104BA000583222F00F0203F00F031343C1F8E43E22
:104BB000FFF76EFF20B1344B4FF40072C3F840266C
:104BC0004FF08053D3F83031082B09D14FF0804398
:104BD000D3F80024D20744BF6FF00102C3F80024C9
:104BE0002A4AD2F8883043F47003C2F88830BFF301
:104BF0004F8FBFF36F8F4FF08053D3F83021082AC7
:104C00000ED1D3F83431052B02D8214AD35C3BB105
:104C10004FF01023D3F808224FF08043C3F85825F3
:104C20004FF01023D3F80022002A03DBD3F804321C
:104C3000002B22DA174901234FF01020C1F8043568
:104C40001224FFF737FFC0F80042FFF733FFC0F828
:104C50000442FFF72FFF0023C1F80435FFF72AFFB6
:104C6000BFF34F8F09490C4BCA6802F4E06213434B
:104C7000CB60BFF34F8F00BFFDE710BD0050004079
:104C80004881030000F000400090024000ED00E089
:104C9000B6A8000000E001400400FA05014B1860CE
:104CA000704700BFA813002010B5054B18681446C4
:104CB00004F0C9F90028A4BF2070002010BD00BF77
:104CC000A8130020024A01238340C2F8043570472C
:104CD00000F00140014B00201B681847AC13002076
:104CE000014B1B68184700BFAC13002010B50C4CDB
:104CF000237993B9012323710A4B2060002818BF40
:104D0000184600F05BF850B923680748002BBDE84F
:104D1000104008BF184600F0B3B86FF0770010BD20
:104D2000AC130020D54C0000E14C000008B5064B48
:104D30001B683BB10020FEF773FB18B9BDE80840C3
:104D4000FEF74CBB08BD00BFAC1300204FF08053F2
:104D5000D3F83021082A06D1D3F83431052B02D8F4
:104D6000024AD05C70470020704700BFC2A8000014
:104D700038B54FF080440123C4F808336360002342
:104D8000C4F80031D4F8003142F21075D4F80C2484
:104D9000D4F80C34D20307D5DB0705D5012004F085
:104DA00050F9013DF2D138BDFFF7D0FF0028FAD00D
:104DB000014B00225A71F6E7B413002010B50849E0
:104DC0000C794CB9012308600B71FFF7BFFF08B9DC
:104DD000002010BD4C71FBE76FF07700F9E700BFD2
:104DE000B41300204FF080430022C3F80021D3F811
:104DF0000021094901221A60096811B1C3F804238E
:104E00007047D3F80021002AFBD00022C3F800210C
:104E1000D3F80031704700BFB413002010B54FF035
:104E20008043D3F80423D20715D5D3F8002192B1DB
:104E30000022C3F800210121D3F80021C3F8081390
:104E4000FFF784FF044B10B15A7922B95971BDE8BC
:104E500010401B68184710BDB41300204FF080535A
:104E6000D3F83021082A06D1D3F83431052B02D8E3
:104E7000024AD05C70470020704700BFC8A80000FD
:104E8000074A13794BB901215371106011714FF02A
:104E900080421846C2F8183570476FF077007047A7
:104EA000BC13002010B54FF080431B4CD3F81814EE
:104EB000D3F8182411F4803F15D0900701D004F0E6
:104EC0002CF94FF080430022C3F81825C3F80421C1
:104ED000D3F8042101229A60226872B9D3F8042120
:104EE000002AFBD011E0D3F81424D107E9D5D3F878
:104EF0001C249207E3D122681AB10222C3F80423CA
:104F000010BDD3F80421002AFBD00022C3F80421ED
:104F1000D3F80431F4E700BFBC1300202DE9F041C1
:104F20004FF08043164FD3F80443012604F01A04CF
:104F300000250CB9BDE8F081B4FA84F1C1F11F017C
:104F40008B0003F580739BB203F1804306FA01F2F4
:104F5000186824EA02040028EBD04FF080481D6056
:104F600003291B68C8F8082305D1FFF777FF08B1AC
:104F7000C8F8345C7D713B68C8B29847D9E700BF78
:104F8000BC130020036803F01F025B09026004D019
:104F9000012B034818BF002070474FF0A040704716
:104FA00000030050034A430900F01F00D35C18447B
:104FB000C0B27047CEA80000034611F0010030B522
:104FC000CCB213D1A207C4F3400020D5124AD2F8C4
:104FD000200558604FF08053C2F82005D3F83031D7
:104FE000082B15D0003818BF012010E04FF0A04169
:104FF0004FF08055D1F820251A60C1F82025D5F84A
:105000003051082D08BFD1F82015002ADAD030BD64
:10501000D2F82035E6E700BF00030050F7B504469C
:105020000846FFF7BFFF06B204EB46060D46B38AFB
:10503000DB072BD5204604F074F92946204604F0FE
:10504000DFF858B1204604F0F1F8276800B207EB0A
:1050500080030022C3F81025C3F8102529462046F6
:1050600004F00DF90021B18201A80195FFF78AFF34
:10507000019B00EB8300074BD0F80027134043F05F
:105080000203C0F80037084603B0F0BD6FF015000A
:10509000FAE700BFF0F8FCFF014803F0F2BF00BFE1
:1050A0002C01002010B504480C4603F0CCFF00286A
:1050B000A4BF2070002010BD2C0100202DE9F04F6E
:1050C000804689B058F804ABDAF80413C9B28346B5
:1050D000082241F00041504604F0FBF8051E2BDA8F
:1050E0000023032106A8CDE90633FFF765FF644BD3
:1050F00001930DF118090023019A009312F8013B66
:1051000060490192DA0803F007038A5C22FA03F38C
:10511000DA071AD4009B09F10409A3B14FF000414A
:105120000022504604F0D5F8032106A8FFF744FFFB
:105130000028DCD125F000450124002D40F08A80B4
:1051400009B0BDE8F08F0123D6E7009B4E4A134417
:105150000293D9F800100029DCD0029B91FAA1F14A
:105160001C78B1FA81F141EA44142046FFF71AFF96
:105170000BEB40000594878AC808BB0819F800208B
:10518000039301F00701012303FA01F122EA01026E
:1051900009F8002005A8FFF7F5FE059A039B02F524
:1051A000E072C7F3820650F822205B073746C2F34D
:1051B000014233D5D6B240463A46214604F040F883
:1051C00005A80594FFF7DEFE059B03F5E07350F894
:1051D0002330C3F301439E4207D10021204604F04F
:1051E00000F83146204603F0FCFF05A80594FFF7C0
:1051F000C9FE059B012202FA03F3C0F820354FF0E7
:105200008053D3F83031082B01BFD0F82035D0F8C7
:105210002035D0F82035D0F820359AE7022A0DD174
:105220000321204603F0DDFF06F00503012BDCD14E
:105230003A462146404604F003F8D6E702212046CC
:10524000039203F0CEFF032EF2D0039A032ACCD1AF
:10525000022EECE795FAA5F3B3FA83F304FA03F20E
:1052600025EA020503F5A2720BEB43035AF822204C
:10527000B3F87C10C2F30142404603F0E1FF5CE763
:10528000DEA80000ECA40000DEA80000044AD2F86A
:105290000034DB07FBD50160BFF35F8F704700BFB1
:1052A00000E001404FF080531A69B0FBF2F302FBBB
:1052B00013036BB9084B0222C3F80425C3F8080591
:1052C000D3F80024D207FBD50020C3F804057047AB
:1052D0006FF00C00704700BF00E0014010B5054CB6
:1052E0000123C4F80435FFF7D1FF0023C4F80435C7
:1052F00010BD00BF00E0014070B5114D6C6BA4B152
:105300004FF47A735C430A23B4FBF3F40D4ED6F8E2
:1053100000316BB995F8393053B90A2003F091FE8A
:10532000013CF4D16FF0730070BD4CF25034EDE7E6
:1053300095F8393003F0FF00002BF5D0F2E700BFFD
:10534000C413002000900240084B10B50022012435
:10535000C3F80045C3F800211C6028B1FFF7CCFF5B
:1053600018B9034B83F83840002010BD009002406C
:10537000C413002070B500F06044B4F1005F5DD14B
:1053800084075BD1304C94F83050012D05D09D42FC
:1053900057D194F83850002D53D02C4D022B0BBF11
:1053A000C5F81025C5F80425C5F81405C5F8080585
:1053B0000CBFC5F81815C5F80C154FF0000684F899
:1053C000396026680CBF08250425BEB994F838302A
:1053D0006BB11E4B05F1804505F524350022C3F85D
:1053E000002101232B60BDE87040FFF785BF01203D
:1053F000FFF7AAFF10F1740FEBD170BDA66826B1BC
:10540000E0606161E2610020F7E7A2610F4A84F881
:1054100030300123A0602161C2F80061C2F804337A
:1054200094F8382002F0FF0012B9FFF78DFFEAE789
:1054300005F1804505F524352B60E4E76FF00C009D
:10544000DBE76FF00F00D8E7C413002000900240A4
:10545000084B9A685A621A699A629A69DA62DA683B
:105460009A6032B15A691A61DA699A610022DA6087
:1054700070477047C413002000F01F0340090FD08D
:10548000012810D10B4A02EB83020B4BD2F8000724
:10549000034043EA012343F00203C2F80037704798
:1054A0004FF0A042EFE7002203F5E07352F82330FB
:1054B000FFDE00BF00030050F0F8FCFF10B50E4BFC
:1054C0000238D3F83C26D3F83836072813D8DFE85B
:1054D00000F0110F0D0B0A080604100EC871100C15
:1054E0008871100A48710A711A0ECA701A0C8A70F3
:1054F0001A0A4A700B7010BD00900240023807284B
:105500001FD8DFE800F02927251123211F04CB79BC
:105510001B068A7943EA02434A7943EA02230A795D
:1055200013430E4AC2F83C36CB781B068A7843EA0E
:1055300002434A7843EA02230A781343074AC2F82F
:10554000383670470023E4E70023E5E70023E6E769
:105550000023EBE70023ECE70023EDE70090024097
:105560000268154BFF2A08BF4FF0FF32C3F824250D
:105570004268FF2A08BF4FF0FF32C3F8282582682F
:10558000FF2A08BF4FF0FF32C3F83025C268FF2A58
:1055900008BF4FF0FF32C3F834250269FF2A08BF65
:1055A0004FF0FF32C3F838254269FF2A08BF4FF099
:1055B000FF32C3F83C2570470090024030B5194DCA
:1055C0000FCD8DB006AC0FC495E8030084E803004E
:1055D0001549D1F82435DBB20093D1F82835DBB278
:1055E0000193D1F83035DBB20293D1F83435DBB218
:1055F0000393D1F83835DBB20493D1F83C3506A8D3
:10560000DBB20593FFF7ACFF0023C1F800310123A3
:105610000B60D1F80031002BFBD06846FFF7A0FFEC
:105620000DB030BDA8A200000090024070B590F807
:105630002930044613B190F82A204ABB6068FF283D
:1056400067D0A268FF2A64D0E268FF2A61D022698D
:10565000FF2A5ED0B3B90321FFF70EFFA068FFF762
:105660000BFFE068FFF708FF2069FFF705FF60699F
:10567000FF2801D0FFF700FFA069FF2802D0032117
:10568000FFF7FAFE94F82A3013B9201DFFF768FFE0
:10569000214E636A736394F8293086F83A304FF0EC
:1056A00080531E4DD3F83031082B04D10123C5F8A7
:1056B0000833FFF783FF2368C5F84035A37F617F78
:1056C000227F9B0143EAC1031343E27F43EAC213F3
:1056D000C5F84435D5F8002694F8203022F07F42F2
:1056E00022F0FF02134394F8212043EA026394F866
:1056F000222043EA426394F8232043EA0273C5F868
:10570000003633680BB9002070BD2920FDF766FE16
:10571000F9E76FF01500F7E7C4130020009002408E
:105720000A4B002283F83820094B01214FF08050AA
:10573000C3F808131961D0F83001082808BF59656B
:10574000C3F80025C3F80021704700BFC413002030
:105750000090024038B50C4C94F8305085B9C4E93B
:10576000001240B90020C4E90200012384F830305F
:1057700084F8380038BDFFF759FF0028F2D0F9E768
:105780006FF07700F6E700BFC41300202DE9F04169
:10579000DFF89C80064698F8300001280F46144632
:1057A00040D198F8383083B3204D0123C5F8083331
:1057B0004FF08053D3F83031082B01D1FFF7FEFEB4
:1057C0001FB170783946FFF799FE002788F83970C5
:1057D000C5F80071B37872781B0343EA022332786C
:1057E0001343F27843EA4233327943EA82337279DF
:1057F00043EAC233C5F83436FFF77EFD743008D073
:10580000C5F800714CB9002005E0FFF79DFD74302C
:10581000CAD16FF07300BDE8F08170782146FFF7C0
:105820004DFEF0E76FF00F00F5E700BF009002407B
:10583000C4130020044B93F838300BB9FFF784BD34
:105840006FF07700704700BFC413002008B5064B07
:1058500093F83030012B03D1FFF762FF002008BD21
:105860006FF00F00FBE700BFC4130020034B93F859
:105870003000003818BF0120704700BFC41300205B
:1058800038B511F0030539D11F4B1A68D2B193F81E
:105890003040012C35D11D4AC2F81C150421C2F834
:1058A000200583F8395083F83010C2F80051C2F84F
:1058B000044393F8383003F0FF00EBB9FFF744FDE1
:1058C000002018E0114CC4F81C15C4F8200583F81A
:1058D000392093F8383043B10023C4F80031012354
:1058E000E360BDE83840FFF707BD0120FFF72CFD5E
:1058F00010F1740FF0D138BDD460E1E76FF00C0007
:10590000F9E76FF00F00F6E7C413002000900240A3
:1059100010B5224BD3F8002192B1214C0022C3F8DC
:10592000002194F8381094F8302071B90121032A2D
:1059300084F8381005D0042A05D0022A00D19960D5
:1059400010BD5960FCE7D960FAE7032A19D0042A90
:1059500019D0022A04D1012384F82030FFF778FD02
:10596000A36813B9012384F8303094F8393003F078
:10597000FF0013B9D4E900319847002384F82030A0
:10598000DEE70223E8E7032284F82020D3F81C2571
:105990006262D3F8203584F82830E1E700900240B5
:1059A000C413002070B516461D465A1C03681344E4
:1059B000C2689A42044605D2006A082104F059F9E7
:1059C000002070BD32783DB1AB1E062B9ABF0C4A49
:1059D000D35C00231833DAB2204604F04DF90028D6
:1059E000EED03544B54203D1A3680133A360E8E7A4
:1059F00023685A1C226015F8012D1A70F2E700BFC7
:105A0000E0A8000038B50A4B53F82040013053F8A5
:105A10002050A54200D838BD606830B1037EDB0756
:105A200001D404F0F5F90834F3E723689847FAE75E
:105A3000F0A4000008B5094B012203201A70FFF7FB
:105A4000E1FF04F041FA0420FFF7DCFFFBF750FB15
:105A5000034A137B23F00103137308BD0C1E0020BF
:105A6000C801002008B50020FFF7CCFF174B83F3D7
:105A70000888174C636943F4007363610025E023D1
:105A800084F82230E57725766576A57684F820506F
:105A9000636A43F4E023636284F82350FDF708FC53
:105AA000FDF732FD4FF0FF33A362E362FDF7C6FD61
:105AB000FDF74EFD0120FFF7A5FF0220FFF7A2FF33
:105AC00004482B462A462946FDF704FD10260020EF
:105AD00000ED00E0355A0000024B1868984208BFFC
